{
  "_format": "hh-sol-artifact-1",
  "contractName": "FileShareToken",
  "sourceName": "contracts/FileShareToken.sol",
  "abi": [
    {
      "inputs": [],
      "stateMutability": "nonpayable",
      "type": "constructor"
    },
    {
      "anonymous": false,
      "inputs": [
        {
          "indexed": true,
          "internalType": "address",
          "name": "owner",
          "type": "address"
        },
        {
          "indexed": true,
          "internalType": "address",
          "name": "spender",
          "type": "address"
        },
        {
          "indexed": false,
          "internalType": "uint256",
          "name": "value",
          "type": "uint256"
        }
      ],
      "name": "Approval",
      "type": "event"
    },
    {
      "anonymous": false,
      "inputs": [
        {
          "indexed": true,
          "internalType": "address",
          "name": "from",
          "type": "address"
        },
        {
          "indexed": true,
          "internalType": "address",
          "name": "to",
          "type": "address"
        },
        {
          "indexed": false,
          "internalType": "uint256",
          "name": "value",
          "type": "uint256"
        }
      ],
      "name": "Transfer",
      "type": "event"
    },
    {
      "inputs": [
        {
          "internalType": "address",
          "name": "owner",
          "type": "address"
        },
        {
          "internalType": "address",
          "name": "spender",
          "type": "address"
        }
      ],
      "name": "allowance",
      "outputs": [
        {
          "internalType": "uint256",
          "name": "",
          "type": "uint256"
        }
      ],
      "stateMutability": "view",
      "type": "function"
    },
    {
      "inputs": [
        {
          "internalType": "address",
          "name": "spender",
          "type": "address"
        },
        {
          "internalType": "uint256",
          "name": "amount",
          "type": "uint256"
        }
      ],
      "name": "approve",
      "outputs": [
        {
          "internalType": "bool",
          "name": "",
          "type": "bool"
        }
      ],
      "stateMutability": "nonpayable",
      "type": "function"
    },
    {
      "inputs": [
        {
          "internalType": "address",
          "name": "account",
          "type": "address"
        }
      ],
      "name": "balanceOf",
      "outputs": [
        {
          "internalType": "uint256",
          "name": "",
          "type": "uint256"
        }
      ],
      "stateMutability": "view",
      "type": "function"
    },
    {
      "inputs": [],
      "name": "decimals",
      "outputs": [
        {
          "internalType": "uint8",
          "name": "",
          "type": "uint8"
        }
      ],
      "stateMutability": "view",
      "type": "function"
    },
    {
      "inputs": [
        {
          "internalType": "address",
          "name": "spender",
          "type": "address"
        },
        {
          "internalType": "uint256",
          "name": "subtractedValue",
          "type": "uint256"
        }
      ],
      "name": "decreaseAllowance",
      "outputs": [
        {
          "internalType": "bool",
          "name": "",
          "type": "bool"
        }
      ],
      "stateMutability": "nonpayable",
      "type": "function"
    },
    {
      "inputs": [
        {
          "internalType": "address",
          "name": "spender",
          "type": "address"
        },
        {
          "internalType": "uint256",
          "name": "addedValue",
          "type": "uint256"
        }
      ],
      "name": "increaseAllowance",
      "outputs": [
        {
          "internalType": "bool",
          "name": "",
          "type": "bool"
        }
      ],
      "stateMutability": "nonpayable",
      "type": "function"
    },
    {
      "inputs": [],
      "name": "mintToken",
      "outputs": [],
      "stateMutability": "nonpayable",
      "type": "function"
    },
    {
      "inputs": [],
      "name": "name",
      "outputs": [
        {
          "internalType": "string",
          "name": "",
          "type": "string"
        }
      ],
      "stateMutability": "view",
      "type": "function"
    },
    {
      "inputs": [],
      "name": "symbol",
      "outputs": [
        {
          "internalType": "string",
          "name": "",
          "type": "string"
        }
      ],
      "stateMutability": "view",
      "type": "function"
    },
    {
      "inputs": [],
      "name": "totalSupply",
      "outputs": [
        {
          "internalType": "uint256",
          "name": "",
          "type": "uint256"
        }
      ],
      "stateMutability": "view",
      "type": "function"
    },
    {
      "inputs": [
        {
          "internalType": "address",
          "name": "to",
          "type": "address"
        },
        {
          "internalType": "uint256",
          "name": "amount",
          "type": "uint256"
        }
      ],
      "name": "transfer",
      "outputs": [
        {
          "internalType": "bool",
          "name": "",
          "type": "bool"
        }
      ],
      "stateMutability": "nonpayable",
      "type": "function"
    },
    {
      "inputs": [
        {
          "internalType": "address",
          "name": "from",
          "type": "address"
        },
        {
          "internalType": "address",
          "name": "to",
          "type": "address"
        },
        {
          "internalType": "uint256",
          "name": "amount",
          "type": "uint256"
        }
      ],
      "name": "transferFrom",
      "outputs": [
        {
          "internalType": "bool",
          "name": "",
          "type": "bool"
        }
      ],
      "stateMutability": "nonpayable",
      "type": "function"
    }
  ],
  "bytecode": "0x60806040523480156200001157600080fd5b506040518060400160405280600a81526020017f7368617265546f6b656e000000000000000000000000000000000000000000008152506040518060400160405280600381526020017f53544b000000000000000000000000000000000000000000000000000000000081525081600390816200008f9190620004e2565b508060049081620000a19190620004e2565b505050620000e233620000b9620000e860201b60201c565b600a620000c7919062000759565b611388620000d69190620007aa565b620000f160201b60201c565b62000919565b60006012905090565b600073ffffffffffffffffffffffffffffffffffffffff168273ffffffffffffffffffffffffffffffffffffffff160362000163576040517f08c379a00000000000000000000000000000000000000000000000000000000081526004016200015a906200086c565b60405180910390fd5b62000177600083836200025e60201b60201c565b80600260008282546200018b91906200088e565b92505081905550806000808473ffffffffffffffffffffffffffffffffffffffff1673ffffffffffffffffffffffffffffffffffffffff168152602001908152602001600020600082825401925050819055508173ffffffffffffffffffffffffffffffffffffffff16600073ffffffffffffffffffffffffffffffffffffffff167fddf252ad1be2c89b69c2b068fc378daa952ba7f163c4a11628f55a4df523b3ef836040516200023e9190620008fc565b60405180910390a36200025a600083836200026360201b60201c565b5050565b505050565b505050565b600081519050919050565b7f4e487b7100000000000000000000000000000000000000000000000000000000600052604160045260246000fd5b7f4e487b7100000000000000000000000000000000000000000000000000000000600052602260045260246000fd5b60006002820490506001821680620002ea57607f821691505b6020821081036200030057620002ff620002a2565b5b50919050565b60008190508160005260206000209050919050565b60006020601f8301049050919050565b600082821b905092915050565b6000600883026200036a7fffffffffffffffffffffffffffffffffffffffffffffffffffffffffffffffff826200032b565b6200037686836200032b565b95508019841693508086168417925050509392505050565b6000819050919050565b6000819050919050565b6000620003c3620003bd620003b7846200038e565b62000398565b6200038e565b9050919050565b6000819050919050565b620003df83620003a2565b620003f7620003ee82620003ca565b84845462000338565b825550505050565b600090565b6200040e620003ff565b6200041b818484620003d4565b505050565b5b8181101562000443576200043760008262000404565b60018101905062000421565b5050565b601f82111562000492576200045c8162000306565b62000467846200031b565b8101602085101562000477578190505b6200048f62000486856200031b565b83018262000420565b50505b505050565b600082821c905092915050565b6000620004b76000198460080262000497565b1980831691505092915050565b6000620004d28383620004a4565b9150826002028217905092915050565b620004ed8262000268565b67ffffffffffffffff81111562000509576200050862000273565b5b620005158254620002d1565b6200052282828562000447565b600060209050601f8311600181146200055a576000841562000545578287015190505b620005518582620004c4565b865550620005c1565b601f1984166200056a8662000306565b60005b8281101562000594578489015182556001820191506020850194506020810190506200056d565b86831015620005b45784890151620005b0601f891682620004a4565b8355505b6001600288020188555050505b505050505050565b7f4e487b7100000000000000000000000000000000000000000000000000000000600052601160045260246000fd5b60008160011c9050919050565b6000808291508390505b600185111562000657578086048111156200062f576200062e620005c9565b5b60018516156200063f5780820291505b80810290506200064f85620005f8565b94506200060f565b94509492505050565b60008262000672576001905062000745565b8162000682576000905062000745565b81600181146200069b5760028114620006a657620006dc565b600191505062000745565b60ff841115620006bb57620006ba620005c9565b5b8360020a915084821115620006d557620006d4620005c9565b5b5062000745565b5060208310610133831016604e8410600b8410161715620007165782820a90508381111562000710576200070f620005c9565b5b62000745565b62000725848484600162000605565b925090508184048111156200073f576200073e620005c9565b5b81810290505b9392505050565b600060ff82169050919050565b600062000766826200038e565b915062000773836200074c565b9250620007a27fffffffffffffffffffffffffffffffffffffffffffffffffffffffffffffffff848462000660565b905092915050565b6000620007b7826200038e565b9150620007c4836200038e565b9250817fffffffffffffffffffffffffffffffffffffffffffffffffffffffffffffffff04831182151516156200080057620007ff620005c9565b5b828202905092915050565b600082825260208201905092915050565b7f45524332303a206d696e7420746f20746865207a65726f206164647265737300600082015250565b600062000854601f836200080b565b915062000861826200081c565b602082019050919050565b60006020820190508181036000830152620008878162000845565b9050919050565b60006200089b826200038e565b9150620008a8836200038e565b9250827fffffffffffffffffffffffffffffffffffffffffffffffffffffffffffffffff03821115620008e057620008df620005c9565b5b828201905092915050565b620008f6816200038e565b82525050565b6000602082019050620009136000830184620008eb565b92915050565b61163580620009296000396000f3fe608060405234801561001057600080fd5b50600436106100b45760003560e01c80633950935111610071578063395093511461017d57806370a08231146101ad57806395d89b41146101dd578063a457c2d7146101fb578063a9059cbb1461022b578063dd62ed3e1461025b576100b4565b806306fdde03146100b9578063095ea7b3146100d757806318160ddd146101075780632004ffd91461012557806323b872dd1461012f578063313ce5671461015f575b600080fd5b6100c161028b565b6040516100ce9190610cac565b60405180910390f35b6100f160048036038101906100ec9190610d67565b61031d565b6040516100fe9190610dc2565b60405180910390f35b61010f610340565b60405161011c9190610dec565b60405180910390f35b61012d61034a565b005b61014960048036038101906101449190610e07565b610376565b6040516101569190610dc2565b60405180910390f35b6101676103a5565b6040516101749190610e76565b60405180910390f35b61019760048036038101906101929190610d67565b6103ae565b6040516101a49190610dc2565b60405180910390f35b6101c760048036038101906101c29190610e91565b6103e5565b6040516101d49190610dec565b60405180910390f35b6101e561042d565b6040516101f29190610cac565b60405180910390f35b61021560048036038101906102109190610d67565b6104bf565b6040516102229190610dc2565b60405180910390f35b61024560048036038101906102409190610d67565b610536565b6040516102529190610dc2565b60405180910390f35b61027560048036038101906102709190610ebe565b610559565b6040516102829190610dec565b60405180910390f35b60606003805461029a90610f2d565b80601f01602080910402602001604051908101604052809291908181526020018280546102c690610f2d565b80156103135780601f106102e857610100808354040283529160200191610313565b820191906000526020600020905b8154815290600101906020018083116102f657829003601f168201915b5050505050905090565b6000806103286105e0565b90506103358185856105e8565b600191505092915050565b6000600254905090565b610374336103566103a5565b600a61036291906110c0565b61138861036f919061110b565b6107b1565b565b6000806103816105e0565b905061038e858285610907565b610399858585610993565b60019150509392505050565b60006012905090565b6000806103b96105e0565b90506103da8185856103cb8589610559565b6103d59190611165565b6105e8565b600191505092915050565b60008060008373ffffffffffffffffffffffffffffffffffffffff1673ffffffffffffffffffffffffffffffffffffffff168152602001908152602001600020549050919050565b60606004805461043c90610f2d565b80601f016020809104026020016040519081016040528092919081815260200182805461046890610f2d565b80156104b55780601f1061048a576101008083540402835291602001916104b5565b820191906000526020600020905b81548152906001019060200180831161049857829003601f168201915b5050505050905090565b6000806104ca6105e0565b905060006104d88286610559565b90508381101561051d576040517f08c379a00000000000000000000000000000000000000000000000000000000081526004016105149061122d565b60405180910390fd5b61052a82868684036105e8565b60019250505092915050565b6000806105416105e0565b905061054e818585610993565b600191505092915050565b6000600160008473ffffffffffffffffffffffffffffffffffffffff1673ffffffffffffffffffffffffffffffffffffffff16815260200190815260200160002060008373ffffffffffffffffffffffffffffffffffffffff1673ffffffffffffffffffffffffffffffffffffffff16815260200190815260200160002054905092915050565b600033905090565b600073ffffffffffffffffffffffffffffffffffffffff168373ffffffffffffffffffffffffffffffffffffffff1603610657576040517f08c379a000000000000000000000000000000000000000000000000000000000815260040161064e906112bf565b60405180910390fd5b600073ffffffffffffffffffffffffffffffffffffffff168273ffffffffffffffffffffffffffffffffffffffff16036106c6576040517f08c379a00000000000000000000000000000000000000000000000000000000081526004016106bd90611351565b60405180910390fd5b80600160008573ffffffffffffffffffffffffffffffffffffffff1673ffffffffffffffffffffffffffffffffffffffff16815260200190815260200160002060008473ffffffffffffffffffffffffffffffffffffffff1673ffffffffffffffffffffffffffffffffffffffff168152602001908152602001600020819055508173ffffffffffffffffffffffffffffffffffffffff168373ffffffffffffffffffffffffffffffffffffffff167f8c5be1e5ebec7d5bd14f71427d1e84f3dd0314c0f7b2291e5b200ac8c7c3b925836040516107a49190610dec565b60405180910390a3505050565b600073ffffffffffffffffffffffffffffffffffffffff168273ffffffffffffffffffffffffffffffffffffffff1603610820576040517f08c379a0000000000000000000000000000000000000000000000000000000008152600401610817906113bd565b60405180910390fd5b61082c60008383610c09565b806002600082825461083e9190611165565b92505081905550806000808473ffffffffffffffffffffffffffffffffffffffff1673ffffffffffffffffffffffffffffffffffffffff168152602001908152602001600020600082825401925050819055508173ffffffffffffffffffffffffffffffffffffffff16600073ffffffffffffffffffffffffffffffffffffffff167fddf252ad1be2c89b69c2b068fc378daa952ba7f163c4a11628f55a4df523b3ef836040516108ef9190610dec565b60405180910390a361090360008383610c0e565b5050565b60006109138484610559565b90507fffffffffffffffffffffffffffffffffffffffffffffffffffffffffffffffff811461098d578181101561097f576040517f08c379a000000000000000000000000000000000000000000000000000000000815260040161097690611429565b60405180910390fd5b61098c84848484036105e8565b5b50505050565b600073ffffffffffffffffffffffffffffffffffffffff168373ffffffffffffffffffffffffffffffffffffffff1603610a02576040517f08c379a00000000000000000000000000000000000000000000000000000000081526004016109f9906114bb565b60405180910390fd5b600073ffffffffffffffffffffffffffffffffffffffff168273ffffffffffffffffffffffffffffffffffffffff1603610a71576040517f08c379a0000000000000000000000000000000000000000000000000000000008152600401610a689061154d565b60405180910390fd5b610a7c838383610c09565b60008060008573ffffffffffffffffffffffffffffffffffffffff1673ffffffffffffffffffffffffffffffffffffffff16815260200190815260200160002054905081811015610b02576040517f08c379a0000000000000000000000000000000000000000000000000000000008152600401610af9906115df565b60405180910390fd5b8181036000808673ffffffffffffffffffffffffffffffffffffffff1673ffffffffffffffffffffffffffffffffffffffff16815260200190815260200160002081905550816000808573ffffffffffffffffffffffffffffffffffffffff1673ffffffffffffffffffffffffffffffffffffffff168152602001908152602001600020600082825401925050819055508273ffffffffffffffffffffffffffffffffffffffff168473ffffffffffffffffffffffffffffffffffffffff167fddf252ad1be2c89b69c2b068fc378daa952ba7f163c4a11628f55a4df523b3ef84604051610bf09190610dec565b60405180910390a3610c03848484610c0e565b50505050565b505050565b505050565b600081519050919050565b600082825260208201905092915050565b60005b83811015610c4d578082015181840152602081019050610c32565b83811115610c5c576000848401525b50505050565b6000601f19601f8301169050919050565b6000610c7e82610c13565b610c888185610c1e565b9350610c98818560208601610c2f565b610ca181610c62565b840191505092915050565b60006020820190508181036000830152610cc68184610c73565b905092915050565b600080fd5b600073ffffffffffffffffffffffffffffffffffffffff82169050919050565b6000610cfe82610cd3565b9050919050565b610d0e81610cf3565b8114610d1957600080fd5b50565b600081359050610d2b81610d05565b92915050565b6000819050919050565b610d4481610d31565b8114610d4f57600080fd5b50565b600081359050610d6181610d3b565b92915050565b60008060408385031215610d7e57610d7d610cce565b5b6000610d8c85828601610d1c565b9250506020610d9d85828601610d52565b9150509250929050565b60008115159050919050565b610dbc81610da7565b82525050565b6000602082019050610dd76000830184610db3565b92915050565b610de681610d31565b82525050565b6000602082019050610e016000830184610ddd565b92915050565b600080600060608486031215610e2057610e1f610cce565b5b6000610e2e86828701610d1c565b9350506020610e3f86828701610d1c565b9250506040610e5086828701610d52565b9150509250925092565b600060ff82169050919050565b610e7081610e5a565b82525050565b6000602082019050610e8b6000830184610e67565b92915050565b600060208284031215610ea757610ea6610cce565b5b6000610eb584828501610d1c565b91505092915050565b60008060408385031215610ed557610ed4610cce565b5b6000610ee385828601610d1c565b9250506020610ef485828601610d1c565b9150509250929050565b7f4e487b7100000000000000000000000000000000000000000000000000000000600052602260045260246000fd5b60006002820490506001821680610f4557607f821691505b602082108103610f5857610f57610efe565b5b50919050565b7f4e487b7100000000000000000000000000000000000000000000000000000000600052601160045260246000fd5b60008160011c9050919050565b6000808291508390505b6001851115610fe457808604811115610fc057610fbf610f5e565b5b6001851615610fcf5780820291505b8081029050610fdd85610f8d565b9450610fa4565b94509492505050565b600082610ffd57600190506110b9565b8161100b57600090506110b9565b8160018114611021576002811461102b5761105a565b60019150506110b9565b60ff84111561103d5761103c610f5e565b5b8360020a91508482111561105457611053610f5e565b5b506110b9565b5060208310610133831016604e8410600b841016171561108f5782820a90508381111561108a57611089610f5e565b5b6110b9565b61109c8484846001610f9a565b925090508184048111156110b3576110b2610f5e565b5b81810290505b9392505050565b60006110cb82610d31565b91506110d683610e5a565b92506111037fffffffffffffffffffffffffffffffffffffffffffffffffffffffffffffffff8484610fed565b905092915050565b600061111682610d31565b915061112183610d31565b9250817fffffffffffffffffffffffffffffffffffffffffffffffffffffffffffffffff048311821515161561115a57611159610f5e565b5b828202905092915050565b600061117082610d31565b915061117b83610d31565b9250827fffffffffffffffffffffffffffffffffffffffffffffffffffffffffffffffff038211156111b0576111af610f5e565b5b828201905092915050565b7f45524332303a2064656372656173656420616c6c6f77616e63652062656c6f7760008201527f207a65726f000000000000000000000000000000000000000000000000000000602082015250565b6000611217602583610c1e565b9150611222826111bb565b604082019050919050565b600060208201905081810360008301526112468161120a565b9050919050565b7f45524332303a20617070726f76652066726f6d20746865207a65726f2061646460008201527f7265737300000000000000000000000000000000000000000000000000000000602082015250565b60006112a9602483610c1e565b91506112b48261124d565b604082019050919050565b600060208201905081810360008301526112d88161129c565b9050919050565b7f45524332303a20617070726f766520746f20746865207a65726f20616464726560008201527f7373000000000000000000000000000000000000000000000000000000000000602082015250565b600061133b602283610c1e565b9150611346826112df565b604082019050919050565b6000602082019050818103600083015261136a8161132e565b9050919050565b7f45524332303a206d696e7420746f20746865207a65726f206164647265737300600082015250565b60006113a7601f83610c1e565b91506113b282611371565b602082019050919050565b600060208201905081810360008301526113d68161139a565b9050919050565b7f45524332303a20696e73756666696369656e7420616c6c6f77616e6365000000600082015250565b6000611413601d83610c1e565b915061141e826113dd565b602082019050919050565b6000602082019050818103600083015261144281611406565b9050919050565b7f45524332303a207472616e736665722066726f6d20746865207a65726f20616460008201527f6472657373000000000000000000000000000000000000000000000000000000602082015250565b60006114a5602583610c1e565b91506114b082611449565b604082019050919050565b600060208201905081810360008301526114d481611498565b9050919050565b7f45524332303a207472616e7366657220746f20746865207a65726f206164647260008201527f6573730000000000000000000000000000000000000000000000000000000000602082015250565b6000611537602383610c1e565b9150611542826114db565b604082019050919050565b600060208201905081810360008301526115668161152a565b9050919050565b7f45524332303a207472616e7366657220616d6f756e742065786365656473206260008201527f616c616e63650000000000000000000000000000000000000000000000000000602082015250565b60006115c9602683610c1e565b91506115d48261156d565b604082019050919050565b600060208201905081810360008301526115f8816115bc565b905091905056fea26469706673582212206cfd41ca5dc7bfcc2868b62e2f9bffe46928959daca66b9bd14ca158774f395564736f6c634300080f0033",
  "linkReferences": {},
  "deployedLinkReferences": {}
}