{
  "_format": "hh-sol-artifact-1",
  "contractName": "DeviceShare",
  "sourceName": "contracts/DeviceShare.sol",
  "abi": [
    {
      "inputs": [
        {
          "internalType": "address",
          "name": "tokenAddress",
          "type": "address"
        },
        {
          "internalType": "uint256",
          "name": "_FIXED_STAKE",
          "type": "uint256"
        },
        {
          "internalType": "address",
          "name": "_poolContract",
          "type": "address"
        }
      ],
      "stateMutability": "nonpayable",
      "type": "constructor"
    },
    {
      "anonymous": false,
      "inputs": [
        {
          "indexed": true,
          "internalType": "uint256",
          "name": "idOfDevice",
          "type": "uint256"
        }
      ],
      "name": "DeviceAdded",
      "type": "event"
    },
    {
      "anonymous": false,
      "inputs": [
        {
          "indexed": true,
          "internalType": "uint256",
          "name": "Reward",
          "type": "uint256"
        }
      ],
      "name": "EarnedRewardByProvider",
      "type": "event"
    },
    {
      "anonymous": false,
      "inputs": [
        {
          "indexed": true,
          "internalType": "uint256",
          "name": "idOfRequest",
          "type": "uint256"
        }
      ],
      "name": "RequestAdded",
      "type": "event"
    },
    {
      "anonymous": false,
      "inputs": [
        {
          "indexed": true,
          "internalType": "uint256",
          "name": "tokensByProvider",
          "type": "uint256"
        },
        {
          "indexed": true,
          "internalType": "uint256",
          "name": "tokenByRequestor",
          "type": "uint256"
        }
      ],
      "name": "RewardEarned",
      "type": "event"
    },
    {
      "inputs": [
        {
          "internalType": "uint256",
          "name": "_reqID",
          "type": "uint256"
        }
      ],
      "name": "AcceptDeviceRequestByProvider",
      "outputs": [],
      "stateMutability": "nonpayable",
      "type": "function"
    },
    {
      "inputs": [],
      "name": "FIXED_STAKE",
      "outputs": [
        {
          "internalType": "uint256",
          "name": "",
          "type": "uint256"
        }
      ],
      "stateMutability": "view",
      "type": "function"
    },
    {
      "inputs": [
        {
          "internalType": "uint256",
          "name": "_deviceID",
          "type": "uint256"
        },
        {
          "internalType": "uint256",
          "name": "_hrsToStake",
          "type": "uint256"
        }
      ],
      "name": "RequestDeviceUse",
      "outputs": [],
      "stateMutability": "nonpayable",
      "type": "function"
    },
    {
      "inputs": [
        {
          "internalType": "uint256",
          "name": "_deviceid",
          "type": "uint256"
        },
        {
          "internalType": "uint256",
          "name": "_requestID",
          "type": "uint256"
        }
      ],
      "name": "TransferEarnedTokenToProvider",
      "outputs": [],
      "stateMutability": "nonpayable",
      "type": "function"
    },
    {
      "inputs": [
        {
          "internalType": "uint256",
          "name": "_requestorID",
          "type": "uint256"
        }
      ],
      "name": "TransferTokenFromRequestorInternal",
      "outputs": [
        {
          "internalType": "uint256",
          "name": "",
          "type": "uint256"
        }
      ],
      "stateMutability": "payable",
      "type": "function"
    },
    {
      "inputs": [
        {
          "internalType": "uint256",
          "name": "_deviceid",
          "type": "uint256"
        },
        {
          "internalType": "uint256",
          "name": "_requestid",
          "type": "uint256"
        }
      ],
      "name": "TransferTokenToProviderInternal",
      "outputs": [
        {
          "internalType": "uint256",
          "name": "Reward",
          "type": "uint256"
        }
      ],
      "stateMutability": "payable",
      "type": "function"
    },
    {
      "inputs": [
        {
          "internalType": "uint256",
          "name": "_reqID",
          "type": "uint256"
        }
      ],
      "name": "TransferTokenToRequestor",
      "outputs": [],
      "stateMutability": "payable",
      "type": "function"
    },
    {
      "inputs": [],
      "name": "ViewDeviceRequestByRequestor",
      "outputs": [
        {
          "internalType": "uint256[]",
          "name": "",
          "type": "uint256[]"
        }
      ],
      "stateMutability": "view",
      "type": "function"
    },
    {
      "inputs": [
        {
          "internalType": "uint256",
          "name": "_deviceID",
          "type": "uint256"
        },
        {
          "internalType": "uint256",
          "name": "_reqID",
          "type": "uint256"
        }
      ],
      "name": "WithdrawDeviceUsebyRequestor",
      "outputs": [],
      "stateMutability": "nonpayable",
      "type": "function"
    },
    {
      "inputs": [
        {
          "internalType": "string",
          "name": "_description",
          "type": "string"
        },
        {
          "internalType": "uint256",
          "name": "_space",
          "type": "uint256"
        },
        {
          "internalType": "uint256",
          "name": "_hrs",
          "type": "uint256"
        },
        {
          "internalType": "uint256",
          "name": "_tokenrate",
          "type": "uint256"
        }
      ],
      "name": "addDevice",
      "outputs": [],
      "stateMutability": "nonpayable",
      "type": "function"
    },
    {
      "inputs": [
        {
          "internalType": "string",
          "name": "str1",
          "type": "string"
        },
        {
          "internalType": "string",
          "name": "str2",
          "type": "string"
        }
      ],
      "name": "compare",
      "outputs": [
        {
          "internalType": "bool",
          "name": "",
          "type": "bool"
        }
      ],
      "stateMutability": "pure",
      "type": "function"
    },
    {
      "inputs": [
        {
          "internalType": "uint256",
          "name": "",
          "type": "uint256"
        }
      ],
      "name": "deviceDetails",
      "outputs": [
        {
          "internalType": "string",
          "name": "description",
          "type": "string"
        },
        {
          "internalType": "uint256",
          "name": "space",
          "type": "uint256"
        },
        {
          "internalType": "uint256",
          "name": "hrs",
          "type": "uint256"
        },
        {
          "internalType": "uint256",
          "name": "tokenRate",
          "type": "uint256"
        },
        {
          "internalType": "uint256",
          "name": "devid",
          "type": "uint256"
        },
        {
          "internalType": "bool",
          "name": "engage",
          "type": "bool"
        },
        {
          "internalType": "address payable",
          "name": "recipient",
          "type": "address"
        },
        {
          "internalType": "uint256",
          "name": "finalRequestID",
          "type": "uint256"
        },
        {
          "internalType": "uint256",
          "name": "timestamp",
          "type": "uint256"
        }
      ],
      "stateMutability": "view",
      "type": "function"
    },
    {
      "inputs": [],
      "name": "deviceID",
      "outputs": [
        {
          "internalType": "uint256",
          "name": "",
          "type": "uint256"
        }
      ],
      "stateMutability": "view",
      "type": "function"
    },
    {
      "inputs": [],
      "name": "getAllDevices",
      "outputs": [
        {
          "internalType": "string[]",
          "name": "",
          "type": "string[]"
        },
        {
          "internalType": "uint256[]",
          "name": "",
          "type": "uint256[]"
        },
        {
          "internalType": "uint256[]",
          "name": "",
          "type": "uint256[]"
        },
        {
          "internalType": "uint256[]",
          "name": "",
          "type": "uint256[]"
        },
        {
          "internalType": "uint256[]",
          "name": "",
          "type": "uint256[]"
        }
      ],
      "stateMutability": "view",
      "type": "function"
    },
    {
      "inputs": [
        {
          "internalType": "uint256",
          "name": "_deviceID",
          "type": "uint256"
        }
      ],
      "name": "getDeviceByDeviceID",
      "outputs": [
        {
          "internalType": "string",
          "name": "",
          "type": "string"
        },
        {
          "internalType": "uint256",
          "name": "",
          "type": "uint256"
        },
        {
          "internalType": "uint256",
          "name": "",
          "type": "uint256"
        },
        {
          "internalType": "uint256",
          "name": "",
          "type": "uint256"
        },
        {
          "internalType": "bool",
          "name": "",
          "type": "bool"
        }
      ],
      "stateMutability": "view",
      "type": "function"
    },
    {
      "inputs": [],
      "name": "getDeviceByProvider",
      "outputs": [
        {
          "internalType": "string[]",
          "name": "",
          "type": "string[]"
        },
        {
          "internalType": "uint256[]",
          "name": "",
          "type": "uint256[]"
        },
        {
          "internalType": "uint256[]",
          "name": "",
          "type": "uint256[]"
        },
        {
          "internalType": "uint256[]",
          "name": "",
          "type": "uint256[]"
        },
        {
          "internalType": "uint256[]",
          "name": "",
          "type": "uint256[]"
        }
      ],
      "stateMutability": "view",
      "type": "function"
    },
    {
      "inputs": [],
      "name": "poolContract",
      "outputs": [
        {
          "internalType": "contract IStakingPool",
          "name": "",
          "type": "address"
        }
      ],
      "stateMutability": "view",
      "type": "function"
    },
    {
      "inputs": [
        {
          "internalType": "address",
          "name": "",
          "type": "address"
        }
      ],
      "name": "providers",
      "outputs": [
        {
          "internalType": "address payable",
          "name": "recipient",
          "type": "address"
        }
      ],
      "stateMutability": "view",
      "type": "function"
    },
    {
      "inputs": [
        {
          "internalType": "uint256",
          "name": "_deviceID",
          "type": "uint256"
        }
      ],
      "name": "removeDevice",
      "outputs": [],
      "stateMutability": "nonpayable",
      "type": "function"
    },
    {
      "inputs": [],
      "name": "requestID",
      "outputs": [
        {
          "internalType": "uint256",
          "name": "",
          "type": "uint256"
        }
      ],
      "stateMutability": "view",
      "type": "function"
    },
    {
      "inputs": [
        {
          "internalType": "address",
          "name": "",
          "type": "address"
        }
      ],
      "name": "requestors",
      "outputs": [
        {
          "internalType": "address",
          "name": "requestorAddress",
          "type": "address"
        },
        {
          "internalType": "uint256",
          "name": "paidTokensTotal",
          "type": "uint256"
        }
      ],
      "stateMutability": "view",
      "type": "function"
    },
    {
      "inputs": [
        {
          "internalType": "uint256",
          "name": "",
          "type": "uint256"
        }
      ],
      "name": "requests",
      "outputs": [
        {
          "internalType": "uint256",
          "name": "reqID",
          "type": "uint256"
        },
        {
          "internalType": "uint256",
          "name": "devID",
          "type": "uint256"
        },
        {
          "internalType": "address",
          "name": "deviceOwner",
          "type": "address"
        },
        {
          "internalType": "uint256",
          "name": "hrsStake",
          "type": "uint256"
        },
        {
          "internalType": "bool",
          "name": "engage",
          "type": "bool"
        },
        {
          "internalType": "address",
          "name": "reqAddress",
          "type": "address"
        },
        {
          "internalType": "uint256",
          "name": "req_creation_timestamp",
          "type": "uint256"
        },
        {
          "internalType": "uint256",
          "name": "req_accept_timestamp",
          "type": "uint256"
        },
        {
          "internalType": "bool",
          "name": "request_end",
          "type": "bool"
        }
      ],
      "stateMutability": "view",
      "type": "function"
    }
  ],
  "bytecode": "0x60806040523480156200001157600080fd5b5060405162003b4e38038062003b4e8339818101604052810190620000379190620001af565b82600360006101000a81548173ffffffffffffffffffffffffffffffffffffffff021916908373ffffffffffffffffffffffffffffffffffffffff16021790555080600260006101000a81548173ffffffffffffffffffffffffffffffffffffffff021916908373ffffffffffffffffffffffffffffffffffffffff16021790555033600160006101000a81548173ffffffffffffffffffffffffffffffffffffffff021916908373ffffffffffffffffffffffffffffffffffffffff160217905550816000819055505050506200020b565b600080fd5b600073ffffffffffffffffffffffffffffffffffffffff82169050919050565b60006200013c826200010f565b9050919050565b6200014e816200012f565b81146200015a57600080fd5b50565b6000815190506200016e8162000143565b92915050565b6000819050919050565b620001898162000174565b81146200019557600080fd5b50565b600081519050620001a9816200017e565b92915050565b600080600060608486031215620001cb57620001ca6200010a565b5b6000620001db868287016200015d565b9350506020620001ee8682870162000198565b925050604062000201868287016200015d565b9150509250925092565b613933806200021b6000396000f3fe6080604052600436106101355760003560e01c80638f779201116100ab578063de0b0dd81161006f578063de0b0dd814610452578063e3b78ea21461046e578063e9bb072714610497578063f31bbead146104c6578063f82c6182146104f6578063fcb992531461053b57610135565b80638f779201146103545780639c157c0f1461037f578063a898829d146103a8578063af77c0cc146103d3578063b25983c81461041157610135565b80635fa8724b116100fd5780635fa8724b146102385780636013cdc2146102615780637a2a530d1461028c57806381d12c58146102bb5780638254f1361461030057806388d52ef71461032957610135565b80630787bc271461013a5780630e7c7bd514610177578063296df4fc146101a757806330bcb311146101d25780633a96fdd7146101fb575b600080fd5b34801561014657600080fd5b50610161600480360381019061015c919061279d565b610564565b60405161016e91906127eb565b60405180910390f35b610191600480360381019061018c919061283c565b6105a2565b60405161019e919061288b565b60405180910390f35b3480156101b357600080fd5b506101bc610754565b6040516101c99190612964565b60405180910390f35b3480156101de57600080fd5b506101f960048036038101906101f4919061283c565b6107f2565b005b34801561020757600080fd5b50610222600480360381019061021d9190612acc565b610cb9565b60405161022f9190612b5f565b60405180910390f35b34801561024457600080fd5b5061025f600480360381019061025a9190612b7a565b610d25565b005b34801561026d57600080fd5b506102766113ee565b604051610283919061288b565b60405180910390f35b34801561029857600080fd5b506102a16113f4565b6040516102b2959493929190612cf1565b60405180910390f35b3480156102c757600080fd5b506102e260048036038101906102dd9190612b7a565b611632565b6040516102f799989796959493929190612d76565b60405180910390f35b34801561030c57600080fd5b506103276004803603810190610322919061283c565b6116da565b005b34801561033557600080fd5b5061033e6117c1565b60405161034b9190612e62565b60405180910390f35b34801561036057600080fd5b506103696117e7565b604051610376919061288b565b60405180910390f35b34801561038b57600080fd5b506103a660048036038101906103a19190612e7d565b6117ed565b005b3480156103b457600080fd5b506103bd611c53565b6040516103ca919061288b565b60405180910390f35b3480156103df57600080fd5b506103fa60048036038101906103f5919061279d565b611c59565b604051610408929190612f00565b60405180910390f35b34801561041d57600080fd5b5061043860048036038101906104339190612b7a565b611c9d565b604051610449959493929190612f73565b60405180910390f35b61046c60048036038101906104679190612b7a565b611d81565b005b34801561047a57600080fd5b506104956004803603810190610490919061283c565b611e42565b005b3480156104a357600080fd5b506104ac61207a565b6040516104bd959493929190612cf1565b60405180910390f35b6104e060048036038101906104db9190612b7a565b612306565b6040516104ed919061288b565b60405180910390f35b34801561050257600080fd5b5061051d60048036038101906105189190612b7a565b612395565b60405161053299989796959493929190612fcd565b60405180910390f35b34801561054757600080fd5b50610562600480360381019061055d9190612b7a565b612498565b005b60046020528060005260406000206000915090508060060160009054906101000a900473ffffffffffffffffffffffffffffffffffffffff16905081565b6000806005600085815260200190815260200160002090506000600c600085815260200190815260200160002090506000805490506000600183600801805490506105ed9190613090565b90506000836008018281548110610607576106066130c4565b5b90600052602060002001544261061d9190613090565b90506000610e108261062f9190613122565b905060008660030154826106439190613153565b8561064e91906131ad565b90506000600e60008860040160019054906101000a900473ffffffffffffffffffffffffffffffffffffffff1673ffffffffffffffffffffffffffffffffffffffff1673ffffffffffffffffffffffffffffffffffffffff16815260200190815260200160002090508760030154836106c79190613153565b81600201546106d69190613090565b8160020181905550866007018860030154846106f29190613153565b908060018154018082558091505060019003906000526020600020016000909190919091505586600801429080600181540180825580915050600190039060005260206000200160009091909190915055819850505050505050505092915050565b60606000600460003373ffffffffffffffffffffffffffffffffffffffff1673ffffffffffffffffffffffffffffffffffffffff1681526020019081526020016000209050806007018054806020026020016040519081016040528092919081815260200182805480156107e757602002820191906000526020600020905b8154815260200190600101908083116107d3575b505050505091505090565b6000600260009054906101000a900473ffffffffffffffffffffffffffffffffffffffff1673ffffffffffffffffffffffffffffffffffffffff16637dc9d9926040518163ffffffff1660e01b8152600401602060405180830381865afa158015610861573d6000803e3d6000fd5b505050506040513d601f19601f820116820180604052508101906108859190613218565b90506000548110156108cc576040517f08c379a00000000000000000000000000000000000000000000000000000000081526004016108c390613291565b60405180910390fd5b6000600560008581526020019081526020016000209050600015158160050160009054906101000a900460ff1615151461093b576040517f08c379a0000000000000000000000000000000000000000000000000000000008152600401610932906132fd565b60405180910390fd5b600d6000815461094a9061331d565b919050819055506000600c6000600d5481526020019081526020016000209050600d5481600001819055508481600101819055508160050160019054906101000a900473ffffffffffffffffffffffffffffffffffffffff168160020160006101000a81548173ffffffffffffffffffffffffffffffffffffffff021916908373ffffffffffffffffffffffffffffffffffffffff16021790555083816003018190555060008160040160006101000a81548160ff021916908315150217905550338160040160016101000a81548173ffffffffffffffffffffffffffffffffffffffff021916908373ffffffffffffffffffffffffffffffffffffffff16021790555042816005018190555060008160090160006101000a81548160ff0219169083151502179055506000600e60003373ffffffffffffffffffffffffffffffffffffffff1673ffffffffffffffffffffffffffffffffffffffff168152602001908152602001600020905080600001600d549080600181540180825580915050600190039060005260206000200160009091909190915055338160010160006101000a81548173ffffffffffffffffffffffffffffffffffffffff021916908373ffffffffffffffffffffffffffffffffffffffff160217905550826003015485610b379190613153565b816002018190555082600601600d549080600181540180825580915050600190039060005260206000200160009091909190915055826007018590806001815401808255809150506001900390600052602060002001600090919091909150556000600460008560050160019054906101000a900473ffffffffffffffffffffffffffffffffffffffff1673ffffffffffffffffffffffffffffffffffffffff1673ffffffffffffffffffffffffffffffffffffffff16815260200190815260200160002090508060070187908060018154018082558091505060019003906000526020600020016000909190919091505580600701600d54908060018154018082558091505060019003906000526020600020016000909190919091505580600701869080600181540180825580915050600190039060005260206000200160009091909190915055600d547f1241757208f08d63f291d85cafba51f9c01fc80b77f21fb69b4b7ce9908b9a0e60405160405180910390a250505050505050565b60008151835114610ccd5760009050610d1f565b81604051602001610cde91906133a1565b6040516020818303038152906040528051906020012083604051602001610d0591906133a1565b604051602081830303815290604052805190602001201490505b92915050565b60006005600083815260200190815260200160002090506000600460008360050160019054906101000a900473ffffffffffffffffffffffffffffffffffffffff1673ffffffffffffffffffffffffffffffffffffffff1673ffffffffffffffffffffffffffffffffffffffff1681526020019081526020016000209050600015158260050160009054906101000a900460ff16151514610dfb576040517f08c379a0000000000000000000000000000000000000000000000000000000008152600401610df2906132fd565b60405180910390fd5b3373ffffffffffffffffffffffffffffffffffffffff168260050160019054906101000a900473ffffffffffffffffffffffffffffffffffffffff1673ffffffffffffffffffffffffffffffffffffffff1614610e8d576040517f08c379a0000000000000000000000000000000000000000000000000000000008152600401610e849061342a565b60405180910390fd5b60005b6007805490508110156110b0576000610fdb846000018054610eb190613479565b80601f0160208091040260200160405190810160405280929190818152602001828054610edd90613479565b8015610f2a5780601f10610eff57610100808354040283529160200191610f2a565b820191906000526020600020905b815481529060010190602001808311610f0d57829003601f168201915b505050505060078481548110610f4357610f426130c4565b5b906000526020600020018054610f5890613479565b80601f0160208091040260200160405190810160405280929190818152602001828054610f8490613479565b8015610fd15780601f10610fa657610100808354040283529160200191610fd1565b820191906000526020600020905b815481529060010190602001808311610fb457829003601f168201915b5050505050610cb9565b9050600115158115150361109c5760078281548110610ffd57610ffc6130c4565b5b90600052602060002001600061101391906126ce565b60098281548110611027576110266130c4565b5b906000526020600020016000905560088281548110611049576110486130c4565b5b9060005260206000200160009055600a828154811061106b5761106a6130c4565b5b9060005260206000200160009055600b828154811061108d5761108c6130c4565b5b90600052602060002001600090555b5080806110a89061331d565b915050610e90565b5060005b816000018054905081101561133f5760006112038460000180546110d790613479565b80601f016020809104026020016040519081016040528092919081815260200182805461110390613479565b80156111505780601f1061112557610100808354040283529160200191611150565b820191906000526020600020905b81548152906001019060200180831161113357829003601f168201915b505050505084600001848154811061116b5761116a6130c4565b5b90600052602060002001805461118090613479565b80601f01602080910402602001604051908101604052809291908181526020018280546111ac90613479565b80156111f95780601f106111ce576101008083540402835291602001916111f9565b820191906000526020600020905b8154815290600101906020018083116111dc57829003601f168201915b5050505050610cb9565b9050600115158115150361132b576040518060400160405280600181526020017f200000000000000000000000000000000000000000000000000000000000000081525083600001838154811061125d5761125c6130c4565b5b906000526020600020019081611273919061364c565b50600083600201838154811061128c5761128b6130c4565b5b906000526020600020018190555060008360060160006101000a81548173ffffffffffffffffffffffffffffffffffffffff021916908373ffffffffffffffffffffffffffffffffffffffff16021790555060008360010183815481106112f6576112f56130c4565b5b9060005260206000200181905550600083600301838154811061131c5761131b6130c4565b5b90600052602060002001819055505b5080806113379061331d565b9150506110b4565b506040518060400160405280600181526020017f2000000000000000000000000000000000000000000000000000000000000000815250826000019081611386919061364c565b506000826002018190555060008260050160016101000a81548173ffffffffffffffffffffffffffffffffffffffff021916908373ffffffffffffffffffffffffffffffffffffffff1602179055506000826001018190555060008260030181905550505050565b60065481565b6060806060806060600760086009600a600b84805480602002602001604051908101604052809291908181526020016000905b828210156114d357838290600052602060002001805461144690613479565b80601f016020809104026020016040519081016040528092919081815260200182805461147290613479565b80156114bf5780601f10611494576101008083540402835291602001916114bf565b820191906000526020600020905b8154815290600101906020018083116114a257829003601f168201915b505050505081526020019060010190611427565b5050505094508380548060200260200160405190810160405280929190818152602001828054801561152457602002820191906000526020600020905b815481526020019060010190808311611510575b505050505093508280548060200260200160405190810160405280929190818152602001828054801561157657602002820191906000526020600020905b815481526020019060010190808311611562575b50505050509250818054806020026020016040519081016040528092919081815260200182805480156115c857602002820191906000526020600020905b8154815260200190600101908083116115b4575b505050505091508080548060200260200160405190810160405280929190818152602001828054801561161a57602002820191906000526020600020905b815481526020019060010190808311611606575b50505050509050945094509450945094509091929394565b600c6020528060005260406000206000915090508060000154908060010154908060020160009054906101000a900473ffffffffffffffffffffffffffffffffffffffff16908060030154908060040160009054906101000a900460ff16908060040160019054906101000a900473ffffffffffffffffffffffffffffffffffffffff16908060050154908060060154908060090160009054906101000a900460ff16905089565b6000600c6000838152602001908152602001600020905082816001015414611737576040517f08c379a000000000000000000000000000000000000000000000000000000000815260040161172e90613790565b60405180910390fd5b600061174384846105a2565b9050600061175084612306565b905060008360040160006101000a81548160ff02191690831515021790555060018360090160006101000a81548160ff02191690831515021790555080827fd3fd2d1b21f09449ca3e9e0d98252f08fe6c036211da942892c07431c0cd6ab760405160405180910390a35050505050565b600260009054906101000a900473ffffffffffffffffffffffffffffffffffffffff1681565b600d5481565b6000600260009054906101000a900473ffffffffffffffffffffffffffffffffffffffff1673ffffffffffffffffffffffffffffffffffffffff16637dc9d9926040518163ffffffff1660e01b8152600401602060405180830381865afa15801561185c573d6000803e3d6000fd5b505050506040513d601f19601f820116820180604052508101906118809190613218565b90506000548110156118c7576040517f08c379a00000000000000000000000000000000000000000000000000000000081526004016118be90613291565b60405180910390fd5b6000600460003373ffffffffffffffffffffffffffffffffffffffff1673ffffffffffffffffffffffffffffffffffffffff16815260200190815260200160002090508060000186908060018154018082558091505060019003906000526020600020016000909190919091509081611940919061364c565b50806001018590806001815401808255809150506001900390600052602060002001600090919091909150558060020184908060018154018082558091505060019003906000526020600020016000909190919091505580600501600090806001815401808255809150506001900390600052602060002090602091828204019190069091909190916101000a81548160ff021916908315150217905550338160060160006101000a81548173ffffffffffffffffffffffffffffffffffffffff021916908373ffffffffffffffffffffffffffffffffffffffff16021790555080600301839080600181540180825580915050600190039060005260206000200160009091909190915055600786908060018154018082558091505060019003906000526020600020016000909190919091509081611a80919061364c565b5060088590806001815401808255809150506001900390600052602060002001600090919091909150556009849080600181540180825580915050600190039060005260206000200160009091909190915055600a839080600181540180825580915050600190039060005260206000200160009091909190915055600660008154611b0b9061331d565b919050819055506000600560006006548152602001908152602001600020905086816000019081611b3c919061364c565b5085816001018190555084816002018190555060008160050160006101000a81548160ff021916908315150217905550338160050160016101000a81548173ffffffffffffffffffffffffffffffffffffffff021916908373ffffffffffffffffffffffffffffffffffffffff1602179055506006548160040181905550838160030181905550816004016006549080600181540180825580915050600190039060005260206000200160009091909190915055600b60065490806001815401808255809150506001900390600052602060002001600090919091909150556006547f884db65738c754ce57a1862acfbd7fafb0d480e827837dc98f8d9abb2ec7103a60405160405180910390a250505050505050565b60005481565b600e6020528060005260406000206000915090508060010160009054906101000a900473ffffffffffffffffffffffffffffffffffffffff16908060020154905082565b60606000806000806000600560008881526020019081526020016000209050806000018160020154826001015483600301548460050160009054906101000a900460ff16848054611ced90613479565b80601f0160208091040260200160405190810160405280929190818152602001828054611d1990613479565b8015611d665780601f10611d3b57610100808354040283529160200191611d66565b820191906000526020600020905b815481529060010190602001808311611d4957829003601f168201915b50505050509450955095509550955095505091939590929450565b6000600e60003373ffffffffffffffffffffffffffffffffffffffff1673ffffffffffffffffffffffffffffffffffffffff16815260200190815260200160002090506000600c60008481526020019081526020016000209050600115158160090160009054906101000a900460ff16151514611e33576040517f08c379a0000000000000000000000000000000000000000000000000000000008152600401611e2a90613822565b60405180910390fd5b60008260020181905550505050565b6000600c600083815260200190815260200160002090506000600560008581526020019081526020016000209050600060018360080180549050611e869190613090565b90506000836008018281548110611ea057611e9f6130c4565b5b906000526020600020015442611eb69190613090565b90506000610e1082611ec89190613122565b90506000846003015482611edc9190613153565b9050600260009054906101000a900473ffffffffffffffffffffffffffffffffffffffff1673ffffffffffffffffffffffffffffffffffffffff16636a2c535282336040518363ffffffff1660e01b8152600401611f3b929190613842565b600060405180830381600087803b158015611f5557600080fd5b505af1158015611f69573d6000803e3d6000fd5b5050505085600701819080600181540180825580915050600190039060005260206000200160009091909190915055856008014290806001815401808255809150506001900390600052602060002001600090919091909150556000600e60008860040160019054906101000a900473ffffffffffffffffffffffffffffffffffffffff1673ffffffffffffffffffffffffffffffffffffffff1673ffffffffffffffffffffffffffffffffffffffff168152602001908152602001600020905081816002015461203a9190613090565b8160020181905550817f4a32684afa3332595fe84daed87088e168752352cefff15acb6d7a8e0d7419aa60405160405180910390a2505050505050505050565b60608060608060606000600460003373ffffffffffffffffffffffffffffffffffffffff1673ffffffffffffffffffffffffffffffffffffffff1681526020019081526020016000209050806000018160040182600201836001018460030184805480602002602001604051908101604052809291908181526020016000905b828210156121a657838290600052602060002001805461211990613479565b80601f016020809104026020016040519081016040528092919081815260200182805461214590613479565b80156121925780601f1061216757610100808354040283529160200191612192565b820191906000526020600020905b81548152906001019060200180831161217557829003601f168201915b5050505050815260200190600101906120fa565b505050509450838054806020026020016040519081016040528092919081815260200182805480156121f757602002820191906000526020600020905b8154815260200190600101908083116121e3575b505050505093508280548060200260200160405190810160405280929190818152602001828054801561224957602002820191906000526020600020905b815481526020019060010190808311612235575b505050505092508180548060200260200160405190810160405280929190818152602001828054801561229b57602002820191906000526020600020905b815481526020019060010190808311612287575b50505050509150808054806020026020016040519081016040528092919081815260200182805480156122ed57602002820191906000526020600020905b8154815260200190600101908083116122d9575b5050505050905095509550955095509550509091929394565b600080600c60008481526020019081526020016000209050600060056000836001015481526020019081526020016000209050600082600601544261234b9190613090565b90506000610e108261235d9190613122565b905060008185600301546123719190613090565b905060008460030154826123859190613153565b9050809650505050505050919050565b60056020528060005260406000206000915090508060000180546123b890613479565b80601f01602080910402602001604051908101604052809291908181526020018280546123e490613479565b80156124315780601f1061240657610100808354040283529160200191612431565b820191906000526020600020905b81548152906001019060200180831161241457829003601f168201915b5050505050908060010154908060020154908060030154908060040154908060050160009054906101000a900460ff16908060050160019054906101000a900473ffffffffffffffffffffffffffffffffffffffff16908060080154908060090154905089565b6000600460003373ffffffffffffffffffffffffffffffffffffffff1673ffffffffffffffffffffffffffffffffffffffff16815260200190815260200160002090506000600c6000848152602001908152602001600020905060005b826004018054905081101561267457816001015483600401828154811061251f5761251e6130c4565b5b9060005260206000200154036126615760001515836005018281548110612549576125486130c4565b5b90600052602060002090602091828204019190069054906101000a900460ff161515146125ab576040517f08c379a00000000000000000000000000000000000000000000000000000000081526004016125a2906138dd565b60405180910390fd5b60018360050182815481106125c3576125c26130c4565b5b90600052602060002090602091828204019190066101000a81548160ff02191690831515021790555060018260040160006101000a81548160ff0219169083151502179055508160070160009080600181540180825580915050600190039060005260206000200160009091909190915055816008014290806001815401808255809150506001900390600052602060002001600090919091909150555b808061266c9061331d565b9150506124f5565b5060006005600083600101548152602001908152602001600020905083816008018190555042816009018190555060018160050160006101000a81548160ff02191690831515021790555042826006018190555050505050565b5080546126da90613479565b6000825580601f106126ec575061270b565b601f01602090049060005260206000209081019061270a919061270e565b5b50565b5b8082111561272757600081600090555060010161270f565b5090565b6000604051905090565b600080fd5b600080fd5b600073ffffffffffffffffffffffffffffffffffffffff82169050919050565b600061276a8261273f565b9050919050565b61277a8161275f565b811461278557600080fd5b50565b60008135905061279781612771565b92915050565b6000602082840312156127b3576127b2612735565b5b60006127c184828501612788565b91505092915050565b60006127d58261273f565b9050919050565b6127e5816127ca565b82525050565b600060208201905061280060008301846127dc565b92915050565b6000819050919050565b61281981612806565b811461282457600080fd5b50565b60008135905061283681612810565b92915050565b6000806040838503121561285357612852612735565b5b600061286185828601612827565b925050602061287285828601612827565b9150509250929050565b61288581612806565b82525050565b60006020820190506128a0600083018461287c565b92915050565b600081519050919050565b600082825260208201905092915050565b6000819050602082019050919050565b6128db81612806565b82525050565b60006128ed83836128d2565b60208301905092915050565b6000602082019050919050565b6000612911826128a6565b61291b81856128b1565b9350612926836128c2565b8060005b8381101561295757815161293e88826128e1565b9750612949836128f9565b92505060018101905061292a565b5085935050505092915050565b6000602082019050818103600083015261297e8184612906565b905092915050565b600080fd5b600080fd5b6000601f19601f8301169050919050565b7f4e487b7100000000000000000000000000000000000000000000000000000000600052604160045260246000fd5b6129d982612990565b810181811067ffffffffffffffff821117156129f8576129f76129a1565b5b80604052505050565b6000612a0b61272b565b9050612a1782826129d0565b919050565b600067ffffffffffffffff821115612a3757612a366129a1565b5b612a4082612990565b9050602081019050919050565b82818337600083830152505050565b6000612a6f612a6a84612a1c565b612a01565b905082815260208101848484011115612a8b57612a8a61298b565b5b612a96848285612a4d565b509392505050565b600082601f830112612ab357612ab2612986565b5b8135612ac3848260208601612a5c565b91505092915050565b60008060408385031215612ae357612ae2612735565b5b600083013567ffffffffffffffff811115612b0157612b0061273a565b5b612b0d85828601612a9e565b925050602083013567ffffffffffffffff811115612b2e57612b2d61273a565b5b612b3a85828601612a9e565b9150509250929050565b60008115159050919050565b612b5981612b44565b82525050565b6000602082019050612b746000830184612b50565b92915050565b600060208284031215612b9057612b8f612735565b5b6000612b9e84828501612827565b91505092915050565b600081519050919050565b600082825260208201905092915050565b6000819050602082019050919050565b600081519050919050565b600082825260208201905092915050565b60005b83811015612c0d578082015181840152602081019050612bf2565b83811115612c1c576000848401525b50505050565b6000612c2d82612bd3565b612c378185612bde565b9350612c47818560208601612bef565b612c5081612990565b840191505092915050565b6000612c678383612c22565b905092915050565b6000602082019050919050565b6000612c8782612ba7565b612c918185612bb2565b935083602082028501612ca385612bc3565b8060005b85811015612cdf5784840389528151612cc08582612c5b565b9450612ccb83612c6f565b925060208a01995050600181019050612ca7565b50829750879550505050505092915050565b600060a0820190508181036000830152612d0b8188612c7c565b90508181036020830152612d1f8187612906565b90508181036040830152612d338186612906565b90508181036060830152612d478185612906565b90508181036080830152612d5b8184612906565b90509695505050505050565b612d708161275f565b82525050565b600061012082019050612d8c600083018c61287c565b612d99602083018b61287c565b612da6604083018a612d67565b612db3606083018961287c565b612dc06080830188612b50565b612dcd60a0830187612d67565b612dda60c083018661287c565b612de760e083018561287c565b612df5610100830184612b50565b9a9950505050505050505050565b6000819050919050565b6000612e28612e23612e1e8461273f565b612e03565b61273f565b9050919050565b6000612e3a82612e0d565b9050919050565b6000612e4c82612e2f565b9050919050565b612e5c81612e41565b82525050565b6000602082019050612e776000830184612e53565b92915050565b60008060008060808587031215612e9757612e96612735565b5b600085013567ffffffffffffffff811115612eb557612eb461273a565b5b612ec187828801612a9e565b9450506020612ed287828801612827565b9350506040612ee387828801612827565b9250506060612ef487828801612827565b91505092959194509250565b6000604082019050612f156000830185612d67565b612f22602083018461287c565b9392505050565b600082825260208201905092915050565b6000612f4582612bd3565b612f4f8185612f29565b9350612f5f818560208601612bef565b612f6881612990565b840191505092915050565b600060a0820190508181036000830152612f8d8188612f3a565b9050612f9c602083018761287c565b612fa9604083018661287c565b612fb6606083018561287c565b612fc36080830184612b50565b9695505050505050565b6000610120820190508181036000830152612fe8818c612f3a565b9050612ff7602083018b61287c565b613004604083018a61287c565b613011606083018961287c565b61301e608083018861287c565b61302b60a0830187612b50565b61303860c08301866127dc565b61304560e083018561287c565b61305361010083018461287c565b9a9950505050505050505050565b7f4e487b7100000000000000000000000000000000000000000000000000000000600052601160045260246000fd5b600061309b82612806565b91506130a683612806565b9250828210156130b9576130b8613061565b5b828203905092915050565b7f4e487b7100000000000000000000000000000000000000000000000000000000600052603260045260246000fd5b7f4e487b7100000000000000000000000000000000000000000000000000000000600052601260045260246000fd5b600061312d82612806565b915061313883612806565b925082613148576131476130f3565b5b828204905092915050565b600061315e82612806565b915061316983612806565b9250817fffffffffffffffffffffffffffffffffffffffffffffffffffffffffffffffff04831182151516156131a2576131a1613061565b5b828202905092915050565b60006131b882612806565b91506131c383612806565b9250827fffffffffffffffffffffffffffffffffffffffffffffffffffffffffffffffff038211156131f8576131f7613061565b5b828201905092915050565b60008151905061321281612810565b92915050565b60006020828403121561322e5761322d612735565b5b600061323c84828501613203565b91505092915050565b7f496e73756666696369656e74207374616b650000000000000000000000000000600082015250565b600061327b601283612f29565b915061328682613245565b602082019050919050565b600060208201905081810360008301526132aa8161326e565b9050919050565b7f5468652064657669636520697320616c726561647920656e6761676564000000600082015250565b60006132e7601d83612f29565b91506132f2826132b1565b602082019050919050565b60006020820190508181036000830152613316816132da565b9050919050565b600061332882612806565b91507fffffffffffffffffffffffffffffffffffffffffffffffffffffffffffffffff820361335a57613359613061565b5b600182019050919050565b600081905092915050565b600061337b82612bd3565b6133858185613365565b9350613395818560208601612bef565b80840191505092915050565b60006133ad8284613370565b915081905092915050565b7f596f7520617265206e6f7420746865206f776e6572206f66207468652064657660008201527f6963652e00000000000000000000000000000000000000000000000000000000602082015250565b6000613414602483612f29565b915061341f826133b8565b604082019050919050565b6000602082019050818103600083015261344381613407565b9050919050565b7f4e487b7100000000000000000000000000000000000000000000000000000000600052602260045260246000fd5b6000600282049050600182168061349157607f821691505b6020821081036134a4576134a361344a565b5b50919050565b60008190508160005260206000209050919050565b60006020601f8301049050919050565b600082821b905092915050565b60006008830261350c7fffffffffffffffffffffffffffffffffffffffffffffffffffffffffffffffff826134cf565b61351686836134cf565b95508019841693508086168417925050509392505050565b600061354961354461353f84612806565b612e03565b612806565b9050919050565b6000819050919050565b6135638361352e565b61357761356f82613550565b8484546134dc565b825550505050565b600090565b61358c61357f565b61359781848461355a565b505050565b5b818110156135bb576135b0600082613584565b60018101905061359d565b5050565b601f821115613600576135d1816134aa565b6135da846134bf565b810160208510156135e9578190505b6135fd6135f5856134bf565b83018261359c565b50505b505050565b600082821c905092915050565b600061362360001984600802613605565b1980831691505092915050565b600061363c8383613612565b9150826002028217905092915050565b61365582612bd3565b67ffffffffffffffff81111561366e5761366d6129a1565b5b6136788254613479565b6136838282856135bf565b600060209050601f8311600181146136b657600084156136a4578287015190505b6136ae8582613630565b865550613716565b601f1984166136c4866134aa565b60005b828110156136ec578489015182556001820191506020850194506020810190506136c7565b868310156137095784890151613705601f891682613612565b8355505b6001600288020188555050505b505050505050565b7f546869732064657669636520646f65736e27742062656c6f6e6720746f20796f60008201527f752e000000000000000000000000000000000000000000000000000000000000602082015250565b600061377a602283612f29565b91506137858261371e565b604082019050919050565b600060208201905081810360008301526137a98161376d565b9050919050565b7f54686520646576696365206f662074686520746869732072657175657374206860008201527f6173206e6f7420656e6465640000000000000000000000000000000000000000602082015250565b600061380c602c83612f29565b9150613817826137b0565b604082019050919050565b6000602082019050818103600083015261383b816137ff565b9050919050565b6000604082019050613857600083018561287c565b6138646020830184612d67565b9392505050565b7f5468652070726f766964657220697320616c726561647920627573792c206e6f60008201527f207265736f757263657320617661696c61626c652e0000000000000000000000602082015250565b60006138c7603583612f29565b91506138d28261386b565b604082019050919050565b600060208201905081810360008301526138f6816138ba565b905091905056fea264697066735822122061177919fce9477d9a26e8367a03d85e1139b6e8fcfc939a9a633af36d5d555f64736f6c634300080f0033",
  "linkReferences": {},
  "deployedLinkReferences": {}
}