{
  "_format": "hh-sol-artifact-1",
  "contractName": "DeviceShare",
  "sourceName": "contracts/DeviceShare.sol",
  "abi": [
    {
      "inputs": [
        {
          "internalType": "address",
          "name": "tokenAddress",
          "type": "address"
        },
        {
          "internalType": "uint256",
          "name": "_FIXED_STAKE",
          "type": "uint256"
        },
        {
          "internalType": "address",
          "name": "_poolContract",
          "type": "address"
        }
      ],
      "stateMutability": "nonpayable",
      "type": "constructor"
    },
    {
      "anonymous": false,
      "inputs": [
        {
          "indexed": true,
          "internalType": "uint256",
          "name": "idOfDevice",
          "type": "uint256"
        }
      ],
      "name": "DeviceAdded",
      "type": "event"
    },
    {
      "anonymous": false,
      "inputs": [
        {
          "indexed": true,
          "internalType": "uint256",
          "name": "Reward",
          "type": "uint256"
        }
      ],
      "name": "EarnedRewardByProvider",
      "type": "event"
    },
    {
      "anonymous": false,
      "inputs": [
        {
          "indexed": true,
          "internalType": "uint256",
          "name": "idOfRequest",
          "type": "uint256"
        }
      ],
      "name": "RequestAdded",
      "type": "event"
    },
    {
      "anonymous": false,
      "inputs": [
        {
          "indexed": true,
          "internalType": "uint256",
          "name": "tokensByProvider",
          "type": "uint256"
        },
        {
          "indexed": true,
          "internalType": "uint256",
          "name": "tokenByRequestor",
          "type": "uint256"
        }
      ],
      "name": "RewardEarned",
      "type": "event"
    },
    {
      "inputs": [
        {
          "internalType": "uint256",
          "name": "_reqID",
          "type": "uint256"
        }
      ],
      "name": "AcceptDeviceRequestByProvider",
      "outputs": [],
      "stateMutability": "nonpayable",
      "type": "function"
    },
    {
      "inputs": [],
      "name": "FIXED_STAKE",
      "outputs": [
        {
          "internalType": "uint256",
          "name": "",
          "type": "uint256"
        }
      ],
      "stateMutability": "view",
      "type": "function"
    },
    {
      "inputs": [
        {
          "internalType": "uint256",
          "name": "_deviceID",
          "type": "uint256"
        },
        {
          "internalType": "uint256",
          "name": "_hrsToStake",
          "type": "uint256"
        }
      ],
      "name": "RequestDeviceUse",
      "outputs": [],
      "stateMutability": "nonpayable",
      "type": "function"
    },
    {
      "inputs": [
        {
          "internalType": "uint256",
          "name": "_deviceid",
          "type": "uint256"
        },
        {
          "internalType": "uint256",
          "name": "_requestID",
          "type": "uint256"
        }
      ],
      "name": "TransferEarnedTokenToProvider",
      "outputs": [],
      "stateMutability": "payable",
      "type": "function"
    },
    {
      "inputs": [
        {
          "internalType": "uint256",
          "name": "_requestorID",
          "type": "uint256"
        }
      ],
      "name": "TransferTokenFromRequestorInternal",
      "outputs": [
        {
          "internalType": "uint256",
          "name": "",
          "type": "uint256"
        }
      ],
      "stateMutability": "payable",
      "type": "function"
    },
    {
      "inputs": [
        {
          "internalType": "uint256",
          "name": "_deviceid",
          "type": "uint256"
        },
        {
          "internalType": "uint256",
          "name": "_requestid",
          "type": "uint256"
        }
      ],
      "name": "TransferTokenToProviderInternal",
      "outputs": [
        {
          "internalType": "uint256",
          "name": "Reward",
          "type": "uint256"
        }
      ],
      "stateMutability": "payable",
      "type": "function"
    },
    {
      "inputs": [
        {
          "internalType": "uint256",
          "name": "_reqID",
          "type": "uint256"
        }
      ],
      "name": "TransferTokenToRequestor",
      "outputs": [],
      "stateMutability": "payable",
      "type": "function"
    },
    {
      "inputs": [],
      "name": "ViewDeviceRequestByRequestor",
      "outputs": [
        {
          "internalType": "uint256[]",
          "name": "",
          "type": "uint256[]"
        }
      ],
      "stateMutability": "view",
      "type": "function"
    },
    {
      "inputs": [
        {
          "internalType": "uint256",
          "name": "_deviceID",
          "type": "uint256"
        },
        {
          "internalType": "uint256",
          "name": "_reqID",
          "type": "uint256"
        }
      ],
      "name": "WithdrawDeviceUsebyRequestor",
      "outputs": [],
      "stateMutability": "nonpayable",
      "type": "function"
    },
    {
      "inputs": [
        {
          "internalType": "string",
          "name": "_description",
          "type": "string"
        },
        {
          "internalType": "uint256",
          "name": "_space",
          "type": "uint256"
        },
        {
          "internalType": "uint256",
          "name": "_hrs",
          "type": "uint256"
        },
        {
          "internalType": "uint256",
          "name": "_tokenrate",
          "type": "uint256"
        }
      ],
      "name": "addDevice",
      "outputs": [],
      "stateMutability": "nonpayable",
      "type": "function"
    },
    {
      "inputs": [
        {
          "internalType": "string",
          "name": "str1",
          "type": "string"
        },
        {
          "internalType": "string",
          "name": "str2",
          "type": "string"
        }
      ],
      "name": "compare",
      "outputs": [
        {
          "internalType": "bool",
          "name": "",
          "type": "bool"
        }
      ],
      "stateMutability": "pure",
      "type": "function"
    },
    {
      "inputs": [
        {
          "internalType": "uint256",
          "name": "",
          "type": "uint256"
        }
      ],
      "name": "deviceDetails",
      "outputs": [
        {
          "internalType": "string",
          "name": "description",
          "type": "string"
        },
        {
          "internalType": "uint256",
          "name": "space",
          "type": "uint256"
        },
        {
          "internalType": "uint256",
          "name": "hrs",
          "type": "uint256"
        },
        {
          "internalType": "uint256",
          "name": "tokenRate",
          "type": "uint256"
        },
        {
          "internalType": "uint256",
          "name": "devid",
          "type": "uint256"
        },
        {
          "internalType": "bool",
          "name": "engage",
          "type": "bool"
        },
        {
          "internalType": "address payable",
          "name": "recipient",
          "type": "address"
        },
        {
          "internalType": "uint256",
          "name": "finalRequestID",
          "type": "uint256"
        },
        {
          "internalType": "uint256",
          "name": "timestamp",
          "type": "uint256"
        }
      ],
      "stateMutability": "view",
      "type": "function"
    },
    {
      "inputs": [],
      "name": "deviceID",
      "outputs": [
        {
          "internalType": "uint256",
          "name": "",
          "type": "uint256"
        }
      ],
      "stateMutability": "view",
      "type": "function"
    },
    {
      "inputs": [],
      "name": "getAllDevices",
      "outputs": [
        {
          "internalType": "string[]",
          "name": "",
          "type": "string[]"
        },
        {
          "internalType": "uint256[]",
          "name": "",
          "type": "uint256[]"
        },
        {
          "internalType": "uint256[]",
          "name": "",
          "type": "uint256[]"
        },
        {
          "internalType": "uint256[]",
          "name": "",
          "type": "uint256[]"
        },
        {
          "internalType": "uint256[]",
          "name": "",
          "type": "uint256[]"
        }
      ],
      "stateMutability": "view",
      "type": "function"
    },
    {
      "inputs": [
        {
          "internalType": "uint256",
          "name": "_deviceID",
          "type": "uint256"
        }
      ],
      "name": "getDeviceByDeviceID",
      "outputs": [
        {
          "internalType": "string",
          "name": "",
          "type": "string"
        },
        {
          "internalType": "uint256",
          "name": "",
          "type": "uint256"
        },
        {
          "internalType": "uint256",
          "name": "",
          "type": "uint256"
        },
        {
          "internalType": "uint256",
          "name": "",
          "type": "uint256"
        },
        {
          "internalType": "bool",
          "name": "",
          "type": "bool"
        }
      ],
      "stateMutability": "view",
      "type": "function"
    },
    {
      "inputs": [],
      "name": "getDeviceByProvider",
      "outputs": [
        {
          "internalType": "string[]",
          "name": "",
          "type": "string[]"
        },
        {
          "internalType": "uint256[]",
          "name": "",
          "type": "uint256[]"
        },
        {
          "internalType": "uint256[]",
          "name": "",
          "type": "uint256[]"
        },
        {
          "internalType": "uint256[]",
          "name": "",
          "type": "uint256[]"
        },
        {
          "internalType": "uint256[]",
          "name": "",
          "type": "uint256[]"
        }
      ],
      "stateMutability": "view",
      "type": "function"
    },
    {
      "inputs": [],
      "name": "poolContract",
      "outputs": [
        {
          "internalType": "contract IStakingPool",
          "name": "",
          "type": "address"
        }
      ],
      "stateMutability": "view",
      "type": "function"
    },
    {
      "inputs": [
        {
          "internalType": "address",
          "name": "",
          "type": "address"
        }
      ],
      "name": "providers",
      "outputs": [
        {
          "internalType": "address payable",
          "name": "recipient",
          "type": "address"
        }
      ],
      "stateMutability": "view",
      "type": "function"
    },
    {
      "inputs": [
        {
          "internalType": "uint256",
          "name": "_deviceID",
          "type": "uint256"
        }
      ],
      "name": "removeDevice",
      "outputs": [],
      "stateMutability": "nonpayable",
      "type": "function"
    },
    {
      "inputs": [],
      "name": "requestID",
      "outputs": [
        {
          "internalType": "uint256",
          "name": "",
          "type": "uint256"
        }
      ],
      "stateMutability": "view",
      "type": "function"
    },
    {
      "inputs": [
        {
          "internalType": "address",
          "name": "",
          "type": "address"
        }
      ],
      "name": "requestors",
      "outputs": [
        {
          "internalType": "address",
          "name": "requestorAddress",
          "type": "address"
        },
        {
          "internalType": "uint256",
          "name": "paidTokensTotal",
          "type": "uint256"
        }
      ],
      "stateMutability": "view",
      "type": "function"
    },
    {
      "inputs": [
        {
          "internalType": "uint256",
          "name": "",
          "type": "uint256"
        }
      ],
      "name": "requests",
      "outputs": [
        {
          "internalType": "uint256",
          "name": "reqID",
          "type": "uint256"
        },
        {
          "internalType": "uint256",
          "name": "devID",
          "type": "uint256"
        },
        {
          "internalType": "address",
          "name": "deviceOwner",
          "type": "address"
        },
        {
          "internalType": "uint256",
          "name": "hrsStake",
          "type": "uint256"
        },
        {
          "internalType": "bool",
          "name": "engage",
          "type": "bool"
        },
        {
          "internalType": "address",
          "name": "reqAddress",
          "type": "address"
        },
        {
          "internalType": "uint256",
          "name": "req_creation_timestamp",
          "type": "uint256"
        },
        {
          "internalType": "uint256",
          "name": "req_accept_timestamp",
          "type": "uint256"
        },
        {
          "internalType": "bool",
          "name": "request_end",
          "type": "bool"
        }
      ],
      "stateMutability": "view",
      "type": "function"
    }
  ],
  "bytecode": "0x60806040523480156200001157600080fd5b5060405162003aba38038062003aba8339818101604052810190620000379190620001af565b82600360006101000a81548173ffffffffffffffffffffffffffffffffffffffff021916908373ffffffffffffffffffffffffffffffffffffffff16021790555080600260006101000a81548173ffffffffffffffffffffffffffffffffffffffff021916908373ffffffffffffffffffffffffffffffffffffffff16021790555033600160006101000a81548173ffffffffffffffffffffffffffffffffffffffff021916908373ffffffffffffffffffffffffffffffffffffffff160217905550816000819055505050506200020b565b600080fd5b600073ffffffffffffffffffffffffffffffffffffffff82169050919050565b60006200013c826200010f565b9050919050565b6200014e816200012f565b81146200015a57600080fd5b50565b6000815190506200016e8162000143565b92915050565b6000819050919050565b620001898162000174565b81146200019557600080fd5b50565b600081519050620001a9816200017e565b92915050565b600080600060608486031215620001cb57620001ca6200010a565b5b6000620001db868287016200015d565b9350506020620001ee8682870162000198565b925050604062000201868287016200015d565b9150509250925092565b61389f806200021b6000396000f3fe6080604052600436106101355760003560e01c80638f779201116100ab578063de0b0dd81161006f578063de0b0dd814610452578063e3b78ea21461046e578063e9bb07271461048a578063f31bbead146104b9578063f82c6182146104e9578063fcb992531461052e57610135565b80638f779201146103545780639c157c0f1461037f578063a898829d146103a8578063af77c0cc146103d3578063b25983c81461041157610135565b80635fa8724b116100fd5780635fa8724b146102385780636013cdc2146102615780637a2a530d1461028c57806381d12c58146102bb5780638254f1361461030057806388d52ef71461032957610135565b80630787bc271461013a5780630e7c7bd514610177578063296df4fc146101a757806330bcb311146101d25780633a96fdd7146101fb575b600080fd5b34801561014657600080fd5b50610161600480360381019061015c9190612717565b610557565b60405161016e9190612765565b60405180910390f35b610191600480360381019061018c91906127b6565b610595565b60405161019e9190612805565b60405180910390f35b3480156101b357600080fd5b506101bc610747565b6040516101c991906128de565b60405180910390f35b3480156101de57600080fd5b506101f960048036038101906101f491906127b6565b6107e5565b005b34801561020757600080fd5b50610222600480360381019061021d9190612a46565b610cb7565b60405161022f9190612ad9565b60405180910390f35b34801561024457600080fd5b5061025f600480360381019061025a9190612af4565b610d23565b005b34801561026d57600080fd5b506102766113ec565b6040516102839190612805565b60405180910390f35b34801561029857600080fd5b506102a16113f2565b6040516102b2959493929190612c6b565b60405180910390f35b3480156102c757600080fd5b506102e260048036038101906102dd9190612af4565b611630565b6040516102f799989796959493929190612cf0565b60405180910390f35b34801561030c57600080fd5b50610327600480360381019061032291906127b6565b6116d8565b005b34801561033557600080fd5b5061033e6117bf565b60405161034b9190612ddc565b60405180910390f35b34801561036057600080fd5b506103696117e5565b6040516103769190612805565b60405180910390f35b34801561038b57600080fd5b506103a660048036038101906103a19190612df7565b6117eb565b005b3480156103b457600080fd5b506103bd611c5c565b6040516103ca9190612805565b60405180910390f35b3480156103df57600080fd5b506103fa60048036038101906103f59190612717565b611c62565b604051610408929190612e7a565b60405180910390f35b34801561041d57600080fd5b5061043860048036038101906104339190612af4565b611ca6565b604051610449959493929190612eed565b60405180910390f35b61046c60048036038101906104679190612af4565b611d8a565b005b610488600480360381019061048391906127b6565b611e4b565b005b34801561049657600080fd5b5061049f611ff4565b6040516104b0959493929190612c6b565b60405180910390f35b6104d360048036038101906104ce9190612af4565b612280565b6040516104e09190612805565b60405180910390f35b3480156104f557600080fd5b50610510600480360381019061050b9190612af4565b61230f565b60405161052599989796959493929190612f47565b60405180910390f35b34801561053a57600080fd5b5061055560048036038101906105509190612af4565b612412565b005b60046020528060005260406000206000915090508060060160009054906101000a900473ffffffffffffffffffffffffffffffffffffffff16905081565b6000806005600085815260200190815260200160002090506000600c600085815260200190815260200160002090506000805490506000600183600801805490506105e0919061300a565b905060008360080182815481106105fa576105f961303e565b5b906000526020600020015442610610919061300a565b90506000610e1082610622919061309c565b9050600086600301548261063691906130cd565b856106419190613127565b90506000600e60008860040160019054906101000a900473ffffffffffffffffffffffffffffffffffffffff1673ffffffffffffffffffffffffffffffffffffffff1673ffffffffffffffffffffffffffffffffffffffff16815260200190815260200160002090508760030154836106ba91906130cd565b81600201546106c9919061300a565b8160020181905550866007018860030154846106e591906130cd565b908060018154018082558091505060019003906000526020600020016000909190919091505586600801429080600181540180825580915050600190039060005260206000200160009091909190915055819850505050505050505092915050565b60606000600460003373ffffffffffffffffffffffffffffffffffffffff1673ffffffffffffffffffffffffffffffffffffffff1681526020019081526020016000209050806007018054806020026020016040519081016040528092919081815260200182805480156107da57602002820191906000526020600020905b8154815260200190600101908083116107c6575b505050505091505090565b6000600260009054906101000a900473ffffffffffffffffffffffffffffffffffffffff1673ffffffffffffffffffffffffffffffffffffffff166359150c1d336040518263ffffffff1660e01b8152600401610842919061317d565b602060405180830381865afa15801561085f573d6000803e3d6000fd5b505050506040513d601f19601f8201168201806040525081019061088391906131ad565b90506000548110156108ca576040517f08c379a00000000000000000000000000000000000000000000000000000000081526004016108c190613226565b60405180910390fd5b6000600560008581526020019081526020016000209050600015158160050160009054906101000a900460ff16151514610939576040517f08c379a000000000000000000000000000000000000000000000000000000000815260040161093090613292565b60405180910390fd5b600d60008154610948906132b2565b919050819055506000600c6000600d5481526020019081526020016000209050600d5481600001819055508481600101819055508160050160019054906101000a900473ffffffffffffffffffffffffffffffffffffffff168160020160006101000a81548173ffffffffffffffffffffffffffffffffffffffff021916908373ffffffffffffffffffffffffffffffffffffffff16021790555083816003018190555060008160040160006101000a81548160ff021916908315150217905550338160040160016101000a81548173ffffffffffffffffffffffffffffffffffffffff021916908373ffffffffffffffffffffffffffffffffffffffff16021790555042816005018190555060008160090160006101000a81548160ff0219169083151502179055506000600e60003373ffffffffffffffffffffffffffffffffffffffff1673ffffffffffffffffffffffffffffffffffffffff168152602001908152602001600020905080600001600d549080600181540180825580915050600190039060005260206000200160009091909190915055338160010160006101000a81548173ffffffffffffffffffffffffffffffffffffffff021916908373ffffffffffffffffffffffffffffffffffffffff160217905550826003015485610b3591906130cd565b816002018190555082600601600d549080600181540180825580915050600190039060005260206000200160009091909190915055826007018590806001815401808255809150506001900390600052602060002001600090919091909150556000600460008560050160019054906101000a900473ffffffffffffffffffffffffffffffffffffffff1673ffffffffffffffffffffffffffffffffffffffff1673ffffffffffffffffffffffffffffffffffffffff16815260200190815260200160002090508060070187908060018154018082558091505060019003906000526020600020016000909190919091505580600701600d54908060018154018082558091505060019003906000526020600020016000909190919091505580600701869080600181540180825580915050600190039060005260206000200160009091909190915055600d547f1241757208f08d63f291d85cafba51f9c01fc80b77f21fb69b4b7ce9908b9a0e60405160405180910390a250505050505050565b60008151835114610ccb5760009050610d1d565b81604051602001610cdc9190613336565b6040516020818303038152906040528051906020012083604051602001610d039190613336565b604051602081830303815290604052805190602001201490505b92915050565b60006005600083815260200190815260200160002090506000600460008360050160019054906101000a900473ffffffffffffffffffffffffffffffffffffffff1673ffffffffffffffffffffffffffffffffffffffff1673ffffffffffffffffffffffffffffffffffffffff1681526020019081526020016000209050600015158260050160009054906101000a900460ff16151514610df9576040517f08c379a0000000000000000000000000000000000000000000000000000000008152600401610df090613292565b60405180910390fd5b3373ffffffffffffffffffffffffffffffffffffffff168260050160019054906101000a900473ffffffffffffffffffffffffffffffffffffffff1673ffffffffffffffffffffffffffffffffffffffff1614610e8b576040517f08c379a0000000000000000000000000000000000000000000000000000000008152600401610e82906133bf565b60405180910390fd5b60005b6007805490508110156110ae576000610fd9846000018054610eaf9061340e565b80601f0160208091040260200160405190810160405280929190818152602001828054610edb9061340e565b8015610f285780601f10610efd57610100808354040283529160200191610f28565b820191906000526020600020905b815481529060010190602001808311610f0b57829003601f168201915b505050505060078481548110610f4157610f4061303e565b5b906000526020600020018054610f569061340e565b80601f0160208091040260200160405190810160405280929190818152602001828054610f829061340e565b8015610fcf5780601f10610fa457610100808354040283529160200191610fcf565b820191906000526020600020905b815481529060010190602001808311610fb257829003601f168201915b5050505050610cb7565b9050600115158115150361109a5760078281548110610ffb57610ffa61303e565b5b9060005260206000200160006110119190612648565b600982815481106110255761102461303e565b5b9060005260206000200160009055600882815481106110475761104661303e565b5b9060005260206000200160009055600a82815481106110695761106861303e565b5b9060005260206000200160009055600b828154811061108b5761108a61303e565b5b90600052602060002001600090555b5080806110a6906132b2565b915050610e8e565b5060005b816000018054905081101561133d5760006112018460000180546110d59061340e565b80601f01602080910402602001604051908101604052809291908181526020018280546111019061340e565b801561114e5780601f106111235761010080835404028352916020019161114e565b820191906000526020600020905b81548152906001019060200180831161113157829003601f168201915b50505050508460000184815481106111695761116861303e565b5b90600052602060002001805461117e9061340e565b80601f01602080910402602001604051908101604052809291908181526020018280546111aa9061340e565b80156111f75780601f106111cc576101008083540402835291602001916111f7565b820191906000526020600020905b8154815290600101906020018083116111da57829003601f168201915b5050505050610cb7565b90506001151581151503611329576040518060400160405280600181526020017f200000000000000000000000000000000000000000000000000000000000000081525083600001838154811061125b5761125a61303e565b5b90600052602060002001908161127191906135e1565b50600083600201838154811061128a5761128961303e565b5b906000526020600020018190555060008360060160006101000a81548173ffffffffffffffffffffffffffffffffffffffff021916908373ffffffffffffffffffffffffffffffffffffffff16021790555060008360010183815481106112f4576112f361303e565b5b9060005260206000200181905550600083600301838154811061131a5761131961303e565b5b90600052602060002001819055505b508080611335906132b2565b9150506110b2565b506040518060400160405280600181526020017f200000000000000000000000000000000000000000000000000000000000000081525082600001908161138491906135e1565b506000826002018190555060008260050160016101000a81548173ffffffffffffffffffffffffffffffffffffffff021916908373ffffffffffffffffffffffffffffffffffffffff1602179055506000826001018190555060008260030181905550505050565b60065481565b6060806060806060600760086009600a600b84805480602002602001604051908101604052809291908181526020016000905b828210156114d15783829060005260206000200180546114449061340e565b80601f01602080910402602001604051908101604052809291908181526020018280546114709061340e565b80156114bd5780601f10611492576101008083540402835291602001916114bd565b820191906000526020600020905b8154815290600101906020018083116114a057829003601f168201915b505050505081526020019060010190611425565b5050505094508380548060200260200160405190810160405280929190818152602001828054801561152257602002820191906000526020600020905b81548152602001906001019080831161150e575b505050505093508280548060200260200160405190810160405280929190818152602001828054801561157457602002820191906000526020600020905b815481526020019060010190808311611560575b50505050509250818054806020026020016040519081016040528092919081815260200182805480156115c657602002820191906000526020600020905b8154815260200190600101908083116115b2575b505050505091508080548060200260200160405190810160405280929190818152602001828054801561161857602002820191906000526020600020905b815481526020019060010190808311611604575b50505050509050945094509450945094509091929394565b600c6020528060005260406000206000915090508060000154908060010154908060020160009054906101000a900473ffffffffffffffffffffffffffffffffffffffff16908060030154908060040160009054906101000a900460ff16908060040160019054906101000a900473ffffffffffffffffffffffffffffffffffffffff16908060050154908060060154908060090160009054906101000a900460ff16905089565b6000600c6000838152602001908152602001600020905082816001015414611735576040517f08c379a000000000000000000000000000000000000000000000000000000000815260040161172c90613725565b60405180910390fd5b60006117418484610595565b9050600061174e84612280565b905060008360040160006101000a81548160ff02191690831515021790555060018360090160006101000a81548160ff02191690831515021790555080827fd3fd2d1b21f09449ca3e9e0d98252f08fe6c036211da942892c07431c0cd6ab760405160405180910390a35050505050565b600260009054906101000a900473ffffffffffffffffffffffffffffffffffffffff1681565b600d5481565b6000600260009054906101000a900473ffffffffffffffffffffffffffffffffffffffff1673ffffffffffffffffffffffffffffffffffffffff166359150c1d336040518263ffffffff1660e01b8152600401611848919061317d565b602060405180830381865afa158015611865573d6000803e3d6000fd5b505050506040513d601f19601f8201168201806040525081019061188991906131ad565b90506000548110156118d0576040517f08c379a00000000000000000000000000000000000000000000000000000000081526004016118c790613226565b60405180910390fd5b6000600460003373ffffffffffffffffffffffffffffffffffffffff1673ffffffffffffffffffffffffffffffffffffffff1681526020019081526020016000209050806000018690806001815401808255809150506001900390600052602060002001600090919091909150908161194991906135e1565b50806001018590806001815401808255809150506001900390600052602060002001600090919091909150558060020184908060018154018082558091505060019003906000526020600020016000909190919091505580600501600090806001815401808255809150506001900390600052602060002090602091828204019190069091909190916101000a81548160ff021916908315150217905550338160060160006101000a81548173ffffffffffffffffffffffffffffffffffffffff021916908373ffffffffffffffffffffffffffffffffffffffff16021790555080600301839080600181540180825580915050600190039060005260206000200160009091909190915055600786908060018154018082558091505060019003906000526020600020016000909190919091509081611a8991906135e1565b5060088590806001815401808255809150506001900390600052602060002001600090919091909150556009849080600181540180825580915050600190039060005260206000200160009091909190915055600a839080600181540180825580915050600190039060005260206000200160009091909190915055600660008154611b14906132b2565b919050819055506000600560006006548152602001908152602001600020905086816000019081611b4591906135e1565b5085816001018190555084816002018190555060008160050160006101000a81548160ff021916908315150217905550338160050160016101000a81548173ffffffffffffffffffffffffffffffffffffffff021916908373ffffffffffffffffffffffffffffffffffffffff1602179055506006548160040181905550838160030181905550816004016006549080600181540180825580915050600190039060005260206000200160009091909190915055600b60065490806001815401808255809150506001900390600052602060002001600090919091909150556006547f884db65738c754ce57a1862acfbd7fafb0d480e827837dc98f8d9abb2ec7103a60405160405180910390a250505050505050565b60005481565b600e6020528060005260406000206000915090508060010160009054906101000a900473ffffffffffffffffffffffffffffffffffffffff16908060020154905082565b60606000806000806000600560008881526020019081526020016000209050806000018160020154826001015483600301548460050160009054906101000a900460ff16848054611cf69061340e565b80601f0160208091040260200160405190810160405280929190818152602001828054611d229061340e565b8015611d6f5780601f10611d4457610100808354040283529160200191611d6f565b820191906000526020600020905b815481529060010190602001808311611d5257829003601f168201915b50505050509450955095509550955095505091939590929450565b6000600e60003373ffffffffffffffffffffffffffffffffffffffff1673ffffffffffffffffffffffffffffffffffffffff16815260200190815260200160002090506000600c60008481526020019081526020016000209050600115158160090160009054906101000a900460ff16151514611e3c576040517f08c379a0000000000000000000000000000000000000000000000000000000008152600401611e33906137b7565b60405180910390fd5b60008260020181905550505050565b6000600c600083815260200190815260200160002090506000600560008581526020019081526020016000209050600060018360080180549050611e8f919061300a565b90506000836008018281548110611ea957611ea861303e565b5b906000526020600020015442611ebf919061300a565b90506000610e1082611ed1919061309c565b90506000846003015482611ee591906130cd565b905085600701819080600181540180825580915050600190039060005260206000200160009091909190915055856008014290806001815401808255809150506001900390600052602060002001600090919091909150556000600e60008860040160019054906101000a900473ffffffffffffffffffffffffffffffffffffffff1673ffffffffffffffffffffffffffffffffffffffff1673ffffffffffffffffffffffffffffffffffffffff1681526020019081526020016000209050818160020154611fb4919061300a565b8160020181905550817f4a32684afa3332595fe84daed87088e168752352cefff15acb6d7a8e0d7419aa60405160405180910390a2505050505050505050565b60608060608060606000600460003373ffffffffffffffffffffffffffffffffffffffff1673ffffffffffffffffffffffffffffffffffffffff1681526020019081526020016000209050806000018160040182600201836001018460030184805480602002602001604051908101604052809291908181526020016000905b828210156121205783829060005260206000200180546120939061340e565b80601f01602080910402602001604051908101604052809291908181526020018280546120bf9061340e565b801561210c5780601f106120e15761010080835404028352916020019161210c565b820191906000526020600020905b8154815290600101906020018083116120ef57829003601f168201915b505050505081526020019060010190612074565b5050505094508380548060200260200160405190810160405280929190818152602001828054801561217157602002820191906000526020600020905b81548152602001906001019080831161215d575b50505050509350828054806020026020016040519081016040528092919081815260200182805480156121c357602002820191906000526020600020905b8154815260200190600101908083116121af575b505050505092508180548060200260200160405190810160405280929190818152602001828054801561221557602002820191906000526020600020905b815481526020019060010190808311612201575b505050505091508080548060200260200160405190810160405280929190818152602001828054801561226757602002820191906000526020600020905b815481526020019060010190808311612253575b5050505050905095509550955095509550509091929394565b600080600c6000848152602001908152602001600020905060006005600083600101548152602001908152602001600020905060008260060154426122c5919061300a565b90506000610e10826122d7919061309c565b905060008185600301546122eb919061300a565b905060008460030154826122ff91906130cd565b9050809650505050505050919050565b60056020528060005260406000206000915090508060000180546123329061340e565b80601f016020809104026020016040519081016040528092919081815260200182805461235e9061340e565b80156123ab5780601f10612380576101008083540402835291602001916123ab565b820191906000526020600020905b81548152906001019060200180831161238e57829003601f168201915b5050505050908060010154908060020154908060030154908060040154908060050160009054906101000a900460ff16908060050160019054906101000a900473ffffffffffffffffffffffffffffffffffffffff16908060080154908060090154905089565b6000600460003373ffffffffffffffffffffffffffffffffffffffff1673ffffffffffffffffffffffffffffffffffffffff16815260200190815260200160002090506000600c6000848152602001908152602001600020905060005b82600401805490508110156125ee5781600101548360040182815481106124995761249861303e565b5b9060005260206000200154036125db57600015158360050182815481106124c3576124c261303e565b5b90600052602060002090602091828204019190069054906101000a900460ff16151514612525576040517f08c379a000000000000000000000000000000000000000000000000000000000815260040161251c90613849565b60405180910390fd5b600183600501828154811061253d5761253c61303e565b5b90600052602060002090602091828204019190066101000a81548160ff02191690831515021790555060018260040160006101000a81548160ff0219169083151502179055508160070160009080600181540180825580915050600190039060005260206000200160009091909190915055816008014290806001815401808255809150506001900390600052602060002001600090919091909150555b80806125e6906132b2565b91505061246f565b5060006005600083600101548152602001908152602001600020905083816008018190555042816009018190555060018160050160006101000a81548160ff02191690831515021790555042826006018190555050505050565b5080546126549061340e565b6000825580601f106126665750612685565b601f0160209004906000526020600020908101906126849190612688565b5b50565b5b808211156126a1576000816000905550600101612689565b5090565b6000604051905090565b600080fd5b600080fd5b600073ffffffffffffffffffffffffffffffffffffffff82169050919050565b60006126e4826126b9565b9050919050565b6126f4816126d9565b81146126ff57600080fd5b50565b600081359050612711816126eb565b92915050565b60006020828403121561272d5761272c6126af565b5b600061273b84828501612702565b91505092915050565b600061274f826126b9565b9050919050565b61275f81612744565b82525050565b600060208201905061277a6000830184612756565b92915050565b6000819050919050565b61279381612780565b811461279e57600080fd5b50565b6000813590506127b08161278a565b92915050565b600080604083850312156127cd576127cc6126af565b5b60006127db858286016127a1565b92505060206127ec858286016127a1565b9150509250929050565b6127ff81612780565b82525050565b600060208201905061281a60008301846127f6565b92915050565b600081519050919050565b600082825260208201905092915050565b6000819050602082019050919050565b61285581612780565b82525050565b6000612867838361284c565b60208301905092915050565b6000602082019050919050565b600061288b82612820565b612895818561282b565b93506128a08361283c565b8060005b838110156128d15781516128b8888261285b565b97506128c383612873565b9250506001810190506128a4565b5085935050505092915050565b600060208201905081810360008301526128f88184612880565b905092915050565b600080fd5b600080fd5b6000601f19601f8301169050919050565b7f4e487b7100000000000000000000000000000000000000000000000000000000600052604160045260246000fd5b6129538261290a565b810181811067ffffffffffffffff821117156129725761297161291b565b5b80604052505050565b60006129856126a5565b9050612991828261294a565b919050565b600067ffffffffffffffff8211156129b1576129b061291b565b5b6129ba8261290a565b9050602081019050919050565b82818337600083830152505050565b60006129e96129e484612996565b61297b565b905082815260208101848484011115612a0557612a04612905565b5b612a108482856129c7565b509392505050565b600082601f830112612a2d57612a2c612900565b5b8135612a3d8482602086016129d6565b91505092915050565b60008060408385031215612a5d57612a5c6126af565b5b600083013567ffffffffffffffff811115612a7b57612a7a6126b4565b5b612a8785828601612a18565b925050602083013567ffffffffffffffff811115612aa857612aa76126b4565b5b612ab485828601612a18565b9150509250929050565b60008115159050919050565b612ad381612abe565b82525050565b6000602082019050612aee6000830184612aca565b92915050565b600060208284031215612b0a57612b096126af565b5b6000612b18848285016127a1565b91505092915050565b600081519050919050565b600082825260208201905092915050565b6000819050602082019050919050565b600081519050919050565b600082825260208201905092915050565b60005b83811015612b87578082015181840152602081019050612b6c565b83811115612b96576000848401525b50505050565b6000612ba782612b4d565b612bb18185612b58565b9350612bc1818560208601612b69565b612bca8161290a565b840191505092915050565b6000612be18383612b9c565b905092915050565b6000602082019050919050565b6000612c0182612b21565b612c0b8185612b2c565b935083602082028501612c1d85612b3d565b8060005b85811015612c595784840389528151612c3a8582612bd5565b9450612c4583612be9565b925060208a01995050600181019050612c21565b50829750879550505050505092915050565b600060a0820190508181036000830152612c858188612bf6565b90508181036020830152612c998187612880565b90508181036040830152612cad8186612880565b90508181036060830152612cc18185612880565b90508181036080830152612cd58184612880565b90509695505050505050565b612cea816126d9565b82525050565b600061012082019050612d06600083018c6127f6565b612d13602083018b6127f6565b612d20604083018a612ce1565b612d2d60608301896127f6565b612d3a6080830188612aca565b612d4760a0830187612ce1565b612d5460c08301866127f6565b612d6160e08301856127f6565b612d6f610100830184612aca565b9a9950505050505050505050565b6000819050919050565b6000612da2612d9d612d98846126b9565b612d7d565b6126b9565b9050919050565b6000612db482612d87565b9050919050565b6000612dc682612da9565b9050919050565b612dd681612dbb565b82525050565b6000602082019050612df16000830184612dcd565b92915050565b60008060008060808587031215612e1157612e106126af565b5b600085013567ffffffffffffffff811115612e2f57612e2e6126b4565b5b612e3b87828801612a18565b9450506020612e4c878288016127a1565b9350506040612e5d878288016127a1565b9250506060612e6e878288016127a1565b91505092959194509250565b6000604082019050612e8f6000830185612ce1565b612e9c60208301846127f6565b9392505050565b600082825260208201905092915050565b6000612ebf82612b4d565b612ec98185612ea3565b9350612ed9818560208601612b69565b612ee28161290a565b840191505092915050565b600060a0820190508181036000830152612f078188612eb4565b9050612f1660208301876127f6565b612f2360408301866127f6565b612f3060608301856127f6565b612f3d6080830184612aca565b9695505050505050565b6000610120820190508181036000830152612f62818c612eb4565b9050612f71602083018b6127f6565b612f7e604083018a6127f6565b612f8b60608301896127f6565b612f9860808301886127f6565b612fa560a0830187612aca565b612fb260c0830186612756565b612fbf60e08301856127f6565b612fcd6101008301846127f6565b9a9950505050505050505050565b7f4e487b7100000000000000000000000000000000000000000000000000000000600052601160045260246000fd5b600061301582612780565b915061302083612780565b92508282101561303357613032612fdb565b5b828203905092915050565b7f4e487b7100000000000000000000000000000000000000000000000000000000600052603260045260246000fd5b7f4e487b7100000000000000000000000000000000000000000000000000000000600052601260045260246000fd5b60006130a782612780565b91506130b283612780565b9250826130c2576130c161306d565b5b828204905092915050565b60006130d882612780565b91506130e383612780565b9250817fffffffffffffffffffffffffffffffffffffffffffffffffffffffffffffffff048311821515161561311c5761311b612fdb565b5b828202905092915050565b600061313282612780565b915061313d83612780565b9250827fffffffffffffffffffffffffffffffffffffffffffffffffffffffffffffffff0382111561317257613171612fdb565b5b828201905092915050565b60006020820190506131926000830184612ce1565b92915050565b6000815190506131a78161278a565b92915050565b6000602082840312156131c3576131c26126af565b5b60006131d184828501613198565b91505092915050565b7f496e73756666696369656e74207374616b650000000000000000000000000000600082015250565b6000613210601283612ea3565b915061321b826131da565b602082019050919050565b6000602082019050818103600083015261323f81613203565b9050919050565b7f5468652064657669636520697320616c726561647920656e6761676564000000600082015250565b600061327c601d83612ea3565b915061328782613246565b602082019050919050565b600060208201905081810360008301526132ab8161326f565b9050919050565b60006132bd82612780565b91507fffffffffffffffffffffffffffffffffffffffffffffffffffffffffffffffff82036132ef576132ee612fdb565b5b600182019050919050565b600081905092915050565b600061331082612b4d565b61331a81856132fa565b935061332a818560208601612b69565b80840191505092915050565b60006133428284613305565b915081905092915050565b7f596f7520617265206e6f7420746865206f776e6572206f66207468652064657660008201527f6963652e00000000000000000000000000000000000000000000000000000000602082015250565b60006133a9602483612ea3565b91506133b48261334d565b604082019050919050565b600060208201905081810360008301526133d88161339c565b9050919050565b7f4e487b7100000000000000000000000000000000000000000000000000000000600052602260045260246000fd5b6000600282049050600182168061342657607f821691505b602082108103613439576134386133df565b5b50919050565b60008190508160005260206000209050919050565b60006020601f8301049050919050565b600082821b905092915050565b6000600883026134a17fffffffffffffffffffffffffffffffffffffffffffffffffffffffffffffffff82613464565b6134ab8683613464565b95508019841693508086168417925050509392505050565b60006134de6134d96134d484612780565b612d7d565b612780565b9050919050565b6000819050919050565b6134f8836134c3565b61350c613504826134e5565b848454613471565b825550505050565b600090565b613521613514565b61352c8184846134ef565b505050565b5b8181101561355057613545600082613519565b600181019050613532565b5050565b601f821115613595576135668161343f565b61356f84613454565b8101602085101561357e578190505b61359261358a85613454565b830182613531565b50505b505050565b600082821c905092915050565b60006135b86000198460080261359a565b1980831691505092915050565b60006135d183836135a7565b9150826002028217905092915050565b6135ea82612b4d565b67ffffffffffffffff8111156136035761360261291b565b5b61360d825461340e565b613618828285613554565b600060209050601f83116001811461364b5760008415613639578287015190505b61364385826135c5565b8655506136ab565b601f1984166136598661343f565b60005b828110156136815784890151825560018201915060208501945060208101905061365c565b8683101561369e578489015161369a601f8916826135a7565b8355505b6001600288020188555050505b505050505050565b7f546869732064657669636520646f65736e27742062656c6f6e6720746f20796f60008201527f752e000000000000000000000000000000000000000000000000000000000000602082015250565b600061370f602283612ea3565b915061371a826136b3565b604082019050919050565b6000602082019050818103600083015261373e81613702565b9050919050565b7f54686520646576696365206f662074686520746869732072657175657374206860008201527f6173206e6f7420656e6465640000000000000000000000000000000000000000602082015250565b60006137a1602c83612ea3565b91506137ac82613745565b604082019050919050565b600060208201905081810360008301526137d081613794565b9050919050565b7f5468652070726f766964657220697320616c726561647920627573792c206e6f60008201527f207265736f757263657320617661696c61626c652e0000000000000000000000602082015250565b6000613833603583612ea3565b915061383e826137d7565b604082019050919050565b6000602082019050818103600083015261386281613826565b905091905056fea2646970667358221220ad6298f73a955ea9bece060662b90f65c7e3cdfd76555994caeae3f92c0ec9f664736f6c634300080f0033",
  "linkReferences": {},
  "deployedLinkReferences": {}
}