{
  "_format": "hh-sol-artifact-1",
  "contractName": "StakingPoolContract",
  "sourceName": "contracts/StakingPoolContract.sol",
  "abi": [
    {
      "inputs": [
        {
          "internalType": "address",
          "name": "tokenAddress",
          "type": "address"
        },
        {
          "internalType": "uint256",
          "name": "_FIXED_APY",
          "type": "uint256"
        },
        {
          "internalType": "uint256",
          "name": "minmum_staking_time_in_days",
          "type": "uint256"
        }
      ],
      "stateMutability": "nonpayable",
      "type": "constructor"
    },
    {
      "anonymous": false,
      "inputs": [
        {
          "indexed": true,
          "internalType": "address",
          "name": "staker",
          "type": "address"
        },
        {
          "indexed": false,
          "internalType": "uint256",
          "name": "amount",
          "type": "uint256"
        }
      ],
      "name": "RewardsWithdrawn",
      "type": "event"
    },
    {
      "anonymous": false,
      "inputs": [
        {
          "indexed": true,
          "internalType": "address",
          "name": "staker",
          "type": "address"
        },
        {
          "indexed": true,
          "internalType": "uint256",
          "name": "id",
          "type": "uint256"
        },
        {
          "indexed": false,
          "internalType": "uint256",
          "name": "amount",
          "type": "uint256"
        },
        {
          "indexed": false,
          "internalType": "uint256",
          "name": "timestamp",
          "type": "uint256"
        }
      ],
      "name": "StakeDeposited",
      "type": "event"
    },
    {
      "anonymous": false,
      "inputs": [
        {
          "indexed": true,
          "internalType": "address",
          "name": "staker",
          "type": "address"
        },
        {
          "indexed": true,
          "internalType": "uint256",
          "name": "id",
          "type": "uint256"
        },
        {
          "indexed": false,
          "internalType": "uint256",
          "name": "amount",
          "type": "uint256"
        },
        {
          "indexed": false,
          "internalType": "uint256",
          "name": "reward",
          "type": "uint256"
        },
        {
          "indexed": false,
          "internalType": "uint256",
          "name": "timestamp",
          "type": "uint256"
        }
      ],
      "name": "StakeWithdrawn",
      "type": "event"
    },
    {
      "inputs": [],
      "name": "MINIMUM_STAKING_TIME",
      "outputs": [
        {
          "internalType": "uint256",
          "name": "",
          "type": "uint256"
        }
      ],
      "stateMutability": "view",
      "type": "function"
    },
    {
      "inputs": [
        {
          "internalType": "address",
          "name": "staker",
          "type": "address"
        },
        {
          "internalType": "uint256",
          "name": "stake_id",
          "type": "uint256"
        }
      ],
      "name": "calculateRewardPerStake",
      "outputs": [
        {
          "internalType": "uint256",
          "name": "",
          "type": "uint256"
        }
      ],
      "stateMutability": "view",
      "type": "function"
    },
    {
      "inputs": [
        {
          "internalType": "address",
          "name": "newOwner",
          "type": "address"
        }
      ],
      "name": "changeOwner",
      "outputs": [],
      "stateMutability": "nonpayable",
      "type": "function"
    },
    {
      "inputs": [
        {
          "internalType": "uint256",
          "name": "amount",
          "type": "uint256"
        }
      ],
      "name": "depositStake",
      "outputs": [
        {
          "internalType": "uint256",
          "name": "",
          "type": "uint256"
        }
      ],
      "stateMutability": "nonpayable",
      "type": "function"
    },
    {
      "inputs": [],
      "name": "getOwner",
      "outputs": [
        {
          "internalType": "address",
          "name": "",
          "type": "address"
        }
      ],
      "stateMutability": "view",
      "type": "function"
    },
    {
      "inputs": [
        {
          "internalType": "address",
          "name": "staker",
          "type": "address"
        }
      ],
      "name": "getRewardsWithdrawable",
      "outputs": [
        {
          "internalType": "uint256",
          "name": "",
          "type": "uint256"
        }
      ],
      "stateMutability": "view",
      "type": "function"
    },
    {
      "inputs": [
        {
          "internalType": "address",
          "name": "staker",
          "type": "address"
        },
        {
          "internalType": "uint256",
          "name": "stake_id",
          "type": "uint256"
        }
      ],
      "name": "getStakeAmount",
      "outputs": [
        {
          "internalType": "uint256",
          "name": "",
          "type": "uint256"
        }
      ],
      "stateMutability": "view",
      "type": "function"
    },
    {
      "inputs": [],
      "name": "getStakeByProvider",
      "outputs": [
        {
          "internalType": "uint256[]",
          "name": "",
          "type": "uint256[]"
        },
        {
          "internalType": "uint256[]",
          "name": "",
          "type": "uint256[]"
        }
      ],
      "stateMutability": "view",
      "type": "function"
    },
    {
      "inputs": [
        {
          "internalType": "address",
          "name": "staker",
          "type": "address"
        },
        {
          "internalType": "uint256",
          "name": "stake_id",
          "type": "uint256"
        }
      ],
      "name": "getStakeTimestamp",
      "outputs": [
        {
          "internalType": "uint256",
          "name": "",
          "type": "uint256"
        }
      ],
      "stateMutability": "view",
      "type": "function"
    },
    {
      "inputs": [],
      "name": "getTotalStakeByProvider",
      "outputs": [
        {
          "internalType": "uint256",
          "name": "",
          "type": "uint256"
        }
      ],
      "stateMutability": "view",
      "type": "function"
    },
    {
      "inputs": [
        {
          "internalType": "address",
          "name": "staker",
          "type": "address"
        }
      ],
      "name": "getTotalStakesCount",
      "outputs": [
        {
          "internalType": "uint256",
          "name": "",
          "type": "uint256"
        }
      ],
      "stateMutability": "view",
      "type": "function"
    },
    {
      "inputs": [],
      "name": "get_FIXED_APY",
      "outputs": [
        {
          "internalType": "uint256",
          "name": "",
          "type": "uint256"
        }
      ],
      "stateMutability": "view",
      "type": "function"
    },
    {
      "inputs": [],
      "name": "instant_withdrawl_allowed",
      "outputs": [
        {
          "internalType": "bool",
          "name": "",
          "type": "bool"
        }
      ],
      "stateMutability": "view",
      "type": "function"
    },
    {
      "inputs": [
        {
          "internalType": "uint256",
          "name": "new_FIXED_APY",
          "type": "uint256"
        }
      ],
      "name": "set_FIXED_APY",
      "outputs": [],
      "stateMutability": "nonpayable",
      "type": "function"
    },
    {
      "inputs": [
        {
          "internalType": "uint256",
          "name": "time",
          "type": "uint256"
        },
        {
          "internalType": "uint256",
          "name": "id",
          "type": "uint256"
        }
      ],
      "name": "set_STAKING_TIME",
      "outputs": [],
      "stateMutability": "nonpayable",
      "type": "function"
    },
    {
      "inputs": [],
      "name": "toggleWithdrawlInstantOrMonthly",
      "outputs": [],
      "stateMutability": "nonpayable",
      "type": "function"
    },
    {
      "inputs": [
        {
          "internalType": "uint256",
          "name": "_days",
          "type": "uint256"
        }
      ],
      "name": "updateMinimumStakingTime",
      "outputs": [],
      "stateMutability": "nonpayable",
      "type": "function"
    },
    {
      "inputs": [
        {
          "internalType": "uint256",
          "name": "amount",
          "type": "uint256"
        },
        {
          "internalType": "address",
          "name": "_staker",
          "type": "address"
        }
      ],
      "name": "withdrawReward",
      "outputs": [],
      "stateMutability": "nonpayable",
      "type": "function"
    },
    {
      "inputs": [
        {
          "internalType": "uint256",
          "name": "amount",
          "type": "uint256"
        },
        {
          "internalType": "uint256",
          "name": "stake_id",
          "type": "uint256"
        }
      ],
      "name": "withdrawStake",
      "outputs": [],
      "stateMutability": "nonpayable",
      "type": "function"
    }
  ],
  "bytecode": "0x60806040526000600360006101000a81548160ff0219169083151502179055503480156200002c57600080fd5b50604051620023e7380380620023e78339818101604052810190620000529190620001c1565b600160008190555082600860006101000a81548173ffffffffffffffffffffffffffffffffffffffff021916908373ffffffffffffffffffffffffffffffffffffffff160217905550603c80601883620000ad91906200024c565b620000b991906200024c565b620000c591906200024c565b6002819055508160018190555033600360016101000a81548173ffffffffffffffffffffffffffffffffffffffff021916908373ffffffffffffffffffffffffffffffffffffffff160217905550505050620002ad565b600080fd5b600073ffffffffffffffffffffffffffffffffffffffff82169050919050565b60006200014e8262000121565b9050919050565b620001608162000141565b81146200016c57600080fd5b50565b600081519050620001808162000155565b92915050565b6000819050919050565b6200019b8162000186565b8114620001a757600080fd5b50565b600081519050620001bb8162000190565b92915050565b600080600060608486031215620001dd57620001dc6200011c565b5b6000620001ed868287016200016f565b93505060206200020086828701620001aa565b92505060406200021386828701620001aa565b9150509250925092565b7f4e487b7100000000000000000000000000000000000000000000000000000000600052601160045260246000fd5b6000620002598262000186565b9150620002668362000186565b9250817fffffffffffffffffffffffffffffffffffffffffffffffffffffffffffffffff0483118215151615620002a257620002a16200021d565b5b828202905092915050565b61212a80620002bd6000396000f3fe608060405234801561001057600080fd5b50600436106101215760003560e01c806383ec5183116100ad578063c1550d2411610071578063c1550d24146102e2578063cb82cc8f14610312578063d4dcce5e14610342578063d4fe5f0314610361578063f1fdf4691461039157610121565b806383ec51831461023e578063893d20e81461026e5780639fd478741461028c578063a6f9dae1146102a8578063a82df1b0146102c457610121565b80635a7d3080116100f45780635a7d30801461019a5780635d30ba42146101ca57806368b58e89146101e85780636a2c5352146102045780637dc9d9921461022057610121565b806302657ad01461012657806331f837ee14610144578063365e2abf1461016057806352ee71fc14610190575b600080fd5b61012e6103ad565b60405161013b91906115b1565b60405180910390f35b61015e600480360381019061015991906115fd565b6103b3565b005b61017a6004803603810190610175919061169b565b61040f565b60405161018791906115b1565b60405180910390f35b61019861046d565b005b6101b460048036038101906101af91906116db565b610529565b6040516101c191906115b1565b60405180910390f35b6101d2610572565b6040516101df91906115b1565b60405180910390f35b61020260048036038101906101fd9190611708565b61057c565b005b61021e60048036038101906102199190611735565b610639565b005b6102286108d4565b60405161023591906115b1565b60405180910390f35b6102586004803603810190610253919061169b565b610979565b60405161026591906115b1565b60405180910390f35b6102766109d7565b6040516102839190611784565b60405180910390f35b6102a660048036038101906102a19190611708565b610a01565b005b6102c260048036038101906102bd91906116db565b610a9b565b005b6102cc610b6f565b6040516102d991906117ba565b60405180910390f35b6102fc60048036038101906102f791906116db565b610b82565b60405161030991906115b1565b60405180910390f35b61032c60048036038101906103279190611708565b610bcb565b60405161033991906115b1565b60405180910390f35b61034a610ed7565b604051610358929190611893565b60405180910390f35b61037b6004803603810190610376919061169b565b610fd2565b60405161038891906115b1565b60405180910390f35b6103ab60048036038101906103a691906115fd565b6110d2565b005b60025481565b81600460003373ffffffffffffffffffffffffffffffffffffffff1673ffffffffffffffffffffffffffffffffffffffff1681526020019081526020016000206000838152602001908152602001600020600201819055505050565b6000600460008473ffffffffffffffffffffffffffffffffffffffff1673ffffffffffffffffffffffffffffffffffffffff168152602001908152602001600020600083815260200190815260200160002060010154905092915050565b600360019054906101000a900473ffffffffffffffffffffffffffffffffffffffff1673ffffffffffffffffffffffffffffffffffffffff163373ffffffffffffffffffffffffffffffffffffffff16146104fd576040517f08c379a00000000000000000000000000000000000000000000000000000000081526004016104f490611927565b60405180910390fd5b600360009054906101000a900460ff1615600360006101000a81548160ff021916908315150217905550565b6000600660008373ffffffffffffffffffffffffffffffffffffffff1673ffffffffffffffffffffffffffffffffffffffff168152602001908152602001600020549050919050565b6000600154905090565b600360019054906101000a900473ffffffffffffffffffffffffffffffffffffffff1673ffffffffffffffffffffffffffffffffffffffff163373ffffffffffffffffffffffffffffffffffffffff161461060c576040517f08c379a000000000000000000000000000000000000000000000000000000000815260040161060390611927565b60405180910390fd5b603c8060188361061c9190611976565b6106269190611976565b6106309190611976565b60028190555050565b61064161153f565b6000600660008373ffffffffffffffffffffffffffffffffffffffff1673ffffffffffffffffffffffffffffffffffffffff16815260200190815260200160002054116106c3576040517f08c379a00000000000000000000000000000000000000000000000000000000081526004016106ba90611a1c565b60405180910390fd5b600660008273ffffffffffffffffffffffffffffffffffffffff1673ffffffffffffffffffffffffffffffffffffffff16815260200190815260200160002054821115610745576040517f08c379a000000000000000000000000000000000000000000000000000000000815260040161073c90611aae565b60405180910390fd5b81600660008373ffffffffffffffffffffffffffffffffffffffff1673ffffffffffffffffffffffffffffffffffffffff16815260200190815260200160002060008282546107949190611ace565b92505081905550600860009054906101000a900473ffffffffffffffffffffffffffffffffffffffff1673ffffffffffffffffffffffffffffffffffffffff1663a9059cbb82846040518363ffffffff1660e01b81526004016107f8929190611b02565b6020604051808303816000875af1158015610817573d6000803e3d6000fd5b505050506040513d601f19601f8201168201806040525081019061083b9190611b57565b61087a576040517f08c379a000000000000000000000000000000000000000000000000000000000815260040161087190611bd0565b60405180910390fd5b8073ffffffffffffffffffffffffffffffffffffffff167f8a43c4352486ec339f487f64af78ca5cbf06cd47833f073d3baf3a193e503161836040516108c091906115b1565b60405180910390a26108d061158e565b5050565b600080600760003373ffffffffffffffffffffffffffffffffffffffff1673ffffffffffffffffffffffffffffffffffffffff1681526020019081526020016000209050600080600090505b82600101805490508110156109705782600101818154811061094557610944611bf0565b5b90600052602060002001548261095b9190611c1f565b9150808061096890611c75565b915050610920565b50809250505090565b6000600460008473ffffffffffffffffffffffffffffffffffffffff1673ffffffffffffffffffffffffffffffffffffffff168152602001908152602001600020600083815260200190815260200160002060020154905092915050565b6000600360019054906101000a900473ffffffffffffffffffffffffffffffffffffffff16905090565b600360019054906101000a900473ffffffffffffffffffffffffffffffffffffffff1673ffffffffffffffffffffffffffffffffffffffff163373ffffffffffffffffffffffffffffffffffffffff1614610a91576040517f08c379a0000000000000000000000000000000000000000000000000000000008152600401610a8890611927565b60405180910390fd5b8060018190555050565b600360019054906101000a900473ffffffffffffffffffffffffffffffffffffffff1673ffffffffffffffffffffffffffffffffffffffff163373ffffffffffffffffffffffffffffffffffffffff1614610b2b576040517f08c379a0000000000000000000000000000000000000000000000000000000008152600401610b2290611927565b60405180910390fd5b80600360016101000a81548173ffffffffffffffffffffffffffffffffffffffff021916908373ffffffffffffffffffffffffffffffffffffffff16021790555050565b600360009054906101000a900460ff1681565b6000600560008373ffffffffffffffffffffffffffffffffffffffff1673ffffffffffffffffffffffffffffffffffffffff168152602001908152602001600020549050919050565b6000610bd561153f565b60008211610c18576040517f08c379a0000000000000000000000000000000000000000000000000000000008152600401610c0f90611d09565b60405180910390fd5b600860009054906101000a900473ffffffffffffffffffffffffffffffffffffffff1673ffffffffffffffffffffffffffffffffffffffff166323b872dd3330856040518463ffffffff1660e01b8152600401610c7793929190611d29565b6020604051808303816000875af1158015610c96573d6000803e3d6000fd5b505050506040513d601f19601f82011682018060405250810190610cba9190611b57565b610cf9576040517f08c379a0000000000000000000000000000000000000000000000000000000008152600401610cf090611dac565b60405180910390fd5b6000600560003373ffffffffffffffffffffffffffffffffffffffff1673ffffffffffffffffffffffffffffffffffffffff16815260200190815260200160002060008154610d4790611c75565b9190508190559050604051806060016040528082815260200184815260200142815250600460003373ffffffffffffffffffffffffffffffffffffffff1673ffffffffffffffffffffffffffffffffffffffff16815260200190815260200160002060008381526020019081526020016000206000820151816000015560208201518160010155604082015181600201559050506000600760003373ffffffffffffffffffffffffffffffffffffffff1673ffffffffffffffffffffffffffffffffffffffff16815260200190815260200160002090508060010184908060018154018082558091505060019003906000526020600020016000909190919091505580600001829080600181540180825580915050600190039060005260206000200160009091909190915055813373ffffffffffffffffffffffffffffffffffffffff167feb6032fe8d7a2f7003e5b33948bdc807f994be970351cd021a033784812c8baa8642604051610ebd929190611dcc565b60405180910390a38192505050610ed261158e565b919050565b6060806000600760003373ffffffffffffffffffffffffffffffffffffffff1673ffffffffffffffffffffffffffffffffffffffff1681526020019081526020016000209050806001018160000181805480602002602001604051908101604052809291908181526020018280548015610f7057602002820191906000526020600020905b815481526020019060010190808311610f5c575b5050505050915080805480602002602001604051908101604052809291908181526020018280548015610fc257602002820191906000526020600020905b815481526020019060010190808311610fae575b5050505050905092509250509091565b600080600460008573ffffffffffffffffffffffffffffffffffffffff1673ffffffffffffffffffffffffffffffffffffffff16815260200190815260200160002060008481526020019081526020016000206001015490506000600460008673ffffffffffffffffffffffffffffffffffffffff1673ffffffffffffffffffffffffffffffffffffffff1681526020019081526020016000206000858152602001908152602001600020600201549050600081426110919190611ace565b90506301e1338060646110a49190611976565b81600154856110b39190611976565b6110bd9190611976565b6110c79190611e24565b935050505092915050565b6110da61153f565b6000600560003373ffffffffffffffffffffffffffffffffffffffff1673ffffffffffffffffffffffffffffffffffffffff168152602001908152602001600020541161115c576040517f08c379a000000000000000000000000000000000000000000000000000000000815260040161115390611ea1565b60405180910390fd5b600460003373ffffffffffffffffffffffffffffffffffffffff1673ffffffffffffffffffffffffffffffffffffffff1681526020019081526020016000206000828152602001908152602001600020600101548211156111f2576040517f08c379a00000000000000000000000000000000000000000000000000000000081526004016111e990611f33565b60405180910390fd5b600254600460003373ffffffffffffffffffffffffffffffffffffffff1673ffffffffffffffffffffffffffffffffffffffff168152602001908152602001600020600083815260200190815260200160002060020154426112549190611ace565b10158061126d5750600360009054906101000a900460ff165b6112ac576040517f08c379a00000000000000000000000000000000000000000000000000000000081526004016112a390611fc5565b60405180910390fd5b60006112b83383610fd2565b905080600660003373ffffffffffffffffffffffffffffffffffffffff1673ffffffffffffffffffffffffffffffffffffffff16815260200190815260200160002060008282546113099190611c1f565b92505081905550600083600460003373ffffffffffffffffffffffffffffffffffffffff1673ffffffffffffffffffffffffffffffffffffffff1681526020019081526020016000206000858152602001908152602001600020600101546113719190611ace565b9050604051806060016040528084815260200182815260200142815250600460003373ffffffffffffffffffffffffffffffffffffffff1673ffffffffffffffffffffffffffffffffffffffff1681526020019081526020016000206000858152602001908152602001600020600082015181600001556020820151816001015560408201518160020155905050600860009054906101000a900473ffffffffffffffffffffffffffffffffffffffff1673ffffffffffffffffffffffffffffffffffffffff1663a9059cbb33866040518363ffffffff1660e01b815260040161145c929190611b02565b6020604051808303816000875af115801561147b573d6000803e3d6000fd5b505050506040513d601f19601f8201168201806040525081019061149f9190611b57565b6114de576040517f08c379a00000000000000000000000000000000000000000000000000000000081526004016114d590612031565b60405180910390fd5b823373ffffffffffffffffffffffffffffffffffffffff167f5d89f707c2087d1f0c2ec0ef87eb3bbf3c0eac23c0028df006c7de091258544d86854260405161152993929190612051565b60405180910390a3505061153b61158e565b5050565b600260005403611584576040517f08c379a000000000000000000000000000000000000000000000000000000000815260040161157b906120d4565b60405180910390fd5b6002600081905550565b6001600081905550565b6000819050919050565b6115ab81611598565b82525050565b60006020820190506115c660008301846115a2565b92915050565b600080fd5b6115da81611598565b81146115e557600080fd5b50565b6000813590506115f7816115d1565b92915050565b60008060408385031215611614576116136115cc565b5b6000611622858286016115e8565b9250506020611633858286016115e8565b9150509250929050565b600073ffffffffffffffffffffffffffffffffffffffff82169050919050565b60006116688261163d565b9050919050565b6116788161165d565b811461168357600080fd5b50565b6000813590506116958161166f565b92915050565b600080604083850312156116b2576116b16115cc565b5b60006116c085828601611686565b92505060206116d1858286016115e8565b9150509250929050565b6000602082840312156116f1576116f06115cc565b5b60006116ff84828501611686565b91505092915050565b60006020828403121561171e5761171d6115cc565b5b600061172c848285016115e8565b91505092915050565b6000806040838503121561174c5761174b6115cc565b5b600061175a858286016115e8565b925050602061176b85828601611686565b9150509250929050565b61177e8161165d565b82525050565b60006020820190506117996000830184611775565b92915050565b60008115159050919050565b6117b48161179f565b82525050565b60006020820190506117cf60008301846117ab565b92915050565b600081519050919050565b600082825260208201905092915050565b6000819050602082019050919050565b61180a81611598565b82525050565b600061181c8383611801565b60208301905092915050565b6000602082019050919050565b6000611840826117d5565b61184a81856117e0565b9350611855836117f1565b8060005b8381101561188657815161186d8882611810565b975061187883611828565b925050600181019050611859565b5085935050505092915050565b600060408201905081810360008301526118ad8185611835565b905081810360208301526118c18184611835565b90509392505050565b600082825260208201905092915050565b7f4e6f7420746865206f776e657200000000000000000000000000000000000000600082015250565b6000611911600d836118ca565b915061191c826118db565b602082019050919050565b6000602082019050818103600083015261194081611904565b9050919050565b7f4e487b7100000000000000000000000000000000000000000000000000000000600052601160045260246000fd5b600061198182611598565b915061198c83611598565b9250817fffffffffffffffffffffffffffffffffffffffffffffffffffffffffffffffff04831182151516156119c5576119c4611947565b5b828202905092915050565b7f4e6f2052657761726473204561726e6564000000000000000000000000000000600082015250565b6000611a066011836118ca565b9150611a11826119d0565b602082019050919050565b60006020820190508181036000830152611a35816119f9565b9050919050565b7f4974206973206d6f7265207468616e2063757272656e7420726577617264206560008201527f61726e65642e0000000000000000000000000000000000000000000000000000602082015250565b6000611a986026836118ca565b9150611aa382611a3c565b604082019050919050565b60006020820190508181036000830152611ac781611a8b565b9050919050565b6000611ad982611598565b9150611ae483611598565b925082821015611af757611af6611947565b5b828203905092915050565b6000604082019050611b176000830185611775565b611b2460208301846115a2565b9392505050565b611b348161179f565b8114611b3f57600080fd5b50565b600081519050611b5181611b2b565b92915050565b600060208284031215611b6d57611b6c6115cc565b5b6000611b7b84828501611b42565b91505092915050565b7f52657761726473207769746864726177616c206661696c656400000000000000600082015250565b6000611bba6019836118ca565b9150611bc582611b84565b602082019050919050565b60006020820190508181036000830152611be981611bad565b9050919050565b7f4e487b7100000000000000000000000000000000000000000000000000000000600052603260045260246000fd5b6000611c2a82611598565b9150611c3583611598565b9250827fffffffffffffffffffffffffffffffffffffffffffffffffffffffffffffffff03821115611c6a57611c69611947565b5b828201905092915050565b6000611c8082611598565b91507fffffffffffffffffffffffffffffffffffffffffffffffffffffffffffffffff8203611cb257611cb1611947565b5b600182019050919050565b7f496e76616c6964207374616b6520616d6f756e74000000000000000000000000600082015250565b6000611cf36014836118ca565b9150611cfe82611cbd565b602082019050919050565b60006020820190508181036000830152611d2281611ce6565b9050919050565b6000606082019050611d3e6000830186611775565b611d4b6020830185611775565b611d5860408301846115a2565b949350505050565b7f5374616b65207472616e73666572206661696c65640000000000000000000000600082015250565b6000611d966015836118ca565b9150611da182611d60565b602082019050919050565b60006020820190508181036000830152611dc581611d89565b9050919050565b6000604082019050611de160008301856115a2565b611dee60208301846115a2565b9392505050565b7f4e487b7100000000000000000000000000000000000000000000000000000000600052601260045260246000fd5b6000611e2f82611598565b9150611e3a83611598565b925082611e4a57611e49611df5565b5b828204905092915050565b7f4e6f207374616b6520666f756e64000000000000000000000000000000000000600082015250565b6000611e8b600e836118ca565b9150611e9682611e55565b602082019050919050565b60006020820190508181036000830152611eba81611e7e565b9050919050565b7f576974686472617720616d6f756e74206973206d6f7265207468616e2062616c60008201527f616e6365206f66207374616b652e000000000000000000000000000000000000602082015250565b6000611f1d602e836118ca565b9150611f2882611ec1565b604082019050919050565b60006020820190508181036000830152611f4c81611f10565b9050919050565b7f4d494e494d554d205354414b494e472054494d45206973206e6f74207061737360008201527f6564000000000000000000000000000000000000000000000000000000000000602082015250565b6000611faf6022836118ca565b9150611fba82611f53565b604082019050919050565b60006020820190508181036000830152611fde81611fa2565b9050919050565b7f5374616b65207769746864726177616c206661696c6564000000000000000000600082015250565b600061201b6017836118ca565b915061202682611fe5565b602082019050919050565b6000602082019050818103600083015261204a8161200e565b9050919050565b600060608201905061206660008301866115a2565b61207360208301856115a2565b61208060408301846115a2565b949350505050565b7f5265656e7472616e637947756172643a207265656e7472616e742063616c6c00600082015250565b60006120be601f836118ca565b91506120c982612088565b602082019050919050565b600060208201905081810360008301526120ed816120b1565b905091905056fea2646970667358221220dd104442bc650c33f56251ffb3af6e2bdcff6079f226bcd3fa1c94333bfef1f364736f6c634300080f0033",
  "linkReferences": {},
  "deployedLinkReferences": {}
}