{
  "_format": "hh-sol-artifact-1",
  "contractName": "StakingPoolContract",
  "sourceName": "contracts/StakingPoolContract.sol",
  "abi": [
    {
      "inputs": [
        {
          "internalType": "address",
          "name": "tokenAddress",
          "type": "address"
        },
        {
          "internalType": "uint256",
          "name": "_FIXED_APY",
          "type": "uint256"
        },
        {
          "internalType": "uint256",
          "name": "minmum_staking_time_in_days",
          "type": "uint256"
        }
      ],
      "stateMutability": "nonpayable",
      "type": "constructor"
    },
    {
      "anonymous": false,
      "inputs": [
        {
          "indexed": true,
          "internalType": "address",
          "name": "staker",
          "type": "address"
        },
        {
          "indexed": false,
          "internalType": "uint256",
          "name": "amount",
          "type": "uint256"
        }
      ],
      "name": "RewardsWithdrawn",
      "type": "event"
    },
    {
      "anonymous": false,
      "inputs": [
        {
          "indexed": true,
          "internalType": "address",
          "name": "staker",
          "type": "address"
        },
        {
          "indexed": true,
          "internalType": "uint256",
          "name": "id",
          "type": "uint256"
        },
        {
          "indexed": false,
          "internalType": "uint256",
          "name": "amount",
          "type": "uint256"
        },
        {
          "indexed": false,
          "internalType": "uint256",
          "name": "timestamp",
          "type": "uint256"
        }
      ],
      "name": "StakeDeposited",
      "type": "event"
    },
    {
      "anonymous": false,
      "inputs": [
        {
          "indexed": true,
          "internalType": "address",
          "name": "staker",
          "type": "address"
        },
        {
          "indexed": true,
          "internalType": "uint256",
          "name": "id",
          "type": "uint256"
        },
        {
          "indexed": false,
          "internalType": "uint256",
          "name": "amount",
          "type": "uint256"
        },
        {
          "indexed": false,
          "internalType": "uint256",
          "name": "reward",
          "type": "uint256"
        },
        {
          "indexed": false,
          "internalType": "uint256",
          "name": "timestamp",
          "type": "uint256"
        }
      ],
      "name": "StakeWithdrawn",
      "type": "event"
    },
    {
      "inputs": [],
      "name": "MINIMUM_STAKING_TIME",
      "outputs": [
        {
          "internalType": "uint256",
          "name": "",
          "type": "uint256"
        }
      ],
      "stateMutability": "view",
      "type": "function"
    },
    {
      "inputs": [
        {
          "internalType": "address",
          "name": "staker",
          "type": "address"
        },
        {
          "internalType": "uint256",
          "name": "stake_id",
          "type": "uint256"
        }
      ],
      "name": "calculateRewardPerStake",
      "outputs": [
        {
          "internalType": "uint256",
          "name": "",
          "type": "uint256"
        }
      ],
      "stateMutability": "view",
      "type": "function"
    },
    {
      "inputs": [
        {
          "internalType": "address",
          "name": "newOwner",
          "type": "address"
        }
      ],
      "name": "changeOwner",
      "outputs": [],
      "stateMutability": "nonpayable",
      "type": "function"
    },
    {
      "inputs": [
        {
          "internalType": "uint256",
          "name": "amount",
          "type": "uint256"
        }
      ],
      "name": "depositStake",
      "outputs": [
        {
          "internalType": "uint256",
          "name": "",
          "type": "uint256"
        }
      ],
      "stateMutability": "nonpayable",
      "type": "function"
    },
    {
      "inputs": [],
      "name": "getOwner",
      "outputs": [
        {
          "internalType": "address",
          "name": "",
          "type": "address"
        }
      ],
      "stateMutability": "view",
      "type": "function"
    },
    {
      "inputs": [
        {
          "internalType": "address",
          "name": "staker",
          "type": "address"
        }
      ],
      "name": "getRewardsWithdrawable",
      "outputs": [
        {
          "internalType": "uint256",
          "name": "",
          "type": "uint256"
        }
      ],
      "stateMutability": "view",
      "type": "function"
    },
    {
      "inputs": [
        {
          "internalType": "address",
          "name": "staker",
          "type": "address"
        },
        {
          "internalType": "uint256",
          "name": "stake_id",
          "type": "uint256"
        }
      ],
      "name": "getStakeAmount",
      "outputs": [
        {
          "internalType": "uint256",
          "name": "",
          "type": "uint256"
        }
      ],
      "stateMutability": "view",
      "type": "function"
    },
    {
      "inputs": [],
      "name": "getStakeByProvider",
      "outputs": [
        {
          "internalType": "uint256[]",
          "name": "",
          "type": "uint256[]"
        },
        {
          "internalType": "uint256[]",
          "name": "",
          "type": "uint256[]"
        }
      ],
      "stateMutability": "view",
      "type": "function"
    },
    {
      "inputs": [
        {
          "internalType": "address",
          "name": "staker",
          "type": "address"
        },
        {
          "internalType": "uint256",
          "name": "stake_id",
          "type": "uint256"
        }
      ],
      "name": "getStakeTimestamp",
      "outputs": [
        {
          "internalType": "uint256",
          "name": "",
          "type": "uint256"
        }
      ],
      "stateMutability": "view",
      "type": "function"
    },
    {
      "inputs": [
        {
          "internalType": "address",
          "name": "staker",
          "type": "address"
        }
      ],
      "name": "getTotalStakeByProvider",
      "outputs": [
        {
          "internalType": "uint256",
          "name": "",
          "type": "uint256"
        }
      ],
      "stateMutability": "view",
      "type": "function"
    },
    {
      "inputs": [
        {
          "internalType": "address",
          "name": "staker",
          "type": "address"
        }
      ],
      "name": "getTotalStakesCount",
      "outputs": [
        {
          "internalType": "uint256",
          "name": "",
          "type": "uint256"
        }
      ],
      "stateMutability": "view",
      "type": "function"
    },
    {
      "inputs": [],
      "name": "get_FIXED_APY",
      "outputs": [
        {
          "internalType": "uint256",
          "name": "",
          "type": "uint256"
        }
      ],
      "stateMutability": "view",
      "type": "function"
    },
    {
      "inputs": [],
      "name": "instant_withdrawl_allowed",
      "outputs": [
        {
          "internalType": "bool",
          "name": "",
          "type": "bool"
        }
      ],
      "stateMutability": "view",
      "type": "function"
    },
    {
      "inputs": [
        {
          "internalType": "uint256",
          "name": "new_FIXED_APY",
          "type": "uint256"
        }
      ],
      "name": "set_FIXED_APY",
      "outputs": [],
      "stateMutability": "nonpayable",
      "type": "function"
    },
    {
      "inputs": [
        {
          "internalType": "uint256",
          "name": "time",
          "type": "uint256"
        },
        {
          "internalType": "uint256",
          "name": "id",
          "type": "uint256"
        }
      ],
      "name": "set_STAKING_TIME",
      "outputs": [],
      "stateMutability": "nonpayable",
      "type": "function"
    },
    {
      "inputs": [],
      "name": "toggleWithdrawlInstantOrMonthly",
      "outputs": [],
      "stateMutability": "nonpayable",
      "type": "function"
    },
    {
      "inputs": [
        {
          "internalType": "uint256",
          "name": "_days",
          "type": "uint256"
        }
      ],
      "name": "updateMinimumStakingTime",
      "outputs": [],
      "stateMutability": "nonpayable",
      "type": "function"
    },
    {
      "inputs": [
        {
          "internalType": "uint256",
          "name": "amount",
          "type": "uint256"
        }
      ],
      "name": "withdrawReward",
      "outputs": [],
      "stateMutability": "nonpayable",
      "type": "function"
    },
    {
      "inputs": [
        {
          "internalType": "uint256",
          "name": "amount",
          "type": "uint256"
        },
        {
          "internalType": "uint256",
          "name": "stake_id",
          "type": "uint256"
        }
      ],
      "name": "withdrawStake",
      "outputs": [],
      "stateMutability": "nonpayable",
      "type": "function"
    }
  ],
  "bytecode": "0x60806040526000600360006101000a81548160ff0219169083151502179055503480156200002c57600080fd5b50604051620023ba380380620023ba8339818101604052810190620000529190620001c1565b600160008190555082600860006101000a81548173ffffffffffffffffffffffffffffffffffffffff021916908373ffffffffffffffffffffffffffffffffffffffff160217905550603c80601883620000ad91906200024c565b620000b991906200024c565b620000c591906200024c565b6002819055508160018190555033600360016101000a81548173ffffffffffffffffffffffffffffffffffffffff021916908373ffffffffffffffffffffffffffffffffffffffff160217905550505050620002ad565b600080fd5b600073ffffffffffffffffffffffffffffffffffffffff82169050919050565b60006200014e8262000121565b9050919050565b620001608162000141565b81146200016c57600080fd5b50565b600081519050620001808162000155565b92915050565b6000819050919050565b6200019b8162000186565b8114620001a757600080fd5b50565b600081519050620001bb8162000190565b92915050565b600080600060608486031215620001dd57620001dc6200011c565b5b6000620001ed868287016200016f565b93505060206200020086828701620001aa565b92505060406200021386828701620001aa565b9150509250925092565b7f4e487b7100000000000000000000000000000000000000000000000000000000600052601160045260246000fd5b6000620002598262000186565b9150620002668362000186565b9250817fffffffffffffffffffffffffffffffffffffffffffffffffffffffffffffffff0483118215151615620002a257620002a16200021d565b5b828202905092915050565b6120fd80620002bd6000396000f3fe608060405234801561001057600080fd5b50600436106101215760003560e01c806383ec5183116100ad578063c1550d2411610071578063c1550d24146102f4578063cb82cc8f14610324578063d4dcce5e14610354578063d4fe5f0314610373578063f1fdf469146103a357610121565b806383ec518314610250578063893d20e8146102805780639fd478741461029e578063a6f9dae1146102ba578063a82df1b0146102d657610121565b806352ee71fc116100f457806352ee71fc146101ac57806359150c1d146101b65780635a7d3080146101e65780635d30ba421461021657806368b58e891461023457610121565b806302657ad01461012657806331f837ee14610144578063365e2abf14610160578063523a3f0814610190575b600080fd5b61012e6103bf565b60405161013b91906115c4565b60405180910390f35b61015e60048036038101906101599190611610565b6103c5565b005b61017a600480360381019061017591906116ae565b610421565b60405161018791906115c4565b60405180910390f35b6101aa60048036038101906101a591906116ee565b61047f565b005b6101b4610719565b005b6101d060048036038101906101cb919061171b565b6107d5565b6040516101dd91906115c4565b60405180910390f35b61020060048036038101906101fb919061171b565b61087c565b60405161020d91906115c4565b60405180910390f35b61021e6108c5565b60405161022b91906115c4565b60405180910390f35b61024e600480360381019061024991906116ee565b6108cf565b005b61026a600480360381019061026591906116ae565b61098c565b60405161027791906115c4565b60405180910390f35b6102886109ea565b6040516102959190611757565b60405180910390f35b6102b860048036038101906102b391906116ee565b610a14565b005b6102d460048036038101906102cf919061171b565b610aae565b005b6102de610b82565b6040516102eb919061178d565b60405180910390f35b61030e6004803603810190610309919061171b565b610b95565b60405161031b91906115c4565b60405180910390f35b61033e600480360381019061033991906116ee565b610bde565b60405161034b91906115c4565b60405180910390f35b61035c610eea565b60405161036a929190611866565b60405180910390f35b61038d600480360381019061038891906116ae565b610fe5565b60405161039a91906115c4565b60405180910390f35b6103bd60048036038101906103b89190611610565b6110e5565b005b60025481565b81600460003373ffffffffffffffffffffffffffffffffffffffff1673ffffffffffffffffffffffffffffffffffffffff1681526020019081526020016000206000838152602001908152602001600020600201819055505050565b6000600460008473ffffffffffffffffffffffffffffffffffffffff1673ffffffffffffffffffffffffffffffffffffffff168152602001908152602001600020600083815260200190815260200160002060010154905092915050565b610487611552565b6000600660003373ffffffffffffffffffffffffffffffffffffffff1673ffffffffffffffffffffffffffffffffffffffff1681526020019081526020016000205411610509576040517f08c379a0000000000000000000000000000000000000000000000000000000008152600401610500906118fa565b60405180910390fd5b600660003373ffffffffffffffffffffffffffffffffffffffff1673ffffffffffffffffffffffffffffffffffffffff1681526020019081526020016000205481111561058b576040517f08c379a00000000000000000000000000000000000000000000000000000000081526004016105829061198c565b60405180910390fd5b80600660003373ffffffffffffffffffffffffffffffffffffffff1673ffffffffffffffffffffffffffffffffffffffff16815260200190815260200160002060008282546105da91906119db565b92505081905550600860009054906101000a900473ffffffffffffffffffffffffffffffffffffffff1673ffffffffffffffffffffffffffffffffffffffff1663a9059cbb33836040518363ffffffff1660e01b815260040161063e929190611a0f565b6020604051808303816000875af115801561065d573d6000803e3d6000fd5b505050506040513d601f19601f820116820180604052508101906106819190611a64565b6106c0576040517f08c379a00000000000000000000000000000000000000000000000000000000081526004016106b790611add565b60405180910390fd5b3373ffffffffffffffffffffffffffffffffffffffff167f8a43c4352486ec339f487f64af78ca5cbf06cd47833f073d3baf3a193e5031618260405161070691906115c4565b60405180910390a26107166115a1565b50565b600360019054906101000a900473ffffffffffffffffffffffffffffffffffffffff1673ffffffffffffffffffffffffffffffffffffffff163373ffffffffffffffffffffffffffffffffffffffff16146107a9576040517f08c379a00000000000000000000000000000000000000000000000000000000081526004016107a090611b49565b60405180910390fd5b600360009054906101000a900460ff1615600360006101000a81548160ff021916908315150217905550565b600080600760008473ffffffffffffffffffffffffffffffffffffffff1673ffffffffffffffffffffffffffffffffffffffff1681526020019081526020016000209050600080600090505b82600101805490508110156108715782600101818154811061084657610845611b69565b5b90600052602060002001548261085c9190611b98565b9150808061086990611bee565b915050610821565b508092505050919050565b6000600660008373ffffffffffffffffffffffffffffffffffffffff1673ffffffffffffffffffffffffffffffffffffffff168152602001908152602001600020549050919050565b6000600154905090565b600360019054906101000a900473ffffffffffffffffffffffffffffffffffffffff1673ffffffffffffffffffffffffffffffffffffffff163373ffffffffffffffffffffffffffffffffffffffff161461095f576040517f08c379a000000000000000000000000000000000000000000000000000000000815260040161095690611b49565b60405180910390fd5b603c8060188361096f9190611c36565b6109799190611c36565b6109839190611c36565b60028190555050565b6000600460008473ffffffffffffffffffffffffffffffffffffffff1673ffffffffffffffffffffffffffffffffffffffff168152602001908152602001600020600083815260200190815260200160002060020154905092915050565b6000600360019054906101000a900473ffffffffffffffffffffffffffffffffffffffff16905090565b600360019054906101000a900473ffffffffffffffffffffffffffffffffffffffff1673ffffffffffffffffffffffffffffffffffffffff163373ffffffffffffffffffffffffffffffffffffffff1614610aa4576040517f08c379a0000000000000000000000000000000000000000000000000000000008152600401610a9b90611b49565b60405180910390fd5b8060018190555050565b600360019054906101000a900473ffffffffffffffffffffffffffffffffffffffff1673ffffffffffffffffffffffffffffffffffffffff163373ffffffffffffffffffffffffffffffffffffffff1614610b3e576040517f08c379a0000000000000000000000000000000000000000000000000000000008152600401610b3590611b49565b60405180910390fd5b80600360016101000a81548173ffffffffffffffffffffffffffffffffffffffff021916908373ffffffffffffffffffffffffffffffffffffffff16021790555050565b600360009054906101000a900460ff1681565b6000600560008373ffffffffffffffffffffffffffffffffffffffff1673ffffffffffffffffffffffffffffffffffffffff168152602001908152602001600020549050919050565b6000610be8611552565b60008211610c2b576040517f08c379a0000000000000000000000000000000000000000000000000000000008152600401610c2290611cdc565b60405180910390fd5b600860009054906101000a900473ffffffffffffffffffffffffffffffffffffffff1673ffffffffffffffffffffffffffffffffffffffff166323b872dd3330856040518463ffffffff1660e01b8152600401610c8a93929190611cfc565b6020604051808303816000875af1158015610ca9573d6000803e3d6000fd5b505050506040513d601f19601f82011682018060405250810190610ccd9190611a64565b610d0c576040517f08c379a0000000000000000000000000000000000000000000000000000000008152600401610d0390611d7f565b60405180910390fd5b6000600560003373ffffffffffffffffffffffffffffffffffffffff1673ffffffffffffffffffffffffffffffffffffffff16815260200190815260200160002060008154610d5a90611bee565b9190508190559050604051806060016040528082815260200184815260200142815250600460003373ffffffffffffffffffffffffffffffffffffffff1673ffffffffffffffffffffffffffffffffffffffff16815260200190815260200160002060008381526020019081526020016000206000820151816000015560208201518160010155604082015181600201559050506000600760003373ffffffffffffffffffffffffffffffffffffffff1673ffffffffffffffffffffffffffffffffffffffff16815260200190815260200160002090508060010184908060018154018082558091505060019003906000526020600020016000909190919091505580600001829080600181540180825580915050600190039060005260206000200160009091909190915055813373ffffffffffffffffffffffffffffffffffffffff167feb6032fe8d7a2f7003e5b33948bdc807f994be970351cd021a033784812c8baa8642604051610ed0929190611d9f565b60405180910390a38192505050610ee56115a1565b919050565b6060806000600760003373ffffffffffffffffffffffffffffffffffffffff1673ffffffffffffffffffffffffffffffffffffffff1681526020019081526020016000209050806001018160000181805480602002602001604051908101604052809291908181526020018280548015610f8357602002820191906000526020600020905b815481526020019060010190808311610f6f575b5050505050915080805480602002602001604051908101604052809291908181526020018280548015610fd557602002820191906000526020600020905b815481526020019060010190808311610fc1575b5050505050905092509250509091565b600080600460008573ffffffffffffffffffffffffffffffffffffffff1673ffffffffffffffffffffffffffffffffffffffff16815260200190815260200160002060008481526020019081526020016000206001015490506000600460008673ffffffffffffffffffffffffffffffffffffffff1673ffffffffffffffffffffffffffffffffffffffff1681526020019081526020016000206000858152602001908152602001600020600201549050600081426110a491906119db565b90506301e1338060646110b79190611c36565b81600154856110c69190611c36565b6110d09190611c36565b6110da9190611df7565b935050505092915050565b6110ed611552565b6000600560003373ffffffffffffffffffffffffffffffffffffffff1673ffffffffffffffffffffffffffffffffffffffff168152602001908152602001600020541161116f576040517f08c379a000000000000000000000000000000000000000000000000000000000815260040161116690611e74565b60405180910390fd5b600460003373ffffffffffffffffffffffffffffffffffffffff1673ffffffffffffffffffffffffffffffffffffffff168152602001908152602001600020600082815260200190815260200160002060010154821115611205576040517f08c379a00000000000000000000000000000000000000000000000000000000081526004016111fc90611f06565b60405180910390fd5b600254600460003373ffffffffffffffffffffffffffffffffffffffff1673ffffffffffffffffffffffffffffffffffffffff1681526020019081526020016000206000838152602001908152602001600020600201544261126791906119db565b1015806112805750600360009054906101000a900460ff165b6112bf576040517f08c379a00000000000000000000000000000000000000000000000000000000081526004016112b690611f98565b60405180910390fd5b60006112cb3383610fe5565b905080600660003373ffffffffffffffffffffffffffffffffffffffff1673ffffffffffffffffffffffffffffffffffffffff168152602001908152602001600020600082825461131c9190611b98565b92505081905550600083600460003373ffffffffffffffffffffffffffffffffffffffff1673ffffffffffffffffffffffffffffffffffffffff16815260200190815260200160002060008581526020019081526020016000206001015461138491906119db565b9050604051806060016040528084815260200182815260200142815250600460003373ffffffffffffffffffffffffffffffffffffffff1673ffffffffffffffffffffffffffffffffffffffff1681526020019081526020016000206000858152602001908152602001600020600082015181600001556020820151816001015560408201518160020155905050600860009054906101000a900473ffffffffffffffffffffffffffffffffffffffff1673ffffffffffffffffffffffffffffffffffffffff1663a9059cbb33866040518363ffffffff1660e01b815260040161146f929190611a0f565b6020604051808303816000875af115801561148e573d6000803e3d6000fd5b505050506040513d601f19601f820116820180604052508101906114b29190611a64565b6114f1576040517f08c379a00000000000000000000000000000000000000000000000000000000081526004016114e890612004565b60405180910390fd5b823373ffffffffffffffffffffffffffffffffffffffff167f5d89f707c2087d1f0c2ec0ef87eb3bbf3c0eac23c0028df006c7de091258544d86854260405161153c93929190612024565b60405180910390a3505061154e6115a1565b5050565b600260005403611597576040517f08c379a000000000000000000000000000000000000000000000000000000000815260040161158e906120a7565b60405180910390fd5b6002600081905550565b6001600081905550565b6000819050919050565b6115be816115ab565b82525050565b60006020820190506115d960008301846115b5565b92915050565b600080fd5b6115ed816115ab565b81146115f857600080fd5b50565b60008135905061160a816115e4565b92915050565b60008060408385031215611627576116266115df565b5b6000611635858286016115fb565b9250506020611646858286016115fb565b9150509250929050565b600073ffffffffffffffffffffffffffffffffffffffff82169050919050565b600061167b82611650565b9050919050565b61168b81611670565b811461169657600080fd5b50565b6000813590506116a881611682565b92915050565b600080604083850312156116c5576116c46115df565b5b60006116d385828601611699565b92505060206116e4858286016115fb565b9150509250929050565b600060208284031215611704576117036115df565b5b6000611712848285016115fb565b91505092915050565b600060208284031215611731576117306115df565b5b600061173f84828501611699565b91505092915050565b61175181611670565b82525050565b600060208201905061176c6000830184611748565b92915050565b60008115159050919050565b61178781611772565b82525050565b60006020820190506117a2600083018461177e565b92915050565b600081519050919050565b600082825260208201905092915050565b6000819050602082019050919050565b6117dd816115ab565b82525050565b60006117ef83836117d4565b60208301905092915050565b6000602082019050919050565b6000611813826117a8565b61181d81856117b3565b9350611828836117c4565b8060005b8381101561185957815161184088826117e3565b975061184b836117fb565b92505060018101905061182c565b5085935050505092915050565b600060408201905081810360008301526118808185611808565b905081810360208301526118948184611808565b90509392505050565b600082825260208201905092915050565b7f4e6f2052657761726473204561726e6564000000000000000000000000000000600082015250565b60006118e460118361189d565b91506118ef826118ae565b602082019050919050565b60006020820190508181036000830152611913816118d7565b9050919050565b7f4974206973206d6f7265207468616e2063757272656e7420726577617264206560008201527f61726e65642e0000000000000000000000000000000000000000000000000000602082015250565b600061197660268361189d565b91506119818261191a565b604082019050919050565b600060208201905081810360008301526119a581611969565b9050919050565b7f4e487b7100000000000000000000000000000000000000000000000000000000600052601160045260246000fd5b60006119e6826115ab565b91506119f1836115ab565b925082821015611a0457611a036119ac565b5b828203905092915050565b6000604082019050611a246000830185611748565b611a3160208301846115b5565b9392505050565b611a4181611772565b8114611a4c57600080fd5b50565b600081519050611a5e81611a38565b92915050565b600060208284031215611a7a57611a796115df565b5b6000611a8884828501611a4f565b91505092915050565b7f52657761726473207769746864726177616c206661696c656400000000000000600082015250565b6000611ac760198361189d565b9150611ad282611a91565b602082019050919050565b60006020820190508181036000830152611af681611aba565b9050919050565b7f4e6f7420746865206f776e657200000000000000000000000000000000000000600082015250565b6000611b33600d8361189d565b9150611b3e82611afd565b602082019050919050565b60006020820190508181036000830152611b6281611b26565b9050919050565b7f4e487b7100000000000000000000000000000000000000000000000000000000600052603260045260246000fd5b6000611ba3826115ab565b9150611bae836115ab565b9250827fffffffffffffffffffffffffffffffffffffffffffffffffffffffffffffffff03821115611be357611be26119ac565b5b828201905092915050565b6000611bf9826115ab565b91507fffffffffffffffffffffffffffffffffffffffffffffffffffffffffffffffff8203611c2b57611c2a6119ac565b5b600182019050919050565b6000611c41826115ab565b9150611c4c836115ab565b9250817fffffffffffffffffffffffffffffffffffffffffffffffffffffffffffffffff0483118215151615611c8557611c846119ac565b5b828202905092915050565b7f496e76616c6964207374616b6520616d6f756e74000000000000000000000000600082015250565b6000611cc660148361189d565b9150611cd182611c90565b602082019050919050565b60006020820190508181036000830152611cf581611cb9565b9050919050565b6000606082019050611d116000830186611748565b611d1e6020830185611748565b611d2b60408301846115b5565b949350505050565b7f5374616b65207472616e73666572206661696c65640000000000000000000000600082015250565b6000611d6960158361189d565b9150611d7482611d33565b602082019050919050565b60006020820190508181036000830152611d9881611d5c565b9050919050565b6000604082019050611db460008301856115b5565b611dc160208301846115b5565b9392505050565b7f4e487b7100000000000000000000000000000000000000000000000000000000600052601260045260246000fd5b6000611e02826115ab565b9150611e0d836115ab565b925082611e1d57611e1c611dc8565b5b828204905092915050565b7f4e6f207374616b6520666f756e64000000000000000000000000000000000000600082015250565b6000611e5e600e8361189d565b9150611e6982611e28565b602082019050919050565b60006020820190508181036000830152611e8d81611e51565b9050919050565b7f576974686472617720616d6f756e74206973206d6f7265207468616e2062616c60008201527f616e6365206f66207374616b652e000000000000000000000000000000000000602082015250565b6000611ef0602e8361189d565b9150611efb82611e94565b604082019050919050565b60006020820190508181036000830152611f1f81611ee3565b9050919050565b7f4d494e494d554d205354414b494e472054494d45206973206e6f74207061737360008201527f6564000000000000000000000000000000000000000000000000000000000000602082015250565b6000611f8260228361189d565b9150611f8d82611f26565b604082019050919050565b60006020820190508181036000830152611fb181611f75565b9050919050565b7f5374616b65207769746864726177616c206661696c6564000000000000000000600082015250565b6000611fee60178361189d565b9150611ff982611fb8565b602082019050919050565b6000602082019050818103600083015261201d81611fe1565b9050919050565b600060608201905061203960008301866115b5565b61204660208301856115b5565b61205360408301846115b5565b949350505050565b7f5265656e7472616e637947756172643a207265656e7472616e742063616c6c00600082015250565b6000612091601f8361189d565b915061209c8261205b565b602082019050919050565b600060208201905081810360008301526120c081612084565b905091905056fea2646970667358221220bc04b1076860379b9d1c0f609d9bce2fe654edc807e9887715e76ebf1053a7d964736f6c634300080f0033",
  "linkReferences": {},
  "deployedLinkReferences": {}
}