{
  "_format": "hh-sol-artifact-1",
  "contractName": "FileShare",
  "sourceName": "contracts/FileShare.sol",
  "abi": [
    {
      "inputs": [
        {
          "internalType": "address",
          "name": "tokenAddress",
          "type": "address"
        },
        {
          "internalType": "uint256",
          "name": "_FIXED_STAKE",
          "type": "uint256"
        }
      ],
      "stateMutability": "nonpayable",
      "type": "constructor"
    },
    {
      "anonymous": false,
      "inputs": [
        {
          "indexed": true,
          "internalType": "uint256",
          "name": "idOfDevice",
          "type": "uint256"
        },
        {
          "indexed": true,
          "internalType": "uint256",
          "name": "idOfStake",
          "type": "uint256"
        }
      ],
      "name": "DeviceAdded",
      "type": "event"
    },
    {
      "inputs": [],
      "name": "FIXED_STAKE",
      "outputs": [
        {
          "internalType": "uint256",
          "name": "",
          "type": "uint256"
        }
      ],
      "stateMutability": "view",
      "type": "function"
    },
    {
      "inputs": [
        {
          "internalType": "string",
          "name": "_description",
          "type": "string"
        },
        {
          "internalType": "uint256",
          "name": "_space",
          "type": "uint256"
        },
        {
          "internalType": "uint256",
          "name": "_hrs",
          "type": "uint256"
        },
        {
          "internalType": "uint256",
          "name": "_tokenrate",
          "type": "uint256"
        }
      ],
      "name": "addDevice",
      "outputs": [],
      "stateMutability": "nonpayable",
      "type": "function"
    },
    {
      "inputs": [
        {
          "internalType": "string",
          "name": "str1",
          "type": "string"
        },
        {
          "internalType": "string",
          "name": "str2",
          "type": "string"
        }
      ],
      "name": "compare",
      "outputs": [
        {
          "internalType": "bool",
          "name": "",
          "type": "bool"
        }
      ],
      "stateMutability": "pure",
      "type": "function"
    },
    {
      "inputs": [
        {
          "internalType": "uint256",
          "name": "",
          "type": "uint256"
        },
        {
          "internalType": "uint256",
          "name": "",
          "type": "uint256"
        }
      ],
      "name": "deviceDetails",
      "outputs": [
        {
          "internalType": "string",
          "name": "description",
          "type": "string"
        },
        {
          "internalType": "uint256",
          "name": "space",
          "type": "uint256"
        },
        {
          "internalType": "uint256",
          "name": "hrs",
          "type": "uint256"
        },
        {
          "internalType": "uint256",
          "name": "idDev",
          "type": "uint256"
        },
        {
          "internalType": "uint256",
          "name": "tokenRate",
          "type": "uint256"
        },
        {
          "internalType": "address",
          "name": "recipient",
          "type": "address"
        },
        {
          "internalType": "bool",
          "name": "engage",
          "type": "bool"
        }
      ],
      "stateMutability": "view",
      "type": "function"
    },
    {
      "inputs": [],
      "name": "deviceID",
      "outputs": [
        {
          "internalType": "uint256",
          "name": "",
          "type": "uint256"
        }
      ],
      "stateMutability": "view",
      "type": "function"
    },
    {
      "inputs": [],
      "name": "getAllDevices",
      "outputs": [
        {
          "internalType": "string[]",
          "name": "devices",
          "type": "string[]"
        }
      ],
      "stateMutability": "view",
      "type": "function"
    },
    {
      "inputs": [
        {
          "internalType": "uint256",
          "name": "_deviceID",
          "type": "uint256"
        }
      ],
      "name": "getDeviceByDeviceID",
      "outputs": [
        {
          "internalType": "string",
          "name": "desp",
          "type": "string"
        },
        {
          "internalType": "uint256",
          "name": "hr",
          "type": "uint256"
        },
        {
          "internalType": "uint256",
          "name": "sp",
          "type": "uint256"
        },
        {
          "internalType": "uint256",
          "name": "tr",
          "type": "uint256"
        },
        {
          "internalType": "bool",
          "name": "eng",
          "type": "bool"
        }
      ],
      "stateMutability": "view",
      "type": "function"
    },
    {
      "inputs": [],
      "name": "getDeviceByProvider",
      "outputs": [
        {
          "internalType": "string",
          "name": "desp",
          "type": "string"
        }
      ],
      "stateMutability": "view",
      "type": "function"
    },
    {
      "inputs": [
        {
          "internalType": "address",
          "name": "",
          "type": "address"
        },
        {
          "internalType": "uint256",
          "name": "",
          "type": "uint256"
        }
      ],
      "name": "providers",
      "outputs": [
        {
          "internalType": "string",
          "name": "description",
          "type": "string"
        },
        {
          "internalType": "uint256",
          "name": "space",
          "type": "uint256"
        },
        {
          "internalType": "uint256",
          "name": "hrs",
          "type": "uint256"
        },
        {
          "internalType": "uint256",
          "name": "idDev",
          "type": "uint256"
        },
        {
          "internalType": "uint256",
          "name": "tokenRate",
          "type": "uint256"
        },
        {
          "internalType": "address",
          "name": "recipient",
          "type": "address"
        },
        {
          "internalType": "bool",
          "name": "engage",
          "type": "bool"
        }
      ],
      "stateMutability": "view",
      "type": "function"
    },
    {
      "inputs": [
        {
          "internalType": "uint256",
          "name": "_deviceID",
          "type": "uint256"
        },
        {
          "internalType": "uint256",
          "name": "_stakeId",
          "type": "uint256"
        }
      ],
      "name": "removeDevice",
      "outputs": [],
      "stateMutability": "nonpayable",
      "type": "function"
    },
    {
      "inputs": [
        {
          "internalType": "uint256",
          "name": "",
          "type": "uint256"
        },
        {
          "internalType": "uint256",
          "name": "",
          "type": "uint256"
        }
      ],
      "name": "requesters",
      "outputs": [
        {
          "internalType": "uint256",
          "name": "devID",
          "type": "uint256"
        },
        {
          "internalType": "uint256",
          "name": "hrsToStake",
          "type": "uint256"
        }
      ],
      "stateMutability": "view",
      "type": "function"
    }
  ],
  "bytecode": "0x60806040523480156200001157600080fd5b50604051620024ef380380620024ef83398181016040528101906200003791906200016d565b81600260006101000a81548173ffffffffffffffffffffffffffffffffffffffff021916908373ffffffffffffffffffffffffffffffffffffffff16021790555033600160006101000a81548173ffffffffffffffffffffffffffffffffffffffff021916908373ffffffffffffffffffffffffffffffffffffffff160217905550806000819055505050620001b4565b600080fd5b600073ffffffffffffffffffffffffffffffffffffffff82169050919050565b6000620000fa82620000cd565b9050919050565b6200010c81620000ed565b81146200011857600080fd5b50565b6000815190506200012c8162000101565b92915050565b6000819050919050565b620001478162000132565b81146200015357600080fd5b50565b60008151905062000167816200013c565b92915050565b60008060408385031215620001875762000186620000c8565b5b600062000197858286016200011b565b9250506020620001aa8582860162000156565b9150509250929050565b61232b80620001c46000396000f3fe608060405234801561001057600080fd5b50600436106100a95760003560e01c8063a898829d11610071578063a898829d14610167578063aa4bfddb14610185578063aba39b81146101bb578063b25983c8146101f1578063b283039c14610225578063e9bb072714610241576100a9565b806304db8899146100ae5780633a96fdd7146100df5780636013cdc21461010f5780637a2a530d1461012d5780639c157c0f1461014b575b600080fd5b6100c860048036038101906100c391906115e6565b61025f565b6040516100d6929190611635565b60405180910390f35b6100f960048036038101906100f491906117a4565b6102a0565b6040516101069190611837565b60405180910390f35b61011761030c565b6040516101249190611852565b60405180910390f35b610135610312565b60405161014291906119b7565b60405180910390f35b610165600480360381019061016091906119d9565b6103eb565b005b61016f6107f6565b60405161017c9190611852565b60405180910390f35b61019f600480360381019061019a9190611aba565b6107fc565b6040516101b29796959493929190611b53565b60405180910390f35b6101d560048036038101906101d091906115e6565b610910565b6040516101e89796959493929190611b53565b60405180910390f35b61020b60048036038101906102069190611bc9565b610a24565b60405161021c959493929190611bf6565b60405180910390f35b61023f600480360381019061023a91906115e6565b610c40565b005b6102496113ac565b6040516102569190611c50565b60405180910390f35b600b602052816000526040600020818154811061027b57600080fd5b9060005260206000209060020201600091509150508060000154908060010154905082565b600081518351146102b45760009050610306565b816040516020016102c59190611cae565b60405160208183030381529060405280519060200120836040516020016102ec9190611cae565b604051602081830303815290604052805190602001201490505b92915050565b60055481565b60606006805480602002602001604051908101604052809291908181526020016000905b828210156103e257838290600052602060002001805461035590611cf4565b80601f016020809104026020016040519081016040528092919081815260200182805461038190611cf4565b80156103ce5780601f106103a3576101008083540402835291602001916103ce565b820191906000526020600020905b8154815290600101906020018083116103b157829003601f168201915b505050505081526020019060010190610336565b50505050905090565b60006040518060e0016040528086815260200185815260200184815260200160055481526020018381526020013373ffffffffffffffffffffffffffffffffffffffff168152602001600015158152509050600360003373ffffffffffffffffffffffffffffffffffffffff1673ffffffffffffffffffffffffffffffffffffffff16815260200190815260200160002081908060018154018082558091505060019003906000526020600020906006020160009091909190915060008201518160000190816104bb9190611ed1565b506020820151816001015560408201518160020155606082015181600301556080820151816004015560a08201518160050160006101000a81548173ffffffffffffffffffffffffffffffffffffffff021916908373ffffffffffffffffffffffffffffffffffffffff16021790555060c08201518160050160146101000a81548160ff02191690831515021790555050506006859080600181540180825580915050600190039060005260206000200160009091909190915090816105819190611ed1565b5060006040518060e0016040528087815260200186815260200185815260200160055481526020018481526020013373ffffffffffffffffffffffffffffffffffffffff16815260200160001515815250905060046000600554815260200190815260200160002081908060018154018082558091505060019003906000526020600020906006020160009091909190915060008201518160000190816106289190611ed1565b506020820151816001015560408201518160020155606082015181600301556080820151816004015560a08201518160050160006101000a81548173ffffffffffffffffffffffffffffffffffffffff021916908373ffffffffffffffffffffffffffffffffffffffff16021790555060c08201518160050160146101000a81548160ff0219169083151502179055505050600860003373ffffffffffffffffffffffffffffffffffffffff1673ffffffffffffffffffffffffffffffffffffffff1681526020019081526020016000206000815461070690611fd2565b91905081905560078190555060405180606001604052806007548152602001600054815260200142815250600a60003373ffffffffffffffffffffffffffffffffffffffff1673ffffffffffffffffffffffffffffffffffffffff168152602001908152602001600020600060075481526020019081526020016000206000820151816000015560208201518160010155604082015181600201559050506007546005547fcffe835d53f1df94a8e4b883a1dae322a201c0ea7dd2d945f2c8508b258a1c3360405160405180910390a3600560008154809291906107e990611fd2565b9190505550505050505050565b60005481565b6003602052816000526040600020818154811061081857600080fd5b90600052602060002090600602016000915091505080600001805461083c90611cf4565b80601f016020809104026020016040519081016040528092919081815260200182805461086890611cf4565b80156108b55780601f1061088a576101008083540402835291602001916108b5565b820191906000526020600020905b81548152906001019060200180831161089857829003601f168201915b5050505050908060010154908060020154908060030154908060040154908060050160009054906101000a900473ffffffffffffffffffffffffffffffffffffffff16908060050160149054906101000a900460ff16905087565b6004602052816000526040600020818154811061092c57600080fd5b90600052602060002090600602016000915091505080600001805461095090611cf4565b80601f016020809104026020016040519081016040528092919081815260200182805461097c90611cf4565b80156109c95780601f1061099e576101008083540402835291602001916109c9565b820191906000526020600020905b8154815290600101906020018083116109ac57829003601f168201915b5050505050908060010154908060020154908060030154908060040154908060050160009054906101000a900473ffffffffffffffffffffffffffffffffffffffff16908060050160149054906101000a900460ff16905087565b6060600080600080600060046000888152602001908152602001600020905060005b8180549050811015610c35573373ffffffffffffffffffffffffffffffffffffffff16828281548110610a7c57610a7b61201a565b5b906000526020600020906006020160050160009054906101000a900473ffffffffffffffffffffffffffffffffffffffff1673ffffffffffffffffffffffffffffffffffffffff1603610c2257818181548110610adc57610adb61201a565b5b90600052602060002090600602016000018054610af890611cf4565b80601f0160208091040260200160405190810160405280929190818152602001828054610b2490611cf4565b8015610b715780601f10610b4657610100808354040283529160200191610b71565b820191906000526020600020905b815481529060010190602001808311610b5457829003601f168201915b50505050509650818181548110610b8b57610b8a61201a565b5b9060005260206000209060060201600201549550818181548110610bb257610bb161201a565b5b9060005260206000209060060201600101549450818181548110610bd957610bd861201a565b5b9060005260206000209060060201600401549350818181548110610c0057610bff61201a565b5b906000526020600020906006020160050160149054906101000a900460ff1692505b8080610c2d90611fd2565b915050610a46565b505091939590929450565b6000600860003373ffffffffffffffffffffffffffffffffffffffff1673ffffffffffffffffffffffffffffffffffffffff1681526020019081526020016000205411610cc2576040517f08c379a0000000000000000000000000000000000000000000000000000000008152600401610cb990612095565b60405180910390fd5b600a60003373ffffffffffffffffffffffffffffffffffffffff1673ffffffffffffffffffffffffffffffffffffffff1681526020019081526020016000206000828152602001908152602001600020600201544211610d57576040517f08c379a0000000000000000000000000000000000000000000000000000000008152600401610d4e90612101565b60405180910390fd5b6000600a60003373ffffffffffffffffffffffffffffffffffffffff1673ffffffffffffffffffffffffffffffffffffffff16815260200190815260200160002060008381526020019081526020016000206001015411610ded576040517f08c379a0000000000000000000000000000000000000000000000000000000008152600401610de49061216d565b60405180910390fd5b600060046000848152602001908152602001600020905060005b818054905081101561105a573373ffffffffffffffffffffffffffffffffffffffff16828281548110610e3d57610e3c61201a565b5b906000526020600020906006020160050160009054906101000a900473ffffffffffffffffffffffffffffffffffffffff1673ffffffffffffffffffffffffffffffffffffffff16036110475760005b600680549050811015611045576000610ff8848481548110610eb257610eb161201a565b5b90600052602060002090600602016000018054610ece90611cf4565b80601f0160208091040260200160405190810160405280929190818152602001828054610efa90611cf4565b8015610f475780601f10610f1c57610100808354040283529160200191610f47565b820191906000526020600020905b815481529060010190602001808311610f2a57829003601f168201915b505050505060068481548110610f6057610f5f61201a565b5b906000526020600020018054610f7590611cf4565b80601f0160208091040260200160405190810160405280929190818152602001828054610fa190611cf4565b8015610fee5780601f10610fc357610100808354040283529160200191610fee565b820191906000526020600020905b815481529060010190602001808311610fd157829003601f168201915b50505050506102a0565b90506001151581151503611031576006828154811061101a5761101961201a565b5b906000526020600020016000611030919061153f565b5b50808061103d90611fd2565b915050610e8d565b505b808061105290611fd2565b915050610e07565b5060005b8180549050811015611236573373ffffffffffffffffffffffffffffffffffffffff168282815481106110945761109361201a565b5b906000526020600020906006020160050160009054906101000a900473ffffffffffffffffffffffffffffffffffffffff1673ffffffffffffffffffffffffffffffffffffffff1603611223578181815481106110f4576110f361201a565b5b906000526020600020906006020160050160009054906101000a900473ffffffffffffffffffffffffffffffffffffffff1673ffffffffffffffffffffffffffffffffffffffff163373ffffffffffffffffffffffffffffffffffffffff1614611193576040517f08c379a000000000000000000000000000000000000000000000000000000000815260040161118a906121d9565b60405180910390fd5b8181815481106111a6576111a561201a565b5b9060005260206000209060060201600080820160006111c5919061153f565b60018201600090556002820160009055600382016000905560048201600090556005820160006101000a81549073ffffffffffffffffffffffffffffffffffffffff02191690556005820160146101000a81549060ff021916905550505b808061122e90611fd2565b91505061105e565b5060405180606001604052808381526020016000815260200142815250600a60003373ffffffffffffffffffffffffffffffffffffffff1673ffffffffffffffffffffffffffffffffffffffff1681526020019081526020016000206000848152602001908152602001600020600082015181600001556020820151816001015560408201518160020155905050600260009054906101000a900473ffffffffffffffffffffffffffffffffffffffff1673ffffffffffffffffffffffffffffffffffffffff166323b872dd30336000546040518463ffffffff1660e01b8152600401611325939291906121f9565b6020604051808303816000875af1158015611344573d6000803e3d6000fd5b505050506040513d601f19601f82011682018060405250810190611368919061225c565b6113a7576040517f08c379a000000000000000000000000000000000000000000000000000000000815260040161139e906122d5565b60405180910390fd5b505050565b60606000600360003373ffffffffffffffffffffffffffffffffffffffff1673ffffffffffffffffffffffffffffffffffffffff168152602001908152602001600020905060005b818054905081101561153a573373ffffffffffffffffffffffffffffffffffffffff1682828154811061142a5761142961201a565b5b906000526020600020906006020160050160009054906101000a900473ffffffffffffffffffffffffffffffffffffffff1673ffffffffffffffffffffffffffffffffffffffff16036115275781818154811061148a5761148961201a565b5b906000526020600020906006020160000180546114a690611cf4565b80601f01602080910402602001604051908101604052809291908181526020018280546114d290611cf4565b801561151f5780601f106114f45761010080835404028352916020019161151f565b820191906000526020600020905b81548152906001019060200180831161150257829003601f168201915b505050505092505b808061153290611fd2565b9150506113f4565b505090565b50805461154b90611cf4565b6000825580601f1061155d575061157c565b601f01602090049060005260206000209081019061157b919061157f565b5b50565b5b80821115611598576000816000905550600101611580565b5090565b6000604051905090565b600080fd5b600080fd5b6000819050919050565b6115c3816115b0565b81146115ce57600080fd5b50565b6000813590506115e0816115ba565b92915050565b600080604083850312156115fd576115fc6115a6565b5b600061160b858286016115d1565b925050602061161c858286016115d1565b9150509250929050565b61162f816115b0565b82525050565b600060408201905061164a6000830185611626565b6116576020830184611626565b9392505050565b600080fd5b600080fd5b6000601f19601f8301169050919050565b7f4e487b7100000000000000000000000000000000000000000000000000000000600052604160045260246000fd5b6116b182611668565b810181811067ffffffffffffffff821117156116d0576116cf611679565b5b80604052505050565b60006116e361159c565b90506116ef82826116a8565b919050565b600067ffffffffffffffff82111561170f5761170e611679565b5b61171882611668565b9050602081019050919050565b82818337600083830152505050565b6000611747611742846116f4565b6116d9565b90508281526020810184848401111561176357611762611663565b5b61176e848285611725565b509392505050565b600082601f83011261178b5761178a61165e565b5b813561179b848260208601611734565b91505092915050565b600080604083850312156117bb576117ba6115a6565b5b600083013567ffffffffffffffff8111156117d9576117d86115ab565b5b6117e585828601611776565b925050602083013567ffffffffffffffff811115611806576118056115ab565b5b61181285828601611776565b9150509250929050565b60008115159050919050565b6118318161181c565b82525050565b600060208201905061184c6000830184611828565b92915050565b60006020820190506118676000830184611626565b92915050565b600081519050919050565b600082825260208201905092915050565b6000819050602082019050919050565b600081519050919050565b600082825260208201905092915050565b60005b838110156118d35780820151818401526020810190506118b8565b838111156118e2576000848401525b50505050565b60006118f382611899565b6118fd81856118a4565b935061190d8185602086016118b5565b61191681611668565b840191505092915050565b600061192d83836118e8565b905092915050565b6000602082019050919050565b600061194d8261186d565b6119578185611878565b93508360208202850161196985611889565b8060005b858110156119a557848403895281516119868582611921565b945061199183611935565b925060208a0199505060018101905061196d565b50829750879550505050505092915050565b600060208201905081810360008301526119d18184611942565b905092915050565b600080600080608085870312156119f3576119f26115a6565b5b600085013567ffffffffffffffff811115611a1157611a106115ab565b5b611a1d87828801611776565b9450506020611a2e878288016115d1565b9350506040611a3f878288016115d1565b9250506060611a50878288016115d1565b91505092959194509250565b600073ffffffffffffffffffffffffffffffffffffffff82169050919050565b6000611a8782611a5c565b9050919050565b611a9781611a7c565b8114611aa257600080fd5b50565b600081359050611ab481611a8e565b92915050565b60008060408385031215611ad157611ad06115a6565b5b6000611adf85828601611aa5565b9250506020611af0858286016115d1565b9150509250929050565b600082825260208201905092915050565b6000611b1682611899565b611b208185611afa565b9350611b308185602086016118b5565b611b3981611668565b840191505092915050565b611b4d81611a7c565b82525050565b600060e0820190508181036000830152611b6d818a611b0b565b9050611b7c6020830189611626565b611b896040830188611626565b611b966060830187611626565b611ba36080830186611626565b611bb060a0830185611b44565b611bbd60c0830184611828565b98975050505050505050565b600060208284031215611bdf57611bde6115a6565b5b6000611bed848285016115d1565b91505092915050565b600060a0820190508181036000830152611c108188611b0b565b9050611c1f6020830187611626565b611c2c6040830186611626565b611c396060830185611626565b611c466080830184611828565b9695505050505050565b60006020820190508181036000830152611c6a8184611b0b565b905092915050565b600081905092915050565b6000611c8882611899565b611c928185611c72565b9350611ca28185602086016118b5565b80840191505092915050565b6000611cba8284611c7d565b915081905092915050565b7f4e487b7100000000000000000000000000000000000000000000000000000000600052602260045260246000fd5b60006002820490506001821680611d0c57607f821691505b602082108103611d1f57611d1e611cc5565b5b50919050565b60008190508160005260206000209050919050565b60006020601f8301049050919050565b600082821b905092915050565b600060088302611d877fffffffffffffffffffffffffffffffffffffffffffffffffffffffffffffffff82611d4a565b611d918683611d4a565b95508019841693508086168417925050509392505050565b6000819050919050565b6000611dce611dc9611dc4846115b0565b611da9565b6115b0565b9050919050565b6000819050919050565b611de883611db3565b611dfc611df482611dd5565b848454611d57565b825550505050565b600090565b611e11611e04565b611e1c818484611ddf565b505050565b5b81811015611e4057611e35600082611e09565b600181019050611e22565b5050565b601f821115611e8557611e5681611d25565b611e5f84611d3a565b81016020851015611e6e578190505b611e82611e7a85611d3a565b830182611e21565b50505b505050565b600082821c905092915050565b6000611ea860001984600802611e8a565b1980831691505092915050565b6000611ec18383611e97565b9150826002028217905092915050565b611eda82611899565b67ffffffffffffffff811115611ef357611ef2611679565b5b611efd8254611cf4565b611f08828285611e44565b600060209050601f831160018114611f3b5760008415611f29578287015190505b611f338582611eb5565b865550611f9b565b601f198416611f4986611d25565b60005b82811015611f7157848901518255600182019150602085019450602081019050611f4c565b86831015611f8e5784890151611f8a601f891682611e97565b8355505b6001600288020188555050505b505050505050565b7f4e487b7100000000000000000000000000000000000000000000000000000000600052601160045260246000fd5b6000611fdd826115b0565b91507fffffffffffffffffffffffffffffffffffffffffffffffffffffffffffffffff820361200f5761200e611fa3565b5b600182019050919050565b7f4e487b7100000000000000000000000000000000000000000000000000000000600052603260045260246000fd5b7f4e6f207374616b6520666f756e64000000000000000000000000000000000000600082015250565b600061207f600e83611afa565b915061208a82612049565b602082019050919050565b600060208201905081810360008301526120ae81612072565b9050919050565b7f54696d6520706572696f6420686173206e6f7420656c61707365642e00000000600082015250565b60006120eb601c83611afa565b91506120f6826120b5565b602082019050919050565b6000602082019050818103600083015261211a816120de565b9050919050565b7f52657761726420616c726564792077697468647261776e000000000000000000600082015250565b6000612157601783611afa565b915061216282612121565b602082019050919050565b600060208201905081810360008301526121868161214a565b9050919050565b7f4e6f7420746865206f776e6572206f6620746869732064657669636500000000600082015250565b60006121c3601c83611afa565b91506121ce8261218d565b602082019050919050565b600060208201905081810360008301526121f2816121b6565b9050919050565b600060608201905061220e6000830186611b44565b61221b6020830185611b44565b6122286040830184611626565b949350505050565b6122398161181c565b811461224457600080fd5b50565b60008151905061225681612230565b92915050565b600060208284031215612272576122716115a6565b5b600061228084828501612247565b91505092915050565b7f5374616b65207472616e73666572206661696c65640000000000000000000000600082015250565b60006122bf601583611afa565b91506122ca82612289565b602082019050919050565b600060208201905081810360008301526122ee816122b2565b905091905056fea26469706673582212200eb067b3197ae46707e20369e0e9b6ac1a9e3ad4d36ae9471e630fcf8f7954ce64736f6c634300080f0033",
  "linkReferences": {},
  "deployedLinkReferences": {}
}