{
  "_format": "hh-sol-artifact-1",
  "contractName": "FileShare",
  "sourceName": "contracts/FileShare.sol",
  "abi": [
    {
      "inputs": [
        {
          "internalType": "address",
          "name": "tokenAddress",
          "type": "address"
        },
        {
          "internalType": "uint256",
          "name": "_FIXED_STAKE",
          "type": "uint256"
        },
        {
          "internalType": "uint256",
          "name": "_REWARD_PER_HOUR",
          "type": "uint256"
        }
      ],
      "stateMutability": "nonpayable",
      "type": "constructor"
    },
    {
      "inputs": [],
      "name": "FIXED_STAKE",
      "outputs": [
        {
          "internalType": "uint256",
          "name": "",
          "type": "uint256"
        }
      ],
      "stateMutability": "view",
      "type": "function"
    },
    {
      "inputs": [],
      "name": "ProId",
      "outputs": [
        {
          "internalType": "uint256",
          "name": "",
          "type": "uint256"
        }
      ],
      "stateMutability": "view",
      "type": "function"
    },
    {
      "inputs": [],
      "name": "REWARD_PER_HOUR",
      "outputs": [
        {
          "internalType": "uint256",
          "name": "",
          "type": "uint256"
        }
      ],
      "stateMutability": "view",
      "type": "function"
    },
    {
      "inputs": [],
      "name": "ReqId",
      "outputs": [
        {
          "internalType": "uint256",
          "name": "",
          "type": "uint256"
        }
      ],
      "stateMutability": "view",
      "type": "function"
    },
    {
      "inputs": [
        {
          "internalType": "uint256",
          "name": "_proId",
          "type": "uint256"
        },
        {
          "internalType": "uint256",
          "name": "_newDeviceId",
          "type": "uint256"
        },
        {
          "internalType": "uint256",
          "name": "_newspace",
          "type": "uint256"
        },
        {
          "internalType": "uint256",
          "name": "_newTime",
          "type": "uint256"
        },
        {
          "internalType": "string",
          "name": "_newDescription",
          "type": "string"
        }
      ],
      "name": "addDevicesByProvider",
      "outputs": [],
      "stateMutability": "nonpayable",
      "type": "function"
    },
    {
      "inputs": [
        {
          "internalType": "uint256",
          "name": "_devId",
          "type": "uint256"
        },
        {
          "internalType": "uint256",
          "name": "_proId",
          "type": "uint256"
        },
        {
          "internalType": "uint256",
          "name": "_reqId",
          "type": "uint256"
        }
      ],
      "name": "approve",
      "outputs": [],
      "stateMutability": "payable",
      "type": "function"
    },
    {
      "inputs": [
        {
          "internalType": "address",
          "name": "_provider",
          "type": "address"
        },
        {
          "internalType": "uint256",
          "name": "_stakeId",
          "type": "uint256"
        }
      ],
      "name": "calRewardPerDevice",
      "outputs": [
        {
          "internalType": "uint256",
          "name": "",
          "type": "uint256"
        }
      ],
      "stateMutability": "view",
      "type": "function"
    },
    {
      "inputs": [
        {
          "internalType": "string",
          "name": "str1",
          "type": "string"
        },
        {
          "internalType": "string",
          "name": "str2",
          "type": "string"
        }
      ],
      "name": "compare",
      "outputs": [
        {
          "internalType": "bool",
          "name": "",
          "type": "bool"
        }
      ],
      "stateMutability": "pure",
      "type": "function"
    },
    {
      "inputs": [
        {
          "internalType": "string",
          "name": "_description",
          "type": "string"
        },
        {
          "internalType": "uint256",
          "name": "_deviceId",
          "type": "uint256"
        },
        {
          "internalType": "uint256",
          "name": "_space",
          "type": "uint256"
        },
        {
          "internalType": "uint256",
          "name": "_hours",
          "type": "uint256"
        }
      ],
      "name": "createProvide",
      "outputs": [],
      "stateMutability": "payable",
      "type": "function"
    },
    {
      "inputs": [
        {
          "internalType": "uint256",
          "name": "_proId",
          "type": "uint256"
        },
        {
          "internalType": "uint256",
          "name": "_stakeId",
          "type": "uint256"
        },
        {
          "internalType": "uint256",
          "name": "amount",
          "type": "uint256"
        },
        {
          "internalType": "uint256",
          "name": "devId",
          "type": "uint256"
        }
      ],
      "name": "finishUseByProvider",
      "outputs": [],
      "stateMutability": "nonpayable",
      "type": "function"
    },
    {
      "inputs": [],
      "name": "getAllAvailableDevices",
      "outputs": [
        {
          "internalType": "string[]",
          "name": "",
          "type": "string[]"
        }
      ],
      "stateMutability": "view",
      "type": "function"
    },
    {
      "inputs": [
        {
          "internalType": "uint256",
          "name": "_reqId",
          "type": "uint256"
        }
      ],
      "name": "getRequesterDetails",
      "outputs": [
        {
          "internalType": "string",
          "name": "",
          "type": "string"
        },
        {
          "internalType": "address",
          "name": "",
          "type": "address"
        },
        {
          "internalType": "address",
          "name": "",
          "type": "address"
        },
        {
          "internalType": "uint256",
          "name": "",
          "type": "uint256"
        },
        {
          "internalType": "uint256",
          "name": "",
          "type": "uint256"
        },
        {
          "internalType": "uint256",
          "name": "",
          "type": "uint256"
        }
      ],
      "stateMutability": "view",
      "type": "function"
    },
    {
      "inputs": [
        {
          "internalType": "address",
          "name": "staker",
          "type": "address"
        },
        {
          "internalType": "uint256",
          "name": "stakeId",
          "type": "uint256"
        }
      ],
      "name": "getStakeAmount",
      "outputs": [
        {
          "internalType": "uint256",
          "name": "",
          "type": "uint256"
        }
      ],
      "stateMutability": "view",
      "type": "function"
    },
    {
      "inputs": [
        {
          "internalType": "address",
          "name": "staker",
          "type": "address"
        },
        {
          "internalType": "uint256",
          "name": "stakeId",
          "type": "uint256"
        }
      ],
      "name": "getStakeTimestamp",
      "outputs": [
        {
          "internalType": "uint256",
          "name": "",
          "type": "uint256"
        }
      ],
      "stateMutability": "view",
      "type": "function"
    },
    {
      "inputs": [
        {
          "internalType": "uint256",
          "name": "_proId",
          "type": "uint256"
        },
        {
          "internalType": "uint256",
          "name": "_spaceReq",
          "type": "uint256"
        },
        {
          "internalType": "string",
          "name": "_deviceDespReq",
          "type": "string"
        },
        {
          "internalType": "uint256",
          "name": "_deviceIdReq",
          "type": "uint256"
        },
        {
          "internalType": "uint256",
          "name": "_timeReq",
          "type": "uint256"
        }
      ],
      "name": "makeRequestToProvider",
      "outputs": [],
      "stateMutability": "nonpayable",
      "type": "function"
    },
    {
      "inputs": [
        {
          "internalType": "uint256",
          "name": "",
          "type": "uint256"
        }
      ],
      "name": "providers",
      "outputs": [
        {
          "internalType": "uint256",
          "name": "id",
          "type": "uint256"
        },
        {
          "internalType": "address payable",
          "name": "recipient",
          "type": "address"
        },
        {
          "internalType": "uint256",
          "name": "timestamp",
          "type": "uint256"
        }
      ],
      "stateMutability": "view",
      "type": "function"
    },
    {
      "inputs": [
        {
          "internalType": "uint256",
          "name": "",
          "type": "uint256"
        }
      ],
      "name": "requests",
      "outputs": [
        {
          "internalType": "string",
          "name": "devName",
          "type": "string"
        },
        {
          "internalType": "address",
          "name": "requesterAddress",
          "type": "address"
        },
        {
          "internalType": "address",
          "name": "providerAddress",
          "type": "address"
        },
        {
          "internalType": "uint256",
          "name": "needIdDevice",
          "type": "uint256"
        },
        {
          "internalType": "uint256",
          "name": "deviceProId",
          "type": "uint256"
        },
        {
          "internalType": "uint256",
          "name": "timeReq",
          "type": "uint256"
        }
      ],
      "stateMutability": "view",
      "type": "function"
    },
    {
      "inputs": [
        {
          "internalType": "uint256",
          "name": "_proIdAvailable",
          "type": "uint256"
        }
      ],
      "name": "storeAllAvailableDevices",
      "outputs": [],
      "stateMutability": "nonpayable",
      "type": "function"
    },
    {
      "inputs": [
        {
          "internalType": "uint256",
          "name": "_devId",
          "type": "uint256"
        },
        {
          "internalType": "uint256",
          "name": "_proId",
          "type": "uint256"
        },
        {
          "internalType": "uint256",
          "name": "_reqId",
          "type": "uint256"
        }
      ],
      "name": "unapprove",
      "outputs": [],
      "stateMutability": "payable",
      "type": "function"
    }
  ],
  "bytecode": "0x60806040523480156200001157600080fd5b506040516200333338038062003333833981810160405281019062000037919062000175565b82600360006101000a81548173ffffffffffffffffffffffffffffffffffffffff021916908373ffffffffffffffffffffffffffffffffffffffff16021790555033600260006101000a81548173ffffffffffffffffffffffffffffffffffffffff021916908373ffffffffffffffffffffffffffffffffffffffff1602179055508160008190555080600181905550505050620001d1565b600080fd5b600073ffffffffffffffffffffffffffffffffffffffff82169050919050565b60006200010282620000d5565b9050919050565b6200011481620000f5565b81146200012057600080fd5b50565b600081519050620001348162000109565b92915050565b6000819050919050565b6200014f816200013a565b81146200015b57600080fd5b50565b6000815190506200016f8162000144565b92915050565b600080600060608486031215620001915762000190620000d0565b5b6000620001a18682870162000123565b9350506020620001b4868287016200015e565b9250506040620001c7868287016200015e565b9150509250925092565b61315280620001e16000396000f3fe6080604052600436106101145760003560e01c806363882f9a116100a057806383ec51831161006457806383ec5183146103d6578063a898829d14610413578063b866c8a41461043e578063c7bd7ff91461045a578063e6efa8bc1461047657610114565b806363882f9a146102d057806373e2d229146102f95780637962cb98146103365780637b93562d1461035257806381d12c581461039457610114565b80633a96fdd7116100e75780633a96fdd7146101d557806340e410481461021257806350f3fc811461023d578063561a72be1461027c578063623be092146102a557610114565b80631dee21e9146101195780632087931e14610144578063365e2abf1461016d578063382926c3146101aa575b600080fd5b34801561012557600080fd5b5061012e61049f565b60405161013b9190611c80565b60405180910390f35b34801561015057600080fd5b5061016b60048036038101906101669190611e21565b6104a5565b005b34801561017957600080fd5b50610194600480360381019061018f9190611f16565b6106ad565b6040516101a19190611c80565b60405180910390f35b3480156101b657600080fd5b506101bf61070b565b6040516101cc9190611c80565b60405180910390f35b3480156101e157600080fd5b506101fc60048036038101906101f79190611f56565b610711565b6040516102099190611fe9565b60405180910390f35b34801561021e57600080fd5b5061022761077d565b604051610234919061214e565b60405180910390f35b34801561024957600080fd5b50610264600480360381019061025f9190612170565b610856565b604051610273939291906121be565b60405180910390f35b34801561028857600080fd5b506102a3600480360381019061029e9190612255565b6108a0565b005b3480156102b157600080fd5b506102ba610ca0565b6040516102c79190611c80565b60405180910390f35b3480156102dc57600080fd5b506102f760048036038101906102f291906122ef565b610ca6565b005b34801561030557600080fd5b50610320600480360381019061031b9190611f16565b61109e565b60405161032d9190611c80565b60405180910390f35b610350600480360381019061034b9190612356565b611191565b005b34801561035e57600080fd5b5061037960048036038101906103749190612170565b6114e3565b60405161038b96959493929190612432565b60405180910390f35b3480156103a057600080fd5b506103bb60048036038101906103b69190612170565b611602565b6040516103cd96959493929190612432565b60405180910390f35b3480156103e257600080fd5b506103fd60048036038101906103f89190611f16565b611706565b60405161040a9190611c80565b60405180910390f35b34801561041f57600080fd5b50610428611764565b6040516104359190611c80565b60405180910390f35b6104586004803603810190610453919061249a565b61176a565b005b610474600480360381019061046f919061249a565b611915565b005b34801561048257600080fd5b5061049d60048036038101906104989190612170565b611adf565b005b60055481565b600060066000878152602001908152602001600020905080600001829080600181540180825580915050600190039060005260206000200160009091909190915090816104f291906126f9565b5080600101859080600181540180825580915050600190039060005260206000200160009091909190915055806004018490806001815401808255809150506001900390600052602060002001600090919091909150558060050183908060018154018082558091505060019003906000526020600020016000909190919091505580600701600090806001815401808255809150506001900390600052602060002090602091828204019190069091909190916101000a81548160ff021916908315150217905550600960003373ffffffffffffffffffffffffffffffffffffffff1673ffffffffffffffffffffffffffffffffffffffff16815260200190815260200160002060008154610607906127fa565b91905081905560088190555060405180606001604052806008548152602001600054815260200142815250600b60003373ffffffffffffffffffffffffffffffffffffffff1673ffffffffffffffffffffffffffffffffffffffff16815260200190815260200160002060006008548152602001908152602001600020600082015181600001556020820151816001015560408201518160020155905050505050505050565b6000600b60008473ffffffffffffffffffffffffffffffffffffffff1673ffffffffffffffffffffffffffffffffffffffff168152602001908152602001600020600083815260200190815260200160002060010154905092915050565b60015481565b600081518351146107255760009050610777565b81604051602001610736919061287e565b604051602081830303815290604052805190602001208360405160200161075d919061287e565b604051602081830303815290604052805190602001201490505b92915050565b6060600c805480602002602001604051908101604052809291908181526020016000905b8282101561084d5783829060005260206000200180546107c09061251c565b80601f01602080910402602001604051908101604052809291908181526020018280546107ec9061251c565b80156108395780601f1061080e57610100808354040283529160200191610839565b820191906000526020600020905b81548152906001019060200180831161081c57829003601f168201915b5050505050815260200190600101906107a1565b50505050905090565b60066020528060005260406000206000915090508060020154908060030160009054906101000a900473ffffffffffffffffffffffffffffffffffffffff16908060060154905083565b600060066000888152602001908152602001600020905060005b8160010180549050811015610c9657838260010182815481106108e0576108df612895565b5b906000526020600020015403610c83578682600401828154811061090757610906612895565b5b90600052602060002001541015610953576040517f08c379a000000000000000000000000000000000000000000000000000000000815260040161094a90612936565b60405180910390fd5b8282600501828154811061096a57610969612895565b5b906000526020600020015410156109b6576040517f08c379a00000000000000000000000000000000000000000000000000000000081526004016109ad906129c8565b60405180910390fd5b838260010182815481106109cd576109cc612895565b5b906000526020600020015414610a18576040517f08c379a0000000000000000000000000000000000000000000000000000000008152600401610a0f90612a34565b60405180910390fd5b60001515826007018281548110610a3257610a31612895565b5b90600052602060002090602091828204019190069054906101000a900460ff16151514610a94576040517f08c379a0000000000000000000000000000000000000000000000000000000008152600401610a8b90612ac6565b60405180910390fd5b600360009054906101000a900473ffffffffffffffffffffffffffffffffffffffff1673ffffffffffffffffffffffffffffffffffffffff166323b872dd33306000546040518463ffffffff1660e01b8152600401610af593929190612ae6565b6020604051808303816000875af1158015610b14573d6000803e3d6000fd5b505050506040513d601f19601f82011682018060405250810190610b389190612b49565b610b77576040517f08c379a0000000000000000000000000000000000000000000000000000000008152600401610b6e90612bc2565b60405180910390fd5b6000600460006005548152602001908152602001600020905060056000815480929190610ba3906127fa565b91905055508686826000019182610bbb929190612bed565b50338160010160006101000a81548173ffffffffffffffffffffffffffffffffffffffff021916908373ffffffffffffffffffffffffffffffffffffffff1602179055508260030160009054906101000a900473ffffffffffffffffffffffffffffffffffffffff168160020160006101000a81548173ffffffffffffffffffffffffffffffffffffffff021916908373ffffffffffffffffffffffffffffffffffffffff160217905550848160030181905550888160040181905550838160050181905550505b8080610c8e906127fa565b9150506108ba565b5050505050505050565b60075481565b6000600960003373ffffffffffffffffffffffffffffffffffffffff1673ffffffffffffffffffffffffffffffffffffffff1681526020019081526020016000205411610d28576040517f08c379a0000000000000000000000000000000000000000000000000000000008152600401610d1f90612d09565b60405180910390fd5b600b60003373ffffffffffffffffffffffffffffffffffffffff1673ffffffffffffffffffffffffffffffffffffffff1681526020019081526020016000206000848152602001908152602001600020600201544211610dbd576040517f08c379a0000000000000000000000000000000000000000000000000000000008152600401610db490612d75565b60405180910390fd5b600060066000868152602001908152602001600020905060005b8160010180549050811015610e625782826001018281548110610dfd57610dfc612895565b5b906000526020600020015403610e4f576000826007018281548110610e2557610e24612895565b5b90600052602060002090602091828204019190066101000a81548160ff0219169083151502179055505b8080610e5a906127fa565b915050610dd7565b6000610e6e338761109e565b905080600a60003373ffffffffffffffffffffffffffffffffffffffff1673ffffffffffffffffffffffffffffffffffffffff1681526020019081526020016000206000828254610ebf9190612d95565b92505081905550600085600b60003373ffffffffffffffffffffffffffffffffffffffff1673ffffffffffffffffffffffffffffffffffffffff168152602001908152602001600020600089815260200190815260200160002060010154610f279190612deb565b9050604051806060016040528088815260200182815260200142815250600b60003373ffffffffffffffffffffffffffffffffffffffff1673ffffffffffffffffffffffffffffffffffffffff1681526020019081526020016000206000898152602001908152602001600020600082015181600001556020820151816001015560408201518160020155905050600360009054906101000a900473ffffffffffffffffffffffffffffffffffffffff1673ffffffffffffffffffffffffffffffffffffffff1663a9059cbb33886040518363ffffffff1660e01b8152600401611012929190612e1f565b6020604051808303816000875af1158015611031573d6000803e3d6000fd5b505050506040513d601f19601f820116820180604052508101906110559190612b49565b611094576040517f08c379a000000000000000000000000000000000000000000000000000000000815260040161108b90612e94565b60405180910390fd5b5050505050505050565b600080600b60008573ffffffffffffffffffffffffffffffffffffffff1673ffffffffffffffffffffffffffffffffffffffff16815260200190815260200160002060008481526020019081526020016000206001015490506000600b60008673ffffffffffffffffffffffffffffffffffffffff1673ffffffffffffffffffffffffffffffffffffffff16815260200190815260200160002060008581526020019081526020016000206002015490506000814261115d9190612deb565b90506301e1338060646111709190612eb4565b818461117c9190612eb4565b6111869190612f3d565b935050505092915050565b60006006600060075481526020019081526020016000209050600760008154809291906111bd906127fa565b9190505550600360009054906101000a900473ffffffffffffffffffffffffffffffffffffffff1673ffffffffffffffffffffffffffffffffffffffff166323b872dd33306000546040518463ffffffff1660e01b815260040161122393929190612ae6565b6020604051808303816000875af1158015611242573d6000803e3d6000fd5b505050506040513d601f19601f820116820180604052508101906112669190612b49565b6112a5576040517f08c379a000000000000000000000000000000000000000000000000000000000815260040161129c90612fba565b60405180910390fd5b80600001859080600181540180825580915050600190039060005260206000200160009091909190915090816112db91906126f9565b5080600101849080600181540180825580915050600190039060005260206000200160009091909190915055338160030160006101000a81548173ffffffffffffffffffffffffffffffffffffffff021916908373ffffffffffffffffffffffffffffffffffffffff160217905550806004018390806001815401808255809150506001900390600052602060002001600090919091909150558060050182908060018154018082558091505060019003906000526020600020016000909190919091505580600701600090806001815401808255809150506001900390600052602060002090602091828204019190069091909190916101000a81548160ff0219169083151502179055506007548160020181905550600960003373ffffffffffffffffffffffffffffffffffffffff1673ffffffffffffffffffffffffffffffffffffffff1681526020019081526020016000206000815461143e906127fa565b91905081905560088190555060405180606001604052806008548152602001600054815260200142815250600b60003373ffffffffffffffffffffffffffffffffffffffff1673ffffffffffffffffffffffffffffffffffffffff168152602001908152602001600020600060085481526020019081526020016000206000820151816000015560208201518160010155604082015181600201559050505050505050565b6060600080600080600080600460008981526020019081526020016000209050806000018160010160009054906101000a900473ffffffffffffffffffffffffffffffffffffffff168260020160009054906101000a900473ffffffffffffffffffffffffffffffffffffffff1683600301548460040154856005015485805461156c9061251c565b80601f01602080910402602001604051908101604052809291908181526020018280546115989061251c565b80156115e55780601f106115ba576101008083540402835291602001916115e5565b820191906000526020600020905b8154815290600101906020018083116115c857829003601f168201915b505050505095509650965096509650965096505091939550919395565b60046020528060005260406000206000915090508060000180546116259061251c565b80601f01602080910402602001604051908101604052809291908181526020018280546116519061251c565b801561169e5780601f106116735761010080835404028352916020019161169e565b820191906000526020600020905b81548152906001019060200180831161168157829003601f168201915b5050505050908060010160009054906101000a900473ffffffffffffffffffffffffffffffffffffffff16908060020160009054906101000a900473ffffffffffffffffffffffffffffffffffffffff16908060030154908060040154908060050154905086565b6000600b60008473ffffffffffffffffffffffffffffffffffffffff1673ffffffffffffffffffffffffffffffffffffffff168152602001908152602001600020600083815260200190815260200160002060020154905092915050565b60005481565b600060066000848152602001908152602001600020905060005b816001018054905081101561190e57848260010182815481106117aa576117a9612895565b5b9060005260206000200154036118fb57848260010182815481106117d1576117d0612895565b5b90600052602060002001541461181c576040517f08c379a000000000000000000000000000000000000000000000000000000000815260040161181390612a34565b60405180910390fd5b6000151582600701828154811061183657611835612895565b5b90600052602060002090602091828204019190069054906101000a900460ff16151514611898576040517f08c379a000000000000000000000000000000000000000000000000000000000815260040161188f90612ac6565b60405180910390fd5b60018260070182815481106118b0576118af612895565b5b90600052602060002090602091828204019190066101000a81548160ff0219169083151502179055504282600601819055506000600460008581526020019081526020016000209050505b8080611906906127fa565b915050611784565b5050505050565b600060066000848152602001908152602001600020905060005b8160010180549050811015611ad8578482600101828154811061195557611954612895565b5b906000526020600020015403611ac5576000600460008581526020019081526020016000209050600360009054906101000a900473ffffffffffffffffffffffffffffffffffffffff1673ffffffffffffffffffffffffffffffffffffffff166323b872dd600260009054906101000a900473ffffffffffffffffffffffffffffffffffffffff168360010160009054906101000a900473ffffffffffffffffffffffffffffffffffffffff16866005018681548110611a1857611a17612895565b5b90600052602060002001546040518463ffffffff1660e01b8152600401611a4193929190612ae6565b6020604051808303816000875af1158015611a60573d6000803e3d6000fd5b505050506040513d601f19601f82011682018060405250810190611a849190612b49565b611ac3576040517f08c379a0000000000000000000000000000000000000000000000000000000008152600401611aba90612bc2565b60405180910390fd5b505b8080611ad0906127fa565b91505061192f565b5050505050565b600060066000838152602001908152602001600020905060005b600c80549050811015611b4957600c805480611b1857611b17612fda565b5b600190038181906000526020600020016000611b349190611c0a565b90558080611b41906127fa565b915050611af9565b5060005b8160000180549050811015611c055760001515826007018281548110611b7657611b75612895565b5b90600052602060002090602091828204019190069054906101000a900460ff16151503611bf257600c826000018281548110611bb557611bb4612895565b5b90600052602060002001908060018154018082558091505060019003906000526020600020016000909190919091509081611bf09190613034565b505b8080611bfd906127fa565b915050611b4d565b505050565b508054611c169061251c565b6000825580601f10611c285750611c47565b601f016020900490600052602060002090810190611c469190611c4a565b5b50565b5b80821115611c63576000816000905550600101611c4b565b5090565b6000819050919050565b611c7a81611c67565b82525050565b6000602082019050611c956000830184611c71565b92915050565b6000604051905090565b600080fd5b600080fd5b611cb881611c67565b8114611cc357600080fd5b50565b600081359050611cd581611caf565b92915050565b600080fd5b600080fd5b6000601f19601f8301169050919050565b7f4e487b7100000000000000000000000000000000000000000000000000000000600052604160045260246000fd5b611d2e82611ce5565b810181811067ffffffffffffffff82111715611d4d57611d4c611cf6565b5b80604052505050565b6000611d60611c9b565b9050611d6c8282611d25565b919050565b600067ffffffffffffffff821115611d8c57611d8b611cf6565b5b611d9582611ce5565b9050602081019050919050565b82818337600083830152505050565b6000611dc4611dbf84611d71565b611d56565b905082815260208101848484011115611de057611ddf611ce0565b5b611deb848285611da2565b509392505050565b600082601f830112611e0857611e07611cdb565b5b8135611e18848260208601611db1565b91505092915050565b600080600080600060a08688031215611e3d57611e3c611ca5565b5b6000611e4b88828901611cc6565b9550506020611e5c88828901611cc6565b9450506040611e6d88828901611cc6565b9350506060611e7e88828901611cc6565b925050608086013567ffffffffffffffff811115611e9f57611e9e611caa565b5b611eab88828901611df3565b9150509295509295909350565b600073ffffffffffffffffffffffffffffffffffffffff82169050919050565b6000611ee382611eb8565b9050919050565b611ef381611ed8565b8114611efe57600080fd5b50565b600081359050611f1081611eea565b92915050565b60008060408385031215611f2d57611f2c611ca5565b5b6000611f3b85828601611f01565b9250506020611f4c85828601611cc6565b9150509250929050565b60008060408385031215611f6d57611f6c611ca5565b5b600083013567ffffffffffffffff811115611f8b57611f8a611caa565b5b611f9785828601611df3565b925050602083013567ffffffffffffffff811115611fb857611fb7611caa565b5b611fc485828601611df3565b9150509250929050565b60008115159050919050565b611fe381611fce565b82525050565b6000602082019050611ffe6000830184611fda565b92915050565b600081519050919050565b600082825260208201905092915050565b6000819050602082019050919050565b600081519050919050565b600082825260208201905092915050565b60005b8381101561206a57808201518184015260208101905061204f565b83811115612079576000848401525b50505050565b600061208a82612030565b612094818561203b565b93506120a481856020860161204c565b6120ad81611ce5565b840191505092915050565b60006120c4838361207f565b905092915050565b6000602082019050919050565b60006120e482612004565b6120ee818561200f565b93508360208202850161210085612020565b8060005b8581101561213c578484038952815161211d85826120b8565b9450612128836120cc565b925060208a01995050600181019050612104565b50829750879550505050505092915050565b6000602082019050818103600083015261216881846120d9565b905092915050565b60006020828403121561218657612185611ca5565b5b600061219484828501611cc6565b91505092915050565b60006121a882611eb8565b9050919050565b6121b88161219d565b82525050565b60006060820190506121d36000830186611c71565b6121e060208301856121af565b6121ed6040830184611c71565b949350505050565b600080fd5b600080fd5b60008083601f84011261221557612214611cdb565b5b8235905067ffffffffffffffff811115612232576122316121f5565b5b60208301915083600182028301111561224e5761224d6121fa565b5b9250929050565b60008060008060008060a0878903121561227257612271611ca5565b5b600061228089828a01611cc6565b965050602061229189828a01611cc6565b955050604087013567ffffffffffffffff8111156122b2576122b1611caa565b5b6122be89828a016121ff565b945094505060606122d189828a01611cc6565b92505060806122e289828a01611cc6565b9150509295509295509295565b6000806000806080858703121561230957612308611ca5565b5b600061231787828801611cc6565b945050602061232887828801611cc6565b935050604061233987828801611cc6565b925050606061234a87828801611cc6565b91505092959194509250565b600080600080608085870312156123705761236f611ca5565b5b600085013567ffffffffffffffff81111561238e5761238d611caa565b5b61239a87828801611df3565b94505060206123ab87828801611cc6565b93505060406123bc87828801611cc6565b92505060606123cd87828801611cc6565b91505092959194509250565b600082825260208201905092915050565b60006123f582612030565b6123ff81856123d9565b935061240f81856020860161204c565b61241881611ce5565b840191505092915050565b61242c81611ed8565b82525050565b600060c082019050818103600083015261244c81896123ea565b905061245b6020830188612423565b6124686040830187612423565b6124756060830186611c71565b6124826080830185611c71565b61248f60a0830184611c71565b979650505050505050565b6000806000606084860312156124b3576124b2611ca5565b5b60006124c186828701611cc6565b93505060206124d286828701611cc6565b92505060406124e386828701611cc6565b9150509250925092565b7f4e487b7100000000000000000000000000000000000000000000000000000000600052602260045260246000fd5b6000600282049050600182168061253457607f821691505b602082108103612547576125466124ed565b5b50919050565b60008190508160005260206000209050919050565b60006020601f8301049050919050565b600082821b905092915050565b6000600883026125af7fffffffffffffffffffffffffffffffffffffffffffffffffffffffffffffffff82612572565b6125b98683612572565b95508019841693508086168417925050509392505050565b6000819050919050565b60006125f66125f16125ec84611c67565b6125d1565b611c67565b9050919050565b6000819050919050565b612610836125db565b61262461261c826125fd565b84845461257f565b825550505050565b600090565b61263961262c565b612644818484612607565b505050565b5b818110156126685761265d600082612631565b60018101905061264a565b5050565b601f8211156126ad5761267e8161254d565b61268784612562565b81016020851015612696578190505b6126aa6126a285612562565b830182612649565b50505b505050565b600082821c905092915050565b60006126d0600019846008026126b2565b1980831691505092915050565b60006126e983836126bf565b9150826002028217905092915050565b61270282612030565b67ffffffffffffffff81111561271b5761271a611cf6565b5b612725825461251c565b61273082828561266c565b600060209050601f8311600181146127635760008415612751578287015190505b61275b85826126dd565b8655506127c3565b601f1984166127718661254d565b60005b8281101561279957848901518255600182019150602085019450602081019050612774565b868310156127b657848901516127b2601f8916826126bf565b8355505b6001600288020188555050505b505050505050565b7f4e487b7100000000000000000000000000000000000000000000000000000000600052601160045260246000fd5b600061280582611c67565b91507fffffffffffffffffffffffffffffffffffffffffffffffffffffffffffffffff8203612837576128366127cb565b5b600182019050919050565b600081905092915050565b600061285882612030565b6128628185612842565b935061287281856020860161204c565b80840191505092915050565b600061288a828461284d565b915081905092915050565b7f4e487b7100000000000000000000000000000000000000000000000000000000600052603260045260246000fd5b7f5468652070726f766964657220646f6573206e6f74206861766520656e6f756e60008201527f6768207370616365206c6566742e000000000000000000000000000000000000602082015250565b6000612920602e836123d9565b915061292b826128c4565b604082019050919050565b6000602082019050818103600083015261294f81612913565b9050919050565b7f457863656464696e672074696d65206c696d6974207365742062792070726f7660008201527f6964657200000000000000000000000000000000000000000000000000000000602082015250565b60006129b26024836123d9565b91506129bd82612956565b604082019050919050565b600060208201905081810360008301526129e1816129a5565b9050919050565b7f5468652064657669636520496420646f6573206e6f74206d6174636800000000600082015250565b6000612a1e601c836123d9565b9150612a29826129e8565b602082019050919050565b60006020820190508181036000830152612a4d81612a11565b9050919050565b7f5468652070726f766964657220697320616c726561647920627573792c206e6f60008201527f207265736f757263657320617661696c61626c652e0000000000000000000000602082015250565b6000612ab06035836123d9565b9150612abb82612a54565b604082019050919050565b60006020820190508181036000830152612adf81612aa3565b9050919050565b6000606082019050612afb6000830186612423565b612b086020830185612423565b612b156040830184611c71565b949350505050565b612b2681611fce565b8114612b3157600080fd5b50565b600081519050612b4381612b1d565b92915050565b600060208284031215612b5f57612b5e611ca5565b5b6000612b6d84828501612b34565b91505092915050565b7f506179656d6e7420756e7375636365737366756c000000000000000000000000600082015250565b6000612bac6014836123d9565b9150612bb782612b76565b602082019050919050565b60006020820190508181036000830152612bdb81612b9f565b9050919050565b600082905092915050565b612bf78383612be2565b67ffffffffffffffff811115612c1057612c0f611cf6565b5b612c1a825461251c565b612c2582828561266c565b6000601f831160018114612c545760008415612c42578287013590505b612c4c85826126dd565b865550612cb4565b601f198416612c628661254d565b60005b82811015612c8a57848901358255600182019150602085019450602081019050612c65565b86831015612ca75784890135612ca3601f8916826126bf565b8355505b6001600288020188555050505b50505050505050565b7f4e6f207374616b6520666f756e64000000000000000000000000000000000000600082015250565b6000612cf3600e836123d9565b9150612cfe82612cbd565b602082019050919050565b60006020820190508181036000830152612d2281612ce6565b9050919050565b7f54696d6520706572696f6420686173206e6f7420656c61707365642e00000000600082015250565b6000612d5f601c836123d9565b9150612d6a82612d29565b602082019050919050565b60006020820190508181036000830152612d8e81612d52565b9050919050565b6000612da082611c67565b9150612dab83611c67565b9250827fffffffffffffffffffffffffffffffffffffffffffffffffffffffffffffffff03821115612de057612ddf6127cb565b5b828201905092915050565b6000612df682611c67565b9150612e0183611c67565b925082821015612e1457612e136127cb565b5b828203905092915050565b6000604082019050612e346000830185612423565b612e416020830184611c71565b9392505050565b7f5374616b65207769746864726177616c206661696c6564000000000000000000600082015250565b6000612e7e6017836123d9565b9150612e8982612e48565b602082019050919050565b60006020820190508181036000830152612ead81612e71565b9050919050565b6000612ebf82611c67565b9150612eca83611c67565b9250817fffffffffffffffffffffffffffffffffffffffffffffffffffffffffffffffff0483118215151615612f0357612f026127cb565b5b828202905092915050565b7f4e487b7100000000000000000000000000000000000000000000000000000000600052601260045260246000fd5b6000612f4882611c67565b9150612f5383611c67565b925082612f6357612f62612f0e565b5b828204905092915050565b7f5374616b65207472616e73666572206661696c65640000000000000000000000600082015250565b6000612fa46015836123d9565b9150612faf82612f6e565b602082019050919050565b60006020820190508181036000830152612fd381612f97565b9050919050565b7f4e487b7100000000000000000000000000000000000000000000000000000000600052603160045260246000fd5b6000815490506130188161251c565b9050919050565b60008190508160005260206000209050919050565b81810361304257505061311a565b61304b82613009565b67ffffffffffffffff81111561306457613063611cf6565b5b61306e825461251c565b61307982828561266c565b6000601f8311600181146130a85760008415613096578287015490505b6130a085826126dd565b865550613113565b601f1984166130b68761301f565b96506130c18661254d565b60005b828110156130e9578489015482556001820191506001850194506020810190506130c4565b868310156131065784890154613102601f8916826126bf565b8355505b6001600288020188555050505b5050505050505b56fea2646970667358221220893ba1760200e77dc968c988f22d13635ba0963cdbb2db15b197032033fea22664736f6c634300080f0033",
  "linkReferences": {},
  "deployedLinkReferences": {}
}