{
  "_format": "hh-sol-artifact-1",
  "contractName": "FileShare",
  "sourceName": "contracts/FileShare.sol",
  "abi": [
    {
      "inputs": [
        {
          "internalType": "address",
          "name": "tokenAddress",
          "type": "address"
        },
        {
          "internalType": "uint256",
          "name": "_FIXED_STAKE",
          "type": "uint256"
        }
      ],
      "stateMutability": "nonpayable",
      "type": "constructor"
    },
    {
      "inputs": [],
      "name": "FIXED_STAKE",
      "outputs": [
        {
          "internalType": "uint256",
          "name": "",
          "type": "uint256"
        }
      ],
      "stateMutability": "view",
      "type": "function"
    },
    {
      "inputs": [
        {
          "internalType": "string",
          "name": "_description",
          "type": "string"
        },
        {
          "internalType": "uint256",
          "name": "_space",
          "type": "uint256"
        },
        {
          "internalType": "uint256",
          "name": "_hrs",
          "type": "uint256"
        },
        {
          "internalType": "uint256",
          "name": "_tokenrate",
          "type": "uint256"
        }
      ],
      "name": "addDevice",
      "outputs": [
        {
          "internalType": "uint256",
          "name": "",
          "type": "uint256"
        }
      ],
      "stateMutability": "nonpayable",
      "type": "function"
    },
    {
      "inputs": [
        {
          "internalType": "string",
          "name": "str1",
          "type": "string"
        },
        {
          "internalType": "string",
          "name": "str2",
          "type": "string"
        }
      ],
      "name": "compare",
      "outputs": [
        {
          "internalType": "bool",
          "name": "",
          "type": "bool"
        }
      ],
      "stateMutability": "pure",
      "type": "function"
    },
    {
      "inputs": [
        {
          "internalType": "uint256",
          "name": "",
          "type": "uint256"
        },
        {
          "internalType": "uint256",
          "name": "",
          "type": "uint256"
        }
      ],
      "name": "deviceDetails",
      "outputs": [
        {
          "internalType": "string",
          "name": "description",
          "type": "string"
        },
        {
          "internalType": "uint256",
          "name": "space",
          "type": "uint256"
        },
        {
          "internalType": "uint256",
          "name": "hrs",
          "type": "uint256"
        },
        {
          "internalType": "uint256",
          "name": "tokenRate",
          "type": "uint256"
        },
        {
          "internalType": "address",
          "name": "recipient",
          "type": "address"
        },
        {
          "internalType": "bool",
          "name": "engage",
          "type": "bool"
        }
      ],
      "stateMutability": "view",
      "type": "function"
    },
    {
      "inputs": [],
      "name": "deviceID",
      "outputs": [
        {
          "internalType": "uint256",
          "name": "",
          "type": "uint256"
        }
      ],
      "stateMutability": "view",
      "type": "function"
    },
    {
      "inputs": [],
      "name": "getAllDevices",
      "outputs": [
        {
          "internalType": "string[]",
          "name": "devices",
          "type": "string[]"
        }
      ],
      "stateMutability": "view",
      "type": "function"
    },
    {
      "inputs": [
        {
          "internalType": "uint256",
          "name": "_deviceID",
          "type": "uint256"
        }
      ],
      "name": "getDeviceByDeviceID",
      "outputs": [
        {
          "internalType": "string",
          "name": "desp",
          "type": "string"
        },
        {
          "internalType": "uint256",
          "name": "hr",
          "type": "uint256"
        },
        {
          "internalType": "uint256",
          "name": "sp",
          "type": "uint256"
        },
        {
          "internalType": "uint256",
          "name": "tr",
          "type": "uint256"
        },
        {
          "internalType": "bool",
          "name": "eng",
          "type": "bool"
        }
      ],
      "stateMutability": "view",
      "type": "function"
    },
    {
      "inputs": [],
      "name": "getDeviceByProvider",
      "outputs": [
        {
          "internalType": "string",
          "name": "desp",
          "type": "string"
        }
      ],
      "stateMutability": "view",
      "type": "function"
    },
    {
      "inputs": [
        {
          "internalType": "address",
          "name": "",
          "type": "address"
        },
        {
          "internalType": "uint256",
          "name": "",
          "type": "uint256"
        }
      ],
      "name": "providers",
      "outputs": [
        {
          "internalType": "string",
          "name": "description",
          "type": "string"
        },
        {
          "internalType": "uint256",
          "name": "space",
          "type": "uint256"
        },
        {
          "internalType": "uint256",
          "name": "hrs",
          "type": "uint256"
        },
        {
          "internalType": "uint256",
          "name": "tokenRate",
          "type": "uint256"
        },
        {
          "internalType": "address",
          "name": "recipient",
          "type": "address"
        },
        {
          "internalType": "bool",
          "name": "engage",
          "type": "bool"
        }
      ],
      "stateMutability": "view",
      "type": "function"
    },
    {
      "inputs": [
        {
          "internalType": "uint256",
          "name": "_deviceID",
          "type": "uint256"
        }
      ],
      "name": "removeDevice",
      "outputs": [],
      "stateMutability": "nonpayable",
      "type": "function"
    }
  ],
  "bytecode": "0x60806040523480156200001157600080fd5b5060405162001da338038062001da383398181016040528101906200003791906200016d565b81600260006101000a81548173ffffffffffffffffffffffffffffffffffffffff021916908373ffffffffffffffffffffffffffffffffffffffff16021790555033600160006101000a81548173ffffffffffffffffffffffffffffffffffffffff021916908373ffffffffffffffffffffffffffffffffffffffff160217905550806000819055505050620001b4565b600080fd5b600073ffffffffffffffffffffffffffffffffffffffff82169050919050565b6000620000fa82620000cd565b9050919050565b6200010c81620000ed565b81146200011857600080fd5b50565b6000815190506200012c8162000101565b92915050565b6000819050919050565b620001478162000132565b81146200015357600080fd5b50565b60008151905062000167816200013c565b92915050565b60008060408385031215620001875762000186620000c8565b5b600062000197858286016200011b565b9250506020620001aa8582860162000156565b9150509250929050565b611bdf80620001c46000396000f3fe608060405234801561001057600080fd5b506004361061009e5760003560e01c8063a898829d11610066578063a898829d1461015b578063aa4bfddb14610179578063aba39b81146101ae578063b25983c8146101e3578063e9bb0727146102175761009e565b80633a96fdd7146100a35780635fa8724b146100d35780636013cdc2146100ef5780637a2a530d1461010d5780639c157c0f1461012b575b600080fd5b6100bd60048036038101906100b89190611221565b610235565b6040516100ca91906112b4565b60405180910390f35b6100ed60048036038101906100e89190611305565b6102a1565b005b6100f76106e7565b6040516101049190611341565b60405180910390f35b6101156106ed565b60405161012291906114a6565b60405180910390f35b610145600480360381019061014091906114c8565b6107c6565b6040516101529190611341565b60405180910390f35b610163610a99565b6040516101709190611341565b60405180910390f35b610193600480360381019061018e91906115a9565b610a9f565b6040516101a596959493929190611642565b60405180910390f35b6101c860048036038101906101c391906116aa565b610bad565b6040516101da96959493929190611642565b60405180910390f35b6101fd60048036038101906101f89190611305565b610cbb565b60405161020e9594939291906116ea565b60405180910390f35b61021f610ed7565b60405161022c9190611744565b60405180910390f35b60008151835114610249576000905061029b565b8160405160200161025a91906117a2565b604051602081830303815290604052805190602001208360405160200161028191906117a2565b604051602081830303815290604052805190602001201490505b92915050565b600060046000838152602001908152602001600020905060005b818054905081101561050e573373ffffffffffffffffffffffffffffffffffffffff168282815481106102f1576102f06117b9565b5b906000526020600020906005020160040160009054906101000a900473ffffffffffffffffffffffffffffffffffffffff1673ffffffffffffffffffffffffffffffffffffffff16036104fb5760005b6006805490508110156104f95760006104ac848481548110610366576103656117b9565b5b9060005260206000209060050201600001805461038290611817565b80601f01602080910402602001604051908101604052809291908181526020018280546103ae90611817565b80156103fb5780601f106103d0576101008083540402835291602001916103fb565b820191906000526020600020905b8154815290600101906020018083116103de57829003601f168201915b505050505060068481548110610414576104136117b9565b5b90600052602060002001805461042990611817565b80601f016020809104026020016040519081016040528092919081815260200182805461045590611817565b80156104a25780601f10610477576101008083540402835291602001916104a2565b820191906000526020600020905b81548152906001019060200180831161048557829003601f168201915b5050505050610235565b905060011515811515036104e557600682815481106104ce576104cd6117b9565b5b9060005260206000200160006104e4919061106a565b5b5080806104f190611877565b915050610341565b505b808061050690611877565b9150506102bb565b5060005b81805490508110156106e2573373ffffffffffffffffffffffffffffffffffffffff16828281548110610548576105476117b9565b5b906000526020600020906005020160040160009054906101000a900473ffffffffffffffffffffffffffffffffffffffff1673ffffffffffffffffffffffffffffffffffffffff16036106cf578181815481106105a8576105a76117b9565b5b906000526020600020906005020160040160009054906101000a900473ffffffffffffffffffffffffffffffffffffffff1673ffffffffffffffffffffffffffffffffffffffff163373ffffffffffffffffffffffffffffffffffffffff1614610647576040517f08c379a000000000000000000000000000000000000000000000000000000000815260040161063e9061190b565b60405180910390fd5b81818154811061065a576106596117b9565b5b906000526020600020906005020160008082016000610679919061106a565b6001820160009055600282016000905560038201600090556004820160006101000a81549073ffffffffffffffffffffffffffffffffffffffff02191690556004820160146101000a81549060ff021916905550505b80806106da90611877565b915050610512565b505050565b60055481565b60606006805480602002602001604051908101604052809291908181526020016000905b828210156107bd57838290600052602060002001805461073090611817565b80601f016020809104026020016040519081016040528092919081815260200182805461075c90611817565b80156107a95780601f1061077e576101008083540402835291602001916107a9565b820191906000526020600020905b81548152906001019060200180831161078c57829003601f168201915b505050505081526020019060010190610711565b50505050905090565b6000806040518060c001604052808781526020018681526020018581526020018481526020013373ffffffffffffffffffffffffffffffffffffffff168152602001600015158152509050600360003373ffffffffffffffffffffffffffffffffffffffff1673ffffffffffffffffffffffffffffffffffffffff168152602001908152602001600020819080600181540180825580915050600190039060005260206000209060050201600090919091909150600082015181600001908161088f9190611ad7565b5060208201518160010155604082015181600201556060820151816003015560808201518160040160006101000a81548173ffffffffffffffffffffffffffffffffffffffff021916908373ffffffffffffffffffffffffffffffffffffffff16021790555060a08201518160040160146101000a81548160ff021916908315150217905550505060068690806001815401808255809150506001900390600052602060002001600090919091909150908161094b9190611ad7565b5060006040518060c001604052808881526020018781526020018681526020018581526020013373ffffffffffffffffffffffffffffffffffffffff168152602001600015158152509050600560008154809291906109a990611877565b91905055506004600060055481526020019081526020016000208190806001815401808255809150506001900390600052602060002090600502016000909190919091506000820151816000019081610a029190611ad7565b5060208201518160010155604082015181600201556060820151816003015560808201518160040160006101000a81548173ffffffffffffffffffffffffffffffffffffffff021916908373ffffffffffffffffffffffffffffffffffffffff16021790555060a08201518160040160146101000a81548160ff021916908315150217905550505060055492505050949350505050565b60005481565b60036020528160005260406000208181548110610abb57600080fd5b906000526020600020906005020160009150915050806000018054610adf90611817565b80601f0160208091040260200160405190810160405280929190818152602001828054610b0b90611817565b8015610b585780601f10610b2d57610100808354040283529160200191610b58565b820191906000526020600020905b815481529060010190602001808311610b3b57829003601f168201915b5050505050908060010154908060020154908060030154908060040160009054906101000a900473ffffffffffffffffffffffffffffffffffffffff16908060040160149054906101000a900460ff16905086565b60046020528160005260406000208181548110610bc957600080fd5b906000526020600020906005020160009150915050806000018054610bed90611817565b80601f0160208091040260200160405190810160405280929190818152602001828054610c1990611817565b8015610c665780601f10610c3b57610100808354040283529160200191610c66565b820191906000526020600020905b815481529060010190602001808311610c4957829003601f168201915b5050505050908060010154908060020154908060030154908060040160009054906101000a900473ffffffffffffffffffffffffffffffffffffffff16908060040160149054906101000a900460ff16905086565b6060600080600080600060046000888152602001908152602001600020905060005b8180549050811015610ecc573373ffffffffffffffffffffffffffffffffffffffff16828281548110610d1357610d126117b9565b5b906000526020600020906005020160040160009054906101000a900473ffffffffffffffffffffffffffffffffffffffff1673ffffffffffffffffffffffffffffffffffffffff1603610eb957818181548110610d7357610d726117b9565b5b90600052602060002090600502016000018054610d8f90611817565b80601f0160208091040260200160405190810160405280929190818152602001828054610dbb90611817565b8015610e085780601f10610ddd57610100808354040283529160200191610e08565b820191906000526020600020905b815481529060010190602001808311610deb57829003601f168201915b50505050509650818181548110610e2257610e216117b9565b5b9060005260206000209060050201600201549550818181548110610e4957610e486117b9565b5b9060005260206000209060050201600101549450818181548110610e7057610e6f6117b9565b5b9060005260206000209060050201600301549350818181548110610e9757610e966117b9565b5b906000526020600020906005020160040160149054906101000a900460ff1692505b8080610ec490611877565b915050610cdd565b505091939590929450565b60606000600360003373ffffffffffffffffffffffffffffffffffffffff1673ffffffffffffffffffffffffffffffffffffffff168152602001908152602001600020905060005b8180549050811015611065573373ffffffffffffffffffffffffffffffffffffffff16828281548110610f5557610f546117b9565b5b906000526020600020906005020160040160009054906101000a900473ffffffffffffffffffffffffffffffffffffffff1673ffffffffffffffffffffffffffffffffffffffff160361105257818181548110610fb557610fb46117b9565b5b90600052602060002090600502016000018054610fd190611817565b80601f0160208091040260200160405190810160405280929190818152602001828054610ffd90611817565b801561104a5780601f1061101f5761010080835404028352916020019161104a565b820191906000526020600020905b81548152906001019060200180831161102d57829003601f168201915b505050505092505b808061105d90611877565b915050610f1f565b505090565b50805461107690611817565b6000825580601f1061108857506110a7565b601f0160209004906000526020600020908101906110a691906110aa565b5b50565b5b808211156110c35760008160009055506001016110ab565b5090565b6000604051905090565b600080fd5b600080fd5b600080fd5b600080fd5b6000601f19601f8301169050919050565b7f4e487b7100000000000000000000000000000000000000000000000000000000600052604160045260246000fd5b61112e826110e5565b810181811067ffffffffffffffff8211171561114d5761114c6110f6565b5b80604052505050565b60006111606110c7565b905061116c8282611125565b919050565b600067ffffffffffffffff82111561118c5761118b6110f6565b5b611195826110e5565b9050602081019050919050565b82818337600083830152505050565b60006111c46111bf84611171565b611156565b9050828152602081018484840111156111e0576111df6110e0565b5b6111eb8482856111a2565b509392505050565b600082601f830112611208576112076110db565b5b81356112188482602086016111b1565b91505092915050565b60008060408385031215611238576112376110d1565b5b600083013567ffffffffffffffff811115611256576112556110d6565b5b611262858286016111f3565b925050602083013567ffffffffffffffff811115611283576112826110d6565b5b61128f858286016111f3565b9150509250929050565b60008115159050919050565b6112ae81611299565b82525050565b60006020820190506112c960008301846112a5565b92915050565b6000819050919050565b6112e2816112cf565b81146112ed57600080fd5b50565b6000813590506112ff816112d9565b92915050565b60006020828403121561131b5761131a6110d1565b5b6000611329848285016112f0565b91505092915050565b61133b816112cf565b82525050565b60006020820190506113566000830184611332565b92915050565b600081519050919050565b600082825260208201905092915050565b6000819050602082019050919050565b600081519050919050565b600082825260208201905092915050565b60005b838110156113c25780820151818401526020810190506113a7565b838111156113d1576000848401525b50505050565b60006113e282611388565b6113ec8185611393565b93506113fc8185602086016113a4565b611405816110e5565b840191505092915050565b600061141c83836113d7565b905092915050565b6000602082019050919050565b600061143c8261135c565b6114468185611367565b93508360208202850161145885611378565b8060005b8581101561149457848403895281516114758582611410565b945061148083611424565b925060208a0199505060018101905061145c565b50829750879550505050505092915050565b600060208201905081810360008301526114c08184611431565b905092915050565b600080600080608085870312156114e2576114e16110d1565b5b600085013567ffffffffffffffff811115611500576114ff6110d6565b5b61150c878288016111f3565b945050602061151d878288016112f0565b935050604061152e878288016112f0565b925050606061153f878288016112f0565b91505092959194509250565b600073ffffffffffffffffffffffffffffffffffffffff82169050919050565b60006115768261154b565b9050919050565b6115868161156b565b811461159157600080fd5b50565b6000813590506115a38161157d565b92915050565b600080604083850312156115c0576115bf6110d1565b5b60006115ce85828601611594565b92505060206115df858286016112f0565b9150509250929050565b600082825260208201905092915050565b600061160582611388565b61160f81856115e9565b935061161f8185602086016113a4565b611628816110e5565b840191505092915050565b61163c8161156b565b82525050565b600060c082019050818103600083015261165c81896115fa565b905061166b6020830188611332565b6116786040830187611332565b6116856060830186611332565b6116926080830185611633565b61169f60a08301846112a5565b979650505050505050565b600080604083850312156116c1576116c06110d1565b5b60006116cf858286016112f0565b92505060206116e0858286016112f0565b9150509250929050565b600060a082019050818103600083015261170481886115fa565b90506117136020830187611332565b6117206040830186611332565b61172d6060830185611332565b61173a60808301846112a5565b9695505050505050565b6000602082019050818103600083015261175e81846115fa565b905092915050565b600081905092915050565b600061177c82611388565b6117868185611766565b93506117968185602086016113a4565b80840191505092915050565b60006117ae8284611771565b915081905092915050565b7f4e487b7100000000000000000000000000000000000000000000000000000000600052603260045260246000fd5b7f4e487b7100000000000000000000000000000000000000000000000000000000600052602260045260246000fd5b6000600282049050600182168061182f57607f821691505b602082108103611842576118416117e8565b5b50919050565b7f4e487b7100000000000000000000000000000000000000000000000000000000600052601160045260246000fd5b6000611882826112cf565b91507fffffffffffffffffffffffffffffffffffffffffffffffffffffffffffffffff82036118b4576118b3611848565b5b600182019050919050565b7f4e6f7420746865206f776e6572206f6620746869732064657669636500000000600082015250565b60006118f5601c836115e9565b9150611900826118bf565b602082019050919050565b60006020820190508181036000830152611924816118e8565b9050919050565b60008190508160005260206000209050919050565b60006020601f8301049050919050565b600082821b905092915050565b60006008830261198d7fffffffffffffffffffffffffffffffffffffffffffffffffffffffffffffffff82611950565b6119978683611950565b95508019841693508086168417925050509392505050565b6000819050919050565b60006119d46119cf6119ca846112cf565b6119af565b6112cf565b9050919050565b6000819050919050565b6119ee836119b9565b611a026119fa826119db565b84845461195d565b825550505050565b600090565b611a17611a0a565b611a228184846119e5565b505050565b5b81811015611a4657611a3b600082611a0f565b600181019050611a28565b5050565b601f821115611a8b57611a5c8161192b565b611a6584611940565b81016020851015611a74578190505b611a88611a8085611940565b830182611a27565b50505b505050565b600082821c905092915050565b6000611aae60001984600802611a90565b1980831691505092915050565b6000611ac78383611a9d565b9150826002028217905092915050565b611ae082611388565b67ffffffffffffffff811115611af957611af86110f6565b5b611b038254611817565b611b0e828285611a4a565b600060209050601f831160018114611b415760008415611b2f578287015190505b611b398582611abb565b865550611ba1565b601f198416611b4f8661192b565b60005b82811015611b7757848901518255600182019150602085019450602081019050611b52565b86831015611b945784890151611b90601f891682611a9d565b8355505b6001600288020188555050505b50505050505056fea2646970667358221220f0d937af5ead61e4cc867ecc5f98535f75923005efa956f88d83b4bc0ddf524764736f6c634300080f0033",
  "linkReferences": {},
  "deployedLinkReferences": {}
}