{
  "_format": "hh-sol-artifact-1",
  "contractName": "FileShare",
  "sourceName": "contracts/FileShare.sol",
  "abi": [
    {
      "inputs": [
        {
          "internalType": "address",
          "name": "tokenAddress",
          "type": "address"
        },
        {
          "internalType": "uint256",
          "name": "_FIXED_STAKE",
          "type": "uint256"
        },
        {
          "internalType": "uint256",
          "name": "_REWARD_PER_HOUR",
          "type": "uint256"
        }
      ],
      "stateMutability": "nonpayable",
      "type": "constructor"
    },
    {
      "inputs": [],
      "name": "FIXED_STAKE",
      "outputs": [
        {
          "internalType": "uint256",
          "name": "",
          "type": "uint256"
        }
      ],
      "stateMutability": "view",
      "type": "function"
    },
    {
      "inputs": [],
      "name": "ProId",
      "outputs": [
        {
          "internalType": "uint256",
          "name": "",
          "type": "uint256"
        }
      ],
      "stateMutability": "view",
      "type": "function"
    },
    {
      "inputs": [],
      "name": "REWARD_PER_HOUR",
      "outputs": [
        {
          "internalType": "uint256",
          "name": "",
          "type": "uint256"
        }
      ],
      "stateMutability": "view",
      "type": "function"
    },
    {
      "inputs": [],
      "name": "ReqId",
      "outputs": [
        {
          "internalType": "uint256",
          "name": "",
          "type": "uint256"
        }
      ],
      "stateMutability": "view",
      "type": "function"
    },
    {
      "inputs": [
        {
          "internalType": "uint256",
          "name": "_proId",
          "type": "uint256"
        },
        {
          "internalType": "uint256",
          "name": "_newDeviceId",
          "type": "uint256"
        },
        {
          "internalType": "uint256",
          "name": "_newspace",
          "type": "uint256"
        },
        {
          "internalType": "uint256",
          "name": "_newTime",
          "type": "uint256"
        },
        {
          "internalType": "string",
          "name": "_newDescription",
          "type": "string"
        }
      ],
      "name": "addDevicesByProvider",
      "outputs": [],
      "stateMutability": "nonpayable",
      "type": "function"
    },
    {
      "inputs": [
        {
          "internalType": "uint256",
          "name": "_devId",
          "type": "uint256"
        },
        {
          "internalType": "uint256",
          "name": "_proId",
          "type": "uint256"
        },
        {
          "internalType": "uint256",
          "name": "_reqId",
          "type": "uint256"
        }
      ],
      "name": "approve",
      "outputs": [],
      "stateMutability": "payable",
      "type": "function"
    },
    {
      "inputs": [
        {
          "internalType": "address",
          "name": "_provider",
          "type": "address"
        },
        {
          "internalType": "uint256",
          "name": "_stakeId",
          "type": "uint256"
        }
      ],
      "name": "calRewardPerDevice",
      "outputs": [
        {
          "internalType": "uint256",
          "name": "",
          "type": "uint256"
        }
      ],
      "stateMutability": "view",
      "type": "function"
    },
    {
      "inputs": [
        {
          "internalType": "string",
          "name": "str1",
          "type": "string"
        },
        {
          "internalType": "string",
          "name": "str2",
          "type": "string"
        }
      ],
      "name": "compare",
      "outputs": [
        {
          "internalType": "bool",
          "name": "",
          "type": "bool"
        }
      ],
      "stateMutability": "pure",
      "type": "function"
    },
    {
      "inputs": [
        {
          "internalType": "string",
          "name": "_description",
          "type": "string"
        },
        {
          "internalType": "uint256",
          "name": "_deviceId",
          "type": "uint256"
        },
        {
          "internalType": "uint256",
          "name": "_space",
          "type": "uint256"
        },
        {
          "internalType": "uint256",
          "name": "_hours",
          "type": "uint256"
        }
      ],
      "name": "createProvide",
      "outputs": [],
      "stateMutability": "payable",
      "type": "function"
    },
    {
      "inputs": [
        {
          "internalType": "uint256",
          "name": "_proId",
          "type": "uint256"
        },
        {
          "internalType": "uint256",
          "name": "_stakeId",
          "type": "uint256"
        },
        {
          "internalType": "uint256",
          "name": "amount",
          "type": "uint256"
        },
        {
          "internalType": "uint256",
          "name": "devId",
          "type": "uint256"
        }
      ],
      "name": "finishUseByProvider",
      "outputs": [],
      "stateMutability": "nonpayable",
      "type": "function"
    },
    {
      "inputs": [],
      "name": "getAllAvailableDevices",
      "outputs": [
        {
          "internalType": "string[]",
          "name": "",
          "type": "string[]"
        }
      ],
      "stateMutability": "view",
      "type": "function"
    },
    {
      "inputs": [
        {
          "internalType": "uint256",
          "name": "_reqId",
          "type": "uint256"
        }
      ],
      "name": "getRequesterDetails",
      "outputs": [
        {
          "internalType": "string",
          "name": "",
          "type": "string"
        },
        {
          "internalType": "address",
          "name": "",
          "type": "address"
        },
        {
          "internalType": "address",
          "name": "",
          "type": "address"
        },
        {
          "internalType": "uint256",
          "name": "",
          "type": "uint256"
        },
        {
          "internalType": "uint256",
          "name": "",
          "type": "uint256"
        },
        {
          "internalType": "uint256",
          "name": "",
          "type": "uint256"
        }
      ],
      "stateMutability": "view",
      "type": "function"
    },
    {
      "inputs": [
        {
          "internalType": "address",
          "name": "staker",
          "type": "address"
        },
        {
          "internalType": "uint256",
          "name": "stakeId",
          "type": "uint256"
        }
      ],
      "name": "getStakeAmount",
      "outputs": [
        {
          "internalType": "uint256",
          "name": "",
          "type": "uint256"
        }
      ],
      "stateMutability": "view",
      "type": "function"
    },
    {
      "inputs": [
        {
          "internalType": "address",
          "name": "staker",
          "type": "address"
        },
        {
          "internalType": "uint256",
          "name": "stakeId",
          "type": "uint256"
        }
      ],
      "name": "getStakeTimestamp",
      "outputs": [
        {
          "internalType": "uint256",
          "name": "",
          "type": "uint256"
        }
      ],
      "stateMutability": "view",
      "type": "function"
    },
    {
      "inputs": [
        {
          "internalType": "uint256",
          "name": "_proId",
          "type": "uint256"
        },
        {
          "internalType": "uint256",
          "name": "_spaceReq",
          "type": "uint256"
        },
        {
          "internalType": "string",
          "name": "_deviceDespReq",
          "type": "string"
        },
        {
          "internalType": "uint256",
          "name": "_deviceIdReq",
          "type": "uint256"
        },
        {
          "internalType": "uint256",
          "name": "_timeReq",
          "type": "uint256"
        }
      ],
      "name": "makeRequestToProvider",
      "outputs": [],
      "stateMutability": "nonpayable",
      "type": "function"
    },
    {
      "inputs": [
        {
          "internalType": "uint256",
          "name": "",
          "type": "uint256"
        }
      ],
      "name": "providers",
      "outputs": [
        {
          "internalType": "uint256",
          "name": "id",
          "type": "uint256"
        },
        {
          "internalType": "address payable",
          "name": "recipient",
          "type": "address"
        },
        {
          "internalType": "uint256",
          "name": "timestamp",
          "type": "uint256"
        }
      ],
      "stateMutability": "view",
      "type": "function"
    },
    {
      "inputs": [
        {
          "internalType": "uint256",
          "name": "",
          "type": "uint256"
        }
      ],
      "name": "requests",
      "outputs": [
        {
          "internalType": "string",
          "name": "devName",
          "type": "string"
        },
        {
          "internalType": "address",
          "name": "requesterAddress",
          "type": "address"
        },
        {
          "internalType": "address",
          "name": "providerAddress",
          "type": "address"
        },
        {
          "internalType": "uint256",
          "name": "needIdDevice",
          "type": "uint256"
        },
        {
          "internalType": "uint256",
          "name": "deviceProId",
          "type": "uint256"
        },
        {
          "internalType": "uint256",
          "name": "timeReq",
          "type": "uint256"
        }
      ],
      "stateMutability": "view",
      "type": "function"
    },
    {
      "inputs": [
        {
          "internalType": "uint256",
          "name": "_proIdAvailable",
          "type": "uint256"
        }
      ],
      "name": "storeAllAvailableDevices",
      "outputs": [],
      "stateMutability": "nonpayable",
      "type": "function"
    },
    {
      "inputs": [
        {
          "internalType": "uint256",
          "name": "_devId",
          "type": "uint256"
        },
        {
          "internalType": "uint256",
          "name": "_proId",
          "type": "uint256"
        },
        {
          "internalType": "uint256",
          "name": "_reqId",
          "type": "uint256"
        }
      ],
      "name": "unapprove",
      "outputs": [],
      "stateMutability": "payable",
      "type": "function"
    }
  ],
  "bytecode": "0x60806040523480156200001157600080fd5b50604051620032f0380380620032f0833981810160405281019062000037919062000175565b82600360006101000a81548173ffffffffffffffffffffffffffffffffffffffff021916908373ffffffffffffffffffffffffffffffffffffffff16021790555033600260006101000a81548173ffffffffffffffffffffffffffffffffffffffff021916908373ffffffffffffffffffffffffffffffffffffffff1602179055508160008190555080600181905550505050620001d1565b600080fd5b600073ffffffffffffffffffffffffffffffffffffffff82169050919050565b60006200010282620000d5565b9050919050565b6200011481620000f5565b81146200012057600080fd5b50565b600081519050620001348162000109565b92915050565b6000819050919050565b6200014f816200013a565b81146200015b57600080fd5b50565b6000815190506200016f8162000144565b92915050565b600080600060608486031215620001915762000190620000d0565b5b6000620001a18682870162000123565b9350506020620001b4868287016200015e565b9250506040620001c7868287016200015e565b9150509250925092565b61310f80620001e16000396000f3fe6080604052600436106101145760003560e01c806363882f9a116100a057806383ec51831161006457806383ec5183146103d6578063a898829d14610413578063b866c8a41461043e578063c7bd7ff91461045a578063e6efa8bc1461047657610114565b806363882f9a146102d057806373e2d229146102f95780637962cb98146103365780637b93562d1461035257806381d12c581461039457610114565b80633a96fdd7116100e75780633a96fdd7146101d557806340e410481461021257806350f3fc811461023d578063561a72be1461027c578063623be092146102a557610114565b80631dee21e9146101195780632087931e14610144578063365e2abf1461016d578063382926c3146101aa575b600080fd5b34801561012557600080fd5b5061012e61049f565b60405161013b9190611c80565b60405180910390f35b34801561015057600080fd5b5061016b60048036038101906101669190611e21565b6104a5565b005b34801561017957600080fd5b50610194600480360381019061018f9190611f16565b6106ad565b6040516101a19190611c80565b60405180910390f35b3480156101b657600080fd5b506101bf61070b565b6040516101cc9190611c80565b60405180910390f35b3480156101e157600080fd5b506101fc60048036038101906101f79190611f56565b610711565b6040516102099190611fe9565b60405180910390f35b34801561021e57600080fd5b5061022761077d565b6040516102349190612145565b60405180910390f35b34801561024957600080fd5b50610264600480360381019061025f9190612167565b610856565b604051610273939291906121b5565b60405180910390f35b34801561028857600080fd5b506102a3600480360381019061029e919061224c565b6108a0565b005b3480156102b157600080fd5b506102ba610ca0565b6040516102c79190611c80565b60405180910390f35b3480156102dc57600080fd5b506102f760048036038101906102f291906122e6565b610ca6565b005b34801561030557600080fd5b50610320600480360381019061031b9190611f16565b61109e565b60405161032d9190611c80565b60405180910390f35b610350600480360381019061034b919061234d565b611191565b005b34801561035e57600080fd5b5061037960048036038101906103749190612167565b6114e3565b60405161038b96959493929190612429565b60405180910390f35b3480156103a057600080fd5b506103bb60048036038101906103b69190612167565b611602565b6040516103cd96959493929190612429565b60405180910390f35b3480156103e257600080fd5b506103fd60048036038101906103f89190611f16565b611706565b60405161040a9190611c80565b60405180910390f35b34801561041f57600080fd5b50610428611764565b6040516104359190611c80565b60405180910390f35b61045860048036038101906104539190612491565b61176a565b005b610474600480360381019061046f9190612491565b611915565b005b34801561048257600080fd5b5061049d60048036038101906104989190612167565b611adf565b005b60055481565b600060066000878152602001908152602001600020905080600001829080600181540180825580915050600190039060005260206000200160009091909190915090816104f291906126f0565b5080600101859080600181540180825580915050600190039060005260206000200160009091909190915055806004018490806001815401808255809150506001900390600052602060002001600090919091909150558060050183908060018154018082558091505060019003906000526020600020016000909190919091505580600701600090806001815401808255809150506001900390600052602060002090602091828204019190069091909190916101000a81548160ff021916908315150217905550600960003373ffffffffffffffffffffffffffffffffffffffff1673ffffffffffffffffffffffffffffffffffffffff16815260200190815260200160002060008154610607906127f1565b91905081905560088190555060405180606001604052806008548152602001600054815260200142815250600b60003373ffffffffffffffffffffffffffffffffffffffff1673ffffffffffffffffffffffffffffffffffffffff16815260200190815260200160002060006008548152602001908152602001600020600082015181600001556020820151816001015560408201518160020155905050505050505050565b6000600b60008473ffffffffffffffffffffffffffffffffffffffff1673ffffffffffffffffffffffffffffffffffffffff168152602001908152602001600020600083815260200190815260200160002060010154905092915050565b60015481565b600081518351146107255760009050610777565b816040516020016107369190612875565b604051602081830303815290604052805190602001208360405160200161075d9190612875565b604051602081830303815290604052805190602001201490505b92915050565b6060600c805480602002602001604051908101604052809291908181526020016000905b8282101561084d5783829060005260206000200180546107c090612513565b80601f01602080910402602001604051908101604052809291908181526020018280546107ec90612513565b80156108395780601f1061080e57610100808354040283529160200191610839565b820191906000526020600020905b81548152906001019060200180831161081c57829003601f168201915b5050505050815260200190600101906107a1565b50505050905090565b60066020528060005260406000206000915090508060020154908060030160009054906101000a900473ffffffffffffffffffffffffffffffffffffffff16908060060154905083565b600060066000888152602001908152602001600020905060005b8160010180549050811015610c9657838260010182815481106108e0576108df61288c565b5b906000526020600020015403610c8357868260040182815481106109075761090661288c565b5b90600052602060002001541015610953576040517f08c379a000000000000000000000000000000000000000000000000000000000815260040161094a9061292d565b60405180910390fd5b8282600501828154811061096a5761096961288c565b5b906000526020600020015410156109b6576040517f08c379a00000000000000000000000000000000000000000000000000000000081526004016109ad906129bf565b60405180910390fd5b838260010182815481106109cd576109cc61288c565b5b906000526020600020015414610a18576040517f08c379a0000000000000000000000000000000000000000000000000000000008152600401610a0f90612a2b565b60405180910390fd5b60001515826007018281548110610a3257610a3161288c565b5b90600052602060002090602091828204019190069054906101000a900460ff16151514610a94576040517f08c379a0000000000000000000000000000000000000000000000000000000008152600401610a8b90612abd565b60405180910390fd5b600360009054906101000a900473ffffffffffffffffffffffffffffffffffffffff1673ffffffffffffffffffffffffffffffffffffffff166323b872dd33306000546040518463ffffffff1660e01b8152600401610af593929190612add565b6020604051808303816000875af1158015610b14573d6000803e3d6000fd5b505050506040513d601f19601f82011682018060405250810190610b389190612b40565b610b77576040517f08c379a0000000000000000000000000000000000000000000000000000000008152600401610b6e90612bb9565b60405180910390fd5b6000600460006005548152602001908152602001600020905060056000815480929190610ba3906127f1565b91905055508686826000019182610bbb929190612be4565b50338160010160006101000a81548173ffffffffffffffffffffffffffffffffffffffff021916908373ffffffffffffffffffffffffffffffffffffffff1602179055508260030160009054906101000a900473ffffffffffffffffffffffffffffffffffffffff168160020160006101000a81548173ffffffffffffffffffffffffffffffffffffffff021916908373ffffffffffffffffffffffffffffffffffffffff160217905550848160030181905550888160040181905550838160050181905550505b8080610c8e906127f1565b9150506108ba565b5050505050505050565b60075481565b6000600960003373ffffffffffffffffffffffffffffffffffffffff1673ffffffffffffffffffffffffffffffffffffffff1681526020019081526020016000205411610d28576040517f08c379a0000000000000000000000000000000000000000000000000000000008152600401610d1f90612d00565b60405180910390fd5b600b60003373ffffffffffffffffffffffffffffffffffffffff1673ffffffffffffffffffffffffffffffffffffffff1681526020019081526020016000206000848152602001908152602001600020600201544211610dbd576040517f08c379a0000000000000000000000000000000000000000000000000000000008152600401610db490612d6c565b60405180910390fd5b600060066000868152602001908152602001600020905060005b8160010180549050811015610e625782826001018281548110610dfd57610dfc61288c565b5b906000526020600020015403610e4f576000826007018281548110610e2557610e2461288c565b5b90600052602060002090602091828204019190066101000a81548160ff0219169083151502179055505b8080610e5a906127f1565b915050610dd7565b6000610e6e338761109e565b905080600a60003373ffffffffffffffffffffffffffffffffffffffff1673ffffffffffffffffffffffffffffffffffffffff1681526020019081526020016000206000828254610ebf9190612d8c565b92505081905550600085600b60003373ffffffffffffffffffffffffffffffffffffffff1673ffffffffffffffffffffffffffffffffffffffff168152602001908152602001600020600089815260200190815260200160002060010154610f279190612dc0565b9050604051806060016040528088815260200182815260200142815250600b60003373ffffffffffffffffffffffffffffffffffffffff1673ffffffffffffffffffffffffffffffffffffffff1681526020019081526020016000206000898152602001908152602001600020600082015181600001556020820151816001015560408201518160020155905050600360009054906101000a900473ffffffffffffffffffffffffffffffffffffffff1673ffffffffffffffffffffffffffffffffffffffff1663a9059cbb33886040518363ffffffff1660e01b8152600401611012929190612df4565b6020604051808303816000875af1158015611031573d6000803e3d6000fd5b505050506040513d601f19601f820116820180604052508101906110559190612b40565b611094576040517f08c379a000000000000000000000000000000000000000000000000000000000815260040161108b90612e69565b60405180910390fd5b5050505050505050565b600080600b60008573ffffffffffffffffffffffffffffffffffffffff1673ffffffffffffffffffffffffffffffffffffffff16815260200190815260200160002060008481526020019081526020016000206001015490506000600b60008673ffffffffffffffffffffffffffffffffffffffff1673ffffffffffffffffffffffffffffffffffffffff16815260200190815260200160002060008581526020019081526020016000206002015490506000814261115d9190612dc0565b90506301e1338060646111709190612e89565b818461117c9190612e89565b6111869190612efa565b935050505092915050565b60006006600060075481526020019081526020016000209050600760008154809291906111bd906127f1565b9190505550600360009054906101000a900473ffffffffffffffffffffffffffffffffffffffff1673ffffffffffffffffffffffffffffffffffffffff166323b872dd33306000546040518463ffffffff1660e01b815260040161122393929190612add565b6020604051808303816000875af1158015611242573d6000803e3d6000fd5b505050506040513d601f19601f820116820180604052508101906112669190612b40565b6112a5576040517f08c379a000000000000000000000000000000000000000000000000000000000815260040161129c90612f77565b60405180910390fd5b80600001859080600181540180825580915050600190039060005260206000200160009091909190915090816112db91906126f0565b5080600101849080600181540180825580915050600190039060005260206000200160009091909190915055338160030160006101000a81548173ffffffffffffffffffffffffffffffffffffffff021916908373ffffffffffffffffffffffffffffffffffffffff160217905550806004018390806001815401808255809150506001900390600052602060002001600090919091909150558060050182908060018154018082558091505060019003906000526020600020016000909190919091505580600701600090806001815401808255809150506001900390600052602060002090602091828204019190069091909190916101000a81548160ff0219169083151502179055506007548160020181905550600960003373ffffffffffffffffffffffffffffffffffffffff1673ffffffffffffffffffffffffffffffffffffffff1681526020019081526020016000206000815461143e906127f1565b91905081905560088190555060405180606001604052806008548152602001600054815260200142815250600b60003373ffffffffffffffffffffffffffffffffffffffff1673ffffffffffffffffffffffffffffffffffffffff168152602001908152602001600020600060085481526020019081526020016000206000820151816000015560208201518160010155604082015181600201559050505050505050565b6060600080600080600080600460008981526020019081526020016000209050806000018160010160009054906101000a900473ffffffffffffffffffffffffffffffffffffffff168260020160009054906101000a900473ffffffffffffffffffffffffffffffffffffffff1683600301548460040154856005015485805461156c90612513565b80601f016020809104026020016040519081016040528092919081815260200182805461159890612513565b80156115e55780601f106115ba576101008083540402835291602001916115e5565b820191906000526020600020905b8154815290600101906020018083116115c857829003601f168201915b505050505095509650965096509650965096505091939550919395565b600460205280600052604060002060009150905080600001805461162590612513565b80601f016020809104026020016040519081016040528092919081815260200182805461165190612513565b801561169e5780601f106116735761010080835404028352916020019161169e565b820191906000526020600020905b81548152906001019060200180831161168157829003601f168201915b5050505050908060010160009054906101000a900473ffffffffffffffffffffffffffffffffffffffff16908060020160009054906101000a900473ffffffffffffffffffffffffffffffffffffffff16908060030154908060040154908060050154905086565b6000600b60008473ffffffffffffffffffffffffffffffffffffffff1673ffffffffffffffffffffffffffffffffffffffff168152602001908152602001600020600083815260200190815260200160002060020154905092915050565b60005481565b600060066000848152602001908152602001600020905060005b816001018054905081101561190e57848260010182815481106117aa576117a961288c565b5b9060005260206000200154036118fb57848260010182815481106117d1576117d061288c565b5b90600052602060002001541461181c576040517f08c379a000000000000000000000000000000000000000000000000000000000815260040161181390612a2b565b60405180910390fd5b600015158260070182815481106118365761183561288c565b5b90600052602060002090602091828204019190069054906101000a900460ff16151514611898576040517f08c379a000000000000000000000000000000000000000000000000000000000815260040161188f90612abd565b60405180910390fd5b60018260070182815481106118b0576118af61288c565b5b90600052602060002090602091828204019190066101000a81548160ff0219169083151502179055504282600601819055506000600460008581526020019081526020016000209050505b8080611906906127f1565b915050611784565b5050505050565b600060066000848152602001908152602001600020905060005b8160010180549050811015611ad857848260010182815481106119555761195461288c565b5b906000526020600020015403611ac5576000600460008581526020019081526020016000209050600360009054906101000a900473ffffffffffffffffffffffffffffffffffffffff1673ffffffffffffffffffffffffffffffffffffffff166323b872dd600260009054906101000a900473ffffffffffffffffffffffffffffffffffffffff168360010160009054906101000a900473ffffffffffffffffffffffffffffffffffffffff16866005018681548110611a1857611a1761288c565b5b90600052602060002001546040518463ffffffff1660e01b8152600401611a4193929190612add565b6020604051808303816000875af1158015611a60573d6000803e3d6000fd5b505050506040513d601f19601f82011682018060405250810190611a849190612b40565b611ac3576040517f08c379a0000000000000000000000000000000000000000000000000000000008152600401611aba90612bb9565b60405180910390fd5b505b8080611ad0906127f1565b91505061192f565b5050505050565b600060066000838152602001908152602001600020905060005b600c80549050811015611b4957600c805480611b1857611b17612f97565b5b600190038181906000526020600020016000611b349190611c0a565b90558080611b41906127f1565b915050611af9565b5060005b8160000180549050811015611c055760001515826007018281548110611b7657611b7561288c565b5b90600052602060002090602091828204019190069054906101000a900460ff16151503611bf257600c826000018281548110611bb557611bb461288c565b5b90600052602060002001908060018154018082558091505060019003906000526020600020016000909190919091509081611bf09190612ff1565b505b8080611bfd906127f1565b915050611b4d565b505050565b508054611c1690612513565b6000825580601f10611c285750611c47565b601f016020900490600052602060002090810190611c469190611c4a565b5b50565b5b80821115611c63576000816000905550600101611c4b565b5090565b6000819050919050565b611c7a81611c67565b82525050565b6000602082019050611c956000830184611c71565b92915050565b6000604051905090565b600080fd5b600080fd5b611cb881611c67565b8114611cc357600080fd5b50565b600081359050611cd581611caf565b92915050565b600080fd5b600080fd5b6000601f19601f8301169050919050565b7f4e487b7100000000000000000000000000000000000000000000000000000000600052604160045260246000fd5b611d2e82611ce5565b810181811067ffffffffffffffff82111715611d4d57611d4c611cf6565b5b80604052505050565b6000611d60611c9b565b9050611d6c8282611d25565b919050565b600067ffffffffffffffff821115611d8c57611d8b611cf6565b5b611d9582611ce5565b9050602081019050919050565b82818337600083830152505050565b6000611dc4611dbf84611d71565b611d56565b905082815260208101848484011115611de057611ddf611ce0565b5b611deb848285611da2565b509392505050565b600082601f830112611e0857611e07611cdb565b5b8135611e18848260208601611db1565b91505092915050565b600080600080600060a08688031215611e3d57611e3c611ca5565b5b6000611e4b88828901611cc6565b9550506020611e5c88828901611cc6565b9450506040611e6d88828901611cc6565b9350506060611e7e88828901611cc6565b925050608086013567ffffffffffffffff811115611e9f57611e9e611caa565b5b611eab88828901611df3565b9150509295509295909350565b600073ffffffffffffffffffffffffffffffffffffffff82169050919050565b6000611ee382611eb8565b9050919050565b611ef381611ed8565b8114611efe57600080fd5b50565b600081359050611f1081611eea565b92915050565b60008060408385031215611f2d57611f2c611ca5565b5b6000611f3b85828601611f01565b9250506020611f4c85828601611cc6565b9150509250929050565b60008060408385031215611f6d57611f6c611ca5565b5b600083013567ffffffffffffffff811115611f8b57611f8a611caa565b5b611f9785828601611df3565b925050602083013567ffffffffffffffff811115611fb857611fb7611caa565b5b611fc485828601611df3565b9150509250929050565b60008115159050919050565b611fe381611fce565b82525050565b6000602082019050611ffe6000830184611fda565b92915050565b600081519050919050565b600082825260208201905092915050565b6000819050602082019050919050565b600081519050919050565b600082825260208201905092915050565b60005b8381101561206a57808201518184015260208101905061204f565b60008484015250505050565b600061208182612030565b61208b818561203b565b935061209b81856020860161204c565b6120a481611ce5565b840191505092915050565b60006120bb8383612076565b905092915050565b6000602082019050919050565b60006120db82612004565b6120e5818561200f565b9350836020820285016120f785612020565b8060005b85811015612133578484038952815161211485826120af565b945061211f836120c3565b925060208a019950506001810190506120fb565b50829750879550505050505092915050565b6000602082019050818103600083015261215f81846120d0565b905092915050565b60006020828403121561217d5761217c611ca5565b5b600061218b84828501611cc6565b91505092915050565b600061219f82611eb8565b9050919050565b6121af81612194565b82525050565b60006060820190506121ca6000830186611c71565b6121d760208301856121a6565b6121e46040830184611c71565b949350505050565b600080fd5b600080fd5b60008083601f84011261220c5761220b611cdb565b5b8235905067ffffffffffffffff811115612229576122286121ec565b5b602083019150836001820283011115612245576122446121f1565b5b9250929050565b60008060008060008060a0878903121561226957612268611ca5565b5b600061227789828a01611cc6565b965050602061228889828a01611cc6565b955050604087013567ffffffffffffffff8111156122a9576122a8611caa565b5b6122b589828a016121f6565b945094505060606122c889828a01611cc6565b92505060806122d989828a01611cc6565b9150509295509295509295565b60008060008060808587031215612300576122ff611ca5565b5b600061230e87828801611cc6565b945050602061231f87828801611cc6565b935050604061233087828801611cc6565b925050606061234187828801611cc6565b91505092959194509250565b6000806000806080858703121561236757612366611ca5565b5b600085013567ffffffffffffffff81111561238557612384611caa565b5b61239187828801611df3565b94505060206123a287828801611cc6565b93505060406123b387828801611cc6565b92505060606123c487828801611cc6565b91505092959194509250565b600082825260208201905092915050565b60006123ec82612030565b6123f681856123d0565b935061240681856020860161204c565b61240f81611ce5565b840191505092915050565b61242381611ed8565b82525050565b600060c082019050818103600083015261244381896123e1565b9050612452602083018861241a565b61245f604083018761241a565b61246c6060830186611c71565b6124796080830185611c71565b61248660a0830184611c71565b979650505050505050565b6000806000606084860312156124aa576124a9611ca5565b5b60006124b886828701611cc6565b93505060206124c986828701611cc6565b92505060406124da86828701611cc6565b9150509250925092565b7f4e487b7100000000000000000000000000000000000000000000000000000000600052602260045260246000fd5b6000600282049050600182168061252b57607f821691505b60208210810361253e5761253d6124e4565b5b50919050565b60008190508160005260206000209050919050565b60006020601f8301049050919050565b600082821b905092915050565b6000600883026125a67fffffffffffffffffffffffffffffffffffffffffffffffffffffffffffffffff82612569565b6125b08683612569565b95508019841693508086168417925050509392505050565b6000819050919050565b60006125ed6125e86125e384611c67565b6125c8565b611c67565b9050919050565b6000819050919050565b612607836125d2565b61261b612613826125f4565b848454612576565b825550505050565b600090565b612630612623565b61263b8184846125fe565b505050565b5b8181101561265f57612654600082612628565b600181019050612641565b5050565b601f8211156126a45761267581612544565b61267e84612559565b8101602085101561268d578190505b6126a161269985612559565b830182612640565b50505b505050565b600082821c905092915050565b60006126c7600019846008026126a9565b1980831691505092915050565b60006126e083836126b6565b9150826002028217905092915050565b6126f982612030565b67ffffffffffffffff81111561271257612711611cf6565b5b61271c8254612513565b612727828285612663565b600060209050601f83116001811461275a5760008415612748578287015190505b61275285826126d4565b8655506127ba565b601f19841661276886612544565b60005b828110156127905784890151825560018201915060208501945060208101905061276b565b868310156127ad57848901516127a9601f8916826126b6565b8355505b6001600288020188555050505b505050505050565b7f4e487b7100000000000000000000000000000000000000000000000000000000600052601160045260246000fd5b60006127fc82611c67565b91507fffffffffffffffffffffffffffffffffffffffffffffffffffffffffffffffff820361282e5761282d6127c2565b5b600182019050919050565b600081905092915050565b600061284f82612030565b6128598185612839565b935061286981856020860161204c565b80840191505092915050565b60006128818284612844565b915081905092915050565b7f4e487b7100000000000000000000000000000000000000000000000000000000600052603260045260246000fd5b7f5468652070726f766964657220646f6573206e6f74206861766520656e6f756e60008201527f6768207370616365206c6566742e000000000000000000000000000000000000602082015250565b6000612917602e836123d0565b9150612922826128bb565b604082019050919050565b600060208201905081810360008301526129468161290a565b9050919050565b7f457863656464696e672074696d65206c696d6974207365742062792070726f7660008201527f6964657200000000000000000000000000000000000000000000000000000000602082015250565b60006129a96024836123d0565b91506129b48261294d565b604082019050919050565b600060208201905081810360008301526129d88161299c565b9050919050565b7f5468652064657669636520496420646f6573206e6f74206d6174636800000000600082015250565b6000612a15601c836123d0565b9150612a20826129df565b602082019050919050565b60006020820190508181036000830152612a4481612a08565b9050919050565b7f5468652070726f766964657220697320616c726561647920627573792c206e6f60008201527f207265736f757263657320617661696c61626c652e0000000000000000000000602082015250565b6000612aa76035836123d0565b9150612ab282612a4b565b604082019050919050565b60006020820190508181036000830152612ad681612a9a565b9050919050565b6000606082019050612af2600083018661241a565b612aff602083018561241a565b612b0c6040830184611c71565b949350505050565b612b1d81611fce565b8114612b2857600080fd5b50565b600081519050612b3a81612b14565b92915050565b600060208284031215612b5657612b55611ca5565b5b6000612b6484828501612b2b565b91505092915050565b7f506179656d6e7420756e7375636365737366756c000000000000000000000000600082015250565b6000612ba36014836123d0565b9150612bae82612b6d565b602082019050919050565b60006020820190508181036000830152612bd281612b96565b9050919050565b600082905092915050565b612bee8383612bd9565b67ffffffffffffffff811115612c0757612c06611cf6565b5b612c118254612513565b612c1c828285612663565b6000601f831160018114612c4b5760008415612c39578287013590505b612c4385826126d4565b865550612cab565b601f198416612c5986612544565b60005b82811015612c8157848901358255600182019150602085019450602081019050612c5c565b86831015612c9e5784890135612c9a601f8916826126b6565b8355505b6001600288020188555050505b50505050505050565b7f4e6f207374616b6520666f756e64000000000000000000000000000000000000600082015250565b6000612cea600e836123d0565b9150612cf582612cb4565b602082019050919050565b60006020820190508181036000830152612d1981612cdd565b9050919050565b7f54696d6520706572696f6420686173206e6f7420656c61707365642e00000000600082015250565b6000612d56601c836123d0565b9150612d6182612d20565b602082019050919050565b60006020820190508181036000830152612d8581612d49565b9050919050565b6000612d9782611c67565b9150612da283611c67565b9250828201905080821115612dba57612db96127c2565b5b92915050565b6000612dcb82611c67565b9150612dd683611c67565b9250828203905081811115612dee57612ded6127c2565b5b92915050565b6000604082019050612e09600083018561241a565b612e166020830184611c71565b9392505050565b7f5374616b65207769746864726177616c206661696c6564000000000000000000600082015250565b6000612e536017836123d0565b9150612e5e82612e1d565b602082019050919050565b60006020820190508181036000830152612e8281612e46565b9050919050565b6000612e9482611c67565b9150612e9f83611c67565b9250828202612ead81611c67565b91508282048414831517612ec457612ec36127c2565b5b5092915050565b7f4e487b7100000000000000000000000000000000000000000000000000000000600052601260045260246000fd5b6000612f0582611c67565b9150612f1083611c67565b925082612f2057612f1f612ecb565b5b828204905092915050565b7f5374616b65207472616e73666572206661696c65640000000000000000000000600082015250565b6000612f616015836123d0565b9150612f6c82612f2b565b602082019050919050565b60006020820190508181036000830152612f9081612f54565b9050919050565b7f4e487b7100000000000000000000000000000000000000000000000000000000600052603160045260246000fd5b600081549050612fd581612513565b9050919050565b60008190508160005260206000209050919050565b818103612fff5750506130d7565b61300882612fc6565b67ffffffffffffffff81111561302157613020611cf6565b5b61302b8254612513565b613036828285612663565b6000601f8311600181146130655760008415613053578287015490505b61305d85826126d4565b8655506130d0565b601f19841661307387612fdc565b965061307e86612544565b60005b828110156130a657848901548255600182019150600185019450602081019050613081565b868310156130c357848901546130bf601f8916826126b6565b8355505b6001600288020188555050505b5050505050505b56fea26469706673582212207b23bade7701818a06415250aa9c30c99e1a8e69501bc66d8acda6e0b77479a864736f6c63430008120033",
  "linkReferences": {},
  "deployedLinkReferences": {}
}