{
  "_format": "hh-sol-artifact-1",
  "contractName": "FileShare",
  "sourceName": "contracts/FileShare.sol",
  "abi": [
    {
      "inputs": [
        {
          "internalType": "address",
          "name": "tokenAddress",
          "type": "address"
        },
        {
          "internalType": "uint256",
          "name": "_FIXED_STAKE",
          "type": "uint256"
        }
      ],
      "stateMutability": "nonpayable",
      "type": "constructor"
    },
    {
      "anonymous": false,
      "inputs": [
        {
          "indexed": true,
          "internalType": "uint256",
          "name": "idOfDevice",
          "type": "uint256"
        },
        {
          "indexed": true,
          "internalType": "uint256",
          "name": "idOfStake",
          "type": "uint256"
        }
      ],
      "name": "DeviceAdded",
      "type": "event"
    },
    {
      "anonymous": false,
      "inputs": [
        {
          "indexed": true,
          "internalType": "uint256",
          "name": "idOfRequestor",
          "type": "uint256"
        }
      ],
      "name": "RequestAdded",
      "type": "event"
    },
    {
      "inputs": [],
      "name": "FIXED_STAKE",
      "outputs": [
        {
          "internalType": "uint256",
          "name": "",
          "type": "uint256"
        }
      ],
      "stateMutability": "view",
      "type": "function"
    },
    {
      "inputs": [
        {
          "internalType": "address",
          "name": "_deviceOwner",
          "type": "address"
        },
        {
          "internalType": "uint256",
          "name": "_reqID",
          "type": "uint256"
        }
      ],
      "name": "ViewDeviceRequestByRequestor",
      "outputs": [
        {
          "internalType": "string",
          "name": "",
          "type": "string"
        },
        {
          "internalType": "uint256",
          "name": "",
          "type": "uint256"
        },
        {
          "internalType": "address",
          "name": "",
          "type": "address"
        }
      ],
      "stateMutability": "view",
      "type": "function"
    },
    {
      "inputs": [
        {
          "internalType": "string",
          "name": "_description",
          "type": "string"
        },
        {
          "internalType": "uint256",
          "name": "_space",
          "type": "uint256"
        },
        {
          "internalType": "uint256",
          "name": "_hrs",
          "type": "uint256"
        },
        {
          "internalType": "uint256",
          "name": "_tokenrate",
          "type": "uint256"
        }
      ],
      "name": "addDevice",
      "outputs": [],
      "stateMutability": "nonpayable",
      "type": "function"
    },
    {
      "inputs": [
        {
          "internalType": "string",
          "name": "str1",
          "type": "string"
        },
        {
          "internalType": "string",
          "name": "str2",
          "type": "string"
        }
      ],
      "name": "compare",
      "outputs": [
        {
          "internalType": "bool",
          "name": "",
          "type": "bool"
        }
      ],
      "stateMutability": "pure",
      "type": "function"
    },
    {
      "inputs": [
        {
          "internalType": "uint256",
          "name": "",
          "type": "uint256"
        }
      ],
      "name": "deviceDetails",
      "outputs": [
        {
          "internalType": "string",
          "name": "description",
          "type": "string"
        },
        {
          "internalType": "uint256",
          "name": "space",
          "type": "uint256"
        },
        {
          "internalType": "uint256",
          "name": "hrs",
          "type": "uint256"
        },
        {
          "internalType": "uint256",
          "name": "tokenRate",
          "type": "uint256"
        },
        {
          "internalType": "uint256",
          "name": "devid",
          "type": "uint256"
        },
        {
          "internalType": "bool",
          "name": "engage",
          "type": "bool"
        },
        {
          "internalType": "address payable",
          "name": "recipient",
          "type": "address"
        }
      ],
      "stateMutability": "view",
      "type": "function"
    },
    {
      "inputs": [],
      "name": "deviceID",
      "outputs": [
        {
          "internalType": "uint256",
          "name": "",
          "type": "uint256"
        }
      ],
      "stateMutability": "view",
      "type": "function"
    },
    {
      "inputs": [],
      "name": "getAllDevices",
      "outputs": [
        {
          "internalType": "string[]",
          "name": "",
          "type": "string[]"
        }
      ],
      "stateMutability": "view",
      "type": "function"
    },
    {
      "inputs": [
        {
          "internalType": "uint256",
          "name": "_deviceID",
          "type": "uint256"
        }
      ],
      "name": "getDeviceByDeviceID",
      "outputs": [
        {
          "internalType": "string",
          "name": "",
          "type": "string"
        },
        {
          "internalType": "uint256",
          "name": "",
          "type": "uint256"
        },
        {
          "internalType": "uint256",
          "name": "",
          "type": "uint256"
        },
        {
          "internalType": "uint256",
          "name": "",
          "type": "uint256"
        }
      ],
      "stateMutability": "view",
      "type": "function"
    },
    {
      "inputs": [],
      "name": "getDeviceByProvider",
      "outputs": [
        {
          "internalType": "string[]",
          "name": "",
          "type": "string[]"
        }
      ],
      "stateMutability": "view",
      "type": "function"
    },
    {
      "inputs": [
        {
          "internalType": "address",
          "name": "",
          "type": "address"
        }
      ],
      "name": "providers",
      "outputs": [
        {
          "internalType": "address payable",
          "name": "recipient",
          "type": "address"
        }
      ],
      "stateMutability": "view",
      "type": "function"
    },
    {
      "inputs": [
        {
          "internalType": "uint256",
          "name": "_deviceID",
          "type": "uint256"
        },
        {
          "internalType": "uint256",
          "name": "_stakeId",
          "type": "uint256"
        }
      ],
      "name": "removeDevice",
      "outputs": [],
      "stateMutability": "nonpayable",
      "type": "function"
    },
    {
      "inputs": [],
      "name": "requestorID",
      "outputs": [
        {
          "internalType": "uint256",
          "name": "",
          "type": "uint256"
        }
      ],
      "stateMutability": "view",
      "type": "function"
    },
    {
      "inputs": [
        {
          "internalType": "uint256",
          "name": "",
          "type": "uint256"
        }
      ],
      "name": "requestors",
      "outputs": [
        {
          "internalType": "uint256",
          "name": "reqID",
          "type": "uint256"
        },
        {
          "internalType": "uint256",
          "name": "devID",
          "type": "uint256"
        },
        {
          "internalType": "address",
          "name": "deviceOwner",
          "type": "address"
        },
        {
          "internalType": "uint256",
          "name": "hrsStake",
          "type": "uint256"
        }
      ],
      "stateMutability": "view",
      "type": "function"
    }
  ],
  "bytecode": "0x60806040523480156200001157600080fd5b50604051620025303803806200253083398181016040528101906200003791906200016d565b81600260006101000a81548173ffffffffffffffffffffffffffffffffffffffff021916908373ffffffffffffffffffffffffffffffffffffffff16021790555033600160006101000a81548173ffffffffffffffffffffffffffffffffffffffff021916908373ffffffffffffffffffffffffffffffffffffffff160217905550806000819055505050620001b4565b600080fd5b600073ffffffffffffffffffffffffffffffffffffffff82169050919050565b6000620000fa82620000cd565b9050919050565b6200010c81620000ed565b81146200011857600080fd5b50565b6000815190506200012c8162000101565b92915050565b6000819050919050565b620001478162000132565b81146200015357600080fd5b50565b60008151905062000167816200013c565b92915050565b60008060408385031215620001875762000186620000c8565b5b600062000197858286016200011b565b9250506020620001aa8582860162000156565b9150509250929050565b61236c80620001c46000396000f3fe608060405234801561001057600080fd5b50600436106100cf5760003560e01c80639c157c0f1161008c578063b283039c11610066578063b283039c1461022e578063e9bb07271461024a578063eac5eb7214610268578063f82c61821461029a576100cf565b80639c157c0f146101c1578063a898829d146101dd578063b25983c8146101fb576100cf565b80630787bc27146100d45780632906a079146101045780633a96fdd7146101375780636013cdc214610167578063771ca382146101855780637a2a530d146101a3575b600080fd5b6100ee60048036038101906100e991906115ff565b6102d0565b6040516100fb919061164d565b60405180910390f35b61011e6004803603810190610119919061169e565b61030e565b60405161012e94939291906116e9565b60405180910390f35b610151600480360381019061014c9190611874565b61035e565b60405161015e9190611907565b60405180910390f35b61016f6103ca565b60405161017c9190611922565b60405180910390f35b61018d6103d0565b60405161019a9190611922565b60405180910390f35b6101ab6103d6565b6040516101b89190611a87565b60405180910390f35b6101db60048036038101906101d69190611aa9565b6104af565b005b6101e5610937565b6040516101f29190611922565b60405180910390f35b6102156004803603810190610210919061169e565b61093d565b6040516102259493929190611b76565b60405180910390f35b61024860048036038101906102439190611bc2565b610a09565b005b61025261123e565b60405161025f9190611a87565b60405180910390f35b610282600480360381019061027d9190611c02565b61135d565b60405161029193929190611c42565b60405180910390f35b6102b460048036038101906102af919061169e565b611439565b6040516102c79796959493929190611c80565b60405180910390f35b60036020528060005260406000206000915090508060060160009054906101000a900473ffffffffffffffffffffffffffffffffffffffff16905081565b600b6020528060005260406000206000915090508060000154908060010154908060020160009054906101000a900473ffffffffffffffffffffffffffffffffffffffff16908060030154905084565b6000815183511461037257600090506103c4565b816040516020016103839190611d32565b60405160208183030381529060405280519060200120836040516020016103aa9190611d32565b604051602081830303815290604052805190602001201490505b92915050565b60055481565b600c5481565b6060600a805480602002602001604051908101604052809291908181526020016000905b828210156104a657838290600052602060002001805461041990611d78565b80601f016020809104026020016040519081016040528092919081815260200182805461044590611d78565b80156104925780601f1061046757610100808354040283529160200191610492565b820191906000526020600020905b81548152906001019060200180831161047557829003601f168201915b5050505050815260200190600101906103fa565b50505050905090565b6000600360003373ffffffffffffffffffffffffffffffffffffffff1673ffffffffffffffffffffffffffffffffffffffff168152602001908152602001600020905080600001859080600181540180825580915050600190039060005260206000200160009091909190915090816105289190611f55565b50806001018490806001815401808255809150506001900390600052602060002001600090919091909150558060020183908060018154018082558091505060019003906000526020600020016000909190919091505580600501600090806001815401808255809150506001900390600052602060002090602091828204019190069091909190916101000a81548160ff021916908315150217905550338160060160006101000a81548173ffffffffffffffffffffffffffffffffffffffff021916908373ffffffffffffffffffffffffffffffffffffffff16021790555080600301829080600181540180825580915050600190039060005260206000200160009091909190915055600a859080600181540180825580915050600190039060005260206000200160009091909190915090816106689190611f55565b5060006004600060055481526020019081526020016000209050858160000190816106939190611f55565b5084816001018190555083816002018190555060008160050160006101000a81548160ff021916908315150217905550338160050160016101000a81548173ffffffffffffffffffffffffffffffffffffffff021916908373ffffffffffffffffffffffffffffffffffffffff1602179055506005548160040181905550828160030181905550600260009054906101000a900473ffffffffffffffffffffffffffffffffffffffff1673ffffffffffffffffffffffffffffffffffffffff166323b872dd33306000546040518463ffffffff1660e01b815260040161077b93929190612027565b6020604051808303816000875af115801561079a573d6000803e3d6000fd5b505050506040513d601f19601f820116820180604052508101906107be919061208a565b6107fd576040517f08c379a00000000000000000000000000000000000000000000000000000000081526004016107f490612103565b60405180910390fd5b600760003373ffffffffffffffffffffffffffffffffffffffff1673ffffffffffffffffffffffffffffffffffffffff1681526020019081526020016000206000815461084990612152565b91905081905560068190555060405180606001604052806006548152602001600054815260200142815250600960003373ffffffffffffffffffffffffffffffffffffffff1673ffffffffffffffffffffffffffffffffffffffff168152602001908152602001600020600060065481526020019081526020016000206000820151816000015560208201518160010155604082015181600201559050506006546005547fcffe835d53f1df94a8e4b883a1dae322a201c0ea7dd2d945f2c8508b258a1c3360405160405180910390a360056000815461092890612152565b91905081905550505050505050565b60005481565b60606000806000806004600087815260200190815260200160002090508060000181600201548260010154836003015483805461097990611d78565b80601f01602080910402602001604051908101604052809291908181526020018280546109a590611d78565b80156109f25780601f106109c7576101008083540402835291602001916109f2565b820191906000526020600020905b8154815290600101906020018083116109d557829003601f168201915b505050505093509450945094509450509193509193565b6000600760003373ffffffffffffffffffffffffffffffffffffffff1673ffffffffffffffffffffffffffffffffffffffff1681526020019081526020016000205411610a8b576040517f08c379a0000000000000000000000000000000000000000000000000000000008152600401610a82906121e6565b60405180910390fd5b600960003373ffffffffffffffffffffffffffffffffffffffff1673ffffffffffffffffffffffffffffffffffffffff1681526020019081526020016000206000828152602001908152602001600020600201544211610b20576040517f08c379a0000000000000000000000000000000000000000000000000000000008152600401610b1790612252565b60405180910390fd5b6000600960003373ffffffffffffffffffffffffffffffffffffffff1673ffffffffffffffffffffffffffffffffffffffff16815260200190815260200160002060008381526020019081526020016000206001015411610bb6576040517f08c379a0000000000000000000000000000000000000000000000000000000008152600401610bad906122be565b60405180910390fd5b600060046000848152602001908152602001600020905060005b600a80549050811015610d68576000610d1b836000018054610bf190611d78565b80601f0160208091040260200160405190810160405280929190818152602001828054610c1d90611d78565b8015610c6a5780601f10610c3f57610100808354040283529160200191610c6a565b820191906000526020600020905b815481529060010190602001808311610c4d57829003601f168201915b5050505050600a8481548110610c8357610c826122de565b5b906000526020600020018054610c9890611d78565b80601f0160208091040260200160405190810160405280929190818152602001828054610cc490611d78565b8015610d115780601f10610ce657610100808354040283529160200191610d11565b820191906000526020600020905b815481529060010190602001808311610cf457829003601f168201915b505050505061035e565b90506001151581151503610d5457600a8281548110610d3d57610d3c6122de565b5b906000526020600020016000610d539190611530565b5b508080610d6090612152565b915050610bd0565b506000600360008360050160019054906101000a900473ffffffffffffffffffffffffffffffffffffffff1673ffffffffffffffffffffffffffffffffffffffff1673ffffffffffffffffffffffffffffffffffffffff168152602001908152602001600020905060005b816000018054905081101561105e576000610f22846000018054610df690611d78565b80601f0160208091040260200160405190810160405280929190818152602001828054610e2290611d78565b8015610e6f5780601f10610e4457610100808354040283529160200191610e6f565b820191906000526020600020905b815481529060010190602001808311610e5257829003601f168201915b5050505050846000018481548110610e8a57610e896122de565b5b906000526020600020018054610e9f90611d78565b80601f0160208091040260200160405190810160405280929190818152602001828054610ecb90611d78565b8015610f185780601f10610eed57610100808354040283529160200191610f18565b820191906000526020600020905b815481529060010190602001808311610efb57829003601f168201915b505050505061035e565b9050600115158115150361104a576040518060400160405280600181526020017f2000000000000000000000000000000000000000000000000000000000000000815250836000018381548110610f7c57610f7b6122de565b5b906000526020600020019081610f929190611f55565b506000836002018381548110610fab57610faa6122de565b5b906000526020600020018190555060008360060160006101000a81548173ffffffffffffffffffffffffffffffffffffffff021916908373ffffffffffffffffffffffffffffffffffffffff1602179055506000836001018381548110611015576110146122de565b5b9060005260206000200181905550600083600301838154811061103b5761103a6122de565b5b90600052602060002001819055505b50808061105690612152565b915050610dd3565b506040518060400160405280600181526020017f20000000000000000000000000000000000000000000000000000000000000008152508260000190816110a59190611f55565b506000826002018190555060008260050160016101000a81548173ffffffffffffffffffffffffffffffffffffffff021916908373ffffffffffffffffffffffffffffffffffffffff1602179055506000826001018190555060008260030181905550600260009054906101000a900473ffffffffffffffffffffffffffffffffffffffff1673ffffffffffffffffffffffffffffffffffffffff1663a9059cbb336000546040518363ffffffff1660e01b815260040161116792919061230d565b6020604051808303816000875af1158015611186573d6000803e3d6000fd5b505050506040513d601f19601f820116820180604052508101906111aa919061208a565b5060405180606001604052808481526020016000815260200142815250600960003373ffffffffffffffffffffffffffffffffffffffff1673ffffffffffffffffffffffffffffffffffffffff168152602001908152602001600020600085815260200190815260200160002060008201518160000155602082015181600101556040820151816002015590505050505050565b60606000600360003373ffffffffffffffffffffffffffffffffffffffff1673ffffffffffffffffffffffffffffffffffffffff168152602001908152602001600020905080600001805480602002602001604051908101604052809291908181526020016000905b828210156113535783829060005260206000200180546112c690611d78565b80601f01602080910402602001604051908101604052809291908181526020018280546112f290611d78565b801561133f5780601f106113145761010080835404028352916020019161133f565b820191906000526020600020905b81548152906001019060200180831161132257829003601f168201915b5050505050815260200190600101906112a7565b5050505091505090565b60606000806000600b60008681526020019081526020016000209050600060046000836001015481526020019081526020016000209050806000018260030154888280546113aa90611d78565b80601f01602080910402602001604051908101604052809291908181526020018280546113d690611d78565b80156114235780601f106113f857610100808354040283529160200191611423565b820191906000526020600020905b81548152906001019060200180831161140657829003601f168201915b5050505050925094509450945050509250925092565b600460205280600052604060002060009150905080600001805461145c90611d78565b80601f016020809104026020016040519081016040528092919081815260200182805461148890611d78565b80156114d55780601f106114aa576101008083540402835291602001916114d5565b820191906000526020600020905b8154815290600101906020018083116114b857829003601f168201915b5050505050908060010154908060020154908060030154908060040154908060050160009054906101000a900460ff16908060050160019054906101000a900473ffffffffffffffffffffffffffffffffffffffff16905087565b50805461153c90611d78565b6000825580601f1061154e575061156d565b601f01602090049060005260206000209081019061156c9190611570565b5b50565b5b80821115611589576000816000905550600101611571565b5090565b6000604051905090565b600080fd5b600080fd5b600073ffffffffffffffffffffffffffffffffffffffff82169050919050565b60006115cc826115a1565b9050919050565b6115dc816115c1565b81146115e757600080fd5b50565b6000813590506115f9816115d3565b92915050565b60006020828403121561161557611614611597565b5b6000611623848285016115ea565b91505092915050565b6000611637826115a1565b9050919050565b6116478161162c565b82525050565b6000602082019050611662600083018461163e565b92915050565b6000819050919050565b61167b81611668565b811461168657600080fd5b50565b60008135905061169881611672565b92915050565b6000602082840312156116b4576116b3611597565b5b60006116c284828501611689565b91505092915050565b6116d481611668565b82525050565b6116e3816115c1565b82525050565b60006080820190506116fe60008301876116cb565b61170b60208301866116cb565b61171860408301856116da565b61172560608301846116cb565b95945050505050565b600080fd5b600080fd5b6000601f19601f8301169050919050565b7f4e487b7100000000000000000000000000000000000000000000000000000000600052604160045260246000fd5b61178182611738565b810181811067ffffffffffffffff821117156117a05761179f611749565b5b80604052505050565b60006117b361158d565b90506117bf8282611778565b919050565b600067ffffffffffffffff8211156117df576117de611749565b5b6117e882611738565b9050602081019050919050565b82818337600083830152505050565b6000611817611812846117c4565b6117a9565b90508281526020810184848401111561183357611832611733565b5b61183e8482856117f5565b509392505050565b600082601f83011261185b5761185a61172e565b5b813561186b848260208601611804565b91505092915050565b6000806040838503121561188b5761188a611597565b5b600083013567ffffffffffffffff8111156118a9576118a861159c565b5b6118b585828601611846565b925050602083013567ffffffffffffffff8111156118d6576118d561159c565b5b6118e285828601611846565b9150509250929050565b60008115159050919050565b611901816118ec565b82525050565b600060208201905061191c60008301846118f8565b92915050565b600060208201905061193760008301846116cb565b92915050565b600081519050919050565b600082825260208201905092915050565b6000819050602082019050919050565b600081519050919050565b600082825260208201905092915050565b60005b838110156119a3578082015181840152602081019050611988565b838111156119b2576000848401525b50505050565b60006119c382611969565b6119cd8185611974565b93506119dd818560208601611985565b6119e681611738565b840191505092915050565b60006119fd83836119b8565b905092915050565b6000602082019050919050565b6000611a1d8261193d565b611a278185611948565b935083602082028501611a3985611959565b8060005b85811015611a755784840389528151611a5685826119f1565b9450611a6183611a05565b925060208a01995050600181019050611a3d565b50829750879550505050505092915050565b60006020820190508181036000830152611aa18184611a12565b905092915050565b60008060008060808587031215611ac357611ac2611597565b5b600085013567ffffffffffffffff811115611ae157611ae061159c565b5b611aed87828801611846565b9450506020611afe87828801611689565b9350506040611b0f87828801611689565b9250506060611b2087828801611689565b91505092959194509250565b600082825260208201905092915050565b6000611b4882611969565b611b528185611b2c565b9350611b62818560208601611985565b611b6b81611738565b840191505092915050565b60006080820190508181036000830152611b908187611b3d565b9050611b9f60208301866116cb565b611bac60408301856116cb565b611bb960608301846116cb565b95945050505050565b60008060408385031215611bd957611bd8611597565b5b6000611be785828601611689565b9250506020611bf885828601611689565b9150509250929050565b60008060408385031215611c1957611c18611597565b5b6000611c27858286016115ea565b9250506020611c3885828601611689565b9150509250929050565b60006060820190508181036000830152611c5c8186611b3d565b9050611c6b60208301856116cb565b611c7860408301846116da565b949350505050565b600060e0820190508181036000830152611c9a818a611b3d565b9050611ca960208301896116cb565b611cb660408301886116cb565b611cc360608301876116cb565b611cd060808301866116cb565b611cdd60a08301856118f8565b611cea60c083018461163e565b98975050505050505050565b600081905092915050565b6000611d0c82611969565b611d168185611cf6565b9350611d26818560208601611985565b80840191505092915050565b6000611d3e8284611d01565b915081905092915050565b7f4e487b7100000000000000000000000000000000000000000000000000000000600052602260045260246000fd5b60006002820490506001821680611d9057607f821691505b602082108103611da357611da2611d49565b5b50919050565b60008190508160005260206000209050919050565b60006020601f8301049050919050565b600082821b905092915050565b600060088302611e0b7fffffffffffffffffffffffffffffffffffffffffffffffffffffffffffffffff82611dce565b611e158683611dce565b95508019841693508086168417925050509392505050565b6000819050919050565b6000611e52611e4d611e4884611668565b611e2d565b611668565b9050919050565b6000819050919050565b611e6c83611e37565b611e80611e7882611e59565b848454611ddb565b825550505050565b600090565b611e95611e88565b611ea0818484611e63565b505050565b5b81811015611ec457611eb9600082611e8d565b600181019050611ea6565b5050565b601f821115611f0957611eda81611da9565b611ee384611dbe565b81016020851015611ef2578190505b611f06611efe85611dbe565b830182611ea5565b50505b505050565b600082821c905092915050565b6000611f2c60001984600802611f0e565b1980831691505092915050565b6000611f458383611f1b565b9150826002028217905092915050565b611f5e82611969565b67ffffffffffffffff811115611f7757611f76611749565b5b611f818254611d78565b611f8c828285611ec8565b600060209050601f831160018114611fbf5760008415611fad578287015190505b611fb78582611f39565b86555061201f565b601f198416611fcd86611da9565b60005b82811015611ff557848901518255600182019150602085019450602081019050611fd0565b86831015612012578489015161200e601f891682611f1b565b8355505b6001600288020188555050505b505050505050565b600060608201905061203c60008301866116da565b61204960208301856116da565b61205660408301846116cb565b949350505050565b612067816118ec565b811461207257600080fd5b50565b6000815190506120848161205e565b92915050565b6000602082840312156120a05761209f611597565b5b60006120ae84828501612075565b91505092915050565b7f5374616b65207472616e73666572206661696c65640000000000000000000000600082015250565b60006120ed601583611b2c565b91506120f8826120b7565b602082019050919050565b6000602082019050818103600083015261211c816120e0565b9050919050565b7f4e487b7100000000000000000000000000000000000000000000000000000000600052601160045260246000fd5b600061215d82611668565b91507fffffffffffffffffffffffffffffffffffffffffffffffffffffffffffffffff820361218f5761218e612123565b5b600182019050919050565b7f4e6f207374616b6520666f756e64000000000000000000000000000000000000600082015250565b60006121d0600e83611b2c565b91506121db8261219a565b602082019050919050565b600060208201905081810360008301526121ff816121c3565b9050919050565b7f54696d6520706572696f6420686173206e6f7420656c61707365642e00000000600082015250565b600061223c601c83611b2c565b915061224782612206565b602082019050919050565b6000602082019050818103600083015261226b8161222f565b9050919050565b7f52657761726420616c726564792077697468647261776e000000000000000000600082015250565b60006122a8601783611b2c565b91506122b382612272565b602082019050919050565b600060208201905081810360008301526122d78161229b565b9050919050565b7f4e487b7100000000000000000000000000000000000000000000000000000000600052603260045260246000fd5b600060408201905061232260008301856116da565b61232f60208301846116cb565b939250505056fea26469706673582212207028e9999b233166d523b71e774b4972c347a58cb94f285f98423c1375ff935664736f6c634300080f0033",
  "linkReferences": {},
  "deployedLinkReferences": {}
}