{
  "_format": "hh-sol-artifact-1",
  "contractName": "FileShare",
  "sourceName": "contracts/FileShare.sol",
  "abi": [
    {
      "inputs": [
        {
          "internalType": "address",
          "name": "tokenAddress",
          "type": "address"
        },
        {
          "internalType": "uint256",
          "name": "_FIXED_STAKE",
          "type": "uint256"
        },
        {
          "internalType": "uint256",
          "name": "_REWARD_PER_HOUR",
          "type": "uint256"
        }
      ],
      "stateMutability": "nonpayable",
      "type": "constructor"
    },
    {
      "inputs": [],
      "name": "FIXED_STAKE",
      "outputs": [
        {
          "internalType": "uint256",
          "name": "",
          "type": "uint256"
        }
      ],
      "stateMutability": "view",
      "type": "function"
    },
    {
      "inputs": [],
      "name": "ProId",
      "outputs": [
        {
          "internalType": "uint256",
          "name": "",
          "type": "uint256"
        }
      ],
      "stateMutability": "view",
      "type": "function"
    },
    {
      "inputs": [],
      "name": "REWARD_PER_HOUR",
      "outputs": [
        {
          "internalType": "uint256",
          "name": "",
          "type": "uint256"
        }
      ],
      "stateMutability": "view",
      "type": "function"
    },
    {
      "inputs": [],
      "name": "ReqId",
      "outputs": [
        {
          "internalType": "uint256",
          "name": "",
          "type": "uint256"
        }
      ],
      "stateMutability": "view",
      "type": "function"
    },
    {
      "inputs": [
        {
          "internalType": "uint256",
          "name": "_proId",
          "type": "uint256"
        },
        {
          "internalType": "uint256",
          "name": "_newDeviceId",
          "type": "uint256"
        },
        {
          "internalType": "uint256",
          "name": "_newspace",
          "type": "uint256"
        },
        {
          "internalType": "uint256",
          "name": "_newTime",
          "type": "uint256"
        },
        {
          "internalType": "string",
          "name": "_newDescription",
          "type": "string"
        }
      ],
      "name": "addDevicesByProvider",
      "outputs": [],
      "stateMutability": "nonpayable",
      "type": "function"
    },
    {
      "inputs": [
        {
          "internalType": "uint256",
          "name": "_devId",
          "type": "uint256"
        },
        {
          "internalType": "uint256",
          "name": "_proId",
          "type": "uint256"
        },
        {
          "internalType": "uint256",
          "name": "_reqId",
          "type": "uint256"
        }
      ],
      "name": "approve",
      "outputs": [],
      "stateMutability": "nonpayable",
      "type": "function"
    },
    {
      "inputs": [
        {
          "internalType": "address",
          "name": "_provider",
          "type": "address"
        },
        {
          "internalType": "uint256",
          "name": "_stakeId",
          "type": "uint256"
        }
      ],
      "name": "calRewardPerDevice",
      "outputs": [
        {
          "internalType": "uint256",
          "name": "",
          "type": "uint256"
        }
      ],
      "stateMutability": "view",
      "type": "function"
    },
    {
      "inputs": [
        {
          "internalType": "string",
          "name": "str1",
          "type": "string"
        },
        {
          "internalType": "string",
          "name": "str2",
          "type": "string"
        }
      ],
      "name": "compare",
      "outputs": [
        {
          "internalType": "bool",
          "name": "",
          "type": "bool"
        }
      ],
      "stateMutability": "pure",
      "type": "function"
    },
    {
      "inputs": [
        {
          "internalType": "string",
          "name": "_description",
          "type": "string"
        },
        {
          "internalType": "uint256",
          "name": "_deviceId",
          "type": "uint256"
        },
        {
          "internalType": "uint256",
          "name": "_space",
          "type": "uint256"
        },
        {
          "internalType": "uint256",
          "name": "_hours",
          "type": "uint256"
        }
      ],
      "name": "createProvide",
      "outputs": [],
      "stateMutability": "nonpayable",
      "type": "function"
    },
    {
      "inputs": [
        {
          "internalType": "uint256",
          "name": "_proId",
          "type": "uint256"
        },
        {
          "internalType": "uint256",
          "name": "_stakeId",
          "type": "uint256"
        },
        {
          "internalType": "uint256",
          "name": "devId",
          "type": "uint256"
        }
      ],
      "name": "finishUseByProvider",
      "outputs": [],
      "stateMutability": "nonpayable",
      "type": "function"
    },
    {
      "inputs": [],
      "name": "getAllAvailableDevices",
      "outputs": [
        {
          "internalType": "string[]",
          "name": "",
          "type": "string[]"
        }
      ],
      "stateMutability": "view",
      "type": "function"
    },
    {
      "inputs": [],
      "name": "getBusyDevices",
      "outputs": [
        {
          "internalType": "string[]",
          "name": "",
          "type": "string[]"
        }
      ],
      "stateMutability": "view",
      "type": "function"
    },
    {
      "inputs": [
        {
          "internalType": "uint256",
          "name": "_reqId",
          "type": "uint256"
        }
      ],
      "name": "getRequesterDetails",
      "outputs": [
        {
          "internalType": "string",
          "name": "",
          "type": "string"
        },
        {
          "internalType": "address",
          "name": "",
          "type": "address"
        },
        {
          "internalType": "address",
          "name": "",
          "type": "address"
        },
        {
          "internalType": "uint256",
          "name": "",
          "type": "uint256"
        },
        {
          "internalType": "uint256",
          "name": "",
          "type": "uint256"
        },
        {
          "internalType": "uint256",
          "name": "",
          "type": "uint256"
        }
      ],
      "stateMutability": "view",
      "type": "function"
    },
    {
      "inputs": [
        {
          "internalType": "address",
          "name": "staker",
          "type": "address"
        },
        {
          "internalType": "uint256",
          "name": "stakeId",
          "type": "uint256"
        }
      ],
      "name": "getStakeAmount",
      "outputs": [
        {
          "internalType": "uint256",
          "name": "",
          "type": "uint256"
        }
      ],
      "stateMutability": "view",
      "type": "function"
    },
    {
      "inputs": [
        {
          "internalType": "address",
          "name": "staker",
          "type": "address"
        },
        {
          "internalType": "uint256",
          "name": "stakeId",
          "type": "uint256"
        }
      ],
      "name": "getStakeTimestamp",
      "outputs": [
        {
          "internalType": "uint256",
          "name": "",
          "type": "uint256"
        }
      ],
      "stateMutability": "view",
      "type": "function"
    },
    {
      "inputs": [
        {
          "internalType": "uint256",
          "name": "_proId",
          "type": "uint256"
        },
        {
          "internalType": "uint256",
          "name": "_spaceReq",
          "type": "uint256"
        },
        {
          "internalType": "string",
          "name": "_deviceDespReq",
          "type": "string"
        },
        {
          "internalType": "uint256",
          "name": "_deviceIdReq",
          "type": "uint256"
        },
        {
          "internalType": "uint256",
          "name": "_timeReq",
          "type": "uint256"
        }
      ],
      "name": "makeRequestToProvider",
      "outputs": [],
      "stateMutability": "nonpayable",
      "type": "function"
    },
    {
      "inputs": [
        {
          "internalType": "uint256",
          "name": "",
          "type": "uint256"
        }
      ],
      "name": "providers",
      "outputs": [
        {
          "internalType": "uint256",
          "name": "id",
          "type": "uint256"
        },
        {
          "internalType": "address payable",
          "name": "recipient",
          "type": "address"
        },
        {
          "internalType": "uint256",
          "name": "timestamp",
          "type": "uint256"
        }
      ],
      "stateMutability": "view",
      "type": "function"
    },
    {
      "inputs": [
        {
          "internalType": "uint256",
          "name": "",
          "type": "uint256"
        }
      ],
      "name": "requests",
      "outputs": [
        {
          "internalType": "string",
          "name": "devName",
          "type": "string"
        },
        {
          "internalType": "address",
          "name": "requesterAddress",
          "type": "address"
        },
        {
          "internalType": "address",
          "name": "providerAddress",
          "type": "address"
        },
        {
          "internalType": "uint256",
          "name": "needIdDevice",
          "type": "uint256"
        },
        {
          "internalType": "uint256",
          "name": "deviceProId",
          "type": "uint256"
        },
        {
          "internalType": "uint256",
          "name": "timeReq",
          "type": "uint256"
        }
      ],
      "stateMutability": "view",
      "type": "function"
    },
    {
      "inputs": [
        {
          "internalType": "uint256",
          "name": "_proIdAvailable",
          "type": "uint256"
        }
      ],
      "name": "storeAllDevices",
      "outputs": [],
      "stateMutability": "nonpayable",
      "type": "function"
    },
    {
      "inputs": [
        {
          "internalType": "uint256",
          "name": "_devId",
          "type": "uint256"
        },
        {
          "internalType": "uint256",
          "name": "_proId",
          "type": "uint256"
        },
        {
          "internalType": "uint256",
          "name": "_reqId",
          "type": "uint256"
        }
      ],
      "name": "unapprove",
      "outputs": [],
      "stateMutability": "nonpayable",
      "type": "function"
    }
  ],
  "bytecode": "0x60806040523480156200001157600080fd5b506040516200349538038062003495833981810160405281019062000037919062000175565b82600360006101000a81548173ffffffffffffffffffffffffffffffffffffffff021916908373ffffffffffffffffffffffffffffffffffffffff16021790555033600260006101000a81548173ffffffffffffffffffffffffffffffffffffffff021916908373ffffffffffffffffffffffffffffffffffffffff1602179055508160008190555080600181905550505050620001d1565b600080fd5b600073ffffffffffffffffffffffffffffffffffffffff82169050919050565b60006200010282620000d5565b9050919050565b6200011481620000f5565b81146200012057600080fd5b50565b600081519050620001348162000109565b92915050565b6000819050919050565b6200014f816200013a565b81146200015b57600080fd5b50565b6000815190506200016f8162000144565b92915050565b600080600060608486031215620001915762000190620000d0565b5b6000620001a18682870162000123565b9350506020620001b4868287016200015e565b9250506040620001c7868287016200015e565b9150509250925092565b6132b480620001e16000396000f3fe608060405234801561001057600080fd5b506004361061012c5760003560e01c8063623be092116100ad57806383ec51831161007157806383ec518314610363578063a898829d14610393578063b1e0e723146103b1578063b866c8a4146103cd578063c7bd7ff9146103e95761012c565b8063623be0921461028f57806373e2d229146102ad5780637962cb98146102dd5780637b93562d146102f957806381d12c581461032e5761012c565b8063382926c3116100f4578063382926c3146101d55780633a96fdd7146101f357806340e410481461022357806350f3fc8114610241578063561a72be146102735761012c565b80630138ad59146101315780631dee21e91461014d5780632087931e1461016b578063365e2abf1461018757806337bd1d13146101b7575b600080fd5b61014b60048036038101906101469190611e0e565b610405565b005b610155610589565b6040516101629190611e4a565b60405180910390f35b61018560048036038101906101809190611fab565b61058f565b005b6101a1600480360381019061019c91906120a0565b610797565b6040516101ae9190611e4a565b60405180910390f35b6101bf6107f5565b6040516101cc919061222a565b60405180910390f35b6101dd6108ce565b6040516101ea9190611e4a565b60405180910390f35b61020d6004803603810190610208919061224c565b6108d4565b60405161021a91906122df565b60405180910390f35b61022b610940565b604051610238919061222a565b60405180910390f35b61025b60048036038101906102569190611e0e565b610a19565b60405161026a9392919061231b565b60405180910390f35b61028d600480360381019061028891906123b2565b610a63565b005b610297610d80565b6040516102a49190611e4a565b60405180910390f35b6102c760048036038101906102c291906120a0565b610d86565b6040516102d49190611e4a565b60405180910390f35b6102f760048036038101906102f2919061244c565b610e7e565b005b610313600480360381019061030e9190611e0e565b6111d0565b60405161032596959493929190612528565b60405180910390f35b61034860048036038101906103439190611e0e565b6112ef565b60405161035a96959493929190612528565b60405180910390f35b61037d600480360381019061037891906120a0565b6113f3565b60405161038a9190611e4a565b60405180910390f35b61039b611451565b6040516103a89190611e4a565b60405180910390f35b6103cb60048036038101906103c69190612590565b611457565b005b6103e760048036038101906103e29190612590565b6118cd565b005b61040360048036038101906103fe9190612590565b611b9d565b005b600060066000838152602001908152602001600020905060005b600c8054905081101561046f57600c80548061043e5761043d6125e3565b5b60019003818190600052602060002001600061045a9190611d67565b9055808061046790612641565b91505061041f565b5060005b8160000180549050811015610584576000151582600701828154811061049c5761049b612689565b5b90600052602060002090602091828204019190069054906101000a900460ff1615150361051c57600c8260000182815481106104db576104da612689565b5b9060005260206000200190806001815401808255809150506001900390600052602060002001600090919091909150908161051691906128ef565b50610571565b600d82600001828154811061053457610533612689565b5b9060005260206000200190806001815401808255809150506001900390600052602060002001600090919091909150908161056f91906128ef565b505b808061057c90612641565b915050610473565b505050565b60055481565b600060066000878152602001908152602001600020905080600001829080600181540180825580915050600190039060005260206000200160009091909190915090816105dc91906129d7565b5080600101859080600181540180825580915050600190039060005260206000200160009091909190915055806004018490806001815401808255809150506001900390600052602060002001600090919091909150558060050183908060018154018082558091505060019003906000526020600020016000909190919091505580600701600090806001815401808255809150506001900390600052602060002090602091828204019190069091909190916101000a81548160ff021916908315150217905550600960003373ffffffffffffffffffffffffffffffffffffffff1673ffffffffffffffffffffffffffffffffffffffff168152602001908152602001600020600081546106f190612641565b91905081905560088190555060405180606001604052806008548152602001600054815260200142815250600b60003373ffffffffffffffffffffffffffffffffffffffff1673ffffffffffffffffffffffffffffffffffffffff16815260200190815260200160002060006008548152602001908152602001600020600082015181600001556020820151816001015560408201518160020155905050505050505050565b6000600b60008473ffffffffffffffffffffffffffffffffffffffff1673ffffffffffffffffffffffffffffffffffffffff168152602001908152602001600020600083815260200190815260200160002060010154905092915050565b6060600d805480602002602001604051908101604052809291908181526020016000905b828210156108c5578382906000526020600020018054610838906126e7565b80601f0160208091040260200160405190810160405280929190818152602001828054610864906126e7565b80156108b15780601f10610886576101008083540402835291602001916108b1565b820191906000526020600020905b81548152906001019060200180831161089457829003601f168201915b505050505081526020019060010190610819565b50505050905090565b60015481565b600081518351146108e8576000905061093a565b816040516020016108f99190612ae5565b60405160208183030381529060405280519060200120836040516020016109209190612ae5565b604051602081830303815290604052805190602001201490505b92915050565b6060600c805480602002602001604051908101604052809291908181526020016000905b82821015610a10578382906000526020600020018054610983906126e7565b80601f01602080910402602001604051908101604052809291908181526020018280546109af906126e7565b80156109fc5780601f106109d1576101008083540402835291602001916109fc565b820191906000526020600020905b8154815290600101906020018083116109df57829003601f168201915b505050505081526020019060010190610964565b50505050905090565b60066020528060005260406000206000915090508060020154908060030160009054906101000a900473ffffffffffffffffffffffffffffffffffffffff16908060060154905083565b600060066000888152602001908152602001600020905060005b8160010180549050811015610d765783826001018281548110610aa357610aa2612689565b5b906000526020600020015403610d635786826004018281548110610aca57610ac9612689565b5b90600052602060002001541015610b16576040517f08c379a0000000000000000000000000000000000000000000000000000000008152600401610b0d90612b6e565b60405180910390fd5b82826005018281548110610b2d57610b2c612689565b5b90600052602060002001541015610b79576040517f08c379a0000000000000000000000000000000000000000000000000000000008152600401610b7090612c00565b60405180910390fd5b83826001018281548110610b9057610b8f612689565b5b906000526020600020015414610bdb576040517f08c379a0000000000000000000000000000000000000000000000000000000008152600401610bd290612c6c565b60405180910390fd5b60001515826007018281548110610bf557610bf4612689565b5b90600052602060002090602091828204019190069054906101000a900460ff16151514610c57576040517f08c379a0000000000000000000000000000000000000000000000000000000008152600401610c4e90612cfe565b60405180910390fd5b6000600460006005548152602001908152602001600020905060056000815480929190610c8390612641565b91905055508686826000019182610c9b929190612d29565b50338160010160006101000a81548173ffffffffffffffffffffffffffffffffffffffff021916908373ffffffffffffffffffffffffffffffffffffffff1602179055508260030160009054906101000a900473ffffffffffffffffffffffffffffffffffffffff168160020160006101000a81548173ffffffffffffffffffffffffffffffffffffffff021916908373ffffffffffffffffffffffffffffffffffffffff160217905550848160030181905550888160040181905550838160050181905550505b8080610d6e90612641565b915050610a7d565b5050505050505050565b60075481565b600080600b60008573ffffffffffffffffffffffffffffffffffffffff1673ffffffffffffffffffffffffffffffffffffffff16815260200190815260200160002060008481526020019081526020016000206001015490506000600b60008673ffffffffffffffffffffffffffffffffffffffff1673ffffffffffffffffffffffffffffffffffffffff168152602001908152602001600020600085815260200190815260200160002060020154905060008142610e459190612df9565b90506000610e1082610e579190612e5c565b905060015481610e679190612e8d565b84610e729190612ee7565b94505050505092915050565b6000600660006007548152602001908152602001600020905060076000815480929190610eaa90612641565b9190505550600360009054906101000a900473ffffffffffffffffffffffffffffffffffffffff1673ffffffffffffffffffffffffffffffffffffffff166323b872dd33306000546040518463ffffffff1660e01b8152600401610f1093929190612f3d565b6020604051808303816000875af1158015610f2f573d6000803e3d6000fd5b505050506040513d601f19601f82011682018060405250810190610f539190612fa0565b610f92576040517f08c379a0000000000000000000000000000000000000000000000000000000008152600401610f8990613019565b60405180910390fd5b8060000185908060018154018082558091505060019003906000526020600020016000909190919091509081610fc891906129d7565b5080600101849080600181540180825580915050600190039060005260206000200160009091909190915055338160030160006101000a81548173ffffffffffffffffffffffffffffffffffffffff021916908373ffffffffffffffffffffffffffffffffffffffff160217905550806004018390806001815401808255809150506001900390600052602060002001600090919091909150558060050182908060018154018082558091505060019003906000526020600020016000909190919091505580600701600090806001815401808255809150506001900390600052602060002090602091828204019190069091909190916101000a81548160ff0219169083151502179055506007548160020181905550600960003373ffffffffffffffffffffffffffffffffffffffff1673ffffffffffffffffffffffffffffffffffffffff1681526020019081526020016000206000815461112b90612641565b91905081905560088190555060405180606001604052806008548152602001600054815260200142815250600b60003373ffffffffffffffffffffffffffffffffffffffff1673ffffffffffffffffffffffffffffffffffffffff168152602001908152602001600020600060085481526020019081526020016000206000820151816000015560208201518160010155604082015181600201559050505050505050565b6060600080600080600080600460008981526020019081526020016000209050806000018160010160009054906101000a900473ffffffffffffffffffffffffffffffffffffffff168260020160009054906101000a900473ffffffffffffffffffffffffffffffffffffffff16836003015484600401548560050154858054611259906126e7565b80601f0160208091040260200160405190810160405280929190818152602001828054611285906126e7565b80156112d25780601f106112a7576101008083540402835291602001916112d2565b820191906000526020600020905b8154815290600101906020018083116112b557829003601f168201915b505050505095509650965096509650965096505091939550919395565b6004602052806000526040600020600091509050806000018054611312906126e7565b80601f016020809104026020016040519081016040528092919081815260200182805461133e906126e7565b801561138b5780601f106113605761010080835404028352916020019161138b565b820191906000526020600020905b81548152906001019060200180831161136e57829003601f168201915b5050505050908060010160009054906101000a900473ffffffffffffffffffffffffffffffffffffffff16908060020160009054906101000a900473ffffffffffffffffffffffffffffffffffffffff16908060030154908060040154908060050154905086565b6000600b60008473ffffffffffffffffffffffffffffffffffffffff1673ffffffffffffffffffffffffffffffffffffffff168152602001908152602001600020600083815260200190815260200160002060020154905092915050565b60005481565b6000600960003373ffffffffffffffffffffffffffffffffffffffff1673ffffffffffffffffffffffffffffffffffffffff16815260200190815260200160002054116114d9576040517f08c379a00000000000000000000000000000000000000000000000000000000081526004016114d090613085565b60405180910390fd5b600b60003373ffffffffffffffffffffffffffffffffffffffff1673ffffffffffffffffffffffffffffffffffffffff168152602001908152602001600020600083815260200190815260200160002060020154421161156e576040517f08c379a0000000000000000000000000000000000000000000000000000000008152600401611565906130f1565b60405180910390fd5b6000600b60003373ffffffffffffffffffffffffffffffffffffffff1673ffffffffffffffffffffffffffffffffffffffff16815260200190815260200160002060008481526020019081526020016000206001015411611604576040517f08c379a00000000000000000000000000000000000000000000000000000000081526004016115fb9061315d565b60405180910390fd5b600060066000858152602001908152602001600020905060005b81600101805490508110156116a9578282600101828154811061164457611643612689565b5b90600052602060002001540361169657600082600701828154811061166c5761166b612689565b5b90600052602060002090602091828204019190066101000a81548160ff0219169083151502179055505b80806116a190612641565b91505061161e565b60006116b53386610d86565b9050600b60003373ffffffffffffffffffffffffffffffffffffffff1673ffffffffffffffffffffffffffffffffffffffff168152602001908152602001600020600086815260200190815260200160002060010154816117169190612df9565b600a60003373ffffffffffffffffffffffffffffffffffffffff1673ffffffffffffffffffffffffffffffffffffffff1681526020019081526020016000208190555060405180606001604052808681526020016000815260200142815250600b60003373ffffffffffffffffffffffffffffffffffffffff1673ffffffffffffffffffffffffffffffffffffffff1681526020019081526020016000206000878152602001908152602001600020600082015181600001556020820151816001015560408201518160020155905050600360009054906101000a900473ffffffffffffffffffffffffffffffffffffffff1673ffffffffffffffffffffffffffffffffffffffff1663a9059cbb33836040518363ffffffff1660e01b815260040161184392919061317d565b6020604051808303816000875af1158015611862573d6000803e3d6000fd5b505050506040513d601f19601f820116820180604052508101906118869190612fa0565b6118c5576040517f08c379a00000000000000000000000000000000000000000000000000000000081526004016118bc906131f2565b60405180910390fd5b505050505050565b600060066000848152602001908152602001600020905060005b8160010180549050811015611b96578482600101828154811061190d5761190c612689565b5b906000526020600020015403611b83578482600101828154811061193457611933612689565b5b90600052602060002001541461197f576040517f08c379a000000000000000000000000000000000000000000000000000000000815260040161197690612c6c565b60405180910390fd5b6000151582600701828154811061199957611998612689565b5b90600052602060002090602091828204019190069054906101000a900460ff161515146119fb576040517f08c379a00000000000000000000000000000000000000000000000000000000081526004016119f290612cfe565b60405180910390fd5b6001826007018281548110611a1357611a12612689565b5b90600052602060002090602091828204019190066101000a81548160ff0219169083151502179055504282600601819055506000600460008581526020019081526020016000209050600360009054906101000a900473ffffffffffffffffffffffffffffffffffffffff1673ffffffffffffffffffffffffffffffffffffffff166323b872dd8260010160009054906101000a900473ffffffffffffffffffffffffffffffffffffffff1630866005018681548110611ad657611ad5612689565b5b90600052602060002001546040518463ffffffff1660e01b8152600401611aff93929190612f3d565b6020604051808303816000875af1158015611b1e573d6000803e3d6000fd5b505050506040513d601f19601f82011682018060405250810190611b429190612fa0565b611b81576040517f08c379a0000000000000000000000000000000000000000000000000000000008152600401611b789061325e565b60405180910390fd5b505b8080611b8e90612641565b9150506118e7565b5050505050565b600060066000848152602001908152602001600020905060005b8160010180549050811015611d605784826001018281548110611bdd57611bdc612689565b5b906000526020600020015403611d4d576000600460008581526020019081526020016000209050600360009054906101000a900473ffffffffffffffffffffffffffffffffffffffff1673ffffffffffffffffffffffffffffffffffffffff166323b872dd600260009054906101000a900473ffffffffffffffffffffffffffffffffffffffff168360010160009054906101000a900473ffffffffffffffffffffffffffffffffffffffff16866005018681548110611ca057611c9f612689565b5b90600052602060002001546040518463ffffffff1660e01b8152600401611cc993929190612f3d565b6020604051808303816000875af1158015611ce8573d6000803e3d6000fd5b505050506040513d601f19601f82011682018060405250810190611d0c9190612fa0565b611d4b576040517f08c379a0000000000000000000000000000000000000000000000000000000008152600401611d429061325e565b60405180910390fd5b505b8080611d5890612641565b915050611bb7565b5050505050565b508054611d73906126e7565b6000825580601f10611d855750611da4565b601f016020900490600052602060002090810190611da39190611da7565b5b50565b5b80821115611dc0576000816000905550600101611da8565b5090565b6000604051905090565b600080fd5b600080fd5b6000819050919050565b611deb81611dd8565b8114611df657600080fd5b50565b600081359050611e0881611de2565b92915050565b600060208284031215611e2457611e23611dce565b5b6000611e3284828501611df9565b91505092915050565b611e4481611dd8565b82525050565b6000602082019050611e5f6000830184611e3b565b92915050565b600080fd5b600080fd5b6000601f19601f8301169050919050565b7f4e487b7100000000000000000000000000000000000000000000000000000000600052604160045260246000fd5b611eb882611e6f565b810181811067ffffffffffffffff82111715611ed757611ed6611e80565b5b80604052505050565b6000611eea611dc4565b9050611ef68282611eaf565b919050565b600067ffffffffffffffff821115611f1657611f15611e80565b5b611f1f82611e6f565b9050602081019050919050565b82818337600083830152505050565b6000611f4e611f4984611efb565b611ee0565b905082815260208101848484011115611f6a57611f69611e6a565b5b611f75848285611f2c565b509392505050565b600082601f830112611f9257611f91611e65565b5b8135611fa2848260208601611f3b565b91505092915050565b600080600080600060a08688031215611fc757611fc6611dce565b5b6000611fd588828901611df9565b9550506020611fe688828901611df9565b9450506040611ff788828901611df9565b935050606061200888828901611df9565b925050608086013567ffffffffffffffff81111561202957612028611dd3565b5b61203588828901611f7d565b9150509295509295909350565b600073ffffffffffffffffffffffffffffffffffffffff82169050919050565b600061206d82612042565b9050919050565b61207d81612062565b811461208857600080fd5b50565b60008135905061209a81612074565b92915050565b600080604083850312156120b7576120b6611dce565b5b60006120c58582860161208b565b92505060206120d685828601611df9565b9150509250929050565b600081519050919050565b600082825260208201905092915050565b6000819050602082019050919050565b600081519050919050565b600082825260208201905092915050565b60005b8381101561214657808201518184015260208101905061212b565b83811115612155576000848401525b50505050565b60006121668261210c565b6121708185612117565b9350612180818560208601612128565b61218981611e6f565b840191505092915050565b60006121a0838361215b565b905092915050565b6000602082019050919050565b60006121c0826120e0565b6121ca81856120eb565b9350836020820285016121dc856120fc565b8060005b8581101561221857848403895281516121f98582612194565b9450612204836121a8565b925060208a019950506001810190506121e0565b50829750879550505050505092915050565b6000602082019050818103600083015261224481846121b5565b905092915050565b6000806040838503121561226357612262611dce565b5b600083013567ffffffffffffffff81111561228157612280611dd3565b5b61228d85828601611f7d565b925050602083013567ffffffffffffffff8111156122ae576122ad611dd3565b5b6122ba85828601611f7d565b9150509250929050565b60008115159050919050565b6122d9816122c4565b82525050565b60006020820190506122f460008301846122d0565b92915050565b600061230582612042565b9050919050565b612315816122fa565b82525050565b60006060820190506123306000830186611e3b565b61233d602083018561230c565b61234a6040830184611e3b565b949350505050565b600080fd5b600080fd5b60008083601f84011261237257612371611e65565b5b8235905067ffffffffffffffff81111561238f5761238e612352565b5b6020830191508360018202830111156123ab576123aa612357565b5b9250929050565b60008060008060008060a087890312156123cf576123ce611dce565b5b60006123dd89828a01611df9565b96505060206123ee89828a01611df9565b955050604087013567ffffffffffffffff81111561240f5761240e611dd3565b5b61241b89828a0161235c565b9450945050606061242e89828a01611df9565b925050608061243f89828a01611df9565b9150509295509295509295565b6000806000806080858703121561246657612465611dce565b5b600085013567ffffffffffffffff81111561248457612483611dd3565b5b61249087828801611f7d565b94505060206124a187828801611df9565b93505060406124b287828801611df9565b92505060606124c387828801611df9565b91505092959194509250565b600082825260208201905092915050565b60006124eb8261210c565b6124f581856124cf565b9350612505818560208601612128565b61250e81611e6f565b840191505092915050565b61252281612062565b82525050565b600060c082019050818103600083015261254281896124e0565b90506125516020830188612519565b61255e6040830187612519565b61256b6060830186611e3b565b6125786080830185611e3b565b61258560a0830184611e3b565b979650505050505050565b6000806000606084860312156125a9576125a8611dce565b5b60006125b786828701611df9565b93505060206125c886828701611df9565b92505060406125d986828701611df9565b9150509250925092565b7f4e487b7100000000000000000000000000000000000000000000000000000000600052603160045260246000fd5b7f4e487b7100000000000000000000000000000000000000000000000000000000600052601160045260246000fd5b600061264c82611dd8565b91507fffffffffffffffffffffffffffffffffffffffffffffffffffffffffffffffff820361267e5761267d612612565b5b600182019050919050565b7f4e487b7100000000000000000000000000000000000000000000000000000000600052603260045260246000fd5b7f4e487b7100000000000000000000000000000000000000000000000000000000600052602260045260246000fd5b600060028204905060018216806126ff57607f821691505b602082108103612712576127116126b8565b5b50919050565b600081549050612727816126e7565b9050919050565b60008190508160005260206000209050919050565b60008190508160005260206000209050919050565b60006020601f8301049050919050565b600082821b905092915050565b6000600883026127a57fffffffffffffffffffffffffffffffffffffffffffffffffffffffffffffffff82612768565b6127af8683612768565b95508019841693508086168417925050509392505050565b6000819050919050565b60006127ec6127e76127e284611dd8565b6127c7565b611dd8565b9050919050565b6000819050919050565b612806836127d1565b61281a612812826127f3565b848454612775565b825550505050565b600090565b61282f612822565b61283a8184846127fd565b505050565b5b8181101561285e57612853600082612827565b600181019050612840565b5050565b601f8211156128a3576128748161272e565b61287d84612758565b8101602085101561288c578190505b6128a061289885612758565b83018261283f565b50505b505050565b600082821c905092915050565b60006128c6600019846008026128a8565b1980831691505092915050565b60006128df83836128b5565b9150826002028217905092915050565b8181036128fd5750506129d5565b61290682612718565b67ffffffffffffffff81111561291f5761291e611e80565b5b61292982546126e7565b612934828285612862565b6000601f8311600181146129635760008415612951578287015490505b61295b85826128d3565b8655506129ce565b601f19841661297187612743565b965061297c8661272e565b60005b828110156129a45784890154825560018201915060018501945060208101905061297f565b868310156129c157848901546129bd601f8916826128b5565b8355505b6001600288020188555050505b5050505050505b565b6129e08261210c565b67ffffffffffffffff8111156129f9576129f8611e80565b5b612a0382546126e7565b612a0e828285612862565b600060209050601f831160018114612a415760008415612a2f578287015190505b612a3985826128d3565b865550612aa1565b601f198416612a4f8661272e565b60005b82811015612a7757848901518255600182019150602085019450602081019050612a52565b86831015612a945784890151612a90601f8916826128b5565b8355505b6001600288020188555050505b505050505050565b600081905092915050565b6000612abf8261210c565b612ac98185612aa9565b9350612ad9818560208601612128565b80840191505092915050565b6000612af18284612ab4565b915081905092915050565b7f5468652070726f766964657220646f6573206e6f74206861766520656e6f756e60008201527f6768207370616365206c6566742e000000000000000000000000000000000000602082015250565b6000612b58602e836124cf565b9150612b6382612afc565b604082019050919050565b60006020820190508181036000830152612b8781612b4b565b9050919050565b7f457863656464696e672074696d65206c696d6974207365742062792070726f7660008201527f6964657200000000000000000000000000000000000000000000000000000000602082015250565b6000612bea6024836124cf565b9150612bf582612b8e565b604082019050919050565b60006020820190508181036000830152612c1981612bdd565b9050919050565b7f5468652064657669636520496420646f6573206e6f74206d6174636800000000600082015250565b6000612c56601c836124cf565b9150612c6182612c20565b602082019050919050565b60006020820190508181036000830152612c8581612c49565b9050919050565b7f5468652070726f766964657220697320616c726561647920627573792c206e6f60008201527f207265736f757263657320617661696c61626c652e0000000000000000000000602082015250565b6000612ce86035836124cf565b9150612cf382612c8c565b604082019050919050565b60006020820190508181036000830152612d1781612cdb565b9050919050565b600082905092915050565b612d338383612d1e565b67ffffffffffffffff811115612d4c57612d4b611e80565b5b612d5682546126e7565b612d61828285612862565b6000601f831160018114612d905760008415612d7e578287013590505b612d8885826128d3565b865550612df0565b601f198416612d9e8661272e565b60005b82811015612dc657848901358255600182019150602085019450602081019050612da1565b86831015612de35784890135612ddf601f8916826128b5565b8355505b6001600288020188555050505b50505050505050565b6000612e0482611dd8565b9150612e0f83611dd8565b925082821015612e2257612e21612612565b5b828203905092915050565b7f4e487b7100000000000000000000000000000000000000000000000000000000600052601260045260246000fd5b6000612e6782611dd8565b9150612e7283611dd8565b925082612e8257612e81612e2d565b5b828204905092915050565b6000612e9882611dd8565b9150612ea383611dd8565b9250817fffffffffffffffffffffffffffffffffffffffffffffffffffffffffffffffff0483118215151615612edc57612edb612612565b5b828202905092915050565b6000612ef282611dd8565b9150612efd83611dd8565b9250827fffffffffffffffffffffffffffffffffffffffffffffffffffffffffffffffff03821115612f3257612f31612612565b5b828201905092915050565b6000606082019050612f526000830186612519565b612f5f6020830185612519565b612f6c6040830184611e3b565b949350505050565b612f7d816122c4565b8114612f8857600080fd5b50565b600081519050612f9a81612f74565b92915050565b600060208284031215612fb657612fb5611dce565b5b6000612fc484828501612f8b565b91505092915050565b7f5374616b65207472616e73666572206661696c65640000000000000000000000600082015250565b60006130036015836124cf565b915061300e82612fcd565b602082019050919050565b6000602082019050818103600083015261303281612ff6565b9050919050565b7f4e6f207374616b6520666f756e64000000000000000000000000000000000000600082015250565b600061306f600e836124cf565b915061307a82613039565b602082019050919050565b6000602082019050818103600083015261309e81613062565b9050919050565b7f54696d6520706572696f6420686173206e6f7420656c61707365642e00000000600082015250565b60006130db601c836124cf565b91506130e6826130a5565b602082019050919050565b6000602082019050818103600083015261310a816130ce565b9050919050565b7f52657761726420616c726564792077697468647261776e000000000000000000600082015250565b60006131476017836124cf565b915061315282613111565b602082019050919050565b600060208201905081810360008301526131768161313a565b9050919050565b60006040820190506131926000830185612519565b61319f6020830184611e3b565b9392505050565b7f5374616b65207769746864726177616c206661696c6564000000000000000000600082015250565b60006131dc6017836124cf565b91506131e7826131a6565b602082019050919050565b6000602082019050818103600083015261320b816131cf565b9050919050565b7f506179656d6e7420756e7375636365737366756c000000000000000000000000600082015250565b60006132486014836124cf565b915061325382613212565b602082019050919050565b600060208201905081810360008301526132778161323b565b905091905056fea2646970667358221220c1f7b72bc28be8d057f7c8a09c9936d85afde7062885811f157676bc3c0c458c64736f6c634300080f0033",
  "linkReferences": {},
  "deployedLinkReferences": {}
}