{
  "_format": "hh-sol-artifact-1",
  "contractName": "FileShare",
  "sourceName": "contracts/FileShare.sol",
  "abi": [
    {
      "inputs": [
        {
          "internalType": "address",
          "name": "tokenAddress",
          "type": "address"
        },
        {
          "internalType": "uint256",
          "name": "_FIXED_STAKE",
          "type": "uint256"
        }
      ],
      "stateMutability": "nonpayable",
      "type": "constructor"
    },
    {
      "inputs": [],
      "name": "FIXED_STAKE",
      "outputs": [
        {
          "internalType": "uint256",
          "name": "",
          "type": "uint256"
        }
      ],
      "stateMutability": "view",
      "type": "function"
    },
    {
      "inputs": [
        {
          "internalType": "string",
          "name": "_description",
          "type": "string"
        },
        {
          "internalType": "uint256",
          "name": "_space",
          "type": "uint256"
        },
        {
          "internalType": "uint256",
          "name": "_hrs",
          "type": "uint256"
        },
        {
          "internalType": "uint256",
          "name": "_tokenrate",
          "type": "uint256"
        }
      ],
      "name": "addDevice",
      "outputs": [],
      "stateMutability": "nonpayable",
      "type": "function"
    },
    {
      "inputs": [
        {
          "internalType": "uint256",
          "name": "",
          "type": "uint256"
        }
      ],
      "name": "deviceDetails",
      "outputs": [
        {
          "internalType": "string",
          "name": "description",
          "type": "string"
        },
        {
          "internalType": "uint256",
          "name": "space",
          "type": "uint256"
        },
        {
          "internalType": "uint256",
          "name": "hrs",
          "type": "uint256"
        },
        {
          "internalType": "uint256",
          "name": "tokenRate",
          "type": "uint256"
        },
        {
          "internalType": "uint256",
          "name": "id",
          "type": "uint256"
        }
      ],
      "stateMutability": "view",
      "type": "function"
    },
    {
      "inputs": [],
      "name": "deviceID",
      "outputs": [
        {
          "internalType": "uint256",
          "name": "",
          "type": "uint256"
        }
      ],
      "stateMutability": "view",
      "type": "function"
    },
    {
      "inputs": [],
      "name": "getAllDevices",
      "outputs": [
        {
          "internalType": "string[]",
          "name": "",
          "type": "string[]"
        }
      ],
      "stateMutability": "view",
      "type": "function"
    },
    {
      "inputs": [
        {
          "internalType": "uint256",
          "name": "_deviceID",
          "type": "uint256"
        }
      ],
      "name": "getDeviceByDeviceID",
      "outputs": [
        {
          "internalType": "string",
          "name": "",
          "type": "string"
        },
        {
          "internalType": "uint256",
          "name": "",
          "type": "uint256"
        },
        {
          "internalType": "uint256",
          "name": "",
          "type": "uint256"
        },
        {
          "internalType": "uint256",
          "name": "",
          "type": "uint256"
        }
      ],
      "stateMutability": "view",
      "type": "function"
    },
    {
      "inputs": [],
      "name": "getDeviceByProvider",
      "outputs": [
        {
          "internalType": "string",
          "name": "",
          "type": "string"
        }
      ],
      "stateMutability": "view",
      "type": "function"
    },
    {
      "inputs": [
        {
          "internalType": "address",
          "name": "",
          "type": "address"
        }
      ],
      "name": "providers",
      "outputs": [
        {
          "internalType": "string",
          "name": "description",
          "type": "string"
        },
        {
          "internalType": "uint256",
          "name": "space",
          "type": "uint256"
        },
        {
          "internalType": "uint256",
          "name": "hrs",
          "type": "uint256"
        },
        {
          "internalType": "uint256",
          "name": "tokenRate",
          "type": "uint256"
        },
        {
          "internalType": "uint256",
          "name": "id",
          "type": "uint256"
        }
      ],
      "stateMutability": "view",
      "type": "function"
    }
  ],
  "bytecode": "0x60806040523480156200001157600080fd5b50604051620012193803806200121983398181016040528101906200003791906200016d565b81600260006101000a81548173ffffffffffffffffffffffffffffffffffffffff021916908373ffffffffffffffffffffffffffffffffffffffff16021790555033600160006101000a81548173ffffffffffffffffffffffffffffffffffffffff021916908373ffffffffffffffffffffffffffffffffffffffff160217905550806000819055505050620001b4565b600080fd5b600073ffffffffffffffffffffffffffffffffffffffff82169050919050565b6000620000fa82620000cd565b9050919050565b6200010c81620000ed565b81146200011857600080fd5b50565b6000815190506200012c8162000101565b92915050565b6000819050919050565b620001478162000132565b81146200015357600080fd5b50565b60008151905062000167816200013c565b92915050565b60008060408385031215620001875762000186620000c8565b5b600062000197858286016200011b565b9250506020620001aa8582860162000156565b9150509250929050565b61105580620001c46000396000f3fe608060405234801561001057600080fd5b50600436106100885760003560e01c8063a898829d1161005b578063a898829d14610119578063b25983c814610137578063e9bb07271461016a578063f82c61821461018857610088565b80630787bc271461008d5780636013cdc2146100c15780637a2a530d146100df5780639c157c0f146100fd575b600080fd5b6100a760048036038101906100a291906107c9565b6101bc565b6040516100b89594939291906108a8565b60405180910390f35b6100c961027a565b6040516100d69190610902565b60405180910390f35b6100e7610280565b6040516100f49190610a29565b60405180910390f35b61011760048036038101906101129190610bac565b610359565b005b6101216104b2565b60405161012e9190610902565b60405180910390f35b610151600480360381019061014c9190610c2f565b6104b8565b6040516101619493929190610c5c565b60405180910390f35b610172610584565b60405161017f9190610ca8565b60405180910390f35b6101a2600480360381019061019d9190610c2f565b610699565b6040516101b39594939291906108a8565b60405180910390f35b60036020528060005260406000206000915090508060000180546101df90610cf9565b80601f016020809104026020016040519081016040528092919081815260200182805461020b90610cf9565b80156102585780601f1061022d57610100808354040283529160200191610258565b820191906000526020600020905b81548152906001019060200180831161023b57829003601f168201915b5050505050908060010154908060020154908060030154908060040154905085565b60055481565b60606006805480602002602001604051908101604052809291908181526020016000905b828210156103505783829060005260206000200180546102c390610cf9565b80601f01602080910402602001604051908101604052809291908181526020018280546102ef90610cf9565b801561033c5780601f106103115761010080835404028352916020019161033c565b820191906000526020600020905b81548152906001019060200180831161031f57829003601f168201915b5050505050815260200190600101906102a4565b50505050905090565b60006040518060a00160405280868152602001858152602001848152602001838152602001600554815250905080600360003373ffffffffffffffffffffffffffffffffffffffff1673ffffffffffffffffffffffffffffffffffffffff16815260200190815260200160002060008201518160000190816103db9190610ed6565b506020820151816001015560408201518160020155606082015181600301556080820151816004015590505060068590806001815401808255809150506001900390600052602060002001600090919091909150908161043b9190610ed6565b508060046000600554815260200190815260200160002060008201518160000190816104679190610ed6565b5060208201518160010155604082015181600201556060820151816003015560808201518160040155905050600560008154809291906104a690610fd7565b91905055505050505050565b60005481565b6060600080600080600460008781526020019081526020016000209050806000018160020154826001015483600301548380546104f490610cf9565b80601f016020809104026020016040519081016040528092919081815260200182805461052090610cf9565b801561056d5780601f106105425761010080835404028352916020019161056d565b820191906000526020600020905b81548152906001019060200180831161055057829003601f168201915b505050505093509450945094509450509193509193565b60606000600360003373ffffffffffffffffffffffffffffffffffffffff1673ffffffffffffffffffffffffffffffffffffffff1681526020019081526020016000206040518060a00160405290816000820180546105e290610cf9565b80601f016020809104026020016040519081016040528092919081815260200182805461060e90610cf9565b801561065b5780601f106106305761010080835404028352916020019161065b565b820191906000526020600020905b81548152906001019060200180831161063e57829003601f168201915b505050505081526020016001820154815260200160028201548152602001600382015481526020016004820154815250509050806000015191505090565b60046020528060005260406000206000915090508060000180546106bc90610cf9565b80601f01602080910402602001604051908101604052809291908181526020018280546106e890610cf9565b80156107355780601f1061070a57610100808354040283529160200191610735565b820191906000526020600020905b81548152906001019060200180831161071857829003601f168201915b5050505050908060010154908060020154908060030154908060040154905085565b6000604051905090565b600080fd5b600080fd5b600073ffffffffffffffffffffffffffffffffffffffff82169050919050565b60006107968261076b565b9050919050565b6107a68161078b565b81146107b157600080fd5b50565b6000813590506107c38161079d565b92915050565b6000602082840312156107df576107de610761565b5b60006107ed848285016107b4565b91505092915050565b600081519050919050565b600082825260208201905092915050565b60005b83811015610830578082015181840152602081019050610815565b8381111561083f576000848401525b50505050565b6000601f19601f8301169050919050565b6000610861826107f6565b61086b8185610801565b935061087b818560208601610812565b61088481610845565b840191505092915050565b6000819050919050565b6108a28161088f565b82525050565b600060a08201905081810360008301526108c28188610856565b90506108d16020830187610899565b6108de6040830186610899565b6108eb6060830185610899565b6108f86080830184610899565b9695505050505050565b60006020820190506109176000830184610899565b92915050565b600081519050919050565b600082825260208201905092915050565b6000819050602082019050919050565b600082825260208201905092915050565b6000610965826107f6565b61096f8185610949565b935061097f818560208601610812565b61098881610845565b840191505092915050565b600061099f838361095a565b905092915050565b6000602082019050919050565b60006109bf8261091d565b6109c98185610928565b9350836020820285016109db85610939565b8060005b85811015610a1757848403895281516109f88582610993565b9450610a03836109a7565b925060208a019950506001810190506109df565b50829750879550505050505092915050565b60006020820190508181036000830152610a4381846109b4565b905092915050565b600080fd5b600080fd5b7f4e487b7100000000000000000000000000000000000000000000000000000000600052604160045260246000fd5b610a8d82610845565b810181811067ffffffffffffffff82111715610aac57610aab610a55565b5b80604052505050565b6000610abf610757565b9050610acb8282610a84565b919050565b600067ffffffffffffffff821115610aeb57610aea610a55565b5b610af482610845565b9050602081019050919050565b82818337600083830152505050565b6000610b23610b1e84610ad0565b610ab5565b905082815260208101848484011115610b3f57610b3e610a50565b5b610b4a848285610b01565b509392505050565b600082601f830112610b6757610b66610a4b565b5b8135610b77848260208601610b10565b91505092915050565b610b898161088f565b8114610b9457600080fd5b50565b600081359050610ba681610b80565b92915050565b60008060008060808587031215610bc657610bc5610761565b5b600085013567ffffffffffffffff811115610be457610be3610766565b5b610bf087828801610b52565b9450506020610c0187828801610b97565b9350506040610c1287828801610b97565b9250506060610c2387828801610b97565b91505092959194509250565b600060208284031215610c4557610c44610761565b5b6000610c5384828501610b97565b91505092915050565b60006080820190508181036000830152610c768187610856565b9050610c856020830186610899565b610c926040830185610899565b610c9f6060830184610899565b95945050505050565b60006020820190508181036000830152610cc28184610856565b905092915050565b7f4e487b7100000000000000000000000000000000000000000000000000000000600052602260045260246000fd5b60006002820490506001821680610d1157607f821691505b602082108103610d2457610d23610cca565b5b50919050565b60008190508160005260206000209050919050565b60006020601f8301049050919050565b600082821b905092915050565b600060088302610d8c7fffffffffffffffffffffffffffffffffffffffffffffffffffffffffffffffff82610d4f565b610d968683610d4f565b95508019841693508086168417925050509392505050565b6000819050919050565b6000610dd3610dce610dc98461088f565b610dae565b61088f565b9050919050565b6000819050919050565b610ded83610db8565b610e01610df982610dda565b848454610d5c565b825550505050565b600090565b610e16610e09565b610e21818484610de4565b505050565b5b81811015610e4557610e3a600082610e0e565b600181019050610e27565b5050565b601f821115610e8a57610e5b81610d2a565b610e6484610d3f565b81016020851015610e73578190505b610e87610e7f85610d3f565b830182610e26565b50505b505050565b600082821c905092915050565b6000610ead60001984600802610e8f565b1980831691505092915050565b6000610ec68383610e9c565b9150826002028217905092915050565b610edf826107f6565b67ffffffffffffffff811115610ef857610ef7610a55565b5b610f028254610cf9565b610f0d828285610e49565b600060209050601f831160018114610f405760008415610f2e578287015190505b610f388582610eba565b865550610fa0565b601f198416610f4e86610d2a565b60005b82811015610f7657848901518255600182019150602085019450602081019050610f51565b86831015610f935784890151610f8f601f891682610e9c565b8355505b6001600288020188555050505b505050505050565b7f4e487b7100000000000000000000000000000000000000000000000000000000600052601160045260246000fd5b6000610fe28261088f565b91507fffffffffffffffffffffffffffffffffffffffffffffffffffffffffffffffff820361101457611013610fa8565b5b60018201905091905056fea2646970667358221220327ae5501f33fad1a8477611a49c2416e7edd6f441aac1e98eb1af7b64abe91564736f6c634300080f0033",
  "linkReferences": {},
  "deployedLinkReferences": {}
}