{
  "_format": "hh-sol-artifact-1",
  "contractName": "FileShare",
  "sourceName": "contracts/FileShare.sol",
  "abi": [
    {
      "inputs": [
        {
          "internalType": "address",
          "name": "tokenAddress",
          "type": "address"
        },
        {
          "internalType": "uint256",
          "name": "_FIXED_STAKE",
          "type": "uint256"
        }
      ],
      "stateMutability": "nonpayable",
      "type": "constructor"
    },
    {
      "anonymous": false,
      "inputs": [
        {
          "indexed": true,
          "internalType": "uint256",
          "name": "idOfDevice",
          "type": "uint256"
        },
        {
          "indexed": true,
          "internalType": "uint256",
          "name": "idOfStake",
          "type": "uint256"
        }
      ],
      "name": "DeviceAdded",
      "type": "event"
    },
    {
      "anonymous": false,
      "inputs": [
        {
          "indexed": true,
          "internalType": "uint256",
          "name": "idOfRequestor",
          "type": "uint256"
        }
      ],
      "name": "RequestAdded",
      "type": "event"
    },
    {
      "inputs": [
        {
          "internalType": "uint256",
          "name": "_reqID",
          "type": "uint256"
        }
      ],
      "name": "AcceptDeviceRequestByProvider",
      "outputs": [],
      "stateMutability": "nonpayable",
      "type": "function"
    },
    {
      "inputs": [],
      "name": "FIXED_STAKE",
      "outputs": [
        {
          "internalType": "uint256",
          "name": "",
          "type": "uint256"
        }
      ],
      "stateMutability": "view",
      "type": "function"
    },
    {
      "inputs": [
        {
          "internalType": "uint256",
          "name": "_deviceID",
          "type": "uint256"
        },
        {
          "internalType": "uint256",
          "name": "_hrsToStake",
          "type": "uint256"
        }
      ],
      "name": "RequestDeviceUse",
      "outputs": [],
      "stateMutability": "nonpayable",
      "type": "function"
    },
    {
      "inputs": [
        {
          "internalType": "address",
          "name": "_deviceOwner",
          "type": "address"
        },
        {
          "internalType": "uint256",
          "name": "_reqID",
          "type": "uint256"
        }
      ],
      "name": "ViewDeviceRequestByRequestor",
      "outputs": [
        {
          "internalType": "string",
          "name": "",
          "type": "string"
        },
        {
          "internalType": "uint256",
          "name": "",
          "type": "uint256"
        },
        {
          "internalType": "address",
          "name": "",
          "type": "address"
        },
        {
          "internalType": "bool",
          "name": "",
          "type": "bool"
        }
      ],
      "stateMutability": "view",
      "type": "function"
    },
    {
      "inputs": [
        {
          "internalType": "string",
          "name": "_description",
          "type": "string"
        },
        {
          "internalType": "uint256",
          "name": "_space",
          "type": "uint256"
        },
        {
          "internalType": "uint256",
          "name": "_hrs",
          "type": "uint256"
        },
        {
          "internalType": "uint256",
          "name": "_tokenrate",
          "type": "uint256"
        }
      ],
      "name": "addDevice",
      "outputs": [],
      "stateMutability": "nonpayable",
      "type": "function"
    },
    {
      "inputs": [
        {
          "internalType": "string",
          "name": "str1",
          "type": "string"
        },
        {
          "internalType": "string",
          "name": "str2",
          "type": "string"
        }
      ],
      "name": "compare",
      "outputs": [
        {
          "internalType": "bool",
          "name": "",
          "type": "bool"
        }
      ],
      "stateMutability": "pure",
      "type": "function"
    },
    {
      "inputs": [
        {
          "internalType": "uint256",
          "name": "",
          "type": "uint256"
        }
      ],
      "name": "deviceDetails",
      "outputs": [
        {
          "internalType": "string",
          "name": "description",
          "type": "string"
        },
        {
          "internalType": "uint256",
          "name": "space",
          "type": "uint256"
        },
        {
          "internalType": "uint256",
          "name": "hrs",
          "type": "uint256"
        },
        {
          "internalType": "uint256",
          "name": "tokenRate",
          "type": "uint256"
        },
        {
          "internalType": "uint256",
          "name": "devid",
          "type": "uint256"
        },
        {
          "internalType": "bool",
          "name": "engage",
          "type": "bool"
        },
        {
          "internalType": "address payable",
          "name": "recipient",
          "type": "address"
        },
        {
          "internalType": "uint256",
          "name": "requestorsID",
          "type": "uint256"
        },
        {
          "internalType": "uint256",
          "name": "timestamp",
          "type": "uint256"
        }
      ],
      "stateMutability": "view",
      "type": "function"
    },
    {
      "inputs": [],
      "name": "deviceID",
      "outputs": [
        {
          "internalType": "uint256",
          "name": "",
          "type": "uint256"
        }
      ],
      "stateMutability": "view",
      "type": "function"
    },
    {
      "inputs": [],
      "name": "getAllDevices",
      "outputs": [
        {
          "internalType": "string[]",
          "name": "",
          "type": "string[]"
        }
      ],
      "stateMutability": "view",
      "type": "function"
    },
    {
      "inputs": [
        {
          "internalType": "uint256",
          "name": "_deviceID",
          "type": "uint256"
        }
      ],
      "name": "getDeviceByDeviceID",
      "outputs": [
        {
          "internalType": "string",
          "name": "",
          "type": "string"
        },
        {
          "internalType": "uint256",
          "name": "",
          "type": "uint256"
        },
        {
          "internalType": "uint256",
          "name": "",
          "type": "uint256"
        },
        {
          "internalType": "uint256",
          "name": "",
          "type": "uint256"
        },
        {
          "internalType": "bool",
          "name": "",
          "type": "bool"
        }
      ],
      "stateMutability": "view",
      "type": "function"
    },
    {
      "inputs": [],
      "name": "getDeviceByProvider",
      "outputs": [
        {
          "internalType": "string[]",
          "name": "",
          "type": "string[]"
        }
      ],
      "stateMutability": "view",
      "type": "function"
    },
    {
      "inputs": [
        {
          "internalType": "address",
          "name": "",
          "type": "address"
        }
      ],
      "name": "providers",
      "outputs": [
        {
          "internalType": "address payable",
          "name": "recipient",
          "type": "address"
        }
      ],
      "stateMutability": "view",
      "type": "function"
    },
    {
      "inputs": [
        {
          "internalType": "uint256",
          "name": "_deviceID",
          "type": "uint256"
        },
        {
          "internalType": "uint256",
          "name": "_stakeId",
          "type": "uint256"
        }
      ],
      "name": "removeDevice",
      "outputs": [],
      "stateMutability": "nonpayable",
      "type": "function"
    },
    {
      "inputs": [],
      "name": "requestorID",
      "outputs": [
        {
          "internalType": "uint256",
          "name": "",
          "type": "uint256"
        }
      ],
      "stateMutability": "view",
      "type": "function"
    },
    {
      "inputs": [
        {
          "internalType": "uint256",
          "name": "",
          "type": "uint256"
        }
      ],
      "name": "requestors",
      "outputs": [
        {
          "internalType": "uint256",
          "name": "reqID",
          "type": "uint256"
        },
        {
          "internalType": "uint256",
          "name": "devID",
          "type": "uint256"
        },
        {
          "internalType": "address",
          "name": "deviceOwner",
          "type": "address"
        },
        {
          "internalType": "uint256",
          "name": "hrsStake",
          "type": "uint256"
        },
        {
          "internalType": "bool",
          "name": "engage",
          "type": "bool"
        }
      ],
      "stateMutability": "view",
      "type": "function"
    }
  ],
  "bytecode": "0x60806040523480156200001157600080fd5b5060405162002d3c38038062002d3c83398181016040528101906200003791906200016d565b81600260006101000a81548173ffffffffffffffffffffffffffffffffffffffff021916908373ffffffffffffffffffffffffffffffffffffffff16021790555033600160006101000a81548173ffffffffffffffffffffffffffffffffffffffff021916908373ffffffffffffffffffffffffffffffffffffffff160217905550806000819055505050620001b4565b600080fd5b600073ffffffffffffffffffffffffffffffffffffffff82169050919050565b6000620000fa82620000cd565b9050919050565b6200010c81620000ed565b81146200011857600080fd5b50565b6000815190506200012c8162000101565b92915050565b6000819050919050565b620001478162000132565b81146200015357600080fd5b50565b60008151905062000167816200013c565b92915050565b60008060408385031215620001875762000186620000c8565b5b600062000197858286016200011b565b9250506020620001aa8582860162000156565b9150509250929050565b612b7880620001c46000396000f3fe608060405234801561001057600080fd5b50600436106100f55760003560e01c80639c157c0f11610097578063e9bb072711610066578063e9bb07271461028e578063eac5eb72146102ac578063f82c6182146102df578063fcb9925314610317576100f5565b80639c157c0f14610204578063a898829d14610220578063b25983c81461023e578063b283039c14610272576100f5565b80633a96fdd7116100d35780633a96fdd71461017a5780636013cdc2146101aa578063771ca382146101c85780637a2a530d146101e6576100f5565b80630787bc27146100fa5780632906a0791461012a57806330bcb3111461015e575b600080fd5b610114600480360381019061010f9190611bff565b610333565b6040516101219190611c4d565b60405180910390f35b610144600480360381019061013f9190611c9e565b610371565b604051610155959493929190611d04565b60405180910390f35b61017860048036038101906101739190611d57565b6103d4565b005b610194600480360381019061018f9190611edd565b61068a565b6040516101a19190611f55565b60405180910390f35b6101b26106f6565b6040516101bf9190611f70565b60405180910390f35b6101d06106fc565b6040516101dd9190611f70565b60405180910390f35b6101ee610702565b6040516101fb91906120d5565b60405180910390f35b61021e600480360381019061021991906120f7565b6107db565b005b610228610c90565b6040516102359190611f70565b60405180910390f35b61025860048036038101906102539190611c9e565b610c96565b6040516102699594939291906121c4565b60405180910390f35b61028c60048036038101906102879190611d57565b610d7a565b005b610296611645565b6040516102a391906120d5565b60405180910390f35b6102c660048036038101906102c1919061221e565b611764565b6040516102d6949392919061225e565b60405180910390f35b6102f960048036038101906102f49190611c9e565b611857565b60405161030e999897969594939291906122aa565b60405180910390f35b610331600480360381019061032c9190611c9e565b61195a565b005b60036020528060005260406000206000915090508060060160009054906101000a900473ffffffffffffffffffffffffffffffffffffffff16905081565b600b6020528060005260406000206000915090508060000154908060010154908060020160009054906101000a900473ffffffffffffffffffffffffffffffffffffffff16908060030154908060040160009054906101000a900460ff16905085565b6000600460008481526020019081526020016000209050600015158160050160009054906101000a900460ff16151514610443576040517f08c379a000000000000000000000000000000000000000000000000000000000815260040161043a9061238a565b60405180910390fd5b600c60008154610452906123d9565b919050819055506000600b6000600c5481526020019081526020016000209050600c5481600001819055508381600101819055508160050160019054906101000a900473ffffffffffffffffffffffffffffffffffffffff168160020160006101000a81548173ffffffffffffffffffffffffffffffffffffffff021916908373ffffffffffffffffffffffffffffffffffffffff16021790555082816003018190555060008160040160006101000a81548160ff021916908315150217905550600d849080600181540180825580915050600190039060005260206000200160009091909190915055600d839080600181540180825580915050600190039060005260206000200160009091909190915055600260009054906101000a900473ffffffffffffffffffffffffffffffffffffffff1673ffffffffffffffffffffffffffffffffffffffff166323b872dd33308560030154876105b59190612421565b6040518463ffffffff1660e01b81526004016105d39392919061247b565b6020604051808303816000875af11580156105f2573d6000803e3d6000fd5b505050506040513d601f19601f8201168201806040525081019061061691906124de565b610655576040517f08c379a000000000000000000000000000000000000000000000000000000000815260040161064c90612557565b60405180910390fd5b600c547f1241757208f08d63f291d85cafba51f9c01fc80b77f21fb69b4b7ce9908b9a0e60405160405180910390a250505050565b6000815183511461069e57600090506106f0565b816040516020016106af91906125b3565b60405160208183030381529060405280519060200120836040516020016106d691906125b3565b604051602081830303815290604052805190602001201490505b92915050565b60055481565b600c5481565b6060600a805480602002602001604051908101604052809291908181526020016000905b828210156107d2578382906000526020600020018054610745906125f9565b80601f0160208091040260200160405190810160405280929190818152602001828054610771906125f9565b80156107be5780601f10610793576101008083540402835291602001916107be565b820191906000526020600020905b8154815290600101906020018083116107a157829003601f168201915b505050505081526020019060010190610726565b50505050905090565b6000600360003373ffffffffffffffffffffffffffffffffffffffff1673ffffffffffffffffffffffffffffffffffffffff1681526020019081526020016000209050806000018590806001815401808255809150506001900390600052602060002001600090919091909150908161085491906127d6565b50806001018490806001815401808255809150506001900390600052602060002001600090919091909150558060020183908060018154018082558091505060019003906000526020600020016000909190919091505580600501600090806001815401808255809150506001900390600052602060002090602091828204019190069091909190916101000a81548160ff021916908315150217905550338160060160006101000a81548173ffffffffffffffffffffffffffffffffffffffff021916908373ffffffffffffffffffffffffffffffffffffffff16021790555080600301829080600181540180825580915050600190039060005260206000200160009091909190915055600a8590806001815401808255809150506001900390600052602060002001600090919091909150908161099491906127d6565b506005600081546109a4906123d9565b9190508190555060006004600060055481526020019081526020016000209050858160000190816109d591906127d6565b5084816001018190555083816002018190555060008160050160006101000a81548160ff021916908315150217905550338160050160016101000a81548173ffffffffffffffffffffffffffffffffffffffff021916908373ffffffffffffffffffffffffffffffffffffffff1602179055506005548160040181905550828160030181905550816004016005549080600181540180825580915050600190039060005260206000200160009091909190915055600260009054906101000a900473ffffffffffffffffffffffffffffffffffffffff1673ffffffffffffffffffffffffffffffffffffffff166323b872dd33306000546040518463ffffffff1660e01b8152600401610aea9392919061247b565b6020604051808303816000875af1158015610b09573d6000803e3d6000fd5b505050506040513d601f19601f82011682018060405250810190610b2d91906124de565b610b6c576040517f08c379a0000000000000000000000000000000000000000000000000000000008152600401610b63906128f4565b60405180910390fd5b600760003373ffffffffffffffffffffffffffffffffffffffff1673ffffffffffffffffffffffffffffffffffffffff16815260200190815260200160002060008154610bb8906123d9565b91905081905560068190555060405180606001604052806006548152602001600054815260200142815250600960003373ffffffffffffffffffffffffffffffffffffffff1673ffffffffffffffffffffffffffffffffffffffff168152602001908152602001600020600060065481526020019081526020016000206000820151816000015560208201518160010155604082015181600201559050506006546005547fcffe835d53f1df94a8e4b883a1dae322a201c0ea7dd2d945f2c8508b258a1c3360405160405180910390a3505050505050565b60005481565b60606000806000806000600460008881526020019081526020016000209050806000018160020154826001015483600301548460050160009054906101000a900460ff16848054610ce6906125f9565b80601f0160208091040260200160405190810160405280929190818152602001828054610d12906125f9565b8015610d5f5780601f10610d3457610100808354040283529160200191610d5f565b820191906000526020600020905b815481529060010190602001808311610d4257829003601f168201915b50505050509450955095509550955095505091939590929450565b6000600760003373ffffffffffffffffffffffffffffffffffffffff1673ffffffffffffffffffffffffffffffffffffffff1681526020019081526020016000205411610dfc576040517f08c379a0000000000000000000000000000000000000000000000000000000008152600401610df390612960565b60405180910390fd5b600960003373ffffffffffffffffffffffffffffffffffffffff1673ffffffffffffffffffffffffffffffffffffffff1681526020019081526020016000206000828152602001908152602001600020600201544211610e91576040517f08c379a0000000000000000000000000000000000000000000000000000000008152600401610e88906129cc565b60405180910390fd5b6000600960003373ffffffffffffffffffffffffffffffffffffffff1673ffffffffffffffffffffffffffffffffffffffff16815260200190815260200160002060008381526020019081526020016000206001015411610f27576040517f08c379a0000000000000000000000000000000000000000000000000000000008152600401610f1e90612a38565b60405180910390fd5b6000600460008481526020019081526020016000209050600015158160050160009054906101000a900460ff16151514610f96576040517f08c379a0000000000000000000000000000000000000000000000000000000008152600401610f8d9061238a565b60405180910390fd5b60005b600a805490508110156111315760006110e4836000018054610fba906125f9565b80601f0160208091040260200160405190810160405280929190818152602001828054610fe6906125f9565b80156110335780601f1061100857610100808354040283529160200191611033565b820191906000526020600020905b81548152906001019060200180831161101657829003601f168201915b5050505050600a848154811061104c5761104b612a58565b5b906000526020600020018054611061906125f9565b80601f016020809104026020016040519081016040528092919081815260200182805461108d906125f9565b80156110da5780601f106110af576101008083540402835291602001916110da565b820191906000526020600020905b8154815290600101906020018083116110bd57829003601f168201915b505050505061068a565b9050600115158115150361111d57600a828154811061110657611105612a58565b5b90600052602060002001600061111c9190611b30565b5b508080611129906123d9565b915050610f99565b506000600360008360050160019054906101000a900473ffffffffffffffffffffffffffffffffffffffff1673ffffffffffffffffffffffffffffffffffffffff1673ffffffffffffffffffffffffffffffffffffffff168152602001908152602001600020905060005b81600001805490508110156114275760006112eb8460000180546111bf906125f9565b80601f01602080910402602001604051908101604052809291908181526020018280546111eb906125f9565b80156112385780601f1061120d57610100808354040283529160200191611238565b820191906000526020600020905b81548152906001019060200180831161121b57829003601f168201915b505050505084600001848154811061125357611252612a58565b5b906000526020600020018054611268906125f9565b80601f0160208091040260200160405190810160405280929190818152602001828054611294906125f9565b80156112e15780601f106112b6576101008083540402835291602001916112e1565b820191906000526020600020905b8154815290600101906020018083116112c457829003601f168201915b505050505061068a565b90506001151581151503611413576040518060400160405280600181526020017f200000000000000000000000000000000000000000000000000000000000000081525083600001838154811061134557611344612a58565b5b90600052602060002001908161135b91906127d6565b50600083600201838154811061137457611373612a58565b5b906000526020600020018190555060008360060160006101000a81548173ffffffffffffffffffffffffffffffffffffffff021916908373ffffffffffffffffffffffffffffffffffffffff16021790555060008360010183815481106113de576113dd612a58565b5b9060005260206000200181905550600083600301838154811061140457611403612a58565b5b90600052602060002001819055505b50808061141f906123d9565b91505061119c565b506040518060400160405280600181526020017f200000000000000000000000000000000000000000000000000000000000000081525082600001908161146e91906127d6565b506000826002018190555060008260050160016101000a81548173ffffffffffffffffffffffffffffffffffffffff021916908373ffffffffffffffffffffffffffffffffffffffff1602179055506000826001018190555060008260030181905550600260009054906101000a900473ffffffffffffffffffffffffffffffffffffffff1673ffffffffffffffffffffffffffffffffffffffff1663a9059cbb336000546040518363ffffffff1660e01b8152600401611530929190612a87565b6020604051808303816000875af115801561154f573d6000803e3d6000fd5b505050506040513d601f19601f8201168201806040525081019061157391906124de565b6115b2576040517f08c379a00000000000000000000000000000000000000000000000000000000081526004016115a9906128f4565b60405180910390fd5b60405180606001604052808481526020016000815260200142815250600960003373ffffffffffffffffffffffffffffffffffffffff1673ffffffffffffffffffffffffffffffffffffffff168152602001908152602001600020600085815260200190815260200160002060008201518160000155602082015181600101556040820151816002015590505050505050565b60606000600360003373ffffffffffffffffffffffffffffffffffffffff1673ffffffffffffffffffffffffffffffffffffffff168152602001908152602001600020905080600001805480602002602001604051908101604052809291908181526020016000905b8282101561175a5783829060005260206000200180546116cd906125f9565b80601f01602080910402602001604051908101604052809291908181526020018280546116f9906125f9565b80156117465780601f1061171b57610100808354040283529160200191611746565b820191906000526020600020905b81548152906001019060200180831161172957829003601f168201915b5050505050815260200190600101906116ae565b5050505091505090565b6060600080600080600b60008781526020019081526020016000209050600060046000836001015481526020019081526020016000209050806000018260030154898460040160009054906101000a900460ff168380546117c4906125f9565b80601f01602080910402602001604051908101604052809291908181526020018280546117f0906125f9565b801561183d5780601f106118125761010080835404028352916020019161183d565b820191906000526020600020905b81548152906001019060200180831161182057829003601f168201915b505050505093509550955095509550505092959194509250565b600460205280600052604060002060009150905080600001805461187a906125f9565b80601f01602080910402602001604051908101604052809291908181526020018280546118a6906125f9565b80156118f35780601f106118c8576101008083540402835291602001916118f3565b820191906000526020600020905b8154815290600101906020018083116118d657829003601f168201915b5050505050908060010154908060020154908060030154908060040154908060050160009054906101000a900460ff16908060050160019054906101000a900473ffffffffffffffffffffffffffffffffffffffff16908060060154908060070154905089565b6000600360003373ffffffffffffffffffffffffffffffffffffffff1673ffffffffffffffffffffffffffffffffffffffff16815260200190815260200160002090506000600b6000848152602001908152602001600020905060005b8260040180549050811015611adf5781600101548360040182815481106119e1576119e0612a58565b5b906000526020600020015403611acc5760001515836005018281548110611a0b57611a0a612a58565b5b90600052602060002090602091828204019190069054906101000a900460ff16151514611a6d576040517f08c379a0000000000000000000000000000000000000000000000000000000008152600401611a6490612b22565b60405180910390fd5b6001836005018281548110611a8557611a84612a58565b5b90600052602060002090602091828204019190066101000a81548160ff02191690831515021790555060018260040160006101000a81548160ff0219169083151502179055505b8080611ad7906123d9565b9150506119b7565b5060006004600083600101548152602001908152602001600020905083816006018190555042816007018190555060018160050160006101000a81548160ff02191690831515021790555050505050565b508054611b3c906125f9565b6000825580601f10611b4e5750611b6d565b601f016020900490600052602060002090810190611b6c9190611b70565b5b50565b5b80821115611b89576000816000905550600101611b71565b5090565b6000604051905090565b600080fd5b600080fd5b600073ffffffffffffffffffffffffffffffffffffffff82169050919050565b6000611bcc82611ba1565b9050919050565b611bdc81611bc1565b8114611be757600080fd5b50565b600081359050611bf981611bd3565b92915050565b600060208284031215611c1557611c14611b97565b5b6000611c2384828501611bea565b91505092915050565b6000611c3782611ba1565b9050919050565b611c4781611c2c565b82525050565b6000602082019050611c626000830184611c3e565b92915050565b6000819050919050565b611c7b81611c68565b8114611c8657600080fd5b50565b600081359050611c9881611c72565b92915050565b600060208284031215611cb457611cb3611b97565b5b6000611cc284828501611c89565b91505092915050565b611cd481611c68565b82525050565b611ce381611bc1565b82525050565b60008115159050919050565b611cfe81611ce9565b82525050565b600060a082019050611d196000830188611ccb565b611d266020830187611ccb565b611d336040830186611cda565b611d406060830185611ccb565b611d4d6080830184611cf5565b9695505050505050565b60008060408385031215611d6e57611d6d611b97565b5b6000611d7c85828601611c89565b9250506020611d8d85828601611c89565b9150509250929050565b600080fd5b600080fd5b6000601f19601f8301169050919050565b7f4e487b7100000000000000000000000000000000000000000000000000000000600052604160045260246000fd5b611dea82611da1565b810181811067ffffffffffffffff82111715611e0957611e08611db2565b5b80604052505050565b6000611e1c611b8d565b9050611e288282611de1565b919050565b600067ffffffffffffffff821115611e4857611e47611db2565b5b611e5182611da1565b9050602081019050919050565b82818337600083830152505050565b6000611e80611e7b84611e2d565b611e12565b905082815260208101848484011115611e9c57611e9b611d9c565b5b611ea7848285611e5e565b509392505050565b600082601f830112611ec457611ec3611d97565b5b8135611ed4848260208601611e6d565b91505092915050565b60008060408385031215611ef457611ef3611b97565b5b600083013567ffffffffffffffff811115611f1257611f11611b9c565b5b611f1e85828601611eaf565b925050602083013567ffffffffffffffff811115611f3f57611f3e611b9c565b5b611f4b85828601611eaf565b9150509250929050565b6000602082019050611f6a6000830184611cf5565b92915050565b6000602082019050611f856000830184611ccb565b92915050565b600081519050919050565b600082825260208201905092915050565b6000819050602082019050919050565b600081519050919050565b600082825260208201905092915050565b60005b83811015611ff1578082015181840152602081019050611fd6565b83811115612000576000848401525b50505050565b600061201182611fb7565b61201b8185611fc2565b935061202b818560208601611fd3565b61203481611da1565b840191505092915050565b600061204b8383612006565b905092915050565b6000602082019050919050565b600061206b82611f8b565b6120758185611f96565b93508360208202850161208785611fa7565b8060005b858110156120c357848403895281516120a4858261203f565b94506120af83612053565b925060208a0199505060018101905061208b565b50829750879550505050505092915050565b600060208201905081810360008301526120ef8184612060565b905092915050565b6000806000806080858703121561211157612110611b97565b5b600085013567ffffffffffffffff81111561212f5761212e611b9c565b5b61213b87828801611eaf565b945050602061214c87828801611c89565b935050604061215d87828801611c89565b925050606061216e87828801611c89565b91505092959194509250565b600082825260208201905092915050565b600061219682611fb7565b6121a0818561217a565b93506121b0818560208601611fd3565b6121b981611da1565b840191505092915050565b600060a08201905081810360008301526121de818861218b565b90506121ed6020830187611ccb565b6121fa6040830186611ccb565b6122076060830185611ccb565b6122146080830184611cf5565b9695505050505050565b6000806040838503121561223557612234611b97565b5b600061224385828601611bea565b925050602061225485828601611c89565b9150509250929050565b60006080820190508181036000830152612278818761218b565b90506122876020830186611ccb565b6122946040830185611cda565b6122a16060830184611cf5565b95945050505050565b60006101208201905081810360008301526122c5818c61218b565b90506122d4602083018b611ccb565b6122e1604083018a611ccb565b6122ee6060830189611ccb565b6122fb6080830188611ccb565b61230860a0830187611cf5565b61231560c0830186611c3e565b61232260e0830185611ccb565b612330610100830184611ccb565b9a9950505050505050505050565b7f5468652064657669636520697320616c726561647920656e6761676564000000600082015250565b6000612374601d8361217a565b915061237f8261233e565b602082019050919050565b600060208201905081810360008301526123a381612367565b9050919050565b7f4e487b7100000000000000000000000000000000000000000000000000000000600052601160045260246000fd5b60006123e482611c68565b91507fffffffffffffffffffffffffffffffffffffffffffffffffffffffffffffffff8203612416576124156123aa565b5b600182019050919050565b600061242c82611c68565b915061243783611c68565b9250817fffffffffffffffffffffffffffffffffffffffffffffffffffffffffffffffff04831182151516156124705761246f6123aa565b5b828202905092915050565b60006060820190506124906000830186611cda565b61249d6020830185611cda565b6124aa6040830184611ccb565b949350505050565b6124bb81611ce9565b81146124c657600080fd5b50565b6000815190506124d8816124b2565b92915050565b6000602082840312156124f4576124f3611b97565b5b6000612502848285016124c9565b91505092915050565b7f5472616e73666572206661696c65640000000000000000000000000000000000600082015250565b6000612541600f8361217a565b915061254c8261250b565b602082019050919050565b6000602082019050818103600083015261257081612534565b9050919050565b600081905092915050565b600061258d82611fb7565b6125978185612577565b93506125a7818560208601611fd3565b80840191505092915050565b60006125bf8284612582565b915081905092915050565b7f4e487b7100000000000000000000000000000000000000000000000000000000600052602260045260246000fd5b6000600282049050600182168061261157607f821691505b602082108103612624576126236125ca565b5b50919050565b60008190508160005260206000209050919050565b60006020601f8301049050919050565b600082821b905092915050565b60006008830261268c7fffffffffffffffffffffffffffffffffffffffffffffffffffffffffffffffff8261264f565b612696868361264f565b95508019841693508086168417925050509392505050565b6000819050919050565b60006126d36126ce6126c984611c68565b6126ae565b611c68565b9050919050565b6000819050919050565b6126ed836126b8565b6127016126f9826126da565b84845461265c565b825550505050565b600090565b612716612709565b6127218184846126e4565b505050565b5b818110156127455761273a60008261270e565b600181019050612727565b5050565b601f82111561278a5761275b8161262a565b6127648461263f565b81016020851015612773578190505b61278761277f8561263f565b830182612726565b50505b505050565b600082821c905092915050565b60006127ad6000198460080261278f565b1980831691505092915050565b60006127c6838361279c565b9150826002028217905092915050565b6127df82611fb7565b67ffffffffffffffff8111156127f8576127f7611db2565b5b61280282546125f9565b61280d828285612749565b600060209050601f831160018114612840576000841561282e578287015190505b61283885826127ba565b8655506128a0565b601f19841661284e8661262a565b60005b8281101561287657848901518255600182019150602085019450602081019050612851565b86831015612893578489015161288f601f89168261279c565b8355505b6001600288020188555050505b505050505050565b7f5374616b65207472616e73666572206661696c65640000000000000000000000600082015250565b60006128de60158361217a565b91506128e9826128a8565b602082019050919050565b6000602082019050818103600083015261290d816128d1565b9050919050565b7f4e6f207374616b6520666f756e64000000000000000000000000000000000000600082015250565b600061294a600e8361217a565b915061295582612914565b602082019050919050565b600060208201905081810360008301526129798161293d565b9050919050565b7f54696d6520706572696f6420686173206e6f7420656c61707365642e00000000600082015250565b60006129b6601c8361217a565b91506129c182612980565b602082019050919050565b600060208201905081810360008301526129e5816129a9565b9050919050565b7f52657761726420616c726564792077697468647261776e000000000000000000600082015250565b6000612a2260178361217a565b9150612a2d826129ec565b602082019050919050565b60006020820190508181036000830152612a5181612a15565b9050919050565b7f4e487b7100000000000000000000000000000000000000000000000000000000600052603260045260246000fd5b6000604082019050612a9c6000830185611cda565b612aa96020830184611ccb565b9392505050565b7f5468652070726f766964657220697320616c726561647920627573792c206e6f60008201527f207265736f757263657320617661696c61626c652e0000000000000000000000602082015250565b6000612b0c60358361217a565b9150612b1782612ab0565b604082019050919050565b60006020820190508181036000830152612b3b81612aff565b905091905056fea2646970667358221220940a00f52357f866e393d72361354c8b0a9843cd944ba60b5628b7713cdd1b1f64736f6c634300080f0033",
  "linkReferences": {},
  "deployedLinkReferences": {}
}