{"contracts/FileShare.sol":{"FileShare":{"abi":[{"inputs":[{"internalType":"address","name":"tokenAddress","type":"address"},{"internalType":"uint256","name":"_FIXED_STAKE","type":"uint256"},{"internalType":"uint256","name":"_REWARD_PER_HOUR","type":"uint256"}],"stateMutability":"nonpayable","type":"constructor"},{"inputs":[],"name":"FIXED_STAKE","outputs":[{"internalType":"uint256","name":"","type":"uint256"}],"stateMutability":"view","type":"function"},{"inputs":[],"name":"ProId","outputs":[{"internalType":"uint256","name":"","type":"uint256"}],"stateMutability":"view","type":"function"},{"inputs":[],"name":"REWARD_PER_HOUR","outputs":[{"internalType":"uint256","name":"","type":"uint256"}],"stateMutability":"view","type":"function"},{"inputs":[],"name":"ReqId","outputs":[{"internalType":"uint256","name":"","type":"uint256"}],"stateMutability":"view","type":"function"},{"inputs":[{"internalType":"uint256","name":"_proId","type":"uint256"},{"internalType":"uint256","name":"_newDeviceId","type":"uint256"},{"internalType":"uint256","name":"_newspace","type":"uint256"},{"internalType":"string","name":"_newDescription","type":"string"}],"name":"addDevicesByProvider","outputs":[],"stateMutability":"nonpayable","type":"function"},{"inputs":[],"name":"approval","outputs":[{"internalType":"bool","name":"","type":"bool"}],"stateMutability":"pure","type":"function"},{"inputs":[{"internalType":"address","name":"_provider","type":"address"},{"internalType":"uint256","name":"_stakeId","type":"uint256"}],"name":"calRewardPerDevice","outputs":[{"internalType":"uint256","name":"","type":"uint256"}],"stateMutability":"view","type":"function"},{"inputs":[{"internalType":"string","name":"str1","type":"string"},{"internalType":"string","name":"str2","type":"string"}],"name":"compare","outputs":[{"internalType":"bool","name":"","type":"bool"}],"stateMutability":"pure","type":"function"},{"inputs":[],"name":"count","outputs":[{"internalType":"uint256","name":"","type":"uint256"}],"stateMutability":"view","type":"function"},{"inputs":[{"internalType":"string","name":"_description","type":"string"},{"internalType":"uint256","name":"_deviceId","type":"uint256"},{"internalType":"uint256","name":"_space","type":"uint256"},{"internalType":"uint256","name":"_hours","type":"uint256"}],"name":"createProvide","outputs":[],"stateMutability":"payable","type":"function"},{"inputs":[{"internalType":"uint256","name":"_proId","type":"uint256"},{"internalType":"uint256","name":"_stakeId","type":"uint256"},{"internalType":"uint256","name":"amount","type":"uint256"},{"internalType":"uint256","name":"devId","type":"uint256"}],"name":"finishUseByProvider","outputs":[],"stateMutability":"nonpayable","type":"function"},{"inputs":[{"internalType":"uint256","name":"_proIdAvailable","type":"uint256"}],"name":"getAllAvailableDevices","outputs":[{"internalType":"string[]","name":"availableDevices","type":"string[]"}],"stateMutability":"view","type":"function"},{"inputs":[{"internalType":"uint256","name":"_proId","type":"uint256"},{"internalType":"uint256","name":"_spaceReq","type":"uint256"},{"internalType":"string","name":"_deviceDespReq","type":"string"},{"internalType":"uint256","name":"_deviceIdReq","type":"uint256"},{"internalType":"uint256","name":"_timeReq","type":"uint256"}],"name":"makeRequestToProvider","outputs":[],"stateMutability":"nonpayable","type":"function"},{"inputs":[{"internalType":"uint256","name":"","type":"uint256"}],"name":"providers","outputs":[{"internalType":"uint256","name":"id","type":"uint256"},{"internalType":"address payable","name":"recipient","type":"address"},{"internalType":"uint256","name":"timestamp","type":"uint256"}],"stateMutability":"view","type":"function"},{"inputs":[{"internalType":"uint256","name":"","type":"uint256"}],"name":"requests","outputs":[{"internalType":"string","name":"devName","type":"string"},{"internalType":"address","name":"providerAddress","type":"address"},{"internalType":"uint256","name":"needIdDevice","type":"uint256"},{"internalType":"uint256","name":"deviceProId","type":"uint256"},{"internalType":"uint256","name":"timeReq","type":"uint256"}],"stateMutability":"view","type":"function"}],"evm":{"bytecode":{"linkReferences":{},"object":"60806040523480156200001157600080fd5b506040516200298938038062002989833981810160405281019062000037919062000175565b82600360006101000a81548173ffffffffffffffffffffffffffffffffffffffff021916908373ffffffffffffffffffffffffffffffffffffffff16021790555033600260006101000a81548173ffffffffffffffffffffffffffffffffffffffff021916908373ffffffffffffffffffffffffffffffffffffffff1602179055508160008190555080600181905550505050620001d1565b600080fd5b600073ffffffffffffffffffffffffffffffffffffffff82169050919050565b60006200010282620000d5565b9050919050565b6200011481620000f5565b81146200012057600080fd5b50565b600081519050620001348162000109565b92915050565b6000819050919050565b6200014f816200013a565b81146200015b57600080fd5b50565b6000815190506200016f8162000144565b92915050565b600080600060608486031215620001915762000190620000d0565b5b6000620001a18682870162000123565b9350506020620001b4868287016200015e565b9250506040620001c7868287016200015e565b9150509250925092565b6127a880620001e16000396000f3fe6080604052600436106100e85760003560e01c806350f3fc811161008a57806373e2d2291161005957806373e2d229146102f85780637962cb981461033557806381d12c5814610351578063a898829d14610392576100e8565b806350f3fc811461023c578063561a72be1461027b578063623be092146102a457806363882f9a146102cf576100e8565b80631dee21e9116100c65780631dee21e91461017e578063382926c3146101a957806339788bc8146101d45780633a96fdd7146101ff576100e8565b806306661abd146100ed57806309b0d43c146101185780630c584f8314610155575b600080fd5b3480156100f957600080fd5b506101026103bd565b60405161010f919061153c565b60405180910390f35b34801561012457600080fd5b5061013f600480360381019061013a9190611597565b6103c3565b60405161014c9190611716565b60405180910390f35b34801561016157600080fd5b5061017c6004803603810190610177919061186d565b610523565b005b34801561018a57600080fd5b50610193610715565b6040516101a0919061153c565b60405180910390f35b3480156101b557600080fd5b506101be61071b565b6040516101cb919061153c565b60405180910390f35b3480156101e057600080fd5b506101e9610721565b6040516101f6919061190b565b60405180910390f35b34801561020b57600080fd5b5061022660048036038101906102219190611926565b61072a565b604051610233919061190b565b60405180910390f35b34801561024857600080fd5b50610263600480360381019061025e9190611597565b610796565b604051610272939291906119df565b60405180910390f35b34801561028757600080fd5b506102a2600480360381019061029d9190611a76565b6107e0565b005b3480156102b057600080fd5b506102b9610bfc565b6040516102c6919061153c565b60405180910390f35b3480156102db57600080fd5b506102f660048036038101906102f19190611b10565b610c02565b005b34801561030457600080fd5b5061031f600480360381019061031a9190611bb5565b610ffa565b60405161032c919061153c565b60405180910390f35b61034f600480360381019061034a9190611bf5565b6110ed565b005b34801561035d57600080fd5b5061037860048036038101906103739190611597565b61143f565b604051610389959493929190611cd1565b60405180910390f35b34801561039e57600080fd5b506103a761151d565b6040516103b4919061153c565b60405180910390f35b60085481565b60606000600660008481526020019081526020016000209050600080600090505b826000018054905081101561051b576000151583600701828154811061040d5761040c611d2b565b5b90600052602060002090602091828204019190069054906101000a900460ff161515036105085782600001818154811061044a57610449611d2b565b5b90600052602060002001805461045f90611d89565b80601f016020809104026020016040519081016040528092919081815260200182805461048b90611d89565b80156104d85780601f106104ad576101008083540402835291602001916104d8565b820191906000526020600020905b8154815290600101906020018083116104bb57829003601f168201915b50505050508483815181106104f0576104ef611d2b565b5b60200260200101819052508161050590611de9565b91505b808061051390611de9565b9150506103e4565b505050919050565b600060066000868152602001908152602001600020905060086000815461054990611de9565b9190508190555080600001829080600181540180825580915050600190039060005260206000200160009091909190915090816105869190611fdd565b50806001018490806001815401808255809150506001900390600052602060002001600090919091909150558060040183908060018154018082558091505060019003906000526020600020016000909190919091505580600701600090806001815401808255809150506001900390600052602060002090602091828204019190069091909190916101000a81548160ff021916908315150217905550600a60003373ffffffffffffffffffffffffffffffffffffffff1673ffffffffffffffffffffffffffffffffffffffff1681526020019081526020016000206000815461067090611de9565b91905081905560098190555060405180606001604052806009548152602001600054815260200142815250600c60003373ffffffffffffffffffffffffffffffffffffffff1673ffffffffffffffffffffffffffffffffffffffff168152602001908152602001600020600060095481526020019081526020016000206000820151816000015560208201518160010155604082015181600201559050505050505050565b60055481565b60015481565b60006001905090565b6000815183511461073e5760009050610790565b8160405160200161074f91906120eb565b604051602081830303815290604052805190602001208360405160200161077691906120eb565b604051602081830303815290604052805190602001201490505b92915050565b60066020528060005260406000206000915090508060020154908060030160009054906101000a900473ffffffffffffffffffffffffffffffffffffffff16908060060154905083565b60006006600088815260200190815260200160002090506000808260000182815481106108105761080f611d2b565b5b906000526020600020019050600091505b8260000180549050821015610bf15761090781805461083f90611d89565b80601f016020809104026020016040519081016040528092919081815260200182805461086b90611d89565b80156108b85780601f1061088d576101008083540402835291602001916108b8565b820191906000526020600020905b81548152906001019060200180831161089b57829003601f168201915b505050505088888080601f016020809104026020016040519081016040528093929190818152602001838380828437600081840152601f19601f8201169050808301925050505050505061072a565b15610bde578783600401838154811061092357610922611d2b565b5b9060005260206000200154101561096f576040517f08c379a000000000000000000000000000000000000000000000000000000000815260040161096690612174565b60405180910390fd5b8383600501838154811061098657610985611d2b565b5b906000526020600020015410156109d2576040517f08c379a00000000000000000000000000000000000000000000000000000000081526004016109c990612206565b60405180910390fd5b848360010183815481106109e9576109e8611d2b565b5b90600052602060002001541015610a35576040517f08c379a0000000000000000000000000000000000000000000000000000000008152600401610a2c90612272565b60405180910390fd5b60001515836007018381548110610a4f57610a4e611d2b565b5b90600052602060002090602091828204019190069054906101000a900460ff16151514610ab1576040517f08c379a0000000000000000000000000000000000000000000000000000000008152600401610aa890612304565b60405180910390fd5b6000610abb610721565b90506001151581151503610bdc576001846007018481548110610ae157610ae0611d2b565b5b90600052602060002090602091828204019190066101000a81548160ff0219169083151502179055504284600601819055506000600460006005548152602001908152602001600020905060056000815480929190610b3f90611de9565b91905055508888826000019182610b5792919061232f565b508460030160009054906101000a900473ffffffffffffffffffffffffffffffffffffffff168160010160006101000a81548173ffffffffffffffffffffffffffffffffffffffff021916908373ffffffffffffffffffffffffffffffffffffffff1602179055508681600201819055508a8160030181905550858160040181905550505b505b8180610be990611de9565b925050610821565b505050505050505050565b60075481565b6000600a60003373ffffffffffffffffffffffffffffffffffffffff1673ffffffffffffffffffffffffffffffffffffffff1681526020019081526020016000205411610c84576040517f08c379a0000000000000000000000000000000000000000000000000000000008152600401610c7b9061244b565b60405180910390fd5b600c60003373ffffffffffffffffffffffffffffffffffffffff1673ffffffffffffffffffffffffffffffffffffffff1681526020019081526020016000206000848152602001908152602001600020600201544211610d19576040517f08c379a0000000000000000000000000000000000000000000000000000000008152600401610d10906124b7565b60405180910390fd5b600060066000868152602001908152602001600020905060005b8160010180549050811015610dbe5782826001018281548110610d5957610d58611d2b565b5b906000526020600020015403610dab576000826007018281548110610d8157610d80611d2b565b5b90600052602060002090602091828204019190066101000a81548160ff0219169083151502179055505b8080610db690611de9565b915050610d33565b6000610dca3387610ffa565b905080600b60003373ffffffffffffffffffffffffffffffffffffffff1673ffffffffffffffffffffffffffffffffffffffff1681526020019081526020016000206000828254610e1b91906124d7565b92505081905550600085600c60003373ffffffffffffffffffffffffffffffffffffffff1673ffffffffffffffffffffffffffffffffffffffff168152602001908152602001600020600089815260200190815260200160002060010154610e83919061250b565b9050604051806060016040528088815260200182815260200142815250600c60003373ffffffffffffffffffffffffffffffffffffffff1673ffffffffffffffffffffffffffffffffffffffff1681526020019081526020016000206000898152602001908152602001600020600082015181600001556020820151816001015560408201518160020155905050600360009054906101000a900473ffffffffffffffffffffffffffffffffffffffff1673ffffffffffffffffffffffffffffffffffffffff1663a9059cbb33886040518363ffffffff1660e01b8152600401610f6e92919061253f565b6020604051808303816000875af1158015610f8d573d6000803e3d6000fd5b505050506040513d601f19601f82011682018060405250810190610fb19190612594565b610ff0576040517f08c379a0000000000000000000000000000000000000000000000000000000008152600401610fe79061260d565b60405180910390fd5b5050505050505050565b600080600c60008573ffffffffffffffffffffffffffffffffffffffff1673ffffffffffffffffffffffffffffffffffffffff16815260200190815260200160002060008481526020019081526020016000206001015490506000600c60008673ffffffffffffffffffffffffffffffffffffffff1673ffffffffffffffffffffffffffffffffffffffff1681526020019081526020016000206000858152602001908152602001600020600201549050600081426110b9919061250b565b90506301e1338060646110cc919061262d565b81846110d8919061262d565b6110e2919061269e565b935050505092915050565b600060066000600754815260200190815260200160002090506007600081548092919061111990611de9565b9190505550600360009054906101000a900473ffffffffffffffffffffffffffffffffffffffff1673ffffffffffffffffffffffffffffffffffffffff166323b872dd33306000546040518463ffffffff1660e01b815260040161117f939291906126cf565b6020604051808303816000875af115801561119e573d6000803e3d6000fd5b505050506040513d601f19601f820116820180604052508101906111c29190612594565b611201576040517f08c379a00000000000000000000000000000000000000000000000000000000081526004016111f890612752565b60405180910390fd5b80600001859080600181540180825580915050600190039060005260206000200160009091909190915090816112379190611fdd565b5080600101849080600181540180825580915050600190039060005260206000200160009091909190915055338160030160006101000a81548173ffffffffffffffffffffffffffffffffffffffff021916908373ffffffffffffffffffffffffffffffffffffffff160217905550806004018390806001815401808255809150506001900390600052602060002001600090919091909150558060050182908060018154018082558091505060019003906000526020600020016000909190919091505580600701600090806001815401808255809150506001900390600052602060002090602091828204019190069091909190916101000a81548160ff0219169083151502179055506007548160020181905550600a60003373ffffffffffffffffffffffffffffffffffffffff1673ffffffffffffffffffffffffffffffffffffffff1681526020019081526020016000206000815461139a90611de9565b91905081905560098190555060405180606001604052806009548152602001600054815260200142815250600c60003373ffffffffffffffffffffffffffffffffffffffff1673ffffffffffffffffffffffffffffffffffffffff168152602001908152602001600020600060095481526020019081526020016000206000820151816000015560208201518160010155604082015181600201559050505050505050565b600460205280600052604060002060009150905080600001805461146290611d89565b80601f016020809104026020016040519081016040528092919081815260200182805461148e90611d89565b80156114db5780601f106114b0576101008083540402835291602001916114db565b820191906000526020600020905b8154815290600101906020018083116114be57829003601f168201915b5050505050908060010160009054906101000a900473ffffffffffffffffffffffffffffffffffffffff16908060020154908060030154908060040154905085565b60005481565b6000819050919050565b61153681611523565b82525050565b6000602082019050611551600083018461152d565b92915050565b6000604051905090565b600080fd5b600080fd5b61157481611523565b811461157f57600080fd5b50565b6000813590506115918161156b565b92915050565b6000602082840312156115ad576115ac611561565b5b60006115bb84828501611582565b91505092915050565b600081519050919050565b600082825260208201905092915050565b6000819050602082019050919050565b600081519050919050565b600082825260208201905092915050565b60005b8381101561162a57808201518184015260208101905061160f565b60008484015250505050565b6000601f19601f8301169050919050565b6000611652826115f0565b61165c81856115fb565b935061166c81856020860161160c565b61167581611636565b840191505092915050565b600061168c8383611647565b905092915050565b6000602082019050919050565b60006116ac826115c4565b6116b681856115cf565b9350836020820285016116c8856115e0565b8060005b8581101561170457848403895281516116e58582611680565b94506116f083611694565b925060208a019950506001810190506116cc565b50829750879550505050505092915050565b6000602082019050818103600083015261173081846116a1565b905092915050565b600080fd5b600080fd5b7f4e487b7100000000000000000000000000000000000000000000000000000000600052604160045260246000fd5b61177a82611636565b810181811067ffffffffffffffff8211171561179957611798611742565b5b80604052505050565b60006117ac611557565b90506117b88282611771565b919050565b600067ffffffffffffffff8211156117d8576117d7611742565b5b6117e182611636565b9050602081019050919050565b82818337600083830152505050565b600061181061180b846117bd565b6117a2565b90508281526020810184848401111561182c5761182b61173d565b5b6118378482856117ee565b509392505050565b600082601f83011261185457611853611738565b5b81356118648482602086016117fd565b91505092915050565b6000806000806080858703121561188757611886611561565b5b600061189587828801611582565b94505060206118a687828801611582565b93505060406118b787828801611582565b925050606085013567ffffffffffffffff8111156118d8576118d7611566565b5b6118e48782880161183f565b91505092959194509250565b60008115159050919050565b611905816118f0565b82525050565b600060208201905061192060008301846118fc565b92915050565b6000806040838503121561193d5761193c611561565b5b600083013567ffffffffffffffff81111561195b5761195a611566565b5b6119678582860161183f565b925050602083013567ffffffffffffffff81111561198857611987611566565b5b6119948582860161183f565b9150509250929050565b600073ffffffffffffffffffffffffffffffffffffffff82169050919050565b60006119c98261199e565b9050919050565b6119d9816119be565b82525050565b60006060820190506119f4600083018661152d565b611a0160208301856119d0565b611a0e604083018461152d565b949350505050565b600080fd5b600080fd5b60008083601f840112611a3657611a35611738565b5b8235905067ffffffffffffffff811115611a5357611a52611a16565b5b602083019150836001820283011115611a6f57611a6e611a1b565b5b9250929050565b60008060008060008060a08789031215611a9357611a92611561565b5b6000611aa189828a01611582565b9650506020611ab289828a01611582565b955050604087013567ffffffffffffffff811115611ad357611ad2611566565b5b611adf89828a01611a20565b94509450506060611af289828a01611582565b9250506080611b0389828a01611582565b9150509295509295509295565b60008060008060808587031215611b2a57611b29611561565b5b6000611b3887828801611582565b9450506020611b4987828801611582565b9350506040611b5a87828801611582565b9250506060611b6b87828801611582565b91505092959194509250565b6000611b828261199e565b9050919050565b611b9281611b77565b8114611b9d57600080fd5b50565b600081359050611baf81611b89565b92915050565b60008060408385031215611bcc57611bcb611561565b5b6000611bda85828601611ba0565b9250506020611beb85828601611582565b9150509250929050565b60008060008060808587031215611c0f57611c0e611561565b5b600085013567ffffffffffffffff811115611c2d57611c2c611566565b5b611c398782880161183f565b9450506020611c4a87828801611582565b9350506040611c5b87828801611582565b9250506060611c6c87828801611582565b91505092959194509250565b600082825260208201905092915050565b6000611c94826115f0565b611c9e8185611c78565b9350611cae81856020860161160c565b611cb781611636565b840191505092915050565b611ccb81611b77565b82525050565b600060a0820190508181036000830152611ceb8188611c89565b9050611cfa6020830187611cc2565b611d07604083018661152d565b611d14606083018561152d565b611d21608083018461152d565b9695505050505050565b7f4e487b7100000000000000000000000000000000000000000000000000000000600052603260045260246000fd5b7f4e487b7100000000000000000000000000000000000000000000000000000000600052602260045260246000fd5b60006002820490506001821680611da157607f821691505b602082108103611db457611db3611d5a565b5b50919050565b7f4e487b7100000000000000000000000000000000000000000000000000000000600052601160045260246000fd5b6000611df482611523565b91507fffffffffffffffffffffffffffffffffffffffffffffffffffffffffffffffff8203611e2657611e25611dba565b5b600182019050919050565b60008190508160005260206000209050919050565b60006020601f8301049050919050565b600082821b905092915050565b600060088302611e937fffffffffffffffffffffffffffffffffffffffffffffffffffffffffffffffff82611e56565b611e9d8683611e56565b95508019841693508086168417925050509392505050565b6000819050919050565b6000611eda611ed5611ed084611523565b611eb5565b611523565b9050919050565b6000819050919050565b611ef483611ebf565b611f08611f0082611ee1565b848454611e63565b825550505050565b600090565b611f1d611f10565b611f28818484611eeb565b505050565b5b81811015611f4c57611f41600082611f15565b600181019050611f2e565b5050565b601f821115611f9157611f6281611e31565b611f6b84611e46565b81016020851015611f7a578190505b611f8e611f8685611e46565b830182611f2d565b50505b505050565b600082821c905092915050565b6000611fb460001984600802611f96565b1980831691505092915050565b6000611fcd8383611fa3565b9150826002028217905092915050565b611fe6826115f0565b67ffffffffffffffff811115611fff57611ffe611742565b5b6120098254611d89565b612014828285611f50565b600060209050601f8311600181146120475760008415612035578287015190505b61203f8582611fc1565b8655506120a7565b601f19841661205586611e31565b60005b8281101561207d57848901518255600182019150602085019450602081019050612058565b8683101561209a5784890151612096601f891682611fa3565b8355505b6001600288020188555050505b505050505050565b600081905092915050565b60006120c5826115f0565b6120cf81856120af565b93506120df81856020860161160c565b80840191505092915050565b60006120f782846120ba565b915081905092915050565b7f5468652070726f766964657220646f6573206e6f74206861766520656e6f756e60008201527f6768207370616365206c6566742e000000000000000000000000000000000000602082015250565b600061215e602e83611c78565b915061216982612102565b604082019050919050565b6000602082019050818103600083015261218d81612151565b9050919050565b7f457863656464696e672074696d65206c696d6974207365742062792070726f7660008201527f6964657200000000000000000000000000000000000000000000000000000000602082015250565b60006121f0602483611c78565b91506121fb82612194565b604082019050919050565b6000602082019050818103600083015261221f816121e3565b9050919050565b7f5468652064657669636520496420646f6573206e6f74206d6174636800000000600082015250565b600061225c601c83611c78565b915061226782612226565b602082019050919050565b6000602082019050818103600083015261228b8161224f565b9050919050565b7f5468652070726f766964657220697320616c726561647920627573792c206e6f60008201527f207265736f757263657320617661696c61626c652e0000000000000000000000602082015250565b60006122ee603583611c78565b91506122f982612292565b604082019050919050565b6000602082019050818103600083015261231d816122e1565b9050919050565b600082905092915050565b6123398383612324565b67ffffffffffffffff81111561235257612351611742565b5b61235c8254611d89565b612367828285611f50565b6000601f8311600181146123965760008415612384578287013590505b61238e8582611fc1565b8655506123f6565b601f1984166123a486611e31565b60005b828110156123cc578489013582556001820191506020850194506020810190506123a7565b868310156123e957848901356123e5601f891682611fa3565b8355505b6001600288020188555050505b50505050505050565b7f4e6f207374616b6520666f756e64000000000000000000000000000000000000600082015250565b6000612435600e83611c78565b9150612440826123ff565b602082019050919050565b6000602082019050818103600083015261246481612428565b9050919050565b7f54696d6520706572696f6420686173206e6f7420656c61707365642e00000000600082015250565b60006124a1601c83611c78565b91506124ac8261246b565b602082019050919050565b600060208201905081810360008301526124d081612494565b9050919050565b60006124e282611523565b91506124ed83611523565b925082820190508082111561250557612504611dba565b5b92915050565b600061251682611523565b915061252183611523565b925082820390508181111561253957612538611dba565b5b92915050565b60006040820190506125546000830185611cc2565b612561602083018461152d565b9392505050565b612571816118f0565b811461257c57600080fd5b50565b60008151905061258e81612568565b92915050565b6000602082840312156125aa576125a9611561565b5b60006125b88482850161257f565b91505092915050565b7f5374616b65207769746864726177616c206661696c6564000000000000000000600082015250565b60006125f7601783611c78565b9150612602826125c1565b602082019050919050565b60006020820190508181036000830152612626816125ea565b9050919050565b600061263882611523565b915061264383611523565b925082820261265181611523565b9150828204841483151761266857612667611dba565b5b5092915050565b7f4e487b7100000000000000000000000000000000000000000000000000000000600052601260045260246000fd5b60006126a982611523565b91506126b483611523565b9250826126c4576126c361266f565b5b828204905092915050565b60006060820190506126e46000830186611cc2565b6126f16020830185611cc2565b6126fe604083018461152d565b949350505050565b7f5374616b65207472616e73666572206661696c65640000000000000000000000600082015250565b600061273c601583611c78565b915061274782612706565b602082019050919050565b6000602082019050818103600083015261276b8161272f565b905091905056fea2646970667358221220c669c89d768921272586aaa0d0251d6d41f8827fd54588ee44937c15bf8c4e0c64736f6c63430008120033","opcodes":"PUSH1 0x80 PUSH1 0x40 MSTORE CALLVALUE DUP1 ISZERO PUSH3 0x11 JUMPI PUSH1 0x0 DUP1 REVERT JUMPDEST POP PUSH1 0x40 MLOAD PUSH3 0x2989 CODESIZE SUB DUP1 PUSH3 0x2989 DUP4 CODECOPY DUP2 DUP2 ADD PUSH1 0x40 MSTORE DUP2 ADD SWAP1 PUSH3 0x37 SWAP2 SWAP1 PUSH3 0x175 JUMP JUMPDEST DUP3 PUSH1 0x3 PUSH1 0x0 PUSH2 0x100 EXP DUP2 SLOAD DUP2 PUSH20 0xFFFFFFFFFFFFFFFFFFFFFFFFFFFFFFFFFFFFFFFF MUL NOT AND SWAP1 DUP4 PUSH20 0xFFFFFFFFFFFFFFFFFFFFFFFFFFFFFFFFFFFFFFFF AND MUL OR SWAP1 SSTORE POP CALLER PUSH1 0x2 PUSH1 0x0 PUSH2 0x100 EXP DUP2 SLOAD DUP2 PUSH20 0xFFFFFFFFFFFFFFFFFFFFFFFFFFFFFFFFFFFFFFFF MUL NOT AND SWAP1 DUP4 PUSH20 0xFFFFFFFFFFFFFFFFFFFFFFFFFFFFFFFFFFFFFFFF AND MUL OR SWAP1 SSTORE POP DUP2 PUSH1 0x0 DUP2 SWAP1 SSTORE POP DUP1 PUSH1 0x1 DUP2 SWAP1 SSTORE POP POP POP POP PUSH3 0x1D1 JUMP JUMPDEST PUSH1 0x0 DUP1 REVERT JUMPDEST PUSH1 0x0 PUSH20 0xFFFFFFFFFFFFFFFFFFFFFFFFFFFFFFFFFFFFFFFF DUP3 AND SWAP1 POP SWAP2 SWAP1 POP JUMP JUMPDEST PUSH1 0x0 PUSH3 0x102 DUP3 PUSH3 0xD5 JUMP JUMPDEST SWAP1 POP SWAP2 SWAP1 POP JUMP JUMPDEST PUSH3 0x114 DUP2 PUSH3 0xF5 JUMP JUMPDEST DUP2 EQ PUSH3 0x120 JUMPI PUSH1 0x0 DUP1 REVERT JUMPDEST POP JUMP JUMPDEST PUSH1 0x0 DUP2 MLOAD SWAP1 POP PUSH3 0x134 DUP2 PUSH3 0x109 JUMP JUMPDEST SWAP3 SWAP2 POP POP JUMP JUMPDEST PUSH1 0x0 DUP2 SWAP1 POP SWAP2 SWAP1 POP JUMP JUMPDEST PUSH3 0x14F DUP2 PUSH3 0x13A JUMP JUMPDEST DUP2 EQ PUSH3 0x15B JUMPI PUSH1 0x0 DUP1 REVERT JUMPDEST POP JUMP JUMPDEST PUSH1 0x0 DUP2 MLOAD SWAP1 POP PUSH3 0x16F DUP2 PUSH3 0x144 JUMP JUMPDEST SWAP3 SWAP2 POP POP JUMP JUMPDEST PUSH1 0x0 DUP1 PUSH1 0x0 PUSH1 0x60 DUP5 DUP7 SUB SLT ISZERO PUSH3 0x191 JUMPI PUSH3 0x190 PUSH3 0xD0 JUMP JUMPDEST JUMPDEST PUSH1 0x0 PUSH3 0x1A1 DUP7 DUP3 DUP8 ADD PUSH3 0x123 JUMP JUMPDEST SWAP4 POP POP PUSH1 0x20 PUSH3 0x1B4 DUP7 DUP3 DUP8 ADD PUSH3 0x15E JUMP JUMPDEST SWAP3 POP POP PUSH1 0x40 PUSH3 0x1C7 DUP7 DUP3 DUP8 ADD PUSH3 0x15E JUMP JUMPDEST SWAP2 POP POP SWAP3 POP SWAP3 POP SWAP3 JUMP JUMPDEST PUSH2 0x27A8 DUP1 PUSH3 0x1E1 PUSH1 0x0 CODECOPY PUSH1 0x0 RETURN INVALID PUSH1 0x80 PUSH1 0x40 MSTORE PUSH1 0x4 CALLDATASIZE LT PUSH2 0xE8 JUMPI PUSH1 0x0 CALLDATALOAD PUSH1 0xE0 SHR DUP1 PUSH4 0x50F3FC81 GT PUSH2 0x8A JUMPI DUP1 PUSH4 0x73E2D229 GT PUSH2 0x59 JUMPI DUP1 PUSH4 0x73E2D229 EQ PUSH2 0x2F8 JUMPI DUP1 PUSH4 0x7962CB98 EQ PUSH2 0x335 JUMPI DUP1 PUSH4 0x81D12C58 EQ PUSH2 0x351 JUMPI DUP1 PUSH4 0xA898829D EQ PUSH2 0x392 JUMPI PUSH2 0xE8 JUMP JUMPDEST DUP1 PUSH4 0x50F3FC81 EQ PUSH2 0x23C JUMPI DUP1 PUSH4 0x561A72BE EQ PUSH2 0x27B JUMPI DUP1 PUSH4 0x623BE092 EQ PUSH2 0x2A4 JUMPI DUP1 PUSH4 0x63882F9A EQ PUSH2 0x2CF JUMPI PUSH2 0xE8 JUMP JUMPDEST DUP1 PUSH4 0x1DEE21E9 GT PUSH2 0xC6 JUMPI DUP1 PUSH4 0x1DEE21E9 EQ PUSH2 0x17E JUMPI DUP1 PUSH4 0x382926C3 EQ PUSH2 0x1A9 JUMPI DUP1 PUSH4 0x39788BC8 EQ PUSH2 0x1D4 JUMPI DUP1 PUSH4 0x3A96FDD7 EQ PUSH2 0x1FF JUMPI PUSH2 0xE8 JUMP JUMPDEST DUP1 PUSH4 0x6661ABD EQ PUSH2 0xED JUMPI DUP1 PUSH4 0x9B0D43C EQ PUSH2 0x118 JUMPI DUP1 PUSH4 0xC584F83 EQ PUSH2 0x155 JUMPI JUMPDEST PUSH1 0x0 DUP1 REVERT JUMPDEST CALLVALUE DUP1 ISZERO PUSH2 0xF9 JUMPI PUSH1 0x0 DUP1 REVERT JUMPDEST POP PUSH2 0x102 PUSH2 0x3BD JUMP JUMPDEST PUSH1 0x40 MLOAD PUSH2 0x10F SWAP2 SWAP1 PUSH2 0x153C JUMP JUMPDEST PUSH1 0x40 MLOAD DUP1 SWAP2 SUB SWAP1 RETURN JUMPDEST CALLVALUE DUP1 ISZERO PUSH2 0x124 JUMPI PUSH1 0x0 DUP1 REVERT JUMPDEST POP PUSH2 0x13F PUSH1 0x4 DUP1 CALLDATASIZE SUB DUP2 ADD SWAP1 PUSH2 0x13A SWAP2 SWAP1 PUSH2 0x1597 JUMP JUMPDEST PUSH2 0x3C3 JUMP JUMPDEST PUSH1 0x40 MLOAD PUSH2 0x14C SWAP2 SWAP1 PUSH2 0x1716 JUMP JUMPDEST PUSH1 0x40 MLOAD DUP1 SWAP2 SUB SWAP1 RETURN JUMPDEST CALLVALUE DUP1 ISZERO PUSH2 0x161 JUMPI PUSH1 0x0 DUP1 REVERT JUMPDEST POP PUSH2 0x17C PUSH1 0x4 DUP1 CALLDATASIZE SUB DUP2 ADD SWAP1 PUSH2 0x177 SWAP2 SWAP1 PUSH2 0x186D JUMP JUMPDEST PUSH2 0x523 JUMP JUMPDEST STOP JUMPDEST CALLVALUE DUP1 ISZERO PUSH2 0x18A JUMPI PUSH1 0x0 DUP1 REVERT JUMPDEST POP PUSH2 0x193 PUSH2 0x715 JUMP JUMPDEST PUSH1 0x40 MLOAD PUSH2 0x1A0 SWAP2 SWAP1 PUSH2 0x153C JUMP JUMPDEST PUSH1 0x40 MLOAD DUP1 SWAP2 SUB SWAP1 RETURN JUMPDEST CALLVALUE DUP1 ISZERO PUSH2 0x1B5 JUMPI PUSH1 0x0 DUP1 REVERT JUMPDEST POP PUSH2 0x1BE PUSH2 0x71B JUMP JUMPDEST PUSH1 0x40 MLOAD PUSH2 0x1CB SWAP2 SWAP1 PUSH2 0x153C JUMP JUMPDEST PUSH1 0x40 MLOAD DUP1 SWAP2 SUB SWAP1 RETURN JUMPDEST CALLVALUE DUP1 ISZERO PUSH2 0x1E0 JUMPI PUSH1 0x0 DUP1 REVERT JUMPDEST POP PUSH2 0x1E9 PUSH2 0x721 JUMP JUMPDEST PUSH1 0x40 MLOAD PUSH2 0x1F6 SWAP2 SWAP1 PUSH2 0x190B JUMP JUMPDEST PUSH1 0x40 MLOAD DUP1 SWAP2 SUB SWAP1 RETURN JUMPDEST CALLVALUE DUP1 ISZERO PUSH2 0x20B JUMPI PUSH1 0x0 DUP1 REVERT JUMPDEST POP PUSH2 0x226 PUSH1 0x4 DUP1 CALLDATASIZE SUB DUP2 ADD SWAP1 PUSH2 0x221 SWAP2 SWAP1 PUSH2 0x1926 JUMP JUMPDEST PUSH2 0x72A JUMP JUMPDEST PUSH1 0x40 MLOAD PUSH2 0x233 SWAP2 SWAP1 PUSH2 0x190B JUMP JUMPDEST PUSH1 0x40 MLOAD DUP1 SWAP2 SUB SWAP1 RETURN JUMPDEST CALLVALUE DUP1 ISZERO PUSH2 0x248 JUMPI PUSH1 0x0 DUP1 REVERT JUMPDEST POP PUSH2 0x263 PUSH1 0x4 DUP1 CALLDATASIZE SUB DUP2 ADD SWAP1 PUSH2 0x25E SWAP2 SWAP1 PUSH2 0x1597 JUMP JUMPDEST PUSH2 0x796 JUMP JUMPDEST PUSH1 0x40 MLOAD PUSH2 0x272 SWAP4 SWAP3 SWAP2 SWAP1 PUSH2 0x19DF JUMP JUMPDEST PUSH1 0x40 MLOAD DUP1 SWAP2 SUB SWAP1 RETURN JUMPDEST CALLVALUE DUP1 ISZERO PUSH2 0x287 JUMPI PUSH1 0x0 DUP1 REVERT JUMPDEST POP PUSH2 0x2A2 PUSH1 0x4 DUP1 CALLDATASIZE SUB DUP2 ADD SWAP1 PUSH2 0x29D SWAP2 SWAP1 PUSH2 0x1A76 JUMP JUMPDEST PUSH2 0x7E0 JUMP JUMPDEST STOP JUMPDEST CALLVALUE DUP1 ISZERO PUSH2 0x2B0 JUMPI PUSH1 0x0 DUP1 REVERT JUMPDEST POP PUSH2 0x2B9 PUSH2 0xBFC JUMP JUMPDEST PUSH1 0x40 MLOAD PUSH2 0x2C6 SWAP2 SWAP1 PUSH2 0x153C JUMP JUMPDEST PUSH1 0x40 MLOAD DUP1 SWAP2 SUB SWAP1 RETURN JUMPDEST CALLVALUE DUP1 ISZERO PUSH2 0x2DB JUMPI PUSH1 0x0 DUP1 REVERT JUMPDEST POP PUSH2 0x2F6 PUSH1 0x4 DUP1 CALLDATASIZE SUB DUP2 ADD SWAP1 PUSH2 0x2F1 SWAP2 SWAP1 PUSH2 0x1B10 JUMP JUMPDEST PUSH2 0xC02 JUMP JUMPDEST STOP JUMPDEST CALLVALUE DUP1 ISZERO PUSH2 0x304 JUMPI PUSH1 0x0 DUP1 REVERT JUMPDEST POP PUSH2 0x31F PUSH1 0x4 DUP1 CALLDATASIZE SUB DUP2 ADD SWAP1 PUSH2 0x31A SWAP2 SWAP1 PUSH2 0x1BB5 JUMP JUMPDEST PUSH2 0xFFA JUMP JUMPDEST PUSH1 0x40 MLOAD PUSH2 0x32C SWAP2 SWAP1 PUSH2 0x153C JUMP JUMPDEST PUSH1 0x40 MLOAD DUP1 SWAP2 SUB SWAP1 RETURN JUMPDEST PUSH2 0x34F PUSH1 0x4 DUP1 CALLDATASIZE SUB DUP2 ADD SWAP1 PUSH2 0x34A SWAP2 SWAP1 PUSH2 0x1BF5 JUMP JUMPDEST PUSH2 0x10ED JUMP JUMPDEST STOP JUMPDEST CALLVALUE DUP1 ISZERO PUSH2 0x35D JUMPI PUSH1 0x0 DUP1 REVERT JUMPDEST POP PUSH2 0x378 PUSH1 0x4 DUP1 CALLDATASIZE SUB DUP2 ADD SWAP1 PUSH2 0x373 SWAP2 SWAP1 PUSH2 0x1597 JUMP JUMPDEST PUSH2 0x143F JUMP JUMPDEST PUSH1 0x40 MLOAD PUSH2 0x389 SWAP6 SWAP5 SWAP4 SWAP3 SWAP2 SWAP1 PUSH2 0x1CD1 JUMP JUMPDEST PUSH1 0x40 MLOAD DUP1 SWAP2 SUB SWAP1 RETURN JUMPDEST CALLVALUE DUP1 ISZERO PUSH2 0x39E JUMPI PUSH1 0x0 DUP1 REVERT JUMPDEST POP PUSH2 0x3A7 PUSH2 0x151D JUMP JUMPDEST PUSH1 0x40 MLOAD PUSH2 0x3B4 SWAP2 SWAP1 PUSH2 0x153C JUMP JUMPDEST PUSH1 0x40 MLOAD DUP1 SWAP2 SUB SWAP1 RETURN JUMPDEST PUSH1 0x8 SLOAD DUP2 JUMP JUMPDEST PUSH1 0x60 PUSH1 0x0 PUSH1 0x6 PUSH1 0x0 DUP5 DUP2 MSTORE PUSH1 0x20 ADD SWAP1 DUP2 MSTORE PUSH1 0x20 ADD PUSH1 0x0 KECCAK256 SWAP1 POP PUSH1 0x0 DUP1 PUSH1 0x0 SWAP1 POP JUMPDEST DUP3 PUSH1 0x0 ADD DUP1 SLOAD SWAP1 POP DUP2 LT ISZERO PUSH2 0x51B JUMPI PUSH1 0x0 ISZERO ISZERO DUP4 PUSH1 0x7 ADD DUP3 DUP2 SLOAD DUP2 LT PUSH2 0x40D JUMPI PUSH2 0x40C PUSH2 0x1D2B JUMP JUMPDEST JUMPDEST SWAP1 PUSH1 0x0 MSTORE PUSH1 0x20 PUSH1 0x0 KECCAK256 SWAP1 PUSH1 0x20 SWAP2 DUP3 DUP3 DIV ADD SWAP2 SWAP1 MOD SWAP1 SLOAD SWAP1 PUSH2 0x100 EXP SWAP1 DIV PUSH1 0xFF AND ISZERO ISZERO SUB PUSH2 0x508 JUMPI DUP3 PUSH1 0x0 ADD DUP2 DUP2 SLOAD DUP2 LT PUSH2 0x44A JUMPI PUSH2 0x449 PUSH2 0x1D2B JUMP JUMPDEST JUMPDEST SWAP1 PUSH1 0x0 MSTORE PUSH1 0x20 PUSH1 0x0 KECCAK256 ADD DUP1 SLOAD PUSH2 0x45F SWAP1 PUSH2 0x1D89 JUMP JUMPDEST DUP1 PUSH1 0x1F ADD PUSH1 0x20 DUP1 SWAP2 DIV MUL PUSH1 0x20 ADD PUSH1 0x40 MLOAD SWAP1 DUP2 ADD PUSH1 0x40 MSTORE DUP1 SWAP3 SWAP2 SWAP1 DUP2 DUP2 MSTORE PUSH1 0x20 ADD DUP3 DUP1 SLOAD PUSH2 0x48B SWAP1 PUSH2 0x1D89 JUMP JUMPDEST DUP1 ISZERO PUSH2 0x4D8 JUMPI DUP1 PUSH1 0x1F LT PUSH2 0x4AD JUMPI PUSH2 0x100 DUP1 DUP4 SLOAD DIV MUL DUP4 MSTORE SWAP2 PUSH1 0x20 ADD SWAP2 PUSH2 0x4D8 JUMP JUMPDEST DUP3 ADD SWAP2 SWAP1 PUSH1 0x0 MSTORE PUSH1 0x20 PUSH1 0x0 KECCAK256 SWAP1 JUMPDEST DUP2 SLOAD DUP2 MSTORE SWAP1 PUSH1 0x1 ADD SWAP1 PUSH1 0x20 ADD DUP1 DUP4 GT PUSH2 0x4BB JUMPI DUP3 SWAP1 SUB PUSH1 0x1F AND DUP3 ADD SWAP2 JUMPDEST POP POP POP POP POP DUP5 DUP4 DUP2 MLOAD DUP2 LT PUSH2 0x4F0 JUMPI PUSH2 0x4EF PUSH2 0x1D2B JUMP JUMPDEST JUMPDEST PUSH1 0x20 MUL PUSH1 0x20 ADD ADD DUP2 SWAP1 MSTORE POP DUP2 PUSH2 0x505 SWAP1 PUSH2 0x1DE9 JUMP JUMPDEST SWAP2 POP JUMPDEST DUP1 DUP1 PUSH2 0x513 SWAP1 PUSH2 0x1DE9 JUMP JUMPDEST SWAP2 POP POP PUSH2 0x3E4 JUMP JUMPDEST POP POP POP SWAP2 SWAP1 POP JUMP JUMPDEST PUSH1 0x0 PUSH1 0x6 PUSH1 0x0 DUP7 DUP2 MSTORE PUSH1 0x20 ADD SWAP1 DUP2 MSTORE PUSH1 0x20 ADD PUSH1 0x0 KECCAK256 SWAP1 POP PUSH1 0x8 PUSH1 0x0 DUP2 SLOAD PUSH2 0x549 SWAP1 PUSH2 0x1DE9 JUMP JUMPDEST SWAP2 SWAP1 POP DUP2 SWAP1 SSTORE POP DUP1 PUSH1 0x0 ADD DUP3 SWAP1 DUP1 PUSH1 0x1 DUP2 SLOAD ADD DUP1 DUP3 SSTORE DUP1 SWAP2 POP POP PUSH1 0x1 SWAP1 SUB SWAP1 PUSH1 0x0 MSTORE PUSH1 0x20 PUSH1 0x0 KECCAK256 ADD PUSH1 0x0 SWAP1 SWAP2 SWAP1 SWAP2 SWAP1 SWAP2 POP SWAP1 DUP2 PUSH2 0x586 SWAP2 SWAP1 PUSH2 0x1FDD JUMP JUMPDEST POP DUP1 PUSH1 0x1 ADD DUP5 SWAP1 DUP1 PUSH1 0x1 DUP2 SLOAD ADD DUP1 DUP3 SSTORE DUP1 SWAP2 POP POP PUSH1 0x1 SWAP1 SUB SWAP1 PUSH1 0x0 MSTORE PUSH1 0x20 PUSH1 0x0 KECCAK256 ADD PUSH1 0x0 SWAP1 SWAP2 SWAP1 SWAP2 SWAP1 SWAP2 POP SSTORE DUP1 PUSH1 0x4 ADD DUP4 SWAP1 DUP1 PUSH1 0x1 DUP2 SLOAD ADD DUP1 DUP3 SSTORE DUP1 SWAP2 POP POP PUSH1 0x1 SWAP1 SUB SWAP1 PUSH1 0x0 MSTORE PUSH1 0x20 PUSH1 0x0 KECCAK256 ADD PUSH1 0x0 SWAP1 SWAP2 SWAP1 SWAP2 SWAP1 SWAP2 POP SSTORE DUP1 PUSH1 0x7 ADD PUSH1 0x0 SWAP1 DUP1 PUSH1 0x1 DUP2 SLOAD ADD DUP1 DUP3 SSTORE DUP1 SWAP2 POP POP PUSH1 0x1 SWAP1 SUB SWAP1 PUSH1 0x0 MSTORE PUSH1 0x20 PUSH1 0x0 KECCAK256 SWAP1 PUSH1 0x20 SWAP2 DUP3 DUP3 DIV ADD SWAP2 SWAP1 MOD SWAP1 SWAP2 SWAP1 SWAP2 SWAP1 SWAP2 PUSH2 0x100 EXP DUP2 SLOAD DUP2 PUSH1 0xFF MUL NOT AND SWAP1 DUP4 ISZERO ISZERO MUL OR SWAP1 SSTORE POP PUSH1 0xA PUSH1 0x0 CALLER PUSH20 0xFFFFFFFFFFFFFFFFFFFFFFFFFFFFFFFFFFFFFFFF AND PUSH20 0xFFFFFFFFFFFFFFFFFFFFFFFFFFFFFFFFFFFFFFFF AND DUP2 MSTORE PUSH1 0x20 ADD SWAP1 DUP2 MSTORE PUSH1 0x20 ADD PUSH1 0x0 KECCAK256 PUSH1 0x0 DUP2 SLOAD PUSH2 0x670 SWAP1 PUSH2 0x1DE9 JUMP JUMPDEST SWAP2 SWAP1 POP DUP2 SWAP1 SSTORE PUSH1 0x9 DUP2 SWAP1 SSTORE POP PUSH1 0x40 MLOAD DUP1 PUSH1 0x60 ADD PUSH1 0x40 MSTORE DUP1 PUSH1 0x9 SLOAD DUP2 MSTORE PUSH1 0x20 ADD PUSH1 0x0 SLOAD DUP2 MSTORE PUSH1 0x20 ADD TIMESTAMP DUP2 MSTORE POP PUSH1 0xC PUSH1 0x0 CALLER PUSH20 0xFFFFFFFFFFFFFFFFFFFFFFFFFFFFFFFFFFFFFFFF AND PUSH20 0xFFFFFFFFFFFFFFFFFFFFFFFFFFFFFFFFFFFFFFFF AND DUP2 MSTORE PUSH1 0x20 ADD SWAP1 DUP2 MSTORE PUSH1 0x20 ADD PUSH1 0x0 KECCAK256 PUSH1 0x0 PUSH1 0x9 SLOAD DUP2 MSTORE PUSH1 0x20 ADD SWAP1 DUP2 MSTORE PUSH1 0x20 ADD PUSH1 0x0 KECCAK256 PUSH1 0x0 DUP3 ADD MLOAD DUP2 PUSH1 0x0 ADD SSTORE PUSH1 0x20 DUP3 ADD MLOAD DUP2 PUSH1 0x1 ADD SSTORE PUSH1 0x40 DUP3 ADD MLOAD DUP2 PUSH1 0x2 ADD SSTORE SWAP1 POP POP POP POP POP POP POP JUMP JUMPDEST PUSH1 0x5 SLOAD DUP2 JUMP JUMPDEST PUSH1 0x1 SLOAD DUP2 JUMP JUMPDEST PUSH1 0x0 PUSH1 0x1 SWAP1 POP SWAP1 JUMP JUMPDEST PUSH1 0x0 DUP2 MLOAD DUP4 MLOAD EQ PUSH2 0x73E JUMPI PUSH1 0x0 SWAP1 POP PUSH2 0x790 JUMP JUMPDEST DUP2 PUSH1 0x40 MLOAD PUSH1 0x20 ADD PUSH2 0x74F SWAP2 SWAP1 PUSH2 0x20EB JUMP JUMPDEST PUSH1 0x40 MLOAD PUSH1 0x20 DUP2 DUP4 SUB SUB DUP2 MSTORE SWAP1 PUSH1 0x40 MSTORE DUP1 MLOAD SWAP1 PUSH1 0x20 ADD KECCAK256 DUP4 PUSH1 0x40 MLOAD PUSH1 0x20 ADD PUSH2 0x776 SWAP2 SWAP1 PUSH2 0x20EB JUMP JUMPDEST PUSH1 0x40 MLOAD PUSH1 0x20 DUP2 DUP4 SUB SUB DUP2 MSTORE SWAP1 PUSH1 0x40 MSTORE DUP1 MLOAD SWAP1 PUSH1 0x20 ADD KECCAK256 EQ SWAP1 POP JUMPDEST SWAP3 SWAP2 POP POP JUMP JUMPDEST PUSH1 0x6 PUSH1 0x20 MSTORE DUP1 PUSH1 0x0 MSTORE PUSH1 0x40 PUSH1 0x0 KECCAK256 PUSH1 0x0 SWAP2 POP SWAP1 POP DUP1 PUSH1 0x2 ADD SLOAD SWAP1 DUP1 PUSH1 0x3 ADD PUSH1 0x0 SWAP1 SLOAD SWAP1 PUSH2 0x100 EXP SWAP1 DIV PUSH20 0xFFFFFFFFFFFFFFFFFFFFFFFFFFFFFFFFFFFFFFFF AND SWAP1 DUP1 PUSH1 0x6 ADD SLOAD SWAP1 POP DUP4 JUMP JUMPDEST PUSH1 0x0 PUSH1 0x6 PUSH1 0x0 DUP9 DUP2 MSTORE PUSH1 0x20 ADD SWAP1 DUP2 MSTORE PUSH1 0x20 ADD PUSH1 0x0 KECCAK256 SWAP1 POP PUSH1 0x0 DUP1 DUP3 PUSH1 0x0 ADD DUP3 DUP2 SLOAD DUP2 LT PUSH2 0x810 JUMPI PUSH2 0x80F PUSH2 0x1D2B JUMP JUMPDEST JUMPDEST SWAP1 PUSH1 0x0 MSTORE PUSH1 0x20 PUSH1 0x0 KECCAK256 ADD SWAP1 POP PUSH1 0x0 SWAP2 POP JUMPDEST DUP3 PUSH1 0x0 ADD DUP1 SLOAD SWAP1 POP DUP3 LT ISZERO PUSH2 0xBF1 JUMPI PUSH2 0x907 DUP2 DUP1 SLOAD PUSH2 0x83F SWAP1 PUSH2 0x1D89 JUMP JUMPDEST DUP1 PUSH1 0x1F ADD PUSH1 0x20 DUP1 SWAP2 DIV MUL PUSH1 0x20 ADD PUSH1 0x40 MLOAD SWAP1 DUP2 ADD PUSH1 0x40 MSTORE DUP1 SWAP3 SWAP2 SWAP1 DUP2 DUP2 MSTORE PUSH1 0x20 ADD DUP3 DUP1 SLOAD PUSH2 0x86B SWAP1 PUSH2 0x1D89 JUMP JUMPDEST DUP1 ISZERO PUSH2 0x8B8 JUMPI DUP1 PUSH1 0x1F LT PUSH2 0x88D JUMPI PUSH2 0x100 DUP1 DUP4 SLOAD DIV MUL DUP4 MSTORE SWAP2 PUSH1 0x20 ADD SWAP2 PUSH2 0x8B8 JUMP JUMPDEST DUP3 ADD SWAP2 SWAP1 PUSH1 0x0 MSTORE PUSH1 0x20 PUSH1 0x0 KECCAK256 SWAP1 JUMPDEST DUP2 SLOAD DUP2 MSTORE SWAP1 PUSH1 0x1 ADD SWAP1 PUSH1 0x20 ADD DUP1 DUP4 GT PUSH2 0x89B JUMPI DUP3 SWAP1 SUB PUSH1 0x1F AND DUP3 ADD SWAP2 JUMPDEST POP POP POP POP POP DUP9 DUP9 DUP1 DUP1 PUSH1 0x1F ADD PUSH1 0x20 DUP1 SWAP2 DIV MUL PUSH1 0x20 ADD PUSH1 0x40 MLOAD SWAP1 DUP2 ADD PUSH1 0x40 MSTORE DUP1 SWAP4 SWAP3 SWAP2 SWAP1 DUP2 DUP2 MSTORE PUSH1 0x20 ADD DUP4 DUP4 DUP1 DUP3 DUP5 CALLDATACOPY PUSH1 0x0 DUP2 DUP5 ADD MSTORE PUSH1 0x1F NOT PUSH1 0x1F DUP3 ADD AND SWAP1 POP DUP1 DUP4 ADD SWAP3 POP POP POP POP POP POP POP PUSH2 0x72A JUMP JUMPDEST ISZERO PUSH2 0xBDE JUMPI DUP8 DUP4 PUSH1 0x4 ADD DUP4 DUP2 SLOAD DUP2 LT PUSH2 0x923 JUMPI PUSH2 0x922 PUSH2 0x1D2B JUMP JUMPDEST JUMPDEST SWAP1 PUSH1 0x0 MSTORE PUSH1 0x20 PUSH1 0x0 KECCAK256 ADD SLOAD LT ISZERO PUSH2 0x96F JUMPI PUSH1 0x40 MLOAD PUSH32 0x8C379A000000000000000000000000000000000000000000000000000000000 DUP2 MSTORE PUSH1 0x4 ADD PUSH2 0x966 SWAP1 PUSH2 0x2174 JUMP JUMPDEST PUSH1 0x40 MLOAD DUP1 SWAP2 SUB SWAP1 REVERT JUMPDEST DUP4 DUP4 PUSH1 0x5 ADD DUP4 DUP2 SLOAD DUP2 LT PUSH2 0x986 JUMPI PUSH2 0x985 PUSH2 0x1D2B JUMP JUMPDEST JUMPDEST SWAP1 PUSH1 0x0 MSTORE PUSH1 0x20 PUSH1 0x0 KECCAK256 ADD SLOAD LT ISZERO PUSH2 0x9D2 JUMPI PUSH1 0x40 MLOAD PUSH32 0x8C379A000000000000000000000000000000000000000000000000000000000 DUP2 MSTORE PUSH1 0x4 ADD PUSH2 0x9C9 SWAP1 PUSH2 0x2206 JUMP JUMPDEST PUSH1 0x40 MLOAD DUP1 SWAP2 SUB SWAP1 REVERT JUMPDEST DUP5 DUP4 PUSH1 0x1 ADD DUP4 DUP2 SLOAD DUP2 LT PUSH2 0x9E9 JUMPI PUSH2 0x9E8 PUSH2 0x1D2B JUMP JUMPDEST JUMPDEST SWAP1 PUSH1 0x0 MSTORE PUSH1 0x20 PUSH1 0x0 KECCAK256 ADD SLOAD LT ISZERO PUSH2 0xA35 JUMPI PUSH1 0x40 MLOAD PUSH32 0x8C379A000000000000000000000000000000000000000000000000000000000 DUP2 MSTORE PUSH1 0x4 ADD PUSH2 0xA2C SWAP1 PUSH2 0x2272 JUMP JUMPDEST PUSH1 0x40 MLOAD DUP1 SWAP2 SUB SWAP1 REVERT JUMPDEST PUSH1 0x0 ISZERO ISZERO DUP4 PUSH1 0x7 ADD DUP4 DUP2 SLOAD DUP2 LT PUSH2 0xA4F JUMPI PUSH2 0xA4E PUSH2 0x1D2B JUMP JUMPDEST JUMPDEST SWAP1 PUSH1 0x0 MSTORE PUSH1 0x20 PUSH1 0x0 KECCAK256 SWAP1 PUSH1 0x20 SWAP2 DUP3 DUP3 DIV ADD SWAP2 SWAP1 MOD SWAP1 SLOAD SWAP1 PUSH2 0x100 EXP SWAP1 DIV PUSH1 0xFF AND ISZERO ISZERO EQ PUSH2 0xAB1 JUMPI PUSH1 0x40 MLOAD PUSH32 0x8C379A000000000000000000000000000000000000000000000000000000000 DUP2 MSTORE PUSH1 0x4 ADD PUSH2 0xAA8 SWAP1 PUSH2 0x2304 JUMP JUMPDEST PUSH1 0x40 MLOAD DUP1 SWAP2 SUB SWAP1 REVERT JUMPDEST PUSH1 0x0 PUSH2 0xABB PUSH2 0x721 JUMP JUMPDEST SWAP1 POP PUSH1 0x1 ISZERO ISZERO DUP2 ISZERO ISZERO SUB PUSH2 0xBDC JUMPI PUSH1 0x1 DUP5 PUSH1 0x7 ADD DUP5 DUP2 SLOAD DUP2 LT PUSH2 0xAE1 JUMPI PUSH2 0xAE0 PUSH2 0x1D2B JUMP JUMPDEST JUMPDEST SWAP1 PUSH1 0x0 MSTORE PUSH1 0x20 PUSH1 0x0 KECCAK256 SWAP1 PUSH1 0x20 SWAP2 DUP3 DUP3 DIV ADD SWAP2 SWAP1 MOD PUSH2 0x100 EXP DUP2 SLOAD DUP2 PUSH1 0xFF MUL NOT AND SWAP1 DUP4 ISZERO ISZERO MUL OR SWAP1 SSTORE POP TIMESTAMP DUP5 PUSH1 0x6 ADD DUP2 SWAP1 SSTORE POP PUSH1 0x0 PUSH1 0x4 PUSH1 0x0 PUSH1 0x5 SLOAD DUP2 MSTORE PUSH1 0x20 ADD SWAP1 DUP2 MSTORE PUSH1 0x20 ADD PUSH1 0x0 KECCAK256 SWAP1 POP PUSH1 0x5 PUSH1 0x0 DUP2 SLOAD DUP1 SWAP3 SWAP2 SWAP1 PUSH2 0xB3F SWAP1 PUSH2 0x1DE9 JUMP JUMPDEST SWAP2 SWAP1 POP SSTORE POP DUP9 DUP9 DUP3 PUSH1 0x0 ADD SWAP2 DUP3 PUSH2 0xB57 SWAP3 SWAP2 SWAP1 PUSH2 0x232F JUMP JUMPDEST POP DUP5 PUSH1 0x3 ADD PUSH1 0x0 SWAP1 SLOAD SWAP1 PUSH2 0x100 EXP SWAP1 DIV PUSH20 0xFFFFFFFFFFFFFFFFFFFFFFFFFFFFFFFFFFFFFFFF AND DUP2 PUSH1 0x1 ADD PUSH1 0x0 PUSH2 0x100 EXP DUP2 SLOAD DUP2 PUSH20 0xFFFFFFFFFFFFFFFFFFFFFFFFFFFFFFFFFFFFFFFF MUL NOT AND SWAP1 DUP4 PUSH20 0xFFFFFFFFFFFFFFFFFFFFFFFFFFFFFFFFFFFFFFFF AND MUL OR SWAP1 SSTORE POP DUP7 DUP2 PUSH1 0x2 ADD DUP2 SWAP1 SSTORE POP DUP11 DUP2 PUSH1 0x3 ADD DUP2 SWAP1 SSTORE POP DUP6 DUP2 PUSH1 0x4 ADD DUP2 SWAP1 SSTORE POP POP JUMPDEST POP JUMPDEST DUP2 DUP1 PUSH2 0xBE9 SWAP1 PUSH2 0x1DE9 JUMP JUMPDEST SWAP3 POP POP PUSH2 0x821 JUMP JUMPDEST POP POP POP POP POP POP POP POP POP JUMP JUMPDEST PUSH1 0x7 SLOAD DUP2 JUMP JUMPDEST PUSH1 0x0 PUSH1 0xA PUSH1 0x0 CALLER PUSH20 0xFFFFFFFFFFFFFFFFFFFFFFFFFFFFFFFFFFFFFFFF AND PUSH20 0xFFFFFFFFFFFFFFFFFFFFFFFFFFFFFFFFFFFFFFFF AND DUP2 MSTORE PUSH1 0x20 ADD SWAP1 DUP2 MSTORE PUSH1 0x20 ADD PUSH1 0x0 KECCAK256 SLOAD GT PUSH2 0xC84 JUMPI PUSH1 0x40 MLOAD PUSH32 0x8C379A000000000000000000000000000000000000000000000000000000000 DUP2 MSTORE PUSH1 0x4 ADD PUSH2 0xC7B SWAP1 PUSH2 0x244B JUMP JUMPDEST PUSH1 0x40 MLOAD DUP1 SWAP2 SUB SWAP1 REVERT JUMPDEST PUSH1 0xC PUSH1 0x0 CALLER PUSH20 0xFFFFFFFFFFFFFFFFFFFFFFFFFFFFFFFFFFFFFFFF AND PUSH20 0xFFFFFFFFFFFFFFFFFFFFFFFFFFFFFFFFFFFFFFFF AND DUP2 MSTORE PUSH1 0x20 ADD SWAP1 DUP2 MSTORE PUSH1 0x20 ADD PUSH1 0x0 KECCAK256 PUSH1 0x0 DUP5 DUP2 MSTORE PUSH1 0x20 ADD SWAP1 DUP2 MSTORE PUSH1 0x20 ADD PUSH1 0x0 KECCAK256 PUSH1 0x2 ADD SLOAD TIMESTAMP GT PUSH2 0xD19 JUMPI PUSH1 0x40 MLOAD PUSH32 0x8C379A000000000000000000000000000000000000000000000000000000000 DUP2 MSTORE PUSH1 0x4 ADD PUSH2 0xD10 SWAP1 PUSH2 0x24B7 JUMP JUMPDEST PUSH1 0x40 MLOAD DUP1 SWAP2 SUB SWAP1 REVERT JUMPDEST PUSH1 0x0 PUSH1 0x6 PUSH1 0x0 DUP7 DUP2 MSTORE PUSH1 0x20 ADD SWAP1 DUP2 MSTORE PUSH1 0x20 ADD PUSH1 0x0 KECCAK256 SWAP1 POP PUSH1 0x0 JUMPDEST DUP2 PUSH1 0x1 ADD DUP1 SLOAD SWAP1 POP DUP2 LT ISZERO PUSH2 0xDBE JUMPI DUP3 DUP3 PUSH1 0x1 ADD DUP3 DUP2 SLOAD DUP2 LT PUSH2 0xD59 JUMPI PUSH2 0xD58 PUSH2 0x1D2B JUMP JUMPDEST JUMPDEST SWAP1 PUSH1 0x0 MSTORE PUSH1 0x20 PUSH1 0x0 KECCAK256 ADD SLOAD SUB PUSH2 0xDAB JUMPI PUSH1 0x0 DUP3 PUSH1 0x7 ADD DUP3 DUP2 SLOAD DUP2 LT PUSH2 0xD81 JUMPI PUSH2 0xD80 PUSH2 0x1D2B JUMP JUMPDEST JUMPDEST SWAP1 PUSH1 0x0 MSTORE PUSH1 0x20 PUSH1 0x0 KECCAK256 SWAP1 PUSH1 0x20 SWAP2 DUP3 DUP3 DIV ADD SWAP2 SWAP1 MOD PUSH2 0x100 EXP DUP2 SLOAD DUP2 PUSH1 0xFF MUL NOT AND SWAP1 DUP4 ISZERO ISZERO MUL OR SWAP1 SSTORE POP JUMPDEST DUP1 DUP1 PUSH2 0xDB6 SWAP1 PUSH2 0x1DE9 JUMP JUMPDEST SWAP2 POP POP PUSH2 0xD33 JUMP JUMPDEST PUSH1 0x0 PUSH2 0xDCA CALLER DUP8 PUSH2 0xFFA JUMP JUMPDEST SWAP1 POP DUP1 PUSH1 0xB PUSH1 0x0 CALLER PUSH20 0xFFFFFFFFFFFFFFFFFFFFFFFFFFFFFFFFFFFFFFFF AND PUSH20 0xFFFFFFFFFFFFFFFFFFFFFFFFFFFFFFFFFFFFFFFF AND DUP2 MSTORE PUSH1 0x20 ADD SWAP1 DUP2 MSTORE PUSH1 0x20 ADD PUSH1 0x0 KECCAK256 PUSH1 0x0 DUP3 DUP3 SLOAD PUSH2 0xE1B SWAP2 SWAP1 PUSH2 0x24D7 JUMP JUMPDEST SWAP3 POP POP DUP2 SWAP1 SSTORE POP PUSH1 0x0 DUP6 PUSH1 0xC PUSH1 0x0 CALLER PUSH20 0xFFFFFFFFFFFFFFFFFFFFFFFFFFFFFFFFFFFFFFFF AND PUSH20 0xFFFFFFFFFFFFFFFFFFFFFFFFFFFFFFFFFFFFFFFF AND DUP2 MSTORE PUSH1 0x20 ADD SWAP1 DUP2 MSTORE PUSH1 0x20 ADD PUSH1 0x0 KECCAK256 PUSH1 0x0 DUP10 DUP2 MSTORE PUSH1 0x20 ADD SWAP1 DUP2 MSTORE PUSH1 0x20 ADD PUSH1 0x0 KECCAK256 PUSH1 0x1 ADD SLOAD PUSH2 0xE83 SWAP2 SWAP1 PUSH2 0x250B JUMP JUMPDEST SWAP1 POP PUSH1 0x40 MLOAD DUP1 PUSH1 0x60 ADD PUSH1 0x40 MSTORE DUP1 DUP9 DUP2 MSTORE PUSH1 0x20 ADD DUP3 DUP2 MSTORE PUSH1 0x20 ADD TIMESTAMP DUP2 MSTORE POP PUSH1 0xC PUSH1 0x0 CALLER PUSH20 0xFFFFFFFFFFFFFFFFFFFFFFFFFFFFFFFFFFFFFFFF AND PUSH20 0xFFFFFFFFFFFFFFFFFFFFFFFFFFFFFFFFFFFFFFFF AND DUP2 MSTORE PUSH1 0x20 ADD SWAP1 DUP2 MSTORE PUSH1 0x20 ADD PUSH1 0x0 KECCAK256 PUSH1 0x0 DUP10 DUP2 MSTORE PUSH1 0x20 ADD SWAP1 DUP2 MSTORE PUSH1 0x20 ADD PUSH1 0x0 KECCAK256 PUSH1 0x0 DUP3 ADD MLOAD DUP2 PUSH1 0x0 ADD SSTORE PUSH1 0x20 DUP3 ADD MLOAD DUP2 PUSH1 0x1 ADD SSTORE PUSH1 0x40 DUP3 ADD MLOAD DUP2 PUSH1 0x2 ADD SSTORE SWAP1 POP POP PUSH1 0x3 PUSH1 0x0 SWAP1 SLOAD SWAP1 PUSH2 0x100 EXP SWAP1 DIV PUSH20 0xFFFFFFFFFFFFFFFFFFFFFFFFFFFFFFFFFFFFFFFF AND PUSH20 0xFFFFFFFFFFFFFFFFFFFFFFFFFFFFFFFFFFFFFFFF AND PUSH4 0xA9059CBB CALLER DUP9 PUSH1 0x40 MLOAD DUP4 PUSH4 0xFFFFFFFF AND PUSH1 0xE0 SHL DUP2 MSTORE PUSH1 0x4 ADD PUSH2 0xF6E SWAP3 SWAP2 SWAP1 PUSH2 0x253F JUMP JUMPDEST PUSH1 0x20 PUSH1 0x40 MLOAD DUP1 DUP4 SUB DUP2 PUSH1 0x0 DUP8 GAS CALL ISZERO DUP1 ISZERO PUSH2 0xF8D JUMPI RETURNDATASIZE PUSH1 0x0 DUP1 RETURNDATACOPY RETURNDATASIZE PUSH1 0x0 REVERT JUMPDEST POP POP POP POP PUSH1 0x40 MLOAD RETURNDATASIZE PUSH1 0x1F NOT PUSH1 0x1F DUP3 ADD AND DUP3 ADD DUP1 PUSH1 0x40 MSTORE POP DUP2 ADD SWAP1 PUSH2 0xFB1 SWAP2 SWAP1 PUSH2 0x2594 JUMP JUMPDEST PUSH2 0xFF0 JUMPI PUSH1 0x40 MLOAD PUSH32 0x8C379A000000000000000000000000000000000000000000000000000000000 DUP2 MSTORE PUSH1 0x4 ADD PUSH2 0xFE7 SWAP1 PUSH2 0x260D JUMP JUMPDEST PUSH1 0x40 MLOAD DUP1 SWAP2 SUB SWAP1 REVERT JUMPDEST POP POP POP POP POP POP POP POP JUMP JUMPDEST PUSH1 0x0 DUP1 PUSH1 0xC PUSH1 0x0 DUP6 PUSH20 0xFFFFFFFFFFFFFFFFFFFFFFFFFFFFFFFFFFFFFFFF AND PUSH20 0xFFFFFFFFFFFFFFFFFFFFFFFFFFFFFFFFFFFFFFFF AND DUP2 MSTORE PUSH1 0x20 ADD SWAP1 DUP2 MSTORE PUSH1 0x20 ADD PUSH1 0x0 KECCAK256 PUSH1 0x0 DUP5 DUP2 MSTORE PUSH1 0x20 ADD SWAP1 DUP2 MSTORE PUSH1 0x20 ADD PUSH1 0x0 KECCAK256 PUSH1 0x1 ADD SLOAD SWAP1 POP PUSH1 0x0 PUSH1 0xC PUSH1 0x0 DUP7 PUSH20 0xFFFFFFFFFFFFFFFFFFFFFFFFFFFFFFFFFFFFFFFF AND PUSH20 0xFFFFFFFFFFFFFFFFFFFFFFFFFFFFFFFFFFFFFFFF AND DUP2 MSTORE PUSH1 0x20 ADD SWAP1 DUP2 MSTORE PUSH1 0x20 ADD PUSH1 0x0 KECCAK256 PUSH1 0x0 DUP6 DUP2 MSTORE PUSH1 0x20 ADD SWAP1 DUP2 MSTORE PUSH1 0x20 ADD PUSH1 0x0 KECCAK256 PUSH1 0x2 ADD SLOAD SWAP1 POP PUSH1 0x0 DUP2 TIMESTAMP PUSH2 0x10B9 SWAP2 SWAP1 PUSH2 0x250B JUMP JUMPDEST SWAP1 POP PUSH4 0x1E13380 PUSH1 0x64 PUSH2 0x10CC SWAP2 SWAP1 PUSH2 0x262D JUMP JUMPDEST DUP2 DUP5 PUSH2 0x10D8 SWAP2 SWAP1 PUSH2 0x262D JUMP JUMPDEST PUSH2 0x10E2 SWAP2 SWAP1 PUSH2 0x269E JUMP JUMPDEST SWAP4 POP POP POP POP SWAP3 SWAP2 POP POP JUMP JUMPDEST PUSH1 0x0 PUSH1 0x6 PUSH1 0x0 PUSH1 0x7 SLOAD DUP2 MSTORE PUSH1 0x20 ADD SWAP1 DUP2 MSTORE PUSH1 0x20 ADD PUSH1 0x0 KECCAK256 SWAP1 POP PUSH1 0x7 PUSH1 0x0 DUP2 SLOAD DUP1 SWAP3 SWAP2 SWAP1 PUSH2 0x1119 SWAP1 PUSH2 0x1DE9 JUMP JUMPDEST SWAP2 SWAP1 POP SSTORE POP PUSH1 0x3 PUSH1 0x0 SWAP1 SLOAD SWAP1 PUSH2 0x100 EXP SWAP1 DIV PUSH20 0xFFFFFFFFFFFFFFFFFFFFFFFFFFFFFFFFFFFFFFFF AND PUSH20 0xFFFFFFFFFFFFFFFFFFFFFFFFFFFFFFFFFFFFFFFF AND PUSH4 0x23B872DD CALLER ADDRESS PUSH1 0x0 SLOAD PUSH1 0x40 MLOAD DUP5 PUSH4 0xFFFFFFFF AND PUSH1 0xE0 SHL DUP2 MSTORE PUSH1 0x4 ADD PUSH2 0x117F SWAP4 SWAP3 SWAP2 SWAP1 PUSH2 0x26CF JUMP JUMPDEST PUSH1 0x20 PUSH1 0x40 MLOAD DUP1 DUP4 SUB DUP2 PUSH1 0x0 DUP8 GAS CALL ISZERO DUP1 ISZERO PUSH2 0x119E JUMPI RETURNDATASIZE PUSH1 0x0 DUP1 RETURNDATACOPY RETURNDATASIZE PUSH1 0x0 REVERT JUMPDEST POP POP POP POP PUSH1 0x40 MLOAD RETURNDATASIZE PUSH1 0x1F NOT PUSH1 0x1F DUP3 ADD AND DUP3 ADD DUP1 PUSH1 0x40 MSTORE POP DUP2 ADD SWAP1 PUSH2 0x11C2 SWAP2 SWAP1 PUSH2 0x2594 JUMP JUMPDEST PUSH2 0x1201 JUMPI PUSH1 0x40 MLOAD PUSH32 0x8C379A000000000000000000000000000000000000000000000000000000000 DUP2 MSTORE PUSH1 0x4 ADD PUSH2 0x11F8 SWAP1 PUSH2 0x2752 JUMP JUMPDEST PUSH1 0x40 MLOAD DUP1 SWAP2 SUB SWAP1 REVERT JUMPDEST DUP1 PUSH1 0x0 ADD DUP6 SWAP1 DUP1 PUSH1 0x1 DUP2 SLOAD ADD DUP1 DUP3 SSTORE DUP1 SWAP2 POP POP PUSH1 0x1 SWAP1 SUB SWAP1 PUSH1 0x0 MSTORE PUSH1 0x20 PUSH1 0x0 KECCAK256 ADD PUSH1 0x0 SWAP1 SWAP2 SWAP1 SWAP2 SWAP1 SWAP2 POP SWAP1 DUP2 PUSH2 0x1237 SWAP2 SWAP1 PUSH2 0x1FDD JUMP JUMPDEST POP DUP1 PUSH1 0x1 ADD DUP5 SWAP1 DUP1 PUSH1 0x1 DUP2 SLOAD ADD DUP1 DUP3 SSTORE DUP1 SWAP2 POP POP PUSH1 0x1 SWAP1 SUB SWAP1 PUSH1 0x0 MSTORE PUSH1 0x20 PUSH1 0x0 KECCAK256 ADD PUSH1 0x0 SWAP1 SWAP2 SWAP1 SWAP2 SWAP1 SWAP2 POP SSTORE CALLER DUP2 PUSH1 0x3 ADD PUSH1 0x0 PUSH2 0x100 EXP DUP2 SLOAD DUP2 PUSH20 0xFFFFFFFFFFFFFFFFFFFFFFFFFFFFFFFFFFFFFFFF MUL NOT AND SWAP1 DUP4 PUSH20 0xFFFFFFFFFFFFFFFFFFFFFFFFFFFFFFFFFFFFFFFF AND MUL OR SWAP1 SSTORE POP DUP1 PUSH1 0x4 ADD DUP4 SWAP1 DUP1 PUSH1 0x1 DUP2 SLOAD ADD DUP1 DUP3 SSTORE DUP1 SWAP2 POP POP PUSH1 0x1 SWAP1 SUB SWAP1 PUSH1 0x0 MSTORE PUSH1 0x20 PUSH1 0x0 KECCAK256 ADD PUSH1 0x0 SWAP1 SWAP2 SWAP1 SWAP2 SWAP1 SWAP2 POP SSTORE DUP1 PUSH1 0x5 ADD DUP3 SWAP1 DUP1 PUSH1 0x1 DUP2 SLOAD ADD DUP1 DUP3 SSTORE DUP1 SWAP2 POP POP PUSH1 0x1 SWAP1 SUB SWAP1 PUSH1 0x0 MSTORE PUSH1 0x20 PUSH1 0x0 KECCAK256 ADD PUSH1 0x0 SWAP1 SWAP2 SWAP1 SWAP2 SWAP1 SWAP2 POP SSTORE DUP1 PUSH1 0x7 ADD PUSH1 0x0 SWAP1 DUP1 PUSH1 0x1 DUP2 SLOAD ADD DUP1 DUP3 SSTORE DUP1 SWAP2 POP POP PUSH1 0x1 SWAP1 SUB SWAP1 PUSH1 0x0 MSTORE PUSH1 0x20 PUSH1 0x0 KECCAK256 SWAP1 PUSH1 0x20 SWAP2 DUP3 DUP3 DIV ADD SWAP2 SWAP1 MOD SWAP1 SWAP2 SWAP1 SWAP2 SWAP1 SWAP2 PUSH2 0x100 EXP DUP2 SLOAD DUP2 PUSH1 0xFF MUL NOT AND SWAP1 DUP4 ISZERO ISZERO MUL OR SWAP1 SSTORE POP PUSH1 0x7 SLOAD DUP2 PUSH1 0x2 ADD DUP2 SWAP1 SSTORE POP PUSH1 0xA PUSH1 0x0 CALLER PUSH20 0xFFFFFFFFFFFFFFFFFFFFFFFFFFFFFFFFFFFFFFFF AND PUSH20 0xFFFFFFFFFFFFFFFFFFFFFFFFFFFFFFFFFFFFFFFF AND DUP2 MSTORE PUSH1 0x20 ADD SWAP1 DUP2 MSTORE PUSH1 0x20 ADD PUSH1 0x0 KECCAK256 PUSH1 0x0 DUP2 SLOAD PUSH2 0x139A SWAP1 PUSH2 0x1DE9 JUMP JUMPDEST SWAP2 SWAP1 POP DUP2 SWAP1 SSTORE PUSH1 0x9 DUP2 SWAP1 SSTORE POP PUSH1 0x40 MLOAD DUP1 PUSH1 0x60 ADD PUSH1 0x40 MSTORE DUP1 PUSH1 0x9 SLOAD DUP2 MSTORE PUSH1 0x20 ADD PUSH1 0x0 SLOAD DUP2 MSTORE PUSH1 0x20 ADD TIMESTAMP DUP2 MSTORE POP PUSH1 0xC PUSH1 0x0 CALLER PUSH20 0xFFFFFFFFFFFFFFFFFFFFFFFFFFFFFFFFFFFFFFFF AND PUSH20 0xFFFFFFFFFFFFFFFFFFFFFFFFFFFFFFFFFFFFFFFF AND DUP2 MSTORE PUSH1 0x20 ADD SWAP1 DUP2 MSTORE PUSH1 0x20 ADD PUSH1 0x0 KECCAK256 PUSH1 0x0 PUSH1 0x9 SLOAD DUP2 MSTORE PUSH1 0x20 ADD SWAP1 DUP2 MSTORE PUSH1 0x20 ADD PUSH1 0x0 KECCAK256 PUSH1 0x0 DUP3 ADD MLOAD DUP2 PUSH1 0x0 ADD SSTORE PUSH1 0x20 DUP3 ADD MLOAD DUP2 PUSH1 0x1 ADD SSTORE PUSH1 0x40 DUP3 ADD MLOAD DUP2 PUSH1 0x2 ADD SSTORE SWAP1 POP POP POP POP POP POP POP JUMP JUMPDEST PUSH1 0x4 PUSH1 0x20 MSTORE DUP1 PUSH1 0x0 MSTORE PUSH1 0x40 PUSH1 0x0 KECCAK256 PUSH1 0x0 SWAP2 POP SWAP1 POP DUP1 PUSH1 0x0 ADD DUP1 SLOAD PUSH2 0x1462 SWAP1 PUSH2 0x1D89 JUMP JUMPDEST DUP1 PUSH1 0x1F ADD PUSH1 0x20 DUP1 SWAP2 DIV MUL PUSH1 0x20 ADD PUSH1 0x40 MLOAD SWAP1 DUP2 ADD PUSH1 0x40 MSTORE DUP1 SWAP3 SWAP2 SWAP1 DUP2 DUP2 MSTORE PUSH1 0x20 ADD DUP3 DUP1 SLOAD PUSH2 0x148E SWAP1 PUSH2 0x1D89 JUMP JUMPDEST DUP1 ISZERO PUSH2 0x14DB JUMPI DUP1 PUSH1 0x1F LT PUSH2 0x14B0 JUMPI PUSH2 0x100 DUP1 DUP4 SLOAD DIV MUL DUP4 MSTORE SWAP2 PUSH1 0x20 ADD SWAP2 PUSH2 0x14DB JUMP JUMPDEST DUP3 ADD SWAP2 SWAP1 PUSH1 0x0 MSTORE PUSH1 0x20 PUSH1 0x0 KECCAK256 SWAP1 JUMPDEST DUP2 SLOAD DUP2 MSTORE SWAP1 PUSH1 0x1 ADD SWAP1 PUSH1 0x20 ADD DUP1 DUP4 GT PUSH2 0x14BE JUMPI DUP3 SWAP1 SUB PUSH1 0x1F AND DUP3 ADD SWAP2 JUMPDEST POP POP POP POP POP SWAP1 DUP1 PUSH1 0x1 ADD PUSH1 0x0 SWAP1 SLOAD SWAP1 PUSH2 0x100 EXP SWAP1 DIV PUSH20 0xFFFFFFFFFFFFFFFFFFFFFFFFFFFFFFFFFFFFFFFF AND SWAP1 DUP1 PUSH1 0x2 ADD SLOAD SWAP1 DUP1 PUSH1 0x3 ADD SLOAD SWAP1 DUP1 PUSH1 0x4 ADD SLOAD SWAP1 POP DUP6 JUMP JUMPDEST PUSH1 0x0 SLOAD DUP2 JUMP JUMPDEST PUSH1 0x0 DUP2 SWAP1 POP SWAP2 SWAP1 POP JUMP JUMPDEST PUSH2 0x1536 DUP2 PUSH2 0x1523 JUMP JUMPDEST DUP3 MSTORE POP POP JUMP JUMPDEST PUSH1 0x0 PUSH1 0x20 DUP3 ADD SWAP1 POP PUSH2 0x1551 PUSH1 0x0 DUP4 ADD DUP5 PUSH2 0x152D JUMP JUMPDEST SWAP3 SWAP2 POP POP JUMP JUMPDEST PUSH1 0x0 PUSH1 0x40 MLOAD SWAP1 POP SWAP1 JUMP JUMPDEST PUSH1 0x0 DUP1 REVERT JUMPDEST PUSH1 0x0 DUP1 REVERT JUMPDEST PUSH2 0x1574 DUP2 PUSH2 0x1523 JUMP JUMPDEST DUP2 EQ PUSH2 0x157F JUMPI PUSH1 0x0 DUP1 REVERT JUMPDEST POP JUMP JUMPDEST PUSH1 0x0 DUP2 CALLDATALOAD SWAP1 POP PUSH2 0x1591 DUP2 PUSH2 0x156B JUMP JUMPDEST SWAP3 SWAP2 POP POP JUMP JUMPDEST PUSH1 0x0 PUSH1 0x20 DUP3 DUP5 SUB SLT ISZERO PUSH2 0x15AD JUMPI PUSH2 0x15AC PUSH2 0x1561 JUMP JUMPDEST JUMPDEST PUSH1 0x0 PUSH2 0x15BB DUP5 DUP3 DUP6 ADD PUSH2 0x1582 JUMP JUMPDEST SWAP2 POP POP SWAP3 SWAP2 POP POP JUMP JUMPDEST PUSH1 0x0 DUP2 MLOAD SWAP1 POP SWAP2 SWAP1 POP JUMP JUMPDEST PUSH1 0x0 DUP3 DUP3 MSTORE PUSH1 0x20 DUP3 ADD SWAP1 POP SWAP3 SWAP2 POP POP JUMP JUMPDEST PUSH1 0x0 DUP2 SWAP1 POP PUSH1 0x20 DUP3 ADD SWAP1 POP SWAP2 SWAP1 POP JUMP JUMPDEST PUSH1 0x0 DUP2 MLOAD SWAP1 POP SWAP2 SWAP1 POP JUMP JUMPDEST PUSH1 0x0 DUP3 DUP3 MSTORE PUSH1 0x20 DUP3 ADD SWAP1 POP SWAP3 SWAP2 POP POP JUMP JUMPDEST PUSH1 0x0 JUMPDEST DUP4 DUP2 LT ISZERO PUSH2 0x162A JUMPI DUP1 DUP3 ADD MLOAD DUP2 DUP5 ADD MSTORE PUSH1 0x20 DUP2 ADD SWAP1 POP PUSH2 0x160F JUMP JUMPDEST PUSH1 0x0 DUP5 DUP5 ADD MSTORE POP POP POP POP JUMP JUMPDEST PUSH1 0x0 PUSH1 0x1F NOT PUSH1 0x1F DUP4 ADD AND SWAP1 POP SWAP2 SWAP1 POP JUMP JUMPDEST PUSH1 0x0 PUSH2 0x1652 DUP3 PUSH2 0x15F0 JUMP JUMPDEST PUSH2 0x165C DUP2 DUP6 PUSH2 0x15FB JUMP JUMPDEST SWAP4 POP PUSH2 0x166C DUP2 DUP6 PUSH1 0x20 DUP7 ADD PUSH2 0x160C JUMP JUMPDEST PUSH2 0x1675 DUP2 PUSH2 0x1636 JUMP JUMPDEST DUP5 ADD SWAP2 POP POP SWAP3 SWAP2 POP POP JUMP JUMPDEST PUSH1 0x0 PUSH2 0x168C DUP4 DUP4 PUSH2 0x1647 JUMP JUMPDEST SWAP1 POP SWAP3 SWAP2 POP POP JUMP JUMPDEST PUSH1 0x0 PUSH1 0x20 DUP3 ADD SWAP1 POP SWAP2 SWAP1 POP JUMP JUMPDEST PUSH1 0x0 PUSH2 0x16AC DUP3 PUSH2 0x15C4 JUMP JUMPDEST PUSH2 0x16B6 DUP2 DUP6 PUSH2 0x15CF JUMP JUMPDEST SWAP4 POP DUP4 PUSH1 0x20 DUP3 MUL DUP6 ADD PUSH2 0x16C8 DUP6 PUSH2 0x15E0 JUMP JUMPDEST DUP1 PUSH1 0x0 JUMPDEST DUP6 DUP2 LT ISZERO PUSH2 0x1704 JUMPI DUP5 DUP5 SUB DUP10 MSTORE DUP2 MLOAD PUSH2 0x16E5 DUP6 DUP3 PUSH2 0x1680 JUMP JUMPDEST SWAP5 POP PUSH2 0x16F0 DUP4 PUSH2 0x1694 JUMP JUMPDEST SWAP3 POP PUSH1 0x20 DUP11 ADD SWAP10 POP POP PUSH1 0x1 DUP2 ADD SWAP1 POP PUSH2 0x16CC JUMP JUMPDEST POP DUP3 SWAP8 POP DUP8 SWAP6 POP POP POP POP POP POP SWAP3 SWAP2 POP POP JUMP JUMPDEST PUSH1 0x0 PUSH1 0x20 DUP3 ADD SWAP1 POP DUP2 DUP2 SUB PUSH1 0x0 DUP4 ADD MSTORE PUSH2 0x1730 DUP2 DUP5 PUSH2 0x16A1 JUMP JUMPDEST SWAP1 POP SWAP3 SWAP2 POP POP JUMP JUMPDEST PUSH1 0x0 DUP1 REVERT JUMPDEST PUSH1 0x0 DUP1 REVERT JUMPDEST PUSH32 0x4E487B7100000000000000000000000000000000000000000000000000000000 PUSH1 0x0 MSTORE PUSH1 0x41 PUSH1 0x4 MSTORE PUSH1 0x24 PUSH1 0x0 REVERT JUMPDEST PUSH2 0x177A DUP3 PUSH2 0x1636 JUMP JUMPDEST DUP2 ADD DUP2 DUP2 LT PUSH8 0xFFFFFFFFFFFFFFFF DUP3 GT OR ISZERO PUSH2 0x1799 JUMPI PUSH2 0x1798 PUSH2 0x1742 JUMP JUMPDEST JUMPDEST DUP1 PUSH1 0x40 MSTORE POP POP POP JUMP JUMPDEST PUSH1 0x0 PUSH2 0x17AC PUSH2 0x1557 JUMP JUMPDEST SWAP1 POP PUSH2 0x17B8 DUP3 DUP3 PUSH2 0x1771 JUMP JUMPDEST SWAP2 SWAP1 POP JUMP JUMPDEST PUSH1 0x0 PUSH8 0xFFFFFFFFFFFFFFFF DUP3 GT ISZERO PUSH2 0x17D8 JUMPI PUSH2 0x17D7 PUSH2 0x1742 JUMP JUMPDEST JUMPDEST PUSH2 0x17E1 DUP3 PUSH2 0x1636 JUMP JUMPDEST SWAP1 POP PUSH1 0x20 DUP2 ADD SWAP1 POP SWAP2 SWAP1 POP JUMP JUMPDEST DUP3 DUP2 DUP4 CALLDATACOPY PUSH1 0x0 DUP4 DUP4 ADD MSTORE POP POP POP JUMP JUMPDEST PUSH1 0x0 PUSH2 0x1810 PUSH2 0x180B DUP5 PUSH2 0x17BD JUMP JUMPDEST PUSH2 0x17A2 JUMP JUMPDEST SWAP1 POP DUP3 DUP2 MSTORE PUSH1 0x20 DUP2 ADD DUP5 DUP5 DUP5 ADD GT ISZERO PUSH2 0x182C JUMPI PUSH2 0x182B PUSH2 0x173D JUMP JUMPDEST JUMPDEST PUSH2 0x1837 DUP5 DUP3 DUP6 PUSH2 0x17EE JUMP JUMPDEST POP SWAP4 SWAP3 POP POP POP JUMP JUMPDEST PUSH1 0x0 DUP3 PUSH1 0x1F DUP4 ADD SLT PUSH2 0x1854 JUMPI PUSH2 0x1853 PUSH2 0x1738 JUMP JUMPDEST JUMPDEST DUP2 CALLDATALOAD PUSH2 0x1864 DUP5 DUP3 PUSH1 0x20 DUP7 ADD PUSH2 0x17FD JUMP JUMPDEST SWAP2 POP POP SWAP3 SWAP2 POP POP JUMP JUMPDEST PUSH1 0x0 DUP1 PUSH1 0x0 DUP1 PUSH1 0x80 DUP6 DUP8 SUB SLT ISZERO PUSH2 0x1887 JUMPI PUSH2 0x1886 PUSH2 0x1561 JUMP JUMPDEST JUMPDEST PUSH1 0x0 PUSH2 0x1895 DUP8 DUP3 DUP9 ADD PUSH2 0x1582 JUMP JUMPDEST SWAP5 POP POP PUSH1 0x20 PUSH2 0x18A6 DUP8 DUP3 DUP9 ADD PUSH2 0x1582 JUMP JUMPDEST SWAP4 POP POP PUSH1 0x40 PUSH2 0x18B7 DUP8 DUP3 DUP9 ADD PUSH2 0x1582 JUMP JUMPDEST SWAP3 POP POP PUSH1 0x60 DUP6 ADD CALLDATALOAD PUSH8 0xFFFFFFFFFFFFFFFF DUP2 GT ISZERO PUSH2 0x18D8 JUMPI PUSH2 0x18D7 PUSH2 0x1566 JUMP JUMPDEST JUMPDEST PUSH2 0x18E4 DUP8 DUP3 DUP9 ADD PUSH2 0x183F JUMP JUMPDEST SWAP2 POP POP SWAP3 SWAP6 SWAP2 SWAP5 POP SWAP3 POP JUMP JUMPDEST PUSH1 0x0 DUP2 ISZERO ISZERO SWAP1 POP SWAP2 SWAP1 POP JUMP JUMPDEST PUSH2 0x1905 DUP2 PUSH2 0x18F0 JUMP JUMPDEST DUP3 MSTORE POP POP JUMP JUMPDEST PUSH1 0x0 PUSH1 0x20 DUP3 ADD SWAP1 POP PUSH2 0x1920 PUSH1 0x0 DUP4 ADD DUP5 PUSH2 0x18FC JUMP JUMPDEST SWAP3 SWAP2 POP POP JUMP JUMPDEST PUSH1 0x0 DUP1 PUSH1 0x40 DUP4 DUP6 SUB SLT ISZERO PUSH2 0x193D JUMPI PUSH2 0x193C PUSH2 0x1561 JUMP JUMPDEST JUMPDEST PUSH1 0x0 DUP4 ADD CALLDATALOAD PUSH8 0xFFFFFFFFFFFFFFFF DUP2 GT ISZERO PUSH2 0x195B JUMPI PUSH2 0x195A PUSH2 0x1566 JUMP JUMPDEST JUMPDEST PUSH2 0x1967 DUP6 DUP3 DUP7 ADD PUSH2 0x183F JUMP JUMPDEST SWAP3 POP POP PUSH1 0x20 DUP4 ADD CALLDATALOAD PUSH8 0xFFFFFFFFFFFFFFFF DUP2 GT ISZERO PUSH2 0x1988 JUMPI PUSH2 0x1987 PUSH2 0x1566 JUMP JUMPDEST JUMPDEST PUSH2 0x1994 DUP6 DUP3 DUP7 ADD PUSH2 0x183F JUMP JUMPDEST SWAP2 POP POP SWAP3 POP SWAP3 SWAP1 POP JUMP JUMPDEST PUSH1 0x0 PUSH20 0xFFFFFFFFFFFFFFFFFFFFFFFFFFFFFFFFFFFFFFFF DUP3 AND SWAP1 POP SWAP2 SWAP1 POP JUMP JUMPDEST PUSH1 0x0 PUSH2 0x19C9 DUP3 PUSH2 0x199E JUMP JUMPDEST SWAP1 POP SWAP2 SWAP1 POP JUMP JUMPDEST PUSH2 0x19D9 DUP2 PUSH2 0x19BE JUMP JUMPDEST DUP3 MSTORE POP POP JUMP JUMPDEST PUSH1 0x0 PUSH1 0x60 DUP3 ADD SWAP1 POP PUSH2 0x19F4 PUSH1 0x0 DUP4 ADD DUP7 PUSH2 0x152D JUMP JUMPDEST PUSH2 0x1A01 PUSH1 0x20 DUP4 ADD DUP6 PUSH2 0x19D0 JUMP JUMPDEST PUSH2 0x1A0E PUSH1 0x40 DUP4 ADD DUP5 PUSH2 0x152D JUMP JUMPDEST SWAP5 SWAP4 POP POP POP POP JUMP JUMPDEST PUSH1 0x0 DUP1 REVERT JUMPDEST PUSH1 0x0 DUP1 REVERT JUMPDEST PUSH1 0x0 DUP1 DUP4 PUSH1 0x1F DUP5 ADD SLT PUSH2 0x1A36 JUMPI PUSH2 0x1A35 PUSH2 0x1738 JUMP JUMPDEST JUMPDEST DUP3 CALLDATALOAD SWAP1 POP PUSH8 0xFFFFFFFFFFFFFFFF DUP2 GT ISZERO PUSH2 0x1A53 JUMPI PUSH2 0x1A52 PUSH2 0x1A16 JUMP JUMPDEST JUMPDEST PUSH1 0x20 DUP4 ADD SWAP2 POP DUP4 PUSH1 0x1 DUP3 MUL DUP4 ADD GT ISZERO PUSH2 0x1A6F JUMPI PUSH2 0x1A6E PUSH2 0x1A1B JUMP JUMPDEST JUMPDEST SWAP3 POP SWAP3 SWAP1 POP JUMP JUMPDEST PUSH1 0x0 DUP1 PUSH1 0x0 DUP1 PUSH1 0x0 DUP1 PUSH1 0xA0 DUP8 DUP10 SUB SLT ISZERO PUSH2 0x1A93 JUMPI PUSH2 0x1A92 PUSH2 0x1561 JUMP JUMPDEST JUMPDEST PUSH1 0x0 PUSH2 0x1AA1 DUP10 DUP3 DUP11 ADD PUSH2 0x1582 JUMP JUMPDEST SWAP7 POP POP PUSH1 0x20 PUSH2 0x1AB2 DUP10 DUP3 DUP11 ADD PUSH2 0x1582 JUMP JUMPDEST SWAP6 POP POP PUSH1 0x40 DUP8 ADD CALLDATALOAD PUSH8 0xFFFFFFFFFFFFFFFF DUP2 GT ISZERO PUSH2 0x1AD3 JUMPI PUSH2 0x1AD2 PUSH2 0x1566 JUMP JUMPDEST JUMPDEST PUSH2 0x1ADF DUP10 DUP3 DUP11 ADD PUSH2 0x1A20 JUMP JUMPDEST SWAP5 POP SWAP5 POP POP PUSH1 0x60 PUSH2 0x1AF2 DUP10 DUP3 DUP11 ADD PUSH2 0x1582 JUMP JUMPDEST SWAP3 POP POP PUSH1 0x80 PUSH2 0x1B03 DUP10 DUP3 DUP11 ADD PUSH2 0x1582 JUMP JUMPDEST SWAP2 POP POP SWAP3 SWAP6 POP SWAP3 SWAP6 POP SWAP3 SWAP6 JUMP JUMPDEST PUSH1 0x0 DUP1 PUSH1 0x0 DUP1 PUSH1 0x80 DUP6 DUP8 SUB SLT ISZERO PUSH2 0x1B2A JUMPI PUSH2 0x1B29 PUSH2 0x1561 JUMP JUMPDEST JUMPDEST PUSH1 0x0 PUSH2 0x1B38 DUP8 DUP3 DUP9 ADD PUSH2 0x1582 JUMP JUMPDEST SWAP5 POP POP PUSH1 0x20 PUSH2 0x1B49 DUP8 DUP3 DUP9 ADD PUSH2 0x1582 JUMP JUMPDEST SWAP4 POP POP PUSH1 0x40 PUSH2 0x1B5A DUP8 DUP3 DUP9 ADD PUSH2 0x1582 JUMP JUMPDEST SWAP3 POP POP PUSH1 0x60 PUSH2 0x1B6B DUP8 DUP3 DUP9 ADD PUSH2 0x1582 JUMP JUMPDEST SWAP2 POP POP SWAP3 SWAP6 SWAP2 SWAP5 POP SWAP3 POP JUMP JUMPDEST PUSH1 0x0 PUSH2 0x1B82 DUP3 PUSH2 0x199E JUMP JUMPDEST SWAP1 POP SWAP2 SWAP1 POP JUMP JUMPDEST PUSH2 0x1B92 DUP2 PUSH2 0x1B77 JUMP JUMPDEST DUP2 EQ PUSH2 0x1B9D JUMPI PUSH1 0x0 DUP1 REVERT JUMPDEST POP JUMP JUMPDEST PUSH1 0x0 DUP2 CALLDATALOAD SWAP1 POP PUSH2 0x1BAF DUP2 PUSH2 0x1B89 JUMP JUMPDEST SWAP3 SWAP2 POP POP JUMP JUMPDEST PUSH1 0x0 DUP1 PUSH1 0x40 DUP4 DUP6 SUB SLT ISZERO PUSH2 0x1BCC JUMPI PUSH2 0x1BCB PUSH2 0x1561 JUMP JUMPDEST JUMPDEST PUSH1 0x0 PUSH2 0x1BDA DUP6 DUP3 DUP7 ADD PUSH2 0x1BA0 JUMP JUMPDEST SWAP3 POP POP PUSH1 0x20 PUSH2 0x1BEB DUP6 DUP3 DUP7 ADD PUSH2 0x1582 JUMP JUMPDEST SWAP2 POP POP SWAP3 POP SWAP3 SWAP1 POP JUMP JUMPDEST PUSH1 0x0 DUP1 PUSH1 0x0 DUP1 PUSH1 0x80 DUP6 DUP8 SUB SLT ISZERO PUSH2 0x1C0F JUMPI PUSH2 0x1C0E PUSH2 0x1561 JUMP JUMPDEST JUMPDEST PUSH1 0x0 DUP6 ADD CALLDATALOAD PUSH8 0xFFFFFFFFFFFFFFFF DUP2 GT ISZERO PUSH2 0x1C2D JUMPI PUSH2 0x1C2C PUSH2 0x1566 JUMP JUMPDEST JUMPDEST PUSH2 0x1C39 DUP8 DUP3 DUP9 ADD PUSH2 0x183F JUMP JUMPDEST SWAP5 POP POP PUSH1 0x20 PUSH2 0x1C4A DUP8 DUP3 DUP9 ADD PUSH2 0x1582 JUMP JUMPDEST SWAP4 POP POP PUSH1 0x40 PUSH2 0x1C5B DUP8 DUP3 DUP9 ADD PUSH2 0x1582 JUMP JUMPDEST SWAP3 POP POP PUSH1 0x60 PUSH2 0x1C6C DUP8 DUP3 DUP9 ADD PUSH2 0x1582 JUMP JUMPDEST SWAP2 POP POP SWAP3 SWAP6 SWAP2 SWAP5 POP SWAP3 POP JUMP JUMPDEST PUSH1 0x0 DUP3 DUP3 MSTORE PUSH1 0x20 DUP3 ADD SWAP1 POP SWAP3 SWAP2 POP POP JUMP JUMPDEST PUSH1 0x0 PUSH2 0x1C94 DUP3 PUSH2 0x15F0 JUMP JUMPDEST PUSH2 0x1C9E DUP2 DUP6 PUSH2 0x1C78 JUMP JUMPDEST SWAP4 POP PUSH2 0x1CAE DUP2 DUP6 PUSH1 0x20 DUP7 ADD PUSH2 0x160C JUMP JUMPDEST PUSH2 0x1CB7 DUP2 PUSH2 0x1636 JUMP JUMPDEST DUP5 ADD SWAP2 POP POP SWAP3 SWAP2 POP POP JUMP JUMPDEST PUSH2 0x1CCB DUP2 PUSH2 0x1B77 JUMP JUMPDEST DUP3 MSTORE POP POP JUMP JUMPDEST PUSH1 0x0 PUSH1 0xA0 DUP3 ADD SWAP1 POP DUP2 DUP2 SUB PUSH1 0x0 DUP4 ADD MSTORE PUSH2 0x1CEB DUP2 DUP9 PUSH2 0x1C89 JUMP JUMPDEST SWAP1 POP PUSH2 0x1CFA PUSH1 0x20 DUP4 ADD DUP8 PUSH2 0x1CC2 JUMP JUMPDEST PUSH2 0x1D07 PUSH1 0x40 DUP4 ADD DUP7 PUSH2 0x152D JUMP JUMPDEST PUSH2 0x1D14 PUSH1 0x60 DUP4 ADD DUP6 PUSH2 0x152D JUMP JUMPDEST PUSH2 0x1D21 PUSH1 0x80 DUP4 ADD DUP5 PUSH2 0x152D JUMP JUMPDEST SWAP7 SWAP6 POP POP POP POP POP POP JUMP JUMPDEST PUSH32 0x4E487B7100000000000000000000000000000000000000000000000000000000 PUSH1 0x0 MSTORE PUSH1 0x32 PUSH1 0x4 MSTORE PUSH1 0x24 PUSH1 0x0 REVERT JUMPDEST PUSH32 0x4E487B7100000000000000000000000000000000000000000000000000000000 PUSH1 0x0 MSTORE PUSH1 0x22 PUSH1 0x4 MSTORE PUSH1 0x24 PUSH1 0x0 REVERT JUMPDEST PUSH1 0x0 PUSH1 0x2 DUP3 DIV SWAP1 POP PUSH1 0x1 DUP3 AND DUP1 PUSH2 0x1DA1 JUMPI PUSH1 0x7F DUP3 AND SWAP2 POP JUMPDEST PUSH1 0x20 DUP3 LT DUP2 SUB PUSH2 0x1DB4 JUMPI PUSH2 0x1DB3 PUSH2 0x1D5A JUMP JUMPDEST JUMPDEST POP SWAP2 SWAP1 POP JUMP JUMPDEST PUSH32 0x4E487B7100000000000000000000000000000000000000000000000000000000 PUSH1 0x0 MSTORE PUSH1 0x11 PUSH1 0x4 MSTORE PUSH1 0x24 PUSH1 0x0 REVERT JUMPDEST PUSH1 0x0 PUSH2 0x1DF4 DUP3 PUSH2 0x1523 JUMP JUMPDEST SWAP2 POP PUSH32 0xFFFFFFFFFFFFFFFFFFFFFFFFFFFFFFFFFFFFFFFFFFFFFFFFFFFFFFFFFFFFFFFF DUP3 SUB PUSH2 0x1E26 JUMPI PUSH2 0x1E25 PUSH2 0x1DBA JUMP JUMPDEST JUMPDEST PUSH1 0x1 DUP3 ADD SWAP1 POP SWAP2 SWAP1 POP JUMP JUMPDEST PUSH1 0x0 DUP2 SWAP1 POP DUP2 PUSH1 0x0 MSTORE PUSH1 0x20 PUSH1 0x0 KECCAK256 SWAP1 POP SWAP2 SWAP1 POP JUMP JUMPDEST PUSH1 0x0 PUSH1 0x20 PUSH1 0x1F DUP4 ADD DIV SWAP1 POP SWAP2 SWAP1 POP JUMP JUMPDEST PUSH1 0x0 DUP3 DUP3 SHL SWAP1 POP SWAP3 SWAP2 POP POP JUMP JUMPDEST PUSH1 0x0 PUSH1 0x8 DUP4 MUL PUSH2 0x1E93 PUSH32 0xFFFFFFFFFFFFFFFFFFFFFFFFFFFFFFFFFFFFFFFFFFFFFFFFFFFFFFFFFFFFFFFF DUP3 PUSH2 0x1E56 JUMP JUMPDEST PUSH2 0x1E9D DUP7 DUP4 PUSH2 0x1E56 JUMP JUMPDEST SWAP6 POP DUP1 NOT DUP5 AND SWAP4 POP DUP1 DUP7 AND DUP5 OR SWAP3 POP POP POP SWAP4 SWAP3 POP POP POP JUMP JUMPDEST PUSH1 0x0 DUP2 SWAP1 POP SWAP2 SWAP1 POP JUMP JUMPDEST PUSH1 0x0 PUSH2 0x1EDA PUSH2 0x1ED5 PUSH2 0x1ED0 DUP5 PUSH2 0x1523 JUMP JUMPDEST PUSH2 0x1EB5 JUMP JUMPDEST PUSH2 0x1523 JUMP JUMPDEST SWAP1 POP SWAP2 SWAP1 POP JUMP JUMPDEST PUSH1 0x0 DUP2 SWAP1 POP SWAP2 SWAP1 POP JUMP JUMPDEST PUSH2 0x1EF4 DUP4 PUSH2 0x1EBF JUMP JUMPDEST PUSH2 0x1F08 PUSH2 0x1F00 DUP3 PUSH2 0x1EE1 JUMP JUMPDEST DUP5 DUP5 SLOAD PUSH2 0x1E63 JUMP JUMPDEST DUP3 SSTORE POP POP POP POP JUMP JUMPDEST PUSH1 0x0 SWAP1 JUMP JUMPDEST PUSH2 0x1F1D PUSH2 0x1F10 JUMP JUMPDEST PUSH2 0x1F28 DUP2 DUP5 DUP5 PUSH2 0x1EEB JUMP JUMPDEST POP POP POP JUMP JUMPDEST JUMPDEST DUP2 DUP2 LT ISZERO PUSH2 0x1F4C JUMPI PUSH2 0x1F41 PUSH1 0x0 DUP3 PUSH2 0x1F15 JUMP JUMPDEST PUSH1 0x1 DUP2 ADD SWAP1 POP PUSH2 0x1F2E JUMP JUMPDEST POP POP JUMP JUMPDEST PUSH1 0x1F DUP3 GT ISZERO PUSH2 0x1F91 JUMPI PUSH2 0x1F62 DUP2 PUSH2 0x1E31 JUMP JUMPDEST PUSH2 0x1F6B DUP5 PUSH2 0x1E46 JUMP JUMPDEST DUP2 ADD PUSH1 0x20 DUP6 LT ISZERO PUSH2 0x1F7A JUMPI DUP2 SWAP1 POP JUMPDEST PUSH2 0x1F8E PUSH2 0x1F86 DUP6 PUSH2 0x1E46 JUMP JUMPDEST DUP4 ADD DUP3 PUSH2 0x1F2D JUMP JUMPDEST POP POP JUMPDEST POP POP POP JUMP JUMPDEST PUSH1 0x0 DUP3 DUP3 SHR SWAP1 POP SWAP3 SWAP2 POP POP JUMP JUMPDEST PUSH1 0x0 PUSH2 0x1FB4 PUSH1 0x0 NOT DUP5 PUSH1 0x8 MUL PUSH2 0x1F96 JUMP JUMPDEST NOT DUP1 DUP4 AND SWAP2 POP POP SWAP3 SWAP2 POP POP JUMP JUMPDEST PUSH1 0x0 PUSH2 0x1FCD DUP4 DUP4 PUSH2 0x1FA3 JUMP JUMPDEST SWAP2 POP DUP3 PUSH1 0x2 MUL DUP3 OR SWAP1 POP SWAP3 SWAP2 POP POP JUMP JUMPDEST PUSH2 0x1FE6 DUP3 PUSH2 0x15F0 JUMP JUMPDEST PUSH8 0xFFFFFFFFFFFFFFFF DUP2 GT ISZERO PUSH2 0x1FFF JUMPI PUSH2 0x1FFE PUSH2 0x1742 JUMP JUMPDEST JUMPDEST PUSH2 0x2009 DUP3 SLOAD PUSH2 0x1D89 JUMP JUMPDEST PUSH2 0x2014 DUP3 DUP3 DUP6 PUSH2 0x1F50 JUMP JUMPDEST PUSH1 0x0 PUSH1 0x20 SWAP1 POP PUSH1 0x1F DUP4 GT PUSH1 0x1 DUP2 EQ PUSH2 0x2047 JUMPI PUSH1 0x0 DUP5 ISZERO PUSH2 0x2035 JUMPI DUP3 DUP8 ADD MLOAD SWAP1 POP JUMPDEST PUSH2 0x203F DUP6 DUP3 PUSH2 0x1FC1 JUMP JUMPDEST DUP7 SSTORE POP PUSH2 0x20A7 JUMP JUMPDEST PUSH1 0x1F NOT DUP5 AND PUSH2 0x2055 DUP7 PUSH2 0x1E31 JUMP JUMPDEST PUSH1 0x0 JUMPDEST DUP3 DUP2 LT ISZERO PUSH2 0x207D JUMPI DUP5 DUP10 ADD MLOAD DUP3 SSTORE PUSH1 0x1 DUP3 ADD SWAP2 POP PUSH1 0x20 DUP6 ADD SWAP5 POP PUSH1 0x20 DUP2 ADD SWAP1 POP PUSH2 0x2058 JUMP JUMPDEST DUP7 DUP4 LT ISZERO PUSH2 0x209A JUMPI DUP5 DUP10 ADD MLOAD PUSH2 0x2096 PUSH1 0x1F DUP10 AND DUP3 PUSH2 0x1FA3 JUMP JUMPDEST DUP4 SSTORE POP JUMPDEST PUSH1 0x1 PUSH1 0x2 DUP9 MUL ADD DUP9 SSTORE POP POP POP JUMPDEST POP POP POP POP POP POP JUMP JUMPDEST PUSH1 0x0 DUP2 SWAP1 POP SWAP3 SWAP2 POP POP JUMP JUMPDEST PUSH1 0x0 PUSH2 0x20C5 DUP3 PUSH2 0x15F0 JUMP JUMPDEST PUSH2 0x20CF DUP2 DUP6 PUSH2 0x20AF JUMP JUMPDEST SWAP4 POP PUSH2 0x20DF DUP2 DUP6 PUSH1 0x20 DUP7 ADD PUSH2 0x160C JUMP JUMPDEST DUP1 DUP5 ADD SWAP2 POP POP SWAP3 SWAP2 POP POP JUMP JUMPDEST PUSH1 0x0 PUSH2 0x20F7 DUP3 DUP5 PUSH2 0x20BA JUMP JUMPDEST SWAP2 POP DUP2 SWAP1 POP SWAP3 SWAP2 POP POP JUMP JUMPDEST PUSH32 0x5468652070726F766964657220646F6573206E6F74206861766520656E6F756E PUSH1 0x0 DUP3 ADD MSTORE PUSH32 0x6768207370616365206C6566742E000000000000000000000000000000000000 PUSH1 0x20 DUP3 ADD MSTORE POP JUMP JUMPDEST PUSH1 0x0 PUSH2 0x215E PUSH1 0x2E DUP4 PUSH2 0x1C78 JUMP JUMPDEST SWAP2 POP PUSH2 0x2169 DUP3 PUSH2 0x2102 JUMP JUMPDEST PUSH1 0x40 DUP3 ADD SWAP1 POP SWAP2 SWAP1 POP JUMP JUMPDEST PUSH1 0x0 PUSH1 0x20 DUP3 ADD SWAP1 POP DUP2 DUP2 SUB PUSH1 0x0 DUP4 ADD MSTORE PUSH2 0x218D DUP2 PUSH2 0x2151 JUMP JUMPDEST SWAP1 POP SWAP2 SWAP1 POP JUMP JUMPDEST PUSH32 0x457863656464696E672074696D65206C696D6974207365742062792070726F76 PUSH1 0x0 DUP3 ADD MSTORE PUSH32 0x6964657200000000000000000000000000000000000000000000000000000000 PUSH1 0x20 DUP3 ADD MSTORE POP JUMP JUMPDEST PUSH1 0x0 PUSH2 0x21F0 PUSH1 0x24 DUP4 PUSH2 0x1C78 JUMP JUMPDEST SWAP2 POP PUSH2 0x21FB DUP3 PUSH2 0x2194 JUMP JUMPDEST PUSH1 0x40 DUP3 ADD SWAP1 POP SWAP2 SWAP1 POP JUMP JUMPDEST PUSH1 0x0 PUSH1 0x20 DUP3 ADD SWAP1 POP DUP2 DUP2 SUB PUSH1 0x0 DUP4 ADD MSTORE PUSH2 0x221F DUP2 PUSH2 0x21E3 JUMP JUMPDEST SWAP1 POP SWAP2 SWAP1 POP JUMP JUMPDEST PUSH32 0x5468652064657669636520496420646F6573206E6F74206D6174636800000000 PUSH1 0x0 DUP3 ADD MSTORE POP JUMP JUMPDEST PUSH1 0x0 PUSH2 0x225C PUSH1 0x1C DUP4 PUSH2 0x1C78 JUMP JUMPDEST SWAP2 POP PUSH2 0x2267 DUP3 PUSH2 0x2226 JUMP JUMPDEST PUSH1 0x20 DUP3 ADD SWAP1 POP SWAP2 SWAP1 POP JUMP JUMPDEST PUSH1 0x0 PUSH1 0x20 DUP3 ADD SWAP1 POP DUP2 DUP2 SUB PUSH1 0x0 DUP4 ADD MSTORE PUSH2 0x228B DUP2 PUSH2 0x224F JUMP JUMPDEST SWAP1 POP SWAP2 SWAP1 POP JUMP JUMPDEST PUSH32 0x5468652070726F766964657220697320616C726561647920627573792C206E6F PUSH1 0x0 DUP3 ADD MSTORE PUSH32 0x207265736F757263657320617661696C61626C652E0000000000000000000000 PUSH1 0x20 DUP3 ADD MSTORE POP JUMP JUMPDEST PUSH1 0x0 PUSH2 0x22EE PUSH1 0x35 DUP4 PUSH2 0x1C78 JUMP JUMPDEST SWAP2 POP PUSH2 0x22F9 DUP3 PUSH2 0x2292 JUMP JUMPDEST PUSH1 0x40 DUP3 ADD SWAP1 POP SWAP2 SWAP1 POP JUMP JUMPDEST PUSH1 0x0 PUSH1 0x20 DUP3 ADD SWAP1 POP DUP2 DUP2 SUB PUSH1 0x0 DUP4 ADD MSTORE PUSH2 0x231D DUP2 PUSH2 0x22E1 JUMP JUMPDEST SWAP1 POP SWAP2 SWAP1 POP JUMP JUMPDEST PUSH1 0x0 DUP3 SWAP1 POP SWAP3 SWAP2 POP POP JUMP JUMPDEST PUSH2 0x2339 DUP4 DUP4 PUSH2 0x2324 JUMP JUMPDEST PUSH8 0xFFFFFFFFFFFFFFFF DUP2 GT ISZERO PUSH2 0x2352 JUMPI PUSH2 0x2351 PUSH2 0x1742 JUMP JUMPDEST JUMPDEST PUSH2 0x235C DUP3 SLOAD PUSH2 0x1D89 JUMP JUMPDEST PUSH2 0x2367 DUP3 DUP3 DUP6 PUSH2 0x1F50 JUMP JUMPDEST PUSH1 0x0 PUSH1 0x1F DUP4 GT PUSH1 0x1 DUP2 EQ PUSH2 0x2396 JUMPI PUSH1 0x0 DUP5 ISZERO PUSH2 0x2384 JUMPI DUP3 DUP8 ADD CALLDATALOAD SWAP1 POP JUMPDEST PUSH2 0x238E DUP6 DUP3 PUSH2 0x1FC1 JUMP JUMPDEST DUP7 SSTORE POP PUSH2 0x23F6 JUMP JUMPDEST PUSH1 0x1F NOT DUP5 AND PUSH2 0x23A4 DUP7 PUSH2 0x1E31 JUMP JUMPDEST PUSH1 0x0 JUMPDEST DUP3 DUP2 LT ISZERO PUSH2 0x23CC JUMPI DUP5 DUP10 ADD CALLDATALOAD DUP3 SSTORE PUSH1 0x1 DUP3 ADD SWAP2 POP PUSH1 0x20 DUP6 ADD SWAP5 POP PUSH1 0x20 DUP2 ADD SWAP1 POP PUSH2 0x23A7 JUMP JUMPDEST DUP7 DUP4 LT ISZERO PUSH2 0x23E9 JUMPI DUP5 DUP10 ADD CALLDATALOAD PUSH2 0x23E5 PUSH1 0x1F DUP10 AND DUP3 PUSH2 0x1FA3 JUMP JUMPDEST DUP4 SSTORE POP JUMPDEST PUSH1 0x1 PUSH1 0x2 DUP9 MUL ADD DUP9 SSTORE POP POP POP JUMPDEST POP POP POP POP POP POP POP JUMP JUMPDEST PUSH32 0x4E6F207374616B6520666F756E64000000000000000000000000000000000000 PUSH1 0x0 DUP3 ADD MSTORE POP JUMP JUMPDEST PUSH1 0x0 PUSH2 0x2435 PUSH1 0xE DUP4 PUSH2 0x1C78 JUMP JUMPDEST SWAP2 POP PUSH2 0x2440 DUP3 PUSH2 0x23FF JUMP JUMPDEST PUSH1 0x20 DUP3 ADD SWAP1 POP SWAP2 SWAP1 POP JUMP JUMPDEST PUSH1 0x0 PUSH1 0x20 DUP3 ADD SWAP1 POP DUP2 DUP2 SUB PUSH1 0x0 DUP4 ADD MSTORE PUSH2 0x2464 DUP2 PUSH2 0x2428 JUMP JUMPDEST SWAP1 POP SWAP2 SWAP1 POP JUMP JUMPDEST PUSH32 0x54696D6520706572696F6420686173206E6F7420656C61707365642E00000000 PUSH1 0x0 DUP3 ADD MSTORE POP JUMP JUMPDEST PUSH1 0x0 PUSH2 0x24A1 PUSH1 0x1C DUP4 PUSH2 0x1C78 JUMP JUMPDEST SWAP2 POP PUSH2 0x24AC DUP3 PUSH2 0x246B JUMP JUMPDEST PUSH1 0x20 DUP3 ADD SWAP1 POP SWAP2 SWAP1 POP JUMP JUMPDEST PUSH1 0x0 PUSH1 0x20 DUP3 ADD SWAP1 POP DUP2 DUP2 SUB PUSH1 0x0 DUP4 ADD MSTORE PUSH2 0x24D0 DUP2 PUSH2 0x2494 JUMP JUMPDEST SWAP1 POP SWAP2 SWAP1 POP JUMP JUMPDEST PUSH1 0x0 PUSH2 0x24E2 DUP3 PUSH2 0x1523 JUMP JUMPDEST SWAP2 POP PUSH2 0x24ED DUP4 PUSH2 0x1523 JUMP JUMPDEST SWAP3 POP DUP3 DUP3 ADD SWAP1 POP DUP1 DUP3 GT ISZERO PUSH2 0x2505 JUMPI PUSH2 0x2504 PUSH2 0x1DBA JUMP JUMPDEST JUMPDEST SWAP3 SWAP2 POP POP JUMP JUMPDEST PUSH1 0x0 PUSH2 0x2516 DUP3 PUSH2 0x1523 JUMP JUMPDEST SWAP2 POP PUSH2 0x2521 DUP4 PUSH2 0x1523 JUMP JUMPDEST SWAP3 POP DUP3 DUP3 SUB SWAP1 POP DUP2 DUP2 GT ISZERO PUSH2 0x2539 JUMPI PUSH2 0x2538 PUSH2 0x1DBA JUMP JUMPDEST JUMPDEST SWAP3 SWAP2 POP POP JUMP JUMPDEST PUSH1 0x0 PUSH1 0x40 DUP3 ADD SWAP1 POP PUSH2 0x2554 PUSH1 0x0 DUP4 ADD DUP6 PUSH2 0x1CC2 JUMP JUMPDEST PUSH2 0x2561 PUSH1 0x20 DUP4 ADD DUP5 PUSH2 0x152D JUMP JUMPDEST SWAP4 SWAP3 POP POP POP JUMP JUMPDEST PUSH2 0x2571 DUP2 PUSH2 0x18F0 JUMP JUMPDEST DUP2 EQ PUSH2 0x257C JUMPI PUSH1 0x0 DUP1 REVERT JUMPDEST POP JUMP JUMPDEST PUSH1 0x0 DUP2 MLOAD SWAP1 POP PUSH2 0x258E DUP2 PUSH2 0x2568 JUMP JUMPDEST SWAP3 SWAP2 POP POP JUMP JUMPDEST PUSH1 0x0 PUSH1 0x20 DUP3 DUP5 SUB SLT ISZERO PUSH2 0x25AA JUMPI PUSH2 0x25A9 PUSH2 0x1561 JUMP JUMPDEST JUMPDEST PUSH1 0x0 PUSH2 0x25B8 DUP5 DUP3 DUP6 ADD PUSH2 0x257F JUMP JUMPDEST SWAP2 POP POP SWAP3 SWAP2 POP POP JUMP JUMPDEST PUSH32 0x5374616B65207769746864726177616C206661696C6564000000000000000000 PUSH1 0x0 DUP3 ADD MSTORE POP JUMP JUMPDEST PUSH1 0x0 PUSH2 0x25F7 PUSH1 0x17 DUP4 PUSH2 0x1C78 JUMP JUMPDEST SWAP2 POP PUSH2 0x2602 DUP3 PUSH2 0x25C1 JUMP JUMPDEST PUSH1 0x20 DUP3 ADD SWAP1 POP SWAP2 SWAP1 POP JUMP JUMPDEST PUSH1 0x0 PUSH1 0x20 DUP3 ADD SWAP1 POP DUP2 DUP2 SUB PUSH1 0x0 DUP4 ADD MSTORE PUSH2 0x2626 DUP2 PUSH2 0x25EA JUMP JUMPDEST SWAP1 POP SWAP2 SWAP1 POP JUMP JUMPDEST PUSH1 0x0 PUSH2 0x2638 DUP3 PUSH2 0x1523 JUMP JUMPDEST SWAP2 POP PUSH2 0x2643 DUP4 PUSH2 0x1523 JUMP JUMPDEST SWAP3 POP DUP3 DUP3 MUL PUSH2 0x2651 DUP2 PUSH2 0x1523 JUMP JUMPDEST SWAP2 POP DUP3 DUP3 DIV DUP5 EQ DUP4 ISZERO OR PUSH2 0x2668 JUMPI PUSH2 0x2667 PUSH2 0x1DBA JUMP JUMPDEST JUMPDEST POP SWAP3 SWAP2 POP POP JUMP JUMPDEST PUSH32 0x4E487B7100000000000000000000000000000000000000000000000000000000 PUSH1 0x0 MSTORE PUSH1 0x12 PUSH1 0x4 MSTORE PUSH1 0x24 PUSH1 0x0 REVERT JUMPDEST PUSH1 0x0 PUSH2 0x26A9 DUP3 PUSH2 0x1523 JUMP JUMPDEST SWAP2 POP PUSH2 0x26B4 DUP4 PUSH2 0x1523 JUMP JUMPDEST SWAP3 POP DUP3 PUSH2 0x26C4 JUMPI PUSH2 0x26C3 PUSH2 0x266F JUMP JUMPDEST JUMPDEST DUP3 DUP3 DIV SWAP1 POP SWAP3 SWAP2 POP POP JUMP JUMPDEST PUSH1 0x0 PUSH1 0x60 DUP3 ADD SWAP1 POP PUSH2 0x26E4 PUSH1 0x0 DUP4 ADD DUP7 PUSH2 0x1CC2 JUMP JUMPDEST PUSH2 0x26F1 PUSH1 0x20 DUP4 ADD DUP6 PUSH2 0x1CC2 JUMP JUMPDEST PUSH2 0x26FE PUSH1 0x40 DUP4 ADD DUP5 PUSH2 0x152D JUMP JUMPDEST SWAP5 SWAP4 POP POP POP POP JUMP JUMPDEST PUSH32 0x5374616B65207472616E73666572206661696C65640000000000000000000000 PUSH1 0x0 DUP3 ADD MSTORE POP JUMP JUMPDEST PUSH1 0x0 PUSH2 0x273C PUSH1 0x15 DUP4 PUSH2 0x1C78 JUMP JUMPDEST SWAP2 POP PUSH2 0x2747 DUP3 PUSH2 0x2706 JUMP JUMPDEST PUSH1 0x20 DUP3 ADD SWAP1 POP SWAP2 SWAP1 POP JUMP JUMPDEST PUSH1 0x0 PUSH1 0x20 DUP3 ADD SWAP1 POP DUP2 DUP2 SUB PUSH1 0x0 DUP4 ADD MSTORE PUSH2 0x276B DUP2 PUSH2 0x272F JUMP JUMPDEST SWAP1 POP SWAP2 SWAP1 POP JUMP INVALID LOG2 PUSH5 0x6970667358 0x22 SLT KECCAK256 0xC6 PUSH10 0xC89D768921272586AAA0 0xD0 0x25 SAR PUSH14 0x41F8827FD54588EE44937C15BF8C 0x4E 0xC PUSH5 0x736F6C6343 STOP ADDMOD SLT STOP CALLER "},"methodIdentifiers":{"FIXED_STAKE()":"a898829d","ProId()":"623be092","REWARD_PER_HOUR()":"382926c3","ReqId()":"1dee21e9","addDevicesByProvider(uint256,uint256,uint256,string)":"0c584f83","approval()":"39788bc8","calRewardPerDevice(address,uint256)":"73e2d229","compare(string,string)":"3a96fdd7","count()":"06661abd","createProvide(string,uint256,uint256,uint256)":"7962cb98","finishUseByProvider(uint256,uint256,uint256,uint256)":"63882f9a","getAllAvailableDevices(uint256)":"09b0d43c","makeRequestToProvider(uint256,uint256,string,uint256,uint256)":"561a72be","providers(uint256)":"50f3fc81","requests(uint256)":"81d12c58"}}}}}