{
  "_format": "hh-sol-artifact-1",
  "contractName": "FileShare",
  "sourceName": "contracts/FileShare.sol",
  "abi": [
    {
      "inputs": [
        {
          "internalType": "address",
          "name": "tokenAddress",
          "type": "address"
        },
        {
          "internalType": "uint256",
          "name": "_FIXED_STAKE",
          "type": "uint256"
        }
      ],
      "stateMutability": "nonpayable",
      "type": "constructor"
    },
    {
      "anonymous": false,
      "inputs": [
        {
          "indexed": true,
          "internalType": "uint256",
          "name": "idOfDevice",
          "type": "uint256"
        },
        {
          "indexed": true,
          "internalType": "uint256",
          "name": "idOfStake",
          "type": "uint256"
        }
      ],
      "name": "DeviceAdded",
      "type": "event"
    },
    {
      "anonymous": false,
      "inputs": [
        {
          "indexed": true,
          "internalType": "uint256",
          "name": "Reward",
          "type": "uint256"
        }
      ],
      "name": "EarnedRewardByProvider",
      "type": "event"
    },
    {
      "anonymous": false,
      "inputs": [
        {
          "indexed": true,
          "internalType": "uint256",
          "name": "idOfRequest",
          "type": "uint256"
        }
      ],
      "name": "RequestAdded",
      "type": "event"
    },
    {
      "anonymous": false,
      "inputs": [
        {
          "indexed": true,
          "internalType": "uint256",
          "name": "tokensByProvider",
          "type": "uint256"
        },
        {
          "indexed": true,
          "internalType": "uint256",
          "name": "tokenByRequestor",
          "type": "uint256"
        }
      ],
      "name": "RewardEarned",
      "type": "event"
    },
    {
      "inputs": [
        {
          "internalType": "uint256",
          "name": "_reqID",
          "type": "uint256"
        }
      ],
      "name": "AcceptDeviceRequestByProvider",
      "outputs": [],
      "stateMutability": "nonpayable",
      "type": "function"
    },
    {
      "inputs": [],
      "name": "FIXED_STAKE",
      "outputs": [
        {
          "internalType": "uint256",
          "name": "",
          "type": "uint256"
        }
      ],
      "stateMutability": "view",
      "type": "function"
    },
    {
      "inputs": [
        {
          "internalType": "uint256",
          "name": "_deviceID",
          "type": "uint256"
        },
        {
          "internalType": "uint256",
          "name": "_hrsToStake",
          "type": "uint256"
        }
      ],
      "name": "RequestDeviceUse",
      "outputs": [],
      "stateMutability": "nonpayable",
      "type": "function"
    },
    {
      "inputs": [
        {
          "internalType": "uint256",
          "name": "_deviceid",
          "type": "uint256"
        },
        {
          "internalType": "uint256",
          "name": "_requestID",
          "type": "uint256"
        }
      ],
      "name": "TransferEarnedTokenToProvider",
      "outputs": [],
      "stateMutability": "payable",
      "type": "function"
    },
    {
      "inputs": [
        {
          "internalType": "uint256",
          "name": "_requestorID",
          "type": "uint256"
        }
      ],
      "name": "TransferTokenFromRequestorInternal",
      "outputs": [
        {
          "internalType": "uint256",
          "name": "",
          "type": "uint256"
        }
      ],
      "stateMutability": "payable",
      "type": "function"
    },
    {
      "inputs": [
        {
          "internalType": "uint256",
          "name": "_deviceid",
          "type": "uint256"
        },
        {
          "internalType": "address",
          "name": "_provider",
          "type": "address"
        },
        {
          "internalType": "uint256",
          "name": "_requestid",
          "type": "uint256"
        }
      ],
      "name": "TransferTokenToProviderInternal",
      "outputs": [
        {
          "internalType": "uint256",
          "name": "Reward",
          "type": "uint256"
        }
      ],
      "stateMutability": "payable",
      "type": "function"
    },
    {
      "inputs": [
        {
          "internalType": "uint256",
          "name": "_reqID",
          "type": "uint256"
        }
      ],
      "name": "TransferTokenToRequestor",
      "outputs": [],
      "stateMutability": "payable",
      "type": "function"
    },
    {
      "inputs": [],
      "name": "ViewDeviceRequestByRequestor",
      "outputs": [
        {
          "internalType": "uint256[]",
          "name": "",
          "type": "uint256[]"
        }
      ],
      "stateMutability": "view",
      "type": "function"
    },
    {
      "inputs": [
        {
          "internalType": "uint256",
          "name": "_deviceID",
          "type": "uint256"
        },
        {
          "internalType": "uint256",
          "name": "_reqID",
          "type": "uint256"
        }
      ],
      "name": "WithdrawDeviceUsebyRequestor",
      "outputs": [],
      "stateMutability": "nonpayable",
      "type": "function"
    },
    {
      "inputs": [
        {
          "internalType": "string",
          "name": "_description",
          "type": "string"
        },
        {
          "internalType": "uint256",
          "name": "_space",
          "type": "uint256"
        },
        {
          "internalType": "uint256",
          "name": "_hrs",
          "type": "uint256"
        },
        {
          "internalType": "uint256",
          "name": "_tokenrate",
          "type": "uint256"
        }
      ],
      "name": "addDevice",
      "outputs": [],
      "stateMutability": "nonpayable",
      "type": "function"
    },
    {
      "inputs": [
        {
          "internalType": "string",
          "name": "str1",
          "type": "string"
        },
        {
          "internalType": "string",
          "name": "str2",
          "type": "string"
        }
      ],
      "name": "compare",
      "outputs": [
        {
          "internalType": "bool",
          "name": "",
          "type": "bool"
        }
      ],
      "stateMutability": "pure",
      "type": "function"
    },
    {
      "inputs": [
        {
          "internalType": "uint256",
          "name": "",
          "type": "uint256"
        }
      ],
      "name": "deviceDetails",
      "outputs": [
        {
          "internalType": "string",
          "name": "description",
          "type": "string"
        },
        {
          "internalType": "uint256",
          "name": "space",
          "type": "uint256"
        },
        {
          "internalType": "uint256",
          "name": "hrs",
          "type": "uint256"
        },
        {
          "internalType": "uint256",
          "name": "tokenRate",
          "type": "uint256"
        },
        {
          "internalType": "uint256",
          "name": "devid",
          "type": "uint256"
        },
        {
          "internalType": "bool",
          "name": "engage",
          "type": "bool"
        },
        {
          "internalType": "address payable",
          "name": "recipient",
          "type": "address"
        },
        {
          "internalType": "uint256",
          "name": "finalRequestID",
          "type": "uint256"
        },
        {
          "internalType": "uint256",
          "name": "timestamp",
          "type": "uint256"
        },
        {
          "internalType": "uint256",
          "name": "stakeid",
          "type": "uint256"
        }
      ],
      "stateMutability": "view",
      "type": "function"
    },
    {
      "inputs": [],
      "name": "deviceID",
      "outputs": [
        {
          "internalType": "uint256",
          "name": "",
          "type": "uint256"
        }
      ],
      "stateMutability": "view",
      "type": "function"
    },
    {
      "inputs": [],
      "name": "getAllDevices",
      "outputs": [
        {
          "internalType": "string[]",
          "name": "",
          "type": "string[]"
        },
        {
          "internalType": "uint256[]",
          "name": "",
          "type": "uint256[]"
        },
        {
          "internalType": "uint256[]",
          "name": "",
          "type": "uint256[]"
        },
        {
          "internalType": "uint256[]",
          "name": "",
          "type": "uint256[]"
        },
        {
          "internalType": "uint256[]",
          "name": "",
          "type": "uint256[]"
        }
      ],
      "stateMutability": "view",
      "type": "function"
    },
    {
      "inputs": [
        {
          "internalType": "uint256",
          "name": "_deviceID",
          "type": "uint256"
        }
      ],
      "name": "getDeviceByDeviceID",
      "outputs": [
        {
          "internalType": "string",
          "name": "",
          "type": "string"
        },
        {
          "internalType": "uint256",
          "name": "",
          "type": "uint256"
        },
        {
          "internalType": "uint256",
          "name": "",
          "type": "uint256"
        },
        {
          "internalType": "uint256",
          "name": "",
          "type": "uint256"
        },
        {
          "internalType": "bool",
          "name": "",
          "type": "bool"
        }
      ],
      "stateMutability": "view",
      "type": "function"
    },
    {
      "inputs": [],
      "name": "getDeviceByProvider",
      "outputs": [
        {
          "internalType": "string[]",
          "name": "",
          "type": "string[]"
        },
        {
          "internalType": "uint256[]",
          "name": "",
          "type": "uint256[]"
        },
        {
          "internalType": "uint256[]",
          "name": "",
          "type": "uint256[]"
        },
        {
          "internalType": "uint256[]",
          "name": "",
          "type": "uint256[]"
        },
        {
          "internalType": "uint256[]",
          "name": "",
          "type": "uint256[]"
        }
      ],
      "stateMutability": "view",
      "type": "function"
    },
    {
      "inputs": [
        {
          "internalType": "address",
          "name": "",
          "type": "address"
        }
      ],
      "name": "providers",
      "outputs": [
        {
          "internalType": "address payable",
          "name": "recipient",
          "type": "address"
        }
      ],
      "stateMutability": "view",
      "type": "function"
    },
    {
      "inputs": [
        {
          "internalType": "uint256",
          "name": "_deviceID",
          "type": "uint256"
        }
      ],
      "name": "removeDevice",
      "outputs": [],
      "stateMutability": "nonpayable",
      "type": "function"
    },
    {
      "inputs": [],
      "name": "requestID",
      "outputs": [
        {
          "internalType": "uint256",
          "name": "",
          "type": "uint256"
        }
      ],
      "stateMutability": "view",
      "type": "function"
    },
    {
      "inputs": [
        {
          "internalType": "address",
          "name": "",
          "type": "address"
        }
      ],
      "name": "requestors",
      "outputs": [
        {
          "internalType": "address",
          "name": "requestorAddress",
          "type": "address"
        },
        {
          "internalType": "uint256",
          "name": "paidTokensTotal",
          "type": "uint256"
        }
      ],
      "stateMutability": "view",
      "type": "function"
    },
    {
      "inputs": [
        {
          "internalType": "uint256",
          "name": "",
          "type": "uint256"
        }
      ],
      "name": "requests",
      "outputs": [
        {
          "internalType": "uint256",
          "name": "reqID",
          "type": "uint256"
        },
        {
          "internalType": "uint256",
          "name": "devID",
          "type": "uint256"
        },
        {
          "internalType": "address",
          "name": "deviceOwner",
          "type": "address"
        },
        {
          "internalType": "uint256",
          "name": "hrsStake",
          "type": "uint256"
        },
        {
          "internalType": "bool",
          "name": "engage",
          "type": "bool"
        },
        {
          "internalType": "address",
          "name": "reqAddress",
          "type": "address"
        },
        {
          "internalType": "uint256",
          "name": "req_creation_timestamp",
          "type": "uint256"
        },
        {
          "internalType": "uint256",
          "name": "req_accept_timestamp",
          "type": "uint256"
        },
        {
          "internalType": "bool",
          "name": "request_end",
          "type": "bool"
        }
      ],
      "stateMutability": "view",
      "type": "function"
    }
  ],
  "bytecode": "0x60806040523480156200001157600080fd5b50604051620043ab380380620043ab83398181016040528101906200003791906200016d565b81600260006101000a81548173ffffffffffffffffffffffffffffffffffffffff021916908373ffffffffffffffffffffffffffffffffffffffff16021790555033600160006101000a81548173ffffffffffffffffffffffffffffffffffffffff021916908373ffffffffffffffffffffffffffffffffffffffff160217905550806000819055505050620001b4565b600080fd5b600073ffffffffffffffffffffffffffffffffffffffff82169050919050565b6000620000fa82620000cd565b9050919050565b6200010c81620000ed565b81146200011857600080fd5b50565b6000815190506200012c8162000101565b92915050565b6000819050919050565b620001478162000132565b81146200015357600080fd5b50565b60008151905062000167816200013c565b92915050565b60008060408385031215620001875762000186620000c8565b5b600062000197858286016200011b565b9250506020620001aa8582860162000156565b9150509250929050565b6141e780620001c46000396000f3fe60806040526004361061012a5760003560e01c80638f779201116100ab578063de0b0dd81161006f578063de0b0dd81461041c578063e3b78ea214610438578063e9bb072714610454578063f31bbead14610483578063f82c6182146104b3578063fcb99253146104f95761012a565b80638f7792011461031e5780639c157c0f14610349578063a898829d14610372578063af77c0cc1461039d578063b25983c8146103db5761012a565b80635fa8724b116100f25780635fa8724b1461022d5780636013cdc2146102565780637a2a530d1461028157806381d12c58146102b05780638254f136146102f55761012a565b80630787bc271461012f578063296df4fc1461016c57806330bcb311146101975780633a96fdd7146101c05780634fed9863146101fd575b600080fd5b34801561013b57600080fd5b5061015660048036038101906101519190612ef6565b610522565b6040516101639190612f44565b60405180910390f35b34801561017857600080fd5b50610181610560565b60405161018e9190613027565b60405180910390f35b3480156101a357600080fd5b506101be60048036038101906101b99190613075565b6105fe565b005b3480156101cc57600080fd5b506101e760048036038101906101e291906131fb565b6109ea565b6040516101f4919061328e565b60405180910390f35b610217600480360381019061021291906132a9565b610a56565b604051610224919061330b565b60405180910390f35b34801561023957600080fd5b50610254600480360381019061024f9190613326565b610e78565b005b34801561026257600080fd5b5061026b61186c565b604051610278919061330b565b60405180910390f35b34801561028d57600080fd5b50610296611872565b6040516102a795949392919061349d565b60405180910390f35b3480156102bc57600080fd5b506102d760048036038101906102d29190613326565b611ab0565b6040516102ec99989796959493929190613522565b60405180910390f35b34801561030157600080fd5b5061031c60048036038101906103179190613075565b611b58565b005b34801561032a57600080fd5b50610333611c7c565b604051610340919061330b565b60405180910390f35b34801561035557600080fd5b50610370600480360381019061036b91906135af565b611c82565b005b34801561037e57600080fd5b50610387612215565b604051610394919061330b565b60405180910390f35b3480156103a957600080fd5b506103c460048036038101906103bf9190612ef6565b61221b565b6040516103d2929190613632565b60405180910390f35b3480156103e757600080fd5b5061040260048036038101906103fd9190613326565b61225f565b6040516104139594939291906136a5565b60405180910390f35b61043660048036038101906104319190613326565b612343565b005b610452600480360381019061044d9190613075565b6124a9565b005b34801561046057600080fd5b506104696126f3565b60405161047a95949392919061349d565b60405180910390f35b61049d60048036038101906104989190613326565b61297f565b6040516104aa919061330b565b60405180910390f35b3480156104bf57600080fd5b506104da60048036038101906104d59190613326565b612a0e565b6040516104f09a999897969594939291906136ff565b60405180910390f35b34801561050557600080fd5b50610520600480360381019061051b9190613326565b612b17565b005b60036020528060005260406000206000915090508060060160009054906101000a900473ffffffffffffffffffffffffffffffffffffffff16905081565b60606000600360003373ffffffffffffffffffffffffffffffffffffffff1673ffffffffffffffffffffffffffffffffffffffff1681526020019081526020016000209050806008018054806020026020016040519081016040528092919081815260200182805480156105f357602002820191906000526020600020905b8154815260200190600101908083116105df575b505050505091505090565b6000600460008481526020019081526020016000209050600015158160050160009054906101000a900460ff1615151461066d576040517f08c379a0000000000000000000000000000000000000000000000000000000008152600401610664906137ee565b60405180910390fd5b60106000815461067c9061383d565b919050819055506000600f60006010548152602001908152602001600020905060105481600001819055508381600101819055508160050160019054906101000a900473ffffffffffffffffffffffffffffffffffffffff168160020160006101000a81548173ffffffffffffffffffffffffffffffffffffffff021916908373ffffffffffffffffffffffffffffffffffffffff16021790555082816003018190555060008160040160006101000a81548160ff021916908315150217905550338160040160016101000a81548173ffffffffffffffffffffffffffffffffffffffff021916908373ffffffffffffffffffffffffffffffffffffffff16021790555042816005018190555060008160090160006101000a81548160ff0219169083151502179055506000601160003373ffffffffffffffffffffffffffffffffffffffff1673ffffffffffffffffffffffffffffffffffffffff1681526020019081526020016000209050806000016010549080600181540180825580915050600190039060005260206000200160009091909190915055338160010160006101000a81548173ffffffffffffffffffffffffffffffffffffffff021916908373ffffffffffffffffffffffffffffffffffffffff1602179055508260030154846108699190613885565b8160020181905550826006016010549080600181540180825580915050600190039060005260206000200160009091909190915055826007018490806001815401808255809150506001900390600052602060002001600090919091909150556000600360008560050160019054906101000a900473ffffffffffffffffffffffffffffffffffffffff1673ffffffffffffffffffffffffffffffffffffffff1673ffffffffffffffffffffffffffffffffffffffff168152602001908152602001600020905080600801869080600181540180825580915050600190039060005260206000200160009091909190915055806008016010549080600181540180825580915050600190039060005260206000200160009091909190915055806008018590806001815401808255809150506001900390600052602060002001600090919091909150556010547f1241757208f08d63f291d85cafba51f9c01fc80b77f21fb69b4b7ce9908b9a0e60405160405180910390a2505050505050565b600081518351146109fe5760009050610a50565b81604051602001610a0f919061391b565b6040516020818303038152906040528051906020012083604051602001610a36919061391b565b604051602081830303815290604052805190602001201490505b92915050565b600080600360008573ffffffffffffffffffffffffffffffffffffffff1673ffffffffffffffffffffffffffffffffffffffff168152602001908152602001600020905060006004600087815260200190815260200160002090506000600f6000868152602001908152602001600020905060005b8360070180549050811015610e6c5782600a0154846007018281548110610af557610af4613932565b5b906000526020600020015403610e59576000600960008973ffffffffffffffffffffffffffffffffffffffff1673ffffffffffffffffffffffffffffffffffffffff168152602001908152602001600020600085600a01548152602001908152602001600020600101549050600060018460080180549050610b779190613961565b90506000846008018281548110610b9157610b90613932565b5b906000526020600020015442610ba79190613961565b90506000610e1082610bb991906139c4565b90506000876003015482610bcd9190613885565b85610bd891906139f5565b9050600260009054906101000a900473ffffffffffffffffffffffffffffffffffffffff1673ffffffffffffffffffffffffffffffffffffffff1663a9059cbb8d836040518363ffffffff1660e01b8152600401610c37929190613632565b6020604051808303816000875af1158015610c56573d6000803e3d6000fd5b505050506040513d601f19601f82011682018060405250810190610c7a9190613a77565b5080600860008e73ffffffffffffffffffffffffffffffffffffffff1673ffffffffffffffffffffffffffffffffffffffff16815260200190815260200160002081905550604051806060016040528089600a015481526020016000815260200142815250600960008e73ffffffffffffffffffffffffffffffffffffffff1673ffffffffffffffffffffffffffffffffffffffff16815260200190815260200160002060008a600a015481526020019081526020016000206000820151816000015560208201518160010155604082015181600201559050506000601160008960040160019054906101000a900473ffffffffffffffffffffffffffffffffffffffff1673ffffffffffffffffffffffffffffffffffffffff1673ffffffffffffffffffffffffffffffffffffffff1681526020019081526020016000209050886003015483610dcb9190613885565b8160020154610dda9190613961565b816002018190555087600701896003015484610df69190613885565b908060018154018082558091505060019003906000526020600020016000909190919091505587600801429080600181540180825580915050600190039060005260206000200160009091909190915055819a5050505050505050505050610e71565b8080610e649061383d565b915050610acb565b505050505b9392505050565b60006004600083815260200190815260200160002090506000600360008360050160019054906101000a900473ffffffffffffffffffffffffffffffffffffffff1673ffffffffffffffffffffffffffffffffffffffff1673ffffffffffffffffffffffffffffffffffffffff1681526020019081526020016000209050600015158260050160009054906101000a900460ff16151514610f4e576040517f08c379a0000000000000000000000000000000000000000000000000000000008152600401610f45906137ee565b60405180910390fd5b6000600760003373ffffffffffffffffffffffffffffffffffffffff1673ffffffffffffffffffffffffffffffffffffffff1681526020019081526020016000205411610fd0576040517f08c379a0000000000000000000000000000000000000000000000000000000008152600401610fc790613af0565b60405180910390fd5b600960003373ffffffffffffffffffffffffffffffffffffffff1673ffffffffffffffffffffffffffffffffffffffff168152602001908152602001600020600083600a01548152602001908152602001600020600201544211611069576040517f08c379a000000000000000000000000000000000000000000000000000000000815260040161106090613b5c565b60405180910390fd5b6000600960003373ffffffffffffffffffffffffffffffffffffffff1673ffffffffffffffffffffffffffffffffffffffff168152602001908152602001600020600084600a015481526020019081526020016000206001015411611103576040517f08c379a00000000000000000000000000000000000000000000000000000000081526004016110fa90613bc8565b60405180910390fd5b3373ffffffffffffffffffffffffffffffffffffffff168260050160019054906101000a900473ffffffffffffffffffffffffffffffffffffffff1673ffffffffffffffffffffffffffffffffffffffff1614611195576040517f08c379a000000000000000000000000000000000000000000000000000000000815260040161118c90613c5a565b60405180910390fd5b60005b600a805490508110156113b85760006112e38460000180546111b990613ca9565b80601f01602080910402602001604051908101604052809291908181526020018280546111e590613ca9565b80156112325780601f1061120757610100808354040283529160200191611232565b820191906000526020600020905b81548152906001019060200180831161121557829003601f168201915b5050505050600a848154811061124b5761124a613932565b5b90600052602060002001805461126090613ca9565b80601f016020809104026020016040519081016040528092919081815260200182805461128c90613ca9565b80156112d95780601f106112ae576101008083540402835291602001916112d9565b820191906000526020600020905b8154815290600101906020018083116112bc57829003601f168201915b50505050506109ea565b905060011515811515036113a457600a828154811061130557611304613932565b5b90600052602060002001600061131b9190612e27565b600c828154811061132f5761132e613932565b5b9060005260206000200160009055600b828154811061135157611350613932565b5b9060005260206000200160009055600d828154811061137357611372613932565b5b9060005260206000200160009055600e828154811061139557611394613932565b5b90600052602060002001600090555b5080806113b09061383d565b915050611198565b5060005b816000018054905081101561164757600061150b8460000180546113df90613ca9565b80601f016020809104026020016040519081016040528092919081815260200182805461140b90613ca9565b80156114585780601f1061142d57610100808354040283529160200191611458565b820191906000526020600020905b81548152906001019060200180831161143b57829003601f168201915b505050505084600001848154811061147357611472613932565b5b90600052602060002001805461148890613ca9565b80601f01602080910402602001604051908101604052809291908181526020018280546114b490613ca9565b80156115015780601f106114d657610100808354040283529160200191611501565b820191906000526020600020905b8154815290600101906020018083116114e457829003601f168201915b50505050506109ea565b90506001151581151503611633576040518060400160405280600181526020017f200000000000000000000000000000000000000000000000000000000000000081525083600001838154811061156557611564613932565b5b90600052602060002001908161157b9190613e86565b50600083600201838154811061159457611593613932565b5b906000526020600020018190555060008360060160006101000a81548173ffffffffffffffffffffffffffffffffffffffff021916908373ffffffffffffffffffffffffffffffffffffffff16021790555060008360010183815481106115fe576115fd613932565b5b9060005260206000200181905550600083600301838154811061162457611623613932565b5b90600052602060002001819055505b50808061163f9061383d565b9150506113bc565b506040518060400160405280600181526020017f200000000000000000000000000000000000000000000000000000000000000081525082600001908161168e9190613e86565b506000826002018190555060008260050160016101000a81548173ffffffffffffffffffffffffffffffffffffffff021916908373ffffffffffffffffffffffffffffffffffffffff1602179055506000826001018190555060008260030181905550600260009054906101000a900473ffffffffffffffffffffffffffffffffffffffff1673ffffffffffffffffffffffffffffffffffffffff1663a9059cbb336000546040518363ffffffff1660e01b8152600401611750929190613632565b6020604051808303816000875af115801561176f573d6000803e3d6000fd5b505050506040513d601f19601f820116820180604052508101906117939190613a77565b6117d2576040517f08c379a00000000000000000000000000000000000000000000000000000000081526004016117c990613fa4565b60405180910390fd5b604051806060016040528083600a015481526020016000815260200142815250600960003373ffffffffffffffffffffffffffffffffffffffff1673ffffffffffffffffffffffffffffffffffffffff168152602001908152602001600020600084600a01548152602001908152602001600020600082015181600001556020820151816001015560408201518160020155905050505050565b60055481565b6060806060806060600a600b600c600d600e84805480602002602001604051908101604052809291908181526020016000905b828210156119515783829060005260206000200180546118c490613ca9565b80601f01602080910402602001604051908101604052809291908181526020018280546118f090613ca9565b801561193d5780601f106119125761010080835404028352916020019161193d565b820191906000526020600020905b81548152906001019060200180831161192057829003601f168201915b5050505050815260200190600101906118a5565b505050509450838054806020026020016040519081016040528092919081815260200182805480156119a257602002820191906000526020600020905b81548152602001906001019080831161198e575b50505050509350828054806020026020016040519081016040528092919081815260200182805480156119f457602002820191906000526020600020905b8154815260200190600101908083116119e0575b5050505050925081805480602002602001604051908101604052809291908181526020018280548015611a4657602002820191906000526020600020905b815481526020019060010190808311611a32575b5050505050915080805480602002602001604051908101604052809291908181526020018280548015611a9857602002820191906000526020600020905b815481526020019060010190808311611a84575b50505050509050945094509450945094509091929394565b600f6020528060005260406000206000915090508060000154908060010154908060020160009054906101000a900473ffffffffffffffffffffffffffffffffffffffff16908060030154908060040160009054906101000a900460ff16908060040160019054906101000a900473ffffffffffffffffffffffffffffffffffffffff16908060050154908060060154908060090160009054906101000a900460ff16905089565b6000600f60008381526020019081526020016000209050600060046000858152602001908152602001600020905083826001015414611bcc576040517f08c379a0000000000000000000000000000000000000000000000000000000008152600401611bc390614036565b60405180910390fd5b6000611bfd858360050160019054906101000a900473ffffffffffffffffffffffffffffffffffffffff1686610a56565b90506000611c0a8561297f565b905060008460040160006101000a81548160ff02191690831515021790555060018460090160006101000a81548160ff02191690831515021790555080827fd3fd2d1b21f09449ca3e9e0d98252f08fe6c036211da942892c07431c0cd6ab760405160405180910390a3505050505050565b60105481565b6000600360003373ffffffffffffffffffffffffffffffffffffffff1673ffffffffffffffffffffffffffffffffffffffff16815260200190815260200160002090508060000185908060018154018082558091505060019003906000526020600020016000909190919091509081611cfb9190613e86565b50806001018490806001815401808255809150506001900390600052602060002001600090919091909150558060020183908060018154018082558091505060019003906000526020600020016000909190919091505580600501600090806001815401808255809150506001900390600052602060002090602091828204019190069091909190916101000a81548160ff021916908315150217905550338160060160006101000a81548173ffffffffffffffffffffffffffffffffffffffff021916908373ffffffffffffffffffffffffffffffffffffffff16021790555080600301829080600181540180825580915050600190039060005260206000200160009091909190915055600a85908060018154018082558091505060019003906000526020600020016000909190919091509081611e3b9190613e86565b50600b849080600181540180825580915050600190039060005260206000200160009091909190915055600c839080600181540180825580915050600190039060005260206000200160009091909190915055600d829080600181540180825580915050600190039060005260206000200160009091909190915055600560008154611ec69061383d565b919050819055506000600460006005548152602001908152602001600020905085816000019081611ef79190613e86565b5084816001018190555083816002018190555060008160050160006101000a81548160ff021916908315150217905550338160050160016101000a81548173ffffffffffffffffffffffffffffffffffffffff021916908373ffffffffffffffffffffffffffffffffffffffff1602179055506005548160040181905550828160030181905550816004016005549080600181540180825580915050600190039060005260206000200160009091909190915055600e6005549080600181540180825580915050600190039060005260206000200160009091909190915055600260009054906101000a900473ffffffffffffffffffffffffffffffffffffffff1673ffffffffffffffffffffffffffffffffffffffff166323b872dd33306000546040518463ffffffff1660e01b815260040161203793929190614056565b6020604051808303816000875af1158015612056573d6000803e3d6000fd5b505050506040513d601f19601f8201168201806040525081019061207a9190613a77565b6120b9576040517f08c379a00000000000000000000000000000000000000000000000000000000081526004016120b090613fa4565b60405180910390fd5b600760003373ffffffffffffffffffffffffffffffffffffffff1673ffffffffffffffffffffffffffffffffffffffff168152602001908152602001600020600081546121059061383d565b91905081905560068190555060405180606001604052806006548152602001600054815260200142815250600960003373ffffffffffffffffffffffffffffffffffffffff1673ffffffffffffffffffffffffffffffffffffffff1681526020019081526020016000206000600654815260200190815260200160002060008201518160000155602082015181600101556040820151816002015590505081600701600654908060018154018082558091505060019003906000526020600020016000909190919091505560065481600a01819055506006546005547fcffe835d53f1df94a8e4b883a1dae322a201c0ea7dd2d945f2c8508b258a1c3360405160405180910390a3505050505050565b60005481565b60116020528060005260406000206000915090508060010160009054906101000a900473ffffffffffffffffffffffffffffffffffffffff16908060020154905082565b60606000806000806000600460008881526020019081526020016000209050806000018160020154826001015483600301548460050160009054906101000a900460ff168480546122af90613ca9565b80601f01602080910402602001604051908101604052809291908181526020018280546122db90613ca9565b80156123285780601f106122fd57610100808354040283529160200191612328565b820191906000526020600020905b81548152906001019060200180831161230b57829003601f168201915b50505050509450955095509550955095505091939590929450565b6000601160003373ffffffffffffffffffffffffffffffffffffffff1673ffffffffffffffffffffffffffffffffffffffff16815260200190815260200160002090506000600f60008481526020019081526020016000209050600115158160090160009054906101000a900460ff161515146123f5576040517f08c379a00000000000000000000000000000000000000000000000000000000081526004016123ec906140ff565b60405180910390fd5b600260009054906101000a900473ffffffffffffffffffffffffffffffffffffffff1673ffffffffffffffffffffffffffffffffffffffff1663a9059cbb3384600201546040518363ffffffff1660e01b8152600401612456929190613632565b6020604051808303816000875af1158015612475573d6000803e3d6000fd5b505050506040513d601f19601f820116820180604052508101906124999190613a77565b5060008260020181905550505050565b6000600f6000838152602001908152602001600020905060006004600085815260200190815260200160002090506000600183600801805490506124ed9190613961565b9050600083600801828154811061250757612506613932565b5b90600052602060002001544261251d9190613961565b90506000610e108261252f91906139c4565b905060008460030154826125439190613885565b9050600260009054906101000a900473ffffffffffffffffffffffffffffffffffffffff1673ffffffffffffffffffffffffffffffffffffffff1663a9059cbb33836040518363ffffffff1660e01b81526004016125a2929190613632565b6020604051808303816000875af11580156125c1573d6000803e3d6000fd5b505050506040513d601f19601f820116820180604052508101906125e59190613a77565b5085600701819080600181540180825580915050600190039060005260206000200160009091909190915055856008014290806001815401808255809150506001900390600052602060002001600090919091909150556000601160008860040160019054906101000a900473ffffffffffffffffffffffffffffffffffffffff1673ffffffffffffffffffffffffffffffffffffffff1673ffffffffffffffffffffffffffffffffffffffff16815260200190815260200160002090508181600201546126b39190613961565b8160020181905550817f4a32684afa3332595fe84daed87088e168752352cefff15acb6d7a8e0d7419aa60405160405180910390a2505050505050505050565b60608060608060606000600360003373ffffffffffffffffffffffffffffffffffffffff1673ffffffffffffffffffffffffffffffffffffffff1681526020019081526020016000209050806000018160040182600201836001018460030184805480602002602001604051908101604052809291908181526020016000905b8282101561281f57838290600052602060002001805461279290613ca9565b80601f01602080910402602001604051908101604052809291908181526020018280546127be90613ca9565b801561280b5780601f106127e05761010080835404028352916020019161280b565b820191906000526020600020905b8154815290600101906020018083116127ee57829003601f168201915b505050505081526020019060010190612773565b5050505094508380548060200260200160405190810160405280929190818152602001828054801561287057602002820191906000526020600020905b81548152602001906001019080831161285c575b50505050509350828054806020026020016040519081016040528092919081815260200182805480156128c257602002820191906000526020600020905b8154815260200190600101908083116128ae575b505050505092508180548060200260200160405190810160405280929190818152602001828054801561291457602002820191906000526020600020905b815481526020019060010190808311612900575b505050505091508080548060200260200160405190810160405280929190818152602001828054801561296657602002820191906000526020600020905b815481526020019060010190808311612952575b5050505050905095509550955095509550509091929394565b600080600f6000848152602001908152602001600020905060006004600083600101548152602001908152602001600020905060008260060154426129c49190613961565b90506000610e10826129d691906139c4565b905060008185600301546129ea9190613961565b905060008460030154826129fe9190613885565b9050809650505050505050919050565b6004602052806000526040600020600091509050806000018054612a3190613ca9565b80601f0160208091040260200160405190810160405280929190818152602001828054612a5d90613ca9565b8015612aaa5780601f10612a7f57610100808354040283529160200191612aaa565b820191906000526020600020905b815481529060010190602001808311612a8d57829003601f168201915b5050505050908060010154908060020154908060030154908060040154908060050160009054906101000a900460ff16908060050160019054906101000a900473ffffffffffffffffffffffffffffffffffffffff169080600801549080600901549080600a015490508a565b6000600360003373ffffffffffffffffffffffffffffffffffffffff1673ffffffffffffffffffffffffffffffffffffffff16815260200190815260200160002090506000600f6000848152602001908152602001600020905060005b8260040180549050811015612cf3578160010154836004018281548110612b9e57612b9d613932565b5b906000526020600020015403612ce05760001515836005018281548110612bc857612bc7613932565b5b90600052602060002090602091828204019190069054906101000a900460ff16151514612c2a576040517f08c379a0000000000000000000000000000000000000000000000000000000008152600401612c2190614191565b60405180910390fd5b6001836005018281548110612c4257612c41613932565b5b90600052602060002090602091828204019190066101000a81548160ff02191690831515021790555060018260040160006101000a81548160ff0219169083151502179055508160070160009080600181540180825580915050600190039060005260206000200160009091909190915055816008014290806001815401808255809150506001900390600052602060002001600090919091909150555b8080612ceb9061383d565b915050612b74565b5060006004600083600101548152602001908152602001600020905083816008018190555042816009018190555060018160050160006101000a81548160ff021916908315150217905550428260060181905550600260009054906101000a900473ffffffffffffffffffffffffffffffffffffffff1673ffffffffffffffffffffffffffffffffffffffff166323b872dd8360040160019054906101000a900473ffffffffffffffffffffffffffffffffffffffff163085600301548560030154612dbf9190613885565b6040518463ffffffff1660e01b8152600401612ddd93929190614056565b6020604051808303816000875af1158015612dfc573d6000803e3d6000fd5b505050506040513d601f19601f82011682018060405250810190612e209190613a77565b5050505050565b508054612e3390613ca9565b6000825580601f10612e455750612e64565b601f016020900490600052602060002090810190612e639190612e67565b5b50565b5b80821115612e80576000816000905550600101612e68565b5090565b6000604051905090565b600080fd5b600080fd5b600073ffffffffffffffffffffffffffffffffffffffff82169050919050565b6000612ec382612e98565b9050919050565b612ed381612eb8565b8114612ede57600080fd5b50565b600081359050612ef081612eca565b92915050565b600060208284031215612f0c57612f0b612e8e565b5b6000612f1a84828501612ee1565b91505092915050565b6000612f2e82612e98565b9050919050565b612f3e81612f23565b82525050565b6000602082019050612f596000830184612f35565b92915050565b600081519050919050565b600082825260208201905092915050565b6000819050602082019050919050565b6000819050919050565b612f9e81612f8b565b82525050565b6000612fb08383612f95565b60208301905092915050565b6000602082019050919050565b6000612fd482612f5f565b612fde8185612f6a565b9350612fe983612f7b565b8060005b8381101561301a5781516130018882612fa4565b975061300c83612fbc565b925050600181019050612fed565b5085935050505092915050565b600060208201905081810360008301526130418184612fc9565b905092915050565b61305281612f8b565b811461305d57600080fd5b50565b60008135905061306f81613049565b92915050565b6000806040838503121561308c5761308b612e8e565b5b600061309a85828601613060565b92505060206130ab85828601613060565b9150509250929050565b600080fd5b600080fd5b6000601f19601f8301169050919050565b7f4e487b7100000000000000000000000000000000000000000000000000000000600052604160045260246000fd5b613108826130bf565b810181811067ffffffffffffffff82111715613127576131266130d0565b5b80604052505050565b600061313a612e84565b905061314682826130ff565b919050565b600067ffffffffffffffff821115613166576131656130d0565b5b61316f826130bf565b9050602081019050919050565b82818337600083830152505050565b600061319e6131998461314b565b613130565b9050828152602081018484840111156131ba576131b96130ba565b5b6131c584828561317c565b509392505050565b600082601f8301126131e2576131e16130b5565b5b81356131f284826020860161318b565b91505092915050565b6000806040838503121561321257613211612e8e565b5b600083013567ffffffffffffffff8111156132305761322f612e93565b5b61323c858286016131cd565b925050602083013567ffffffffffffffff81111561325d5761325c612e93565b5b613269858286016131cd565b9150509250929050565b60008115159050919050565b61328881613273565b82525050565b60006020820190506132a3600083018461327f565b92915050565b6000806000606084860312156132c2576132c1612e8e565b5b60006132d086828701613060565b93505060206132e186828701612ee1565b92505060406132f286828701613060565b9150509250925092565b61330581612f8b565b82525050565b600060208201905061332060008301846132fc565b92915050565b60006020828403121561333c5761333b612e8e565b5b600061334a84828501613060565b91505092915050565b600081519050919050565b600082825260208201905092915050565b6000819050602082019050919050565b600081519050919050565b600082825260208201905092915050565b60005b838110156133b957808201518184015260208101905061339e565b838111156133c8576000848401525b50505050565b60006133d98261337f565b6133e3818561338a565b93506133f381856020860161339b565b6133fc816130bf565b840191505092915050565b600061341383836133ce565b905092915050565b6000602082019050919050565b600061343382613353565b61343d818561335e565b93508360208202850161344f8561336f565b8060005b8581101561348b578484038952815161346c8582613407565b94506134778361341b565b925060208a01995050600181019050613453565b50829750879550505050505092915050565b600060a08201905081810360008301526134b78188613428565b905081810360208301526134cb8187612fc9565b905081810360408301526134df8186612fc9565b905081810360608301526134f38185612fc9565b905081810360808301526135078184612fc9565b90509695505050505050565b61351c81612eb8565b82525050565b600061012082019050613538600083018c6132fc565b613545602083018b6132fc565b613552604083018a613513565b61355f60608301896132fc565b61356c608083018861327f565b61357960a0830187613513565b61358660c08301866132fc565b61359360e08301856132fc565b6135a161010083018461327f565b9a9950505050505050505050565b600080600080608085870312156135c9576135c8612e8e565b5b600085013567ffffffffffffffff8111156135e7576135e6612e93565b5b6135f3878288016131cd565b945050602061360487828801613060565b935050604061361587828801613060565b925050606061362687828801613060565b91505092959194509250565b60006040820190506136476000830185613513565b61365460208301846132fc565b9392505050565b600082825260208201905092915050565b60006136778261337f565b613681818561365b565b935061369181856020860161339b565b61369a816130bf565b840191505092915050565b600060a08201905081810360008301526136bf818861366c565b90506136ce60208301876132fc565b6136db60408301866132fc565b6136e860608301856132fc565b6136f5608083018461327f565b9695505050505050565b600061014082019050818103600083015261371a818d61366c565b9050613729602083018c6132fc565b613736604083018b6132fc565b613743606083018a6132fc565b61375060808301896132fc565b61375d60a083018861327f565b61376a60c0830187612f35565b61377760e08301866132fc565b6137856101008301856132fc565b6137936101208301846132fc565b9b9a5050505050505050505050565b7f5468652064657669636520697320616c726561647920656e6761676564000000600082015250565b60006137d8601d8361365b565b91506137e3826137a2565b602082019050919050565b60006020820190508181036000830152613807816137cb565b9050919050565b7f4e487b7100000000000000000000000000000000000000000000000000000000600052601160045260246000fd5b600061384882612f8b565b91507fffffffffffffffffffffffffffffffffffffffffffffffffffffffffffffffff820361387a5761387961380e565b5b600182019050919050565b600061389082612f8b565b915061389b83612f8b565b9250817fffffffffffffffffffffffffffffffffffffffffffffffffffffffffffffffff04831182151516156138d4576138d361380e565b5b828202905092915050565b600081905092915050565b60006138f58261337f565b6138ff81856138df565b935061390f81856020860161339b565b80840191505092915050565b600061392782846138ea565b915081905092915050565b7f4e487b7100000000000000000000000000000000000000000000000000000000600052603260045260246000fd5b600061396c82612f8b565b915061397783612f8b565b92508282101561398a5761398961380e565b5b828203905092915050565b7f4e487b7100000000000000000000000000000000000000000000000000000000600052601260045260246000fd5b60006139cf82612f8b565b91506139da83612f8b565b9250826139ea576139e9613995565b5b828204905092915050565b6000613a0082612f8b565b9150613a0b83612f8b565b9250827fffffffffffffffffffffffffffffffffffffffffffffffffffffffffffffffff03821115613a4057613a3f61380e565b5b828201905092915050565b613a5481613273565b8114613a5f57600080fd5b50565b600081519050613a7181613a4b565b92915050565b600060208284031215613a8d57613a8c612e8e565b5b6000613a9b84828501613a62565b91505092915050565b7f4e6f207374616b6520666f756e64000000000000000000000000000000000000600082015250565b6000613ada600e8361365b565b9150613ae582613aa4565b602082019050919050565b60006020820190508181036000830152613b0981613acd565b9050919050565b7f54696d6520706572696f6420686173206e6f7420656c61707365642e00000000600082015250565b6000613b46601c8361365b565b9150613b5182613b10565b602082019050919050565b60006020820190508181036000830152613b7581613b39565b9050919050565b7f52657761726420616c726564792077697468647261776e000000000000000000600082015250565b6000613bb260178361365b565b9150613bbd82613b7c565b602082019050919050565b60006020820190508181036000830152613be181613ba5565b9050919050565b7f596f7520617265206e6f7420746865206f776e6572206f66207468652064657660008201527f6963652e00000000000000000000000000000000000000000000000000000000602082015250565b6000613c4460248361365b565b9150613c4f82613be8565b604082019050919050565b60006020820190508181036000830152613c7381613c37565b9050919050565b7f4e487b7100000000000000000000000000000000000000000000000000000000600052602260045260246000fd5b60006002820490506001821680613cc157607f821691505b602082108103613cd457613cd3613c7a565b5b50919050565b60008190508160005260206000209050919050565b60006020601f8301049050919050565b600082821b905092915050565b600060088302613d3c7fffffffffffffffffffffffffffffffffffffffffffffffffffffffffffffffff82613cff565b613d468683613cff565b95508019841693508086168417925050509392505050565b6000819050919050565b6000613d83613d7e613d7984612f8b565b613d5e565b612f8b565b9050919050565b6000819050919050565b613d9d83613d68565b613db1613da982613d8a565b848454613d0c565b825550505050565b600090565b613dc6613db9565b613dd1818484613d94565b505050565b5b81811015613df557613dea600082613dbe565b600181019050613dd7565b5050565b601f821115613e3a57613e0b81613cda565b613e1484613cef565b81016020851015613e23578190505b613e37613e2f85613cef565b830182613dd6565b50505b505050565b600082821c905092915050565b6000613e5d60001984600802613e3f565b1980831691505092915050565b6000613e768383613e4c565b9150826002028217905092915050565b613e8f8261337f565b67ffffffffffffffff811115613ea857613ea76130d0565b5b613eb28254613ca9565b613ebd828285613df9565b600060209050601f831160018114613ef05760008415613ede578287015190505b613ee88582613e6a565b865550613f50565b601f198416613efe86613cda565b60005b82811015613f2657848901518255600182019150602085019450602081019050613f01565b86831015613f435784890151613f3f601f891682613e4c565b8355505b6001600288020188555050505b505050505050565b7f5374616b65207472616e73666572206661696c65640000000000000000000000600082015250565b6000613f8e60158361365b565b9150613f9982613f58565b602082019050919050565b60006020820190508181036000830152613fbd81613f81565b9050919050565b7f546869732064657669636520646f65736e27742062656c6f6e6720746f20796f60008201527f752e000000000000000000000000000000000000000000000000000000000000602082015250565b600061402060228361365b565b915061402b82613fc4565b604082019050919050565b6000602082019050818103600083015261404f81614013565b9050919050565b600060608201905061406b6000830186613513565b6140786020830185613513565b61408560408301846132fc565b949350505050565b7f54686520646576696365206f662074686520746869732072657175657374206860008201527f6173206e6f7420656e6465640000000000000000000000000000000000000000602082015250565b60006140e9602c8361365b565b91506140f48261408d565b604082019050919050565b60006020820190508181036000830152614118816140dc565b9050919050565b7f5468652070726f766964657220697320616c726561647920627573792c206e6f60008201527f207265736f757263657320617661696c61626c652e0000000000000000000000602082015250565b600061417b60358361365b565b91506141868261411f565b604082019050919050565b600060208201905081810360008301526141aa8161416e565b905091905056fea264697066735822122067c9f7c200bb102b50fde50dcc3c66085ff08132f4556ae7d7853a10dd9894db64736f6c634300080f0033",
  "linkReferences": {},
  "deployedLinkReferences": {}
}